:020000040800F2
:1000000000C00020297E0008915900089959000875
:10001000A1590008A9590008B159000800000000C2
:10002000000000000000000000000000C53D0008C6
:10003000B959000800000000813D0008A93C0008F3
:10004000797E0008797E0008797E0008797E0008B4
:10005000797E0008797E00082D390008797E000835
:10006000797E000865380008797E0008B11C000818
:10007000797E0008797E0008797E0008797E000884
:10008000C7590008D5590008E3590008797E0008CF
:10009000797E0008797E0008797E0008E93700083B
:1000A000797E0008797E0008797E0008797E000854
:1000B000797E00080000000000000000797E000842
:1000C000797E00080000000000000000797E000832
:1000D00000000000797E0008F159000800000000CF
:1000E000797E0008797E0008000000000000000012
:1000F0000000000000000000000000000000000000
:10010000000000000000000000000000797E0008F0
:100110000000000000000000015A0008797E00087D
:10012000797E0008797E0008797E0008797E0008D3
:10013000797E0008000000000000000000000000C0
:10014000797E0008797E0008797E0008797E0008B3
:10015000155A0008235A0008797E0008797E0008A5
:10016000797E0008797E0008797E00080000000092
:10017000797E0008797E0008000000000000000081
:0C018000797E0008797E0008797E000876
:1001900070B54FF0FF0C4CF4E06C1CEA11541DBF1D
:1001A0001CEA135594EA0C0F95EA0C0F00F0DEF8E8
:1001B0002C4481EA030621EA4C5123EA4C5350EACD
:1001C000013518BF52EA033541F4801143F480131E
:1001D00038D0A0FB02CE4FF00005E1FB02E506F0AF
:1001E0000042E0FB03E54FF00006E1FB03569CF004
:1001F000000F18BF4EF0010EA4F1FF04B6F5007F0A
:1002000064F5407404D25FEA4E0E6D4146EB06067B
:1002100042EAC62141EA55514FEAC52040EA5E5004
:100220004FEACE2EB4F1FD0C88BFBCF5E06F1ED8AE
:10023000BEF1004F08BF5FEA500E50F1000041EBE5
:10024000045170BD06F0004646EA010140EA020092
:1002500081EA0301B4EB5C04C2BFD4EB0C0541EAB4
:10026000045170BD41F480114FF0000E013C00F3C9
:10027000AB8014F1360FDEBF002001F0004170BDED
:10028000C4F10004203C35DA0C341BDC04F1140406
:10029000C4F1200500FA05F320FA04F001FA05F292
:1002A00040EA020001F0004221F0004110EBD3705F
:1002B00021FA04F642EB06015EEA430E08BF20EA8B
:1002C000D37070BDC4F10C04C4F1200500FA04F32E
:1002D00020FA05F001FA04F240EA020001F00041C0
:1002E00010EBD37041F100015EEA430E08BF20EA33
:1002F000D37070BDC4F1200500FA05F24EEA020E7B
:1003000020FA04F301FA05F243EA020321FA04F0A9
:1003100001F0004121FA04F220EA020000EBD37060
:100320005EEA430E08BF20EAD37070BD94F0000F60
:100330000FD101F00046400041EB010111F4801F94
:1003400008BF013CF7D041EA060195F0000F18BF45
:10035000704703F00046520043EB030313F4801F81
:1003600008BF013DF7D043EA0603704794EA0C0F3B
:100370000CEA135518BF95EA0C0F0CD050EA410651
:1003800018BF52EA4306D1D181EA030101F00041CE
:100390004FF0000070BD50EA410606BF10461946F6
:1003A00052EA430619D094EA0C0F02D150EA013602
:1003B00013D195EA0C0F05D152EA03361CBF104643
:1003C00019460AD181EA030101F0004141F0FE41E2
:1003D00041F470014FF0000070BD41F0FE4141F466
:1003E000780170BD81F0004102E000BF83F000435E
:1003F00030B54FEA41044FEA430594EA050F08BFC0
:1004000090EA020F1FBF54EA000C55EA020C7FEA83
:10041000645C7FEA655C00F0E2804FEA5454D4EB00
:100420005555B8BF6D420CDD2C4480EA020281EACA
:10043000030382EA000083EA010180EA020281EA02
:100440000303362D88BF30BD11F0004F4FEA013154
:100450004FF4801C4CEA113102D0404261EB410163
:1004600013F0004F4FEA03334CEA133302D05242E9
:1004700063EB430394EA050F00F0A780A4F10104A5
:10048000D5F1200E0DDB02FA0EFC22FA05F28018DF
:1004900041F1000103FA0EF2801843FA05F35941C5
:1004A0000EE0A5F120050EF1200E012A03FA0EFC44
:1004B00028BF4CF0020C43FA05F3C01851EBE3716E
:1004C00001F0004507D54FF0000EDCF1000C7EEB8B
:1004D00000006EEB0101B1F5801F1BD3B1F5001FC9
:1004E0000CD349085FEA30004FEA3C0C04F10104E8
:1004F0004FEA445212F5800F80F09A80BCF1004F11
:1005000008BF5FEA500C50F1000041EB045141EA92
:10051000050130BD5FEA4C0C404141EB0101013C5B
:1005200028BFB1F5801FE9D291F0000F04BF01464A
:100530000020B1FA81F308BF2033A3F10B03B3F11C
:1005400020020CDA0C3208DD02F1140CC2F10C02AC
:1005500001FA0CF021FA02F10CE002F11402D8BF0A
:10056000C2F1200C01FA02F120FA0CFCDCBF41EAD6
:100570000C019040E41AA2BF01EB0451294330BDA5
:100580006FEA04041F3C1CDA0C340EDC04F1140482
:10059000C4F1200220FA04F001FA02F340EA030059
:1005A00021FA04F345EA030130BDC4F10C04C4F19F
:1005B000200220FA02F001FA04F340EA030029467F
:1005C00030BD21FA04F0294630BD94F0000F83F4C9
:1005D000801306BF81F480110134013D4EE77FEAAC
:1005E000645C18BF7FEA655C29D094EA050F08BFF8
:1005F00090EA020F05D054EA000C04BF19461046D9
:1006000030BD91EA030F1EBF0021002030BD5FEA1C
:10061000545C05D14000494128BF41F0004130BD44
:1006200014F580043CBF01F5801130BD01F0004598
:1006300045F0FE4141F470014FF0000030BD7FEA0B
:10064000645C1ABF194610467FEA655C1CBF0B4606
:10065000024650EA013406BF52EA033591EA030F1D
:1006600041F4002130BD00BF90F0000F04BF002115
:10067000704730B54FF4806404F132044FF0000548
:100680004FF0000150E700BF90F0000F04BF0021C1
:10069000704730B54FF4806404F1320410F0004527
:1006A00048BF40424FF000013EE700BF42004FEA22
:1006B000E2014FEA31014FEA02701FBF12F07F439F
:1006C00093F07F4F81F06051704732F07F4208BF56
:1006D000704793F07F4F04BF41F40021704730B55D
:1006E0004FF4607401F0004521F000411CE700BFA9
:1006F00050EA010208BF704730B54FF000050AE02C
:1007000050EA010208BF704730B511F0004502D52C
:10071000404261EB41014FF4806404F132045FEA2E
:10072000915C3FF4D8AE4FF003025FEADC0C18BFD7
:1007300003325FEADC0C18BF033202EBDC02C2F1C9
:10074000200300FA03FC20FA02F001FA03FE40EA5B
:100750000E0021FA02F11444BDE600BF4FF0FF3C49
:1007600006E000BF4FF0010C02E000BF4FF0010CAB
:100770004DF804CD4FEA410C7FEA6C5C4FEA430C24
:1007800018BF7FEA6C5C1BD001B050EA410C0CBF73
:1007900052EA430C91EA030F02BF90EA020F0020D5
:1007A000704710F1000F91EA030F58BF994208BF3C
:1007B00090422CBFD8176FEAE37040F001007047F9
:1007C0004FEA410C7FEA6C5C02D150EA013C07D150
:1007D0004FEA430C7FEA6C5CD6D152EA033CD3D09B
:1007E0005DF8040B704700BF8446104662468C4695
:1007F0001946634600E000BF01B5FFF7B7FF0028C8
:1008000048BF10F1000F01BD4DF808EDFFF7F4FFF0
:100810000CBF012000205DF808FB00BF4DF808ED7B
:10082000FFF7EAFF34BF012000205DF808FB00BF9E
:100830004DF808EDFFF7E0FF94BF012000205DF8C0
:1008400008FB00BF4DF808EDFFF7CEFF94BF012075
:1008500000205DF808FB00BF4DF808EDFFF7C4FF6E
:1008600034BF012000205DF808FB00BF4FEA4102C1
:10087000B2F1E04324BFB3F5001CDCF1FE5C0DD9FE
:1008800001F0004C4FEAC0024CEA5070B2F1004F48
:1008900040EB830008BF20F00100704711F0804F4B
:1008A00021D113F13872BCBF01F00040704741F410
:1008B00080114FEA5252C2F11802C2F1200C10FA14
:1008C0000CF320FA02F018BF40F001004FEAC123F8
:1008D0004FEAD32303FA0CFC40EA0C0023FA02F39C
:1008E0004FEA4303CCE77FEA625307D150EA013372
:1008F0001EBF4FF0FE4040F44000704701F0004042
:1009000040F0FE4040F40000704700BF0348044B35
:10091000834202D0034B03B1184770470C000020FC
:100920000C000020000000000548064B1B1AD90FE0
:1009300001EBA301491002D0034B03B118477047E4
:100940000C0000200C0000200000000010B5064C38
:10095000237843B9FFF7DAFF044B13B10448AFF330
:1009600000800123237010BD100000200000000053
:10097000F07E000808B5054B1BB105490548AFF3EB
:100980000080BDE80840FFF7CFBF00BF00000000B7
:1009900014000020F07E000880B483B000AF7860BF
:1009A0007B681B6843F001027B681A6000BF0C374C
:1009B000BD465DF8047B704780B483B000AF7860BB
:1009C0007B681B6823F001027B681A6000BF0C374C
:1009D000BD465DF8047B704780B483B000AF78609B
:1009E0007B681B6803F00103012B01D1012300E0A8
:1009F000002318460C37BD465DF8047B704780B471
:100A000083B000AF78607B689B6903F00203022B20
:100A100001D1012300E0002318460C37BD465DF8E4
:100A2000047B704780B483B000AF78607B689B69BB
:100A300003F00403042B01D1012300E00023184636
:100A40000C37BD465DF8047B704780B483B000AFBF
:100A500078607B689B6903F01003102B01D10123A0
:100A600000E0002318460C37BD465DF8047B704754
:100A700080B483B000AF78607B689B6903F020038B
:100A8000202B01D1012300E0002318460C37BD467E
:100A90005DF8047B704780B483B000AF78607B68FA
:100AA0009B6903F04003402B01D1012300E00023A8
:100AB00018460C37BD465DF8047B704780B483B0A0
:100AC00000AF78607B689B6903F08003802B01D1C5
:100AD000012300E0002318460C37BD465DF8047B77
:100AE000704780B483B000AF78607B689B6903F483
:100AF0008073B3F5807F01D1012300E00023184605
:100B00000C37BD465DF8047B704780B483B000AFFE
:100B100078607B689B6903F40073B3F5007F01D1B3
:100B2000012300E0002318460C37BD465DF8047B26
:100B3000704780B483B000AF78607B689B6903F432
:100B40008063B3F5806F01D1012300E000231846D4
:100B50000C37BD465DF8047B704780B483B000AFAE
:100B600078607B689B6903F40063B3F5006F01D183
:100B7000012300E0002318460C37BD465DF8047BD6
:100B8000704780B483B000AF78607B689B6903F4E2
:100B90008053B3F5805F01D1012300E000231846A4
:100BA0000C37BD465DF8047B704780B483B000AF5E
:100BB00078607B68DB6943F010027B68DA6100BF14
:100BC0000C37BD465DF8047B704780B483B000AF3E
:100BD00078607B68DB6943F020027B68DA6100BFE4
:100BE0000C37BD465DF8047B704780B483B000AF1E
:100BF00078607B68DB6943F480727B68DA6100BFF0
:100C00000C37BD465DF8047B704780B483B000AFFD
:100C100078607B68DB6943F400727B68DA6100BF4F
:100C20000C37BD465DF8047B704780B483B000AFDD
:100C300078607B68DB6943F480627B68DA6100BFBF
:100C40000C37BD465DF8047B704780B483B000AFBD
:100C500078607B68DB6943F400627B68DA6100BF1F
:100C60000C37BD465DF8047B704780B483B000AF9D
:100C700078607B68DB6943F480527B68DA6100BF8F
:100C80000C37BD465DF8047B704780B483B000AF7D
:100C9000786039607B685B6823F400423B681A43E4
:100CA0007B685A6000BF0C37BD465DF8047B704717
:100CB00080B483B000AF78607B685B6843F48042A7
:100CC0007B685A6000BF0C37BD465DF8047B7047F7
:100CD00080B485B000AFF860B9607A603B60FB68B3
:100CE0005A68FB695B0D03F480610B4B0B43DB43DC
:100CF0001A40B9687B6819433B681B041943BB69F8
:100D00001943FB690B431A43FB685A6000BF143751
:100D1000BD465DF8047B7047FF7BFF0380B483B062
:100D200000AF78607B685B6ADBB218460C37BD4663
:100D30005DF8047B704780B483B000AF78600B46E9
:100D4000FB70FA787B689A6200BF0C37BD465DF88D
:100D5000047B704780B58EB000AF78607B68002B55
:100D600013D07B689B691846FFF736FE0346FB8667
:100D70007B689B691846FFF71FFEFB8E002B04D093
:100D80007B689B691846FFF707FE00BF3837BD46F2
:100D900080BD000080B584B000AF786039607B68AA
:100DA000002B17D03B68002B14D07B68BB60BB685E
:100DB0009B69204A934202D11F4BFB600CE0BB6849
:100DC0009B691E4A934202D11D4BFB6004E0002345
:100DD000FB6001E00023FB60FB68002B25D0BB68B3
:100DE0009A69FB689A61BB68DA68FB68DA60BB687D
:100DF0001A69FB681A61FB6810221A60FB680022FE
:100E00005A60FB6820229A60FB6800225A613B68A6
:100E1000FA681A60FB689B6900211846FFF735FFE6
:100E2000FB689B691846FFF7B7FD3B68184610370B
:100E3000BD4680BD005400402C000020005C0040F6
:100E40004800002080B584B000AF78607B68002B3C
:100E500068D00023FB607B689B691846FFF741FE62
:100E60000346012B08D17B689B691846FFF7BDFE3E
:100E7000FB6843F00403FB607B689B691846FFF73F
:100E800044FE0346012B08D17B689B691846FFF797
:100E9000BCFEFB6843F00203FB607B689B6918465D
:100EA000FFF747FE0346012B08D17B689B69184674
:100EB000FFF7BBFEFB6843F48063FB607B689B69C4
:100EC0001846FFF74AFE0346012B08D17B689B6951
:100ED0001846FFF7BAFEFB6843F00803FB607B6827
:100EE0009B691846FFF74DFE0346012B08D17B682E
:100EF0009B691846FFF7B9FEFB6843F00803FB60E7
:100F00007B689B691846FFF7A0FD0346012B0CD1B7
:100F10007B689B691846FFF748FEFB6843F00403B3
:100F2000FB6002E04FF48073FB60FB6818461037EB
:100F3000BD4680BD80B586B000AFF860B9607A600C
:100F4000FB68002B28D0FB689A69BB68104698475D
:100F500078617B69002B21D17B68002B1ED005F0C6
:100F600065FD386108E0FB689A69BB6810469847E0
:100F700078617B69002B08D105F058FD02463B697A
:100F8000D31A7A689A42EED200E000BF7B69002B48
:100F900004D102237B6101E000237B617B69184659
:100FA0001837BD4680BD000080B58EB002AFF86036
:100FB0007A603B600B467B811023FB627B68FB61A0
:100FC000FB68002B00F0F080FB681B68002B00F032
:100FD000EB80FB681B681B68102B40F0E580FB680A
:100FE0001B68BB61BB6901221A60BB6920229A6041
:100FF0007B897F2B02D94FF4006300E000237B61E3
:101000003B68FF2B28BFFF237B623B68FF2B03D984
:101010004FF080733B6208E097F83830002B02D124
:101020004FF0007300E000233B627B69002B03D18B
:101030007B895B009BB200E07B897B813B68BB6264
:10104000BB6998697989614B01933B6A00937B6A1C
:101050007A69FFF73DFE0023FB6264E03A6C5C496D
:10106000B869FFF767FF0346012B09D0B869FFF79E
:10107000E9FE034643F40073FA6A1343FB6255E04A
:10108000FB6A002B4FD1BB699A69FB691B78194633
:101090001046FFF750FEFB690133FB61BB6A013B61
:1010A000BB627B6A013B7B627B6A002B3BD1BB6AE4
:1010B000002B38D03A6C4749B869FFF73BFF03462D
:1010C000012B09D0B869FFF7BDFE034643F4007356
:1010D000FA6A1343FB6229E0BB6AFF2B28BFFF2398
:1010E0007B62BB6AFF2B0CD9BB69986979890023A5
:1010F00001934FF0807300937B6A7A69FFF7E8FDF4
:1011000011E0BB699869798997F83830002B02D1D2
:101110004FF0007300E000230022019200937B6AED
:101120007A69FFF7D5FDBB6A002B97D197F8383065
:10113000002B11D13A6C2849B869FFF7FBFE034632
:10114000012B1AD0B869FFF77DFE034643F4007304
:10115000FA6A1343FB6210E03A6C2049B869FFF762
:10116000E9FE0346012B08D0B869FFF76BFE034682
:1011700043F40073FA6A1343FB62FB6A002B0CD042
:10118000BB699B691846FFF793FDBB699B691846CD
:10119000FFF71BFDB869FFF7DDFDBB69FA6A5A600E
:1011A000BB6910221A600BE0FB68002B06D0FB68BD
:1011B0001B68002B02D04FF4807300E00123FB6218
:1011C000FB6A18463037BD4680BD00BF0020008056
:1011D000FF090008BD0A0008710A0008970A000804
:1011E00080B58EB002AFF8607A603B600B467B81C1
:1011F0001023BB627B68FB613B687B62FB68002B52
:1012000000F0F180FB681B68002B00F0EC80FB68AD
:101210001B681B68102B40F0E680FB681B68BB61F5
:10122000BB6901221A60BB6920229A607B897F2BEF
:1012300002D94FF4006300E000237B613B68FF2B81
:1012400028BFFF233B627B69002B03D17B895B00B6
:101250009BB200E07B897B813B68FF2B03D94FF079
:101260008073FB6208E097F83830002B02D14FF012
:10127000007300E00023FB62BB6998697989624BC7
:101280000193FB6A00933B6A7A69FFF721FD002313
:10129000BB6264E03A6C5D49B869FFF74BFE0346F8
:1012A000012B08D0B869FFF7CDFD034643F4007366
:1012B000BA6A1343BB62BB6A002B50D1BB699B69FE
:1012C0001846FFF72BFD03461A46FB691A70FB69A7
:1012D0000133FB617B6A013B7B623B6A013B3B6202
:1012E0003B6A002B3BD17B6A002B38D03A6C4849D3
:1012F000B869FFF71FFE0346012B09D0B869FFF755
:10130000A1FD034643F40073BA6A1343BB622CE0A9
:101310007B6AFF2B28BFFF233B627B6AFF2B0CD924
:10132000BB6998697989002301934FF0807300931A
:101330003B6A7A69FFF7CCFC11E0BB69986979894F
:1013400097F83830002B02D14FF0007300E00023F3
:101350000022019200933B6A7A69FFF7B9FCBB6AED
:10136000002B02D17B6A002B94D197F83830002BE8
:1013700011D13A6C2749B869FFF7DCFD0346012B10
:101380001AD0B869FFF75EFD034643F40073BA6AEA
:101390001343BB6210E03A6C1F49B869FFF7CAFDFE
:1013A0000346012B08D0B869FFF74CFD034643F410
:1013B0000073BA6A1343BB62BB6A002B0CD0BB69D3
:1013C0009B691846FFF774FCBB699B691846FFF7D9
:1013D000FCFBB869FFF7BEFCBB69BA6A5A60BB691F
:1013E00010221A600BE0FB68002B06D0FB681B681C
:1013F000002B02D04FF4807300E00123BB62BB6A74
:1014000018463037BD4680BD00240080250A0008FC
:10141000BD0A0008710A0008970A000880B483B06A
:1014200000AF786039607B68403318460C37BD46A2
:101430005DF8047B704780B483B000AF78607B6850
:10144000DB6803F44063002B01D1012300E000239B
:1014500018460C37BD465DF8047B704780B483B0F6
:1014600000AF786039607B681B6B23F00F023B682C
:101470001A437B681A6300BF0C37BD465DF8047BD6
:10148000704780B483B000AF786039607B68DB68F8
:1014900023F003023B681A437B68DA6000BF0C3715
:1014A000BD465DF8047B704780B483B000AF7860C0
:1014B0007B68DB6C03F0C003002B01D1012300E04B
:1014C000002318460C37BD465DF8047B704780B496
:1014D00083B000AF78607B689B6823F0004323F003
:1014E0003F0343F001027B689A6000BF0C37BD46A2
:1014F0005DF8047B704780B483B000AF78607B6890
:101500009B6823F0004323F03F0343F002027B6813
:101510009A6000BF0C37BD465DF8047B704780B40D
:1015200083B000AF78607B689B6803F00103012BF8
:1015300001D1012300E0002318460C37BD465DF8B9
:10154000047B704780B483B000AF78607B689B6891
:1015500023F0004323F03F0343F004027B689A60CA
:1015600000BF0C37BD465DF8047B704780B483B084
:1015700000AF78607B689B6823F0004323F03F0353
:1015800043F008027B689A6000BF0C37BD465DF8E7
:10159000047B704780B483B000AF78607B681B68C1
:1015A00003F00803082B01D1012300E000231846B3
:1015B0000C37BD465DF8047B704780B483B000AF44
:1015C00078607B681B6803F01003102B01D10123A6
:1015D00000E0002318460C37BD465DF8047B7047D9
:1015E00080B483B000AF78607B6810221A6000BFBF
:1015F0000C37BD465DF8047B704780B483B000AF04
:1016000078607B685B6843F008027B685A6000BFC3
:101610000C37BD465DF8047B704780B483B000AFE3
:1016200078607B685B6843F040027B685A6000BF6B
:101630000C37BD465DF8047B704780B483B000AFC3
:1016400078607B685B6823F008027B685A6000BFA3
:101650000C37BD465DF8047B704780B483B000AFA3
:1016600078607B685B6823F010027B685A6000BF7B
:101670000C37BD465DF8047B704780B483B000AF83
:1016800078607B685B6823F040027B685A6000BF2B
:101690000C37BD465DF8047B704780B483B000AF63
:1016A00078607B685B6823F080027B685A6000BFCB
:1016B0000C37BD465DF8047B704780B483B000AF43
:1016C00078607B685B6803F01003102B01D1012365
:1016D00000E0002318460C37BD465DF8047B7047D8
:1016E00080B483B000AF78607B685B6803F08003F0
:1016F000802B01D1012300E0002318460C37BD46A2
:101700005DF8047B7047000080B485B000AF78605E
:1017100039607B68FB600C4A3B6813441B781A46AF
:10172000FB6813441B6808493A680A44127811465A
:10173000FA680A4443F00103136000BF1437BD4642
:101740005DF8047B704700BF087F000880B485B057
:1017500000AF786039607B68FB600C4A3B681344DB
:101760001B781A46FB6813441B6808493A680A4408
:1017700012781146FA680A4423F00103136000BF8F
:101780001437BD465DF8047B704700BF087F000832
:1017900080B485B000AF786039607B68FB60084A30
:1017A0003B6813441B781A46FB6813441B6803F01C
:1017B000200318461437BD465DF8047B704700BF10
:1017C000087F000880B487B000AFF860B9607A6025
:1017D000FB687B610D4ABB6813441B781A467B6922
:1017E00013445B681B0C1B040849BA680A4412784E
:1017F00011467A690A4411467A6813434B6000BF68
:101800001C37BD465DF8047B704700BF087F0008A9
:1018100080B487B000AFF860B9607A603B60FB6865
:101820007B613B6A102B14D1174ABB6813441B78A9
:101830001A467B6913441A467B68D360124ABB6818
:1018400013441B781A467B6913441A463B6893601D
:1018500013E00D4ABB6813441B781A467B69134496
:101860001A467B689360084ABB6813441B781A4683
:101870007B6913441A463B68D36000BF1C37BD46E2
:101880005DF8047B704700BF087F000880B487B014
:1018900000AFF860B9607A60FB687B61074ABB689B
:1018A00013441B781A467B6913441A467B6893607D
:1018B00000BF1C37BD465DF8047B7047087F0008F9
:1018C00080B483B000AF78607B681B6803F00203CC
:1018D000022B01D1012300E0002318460C37BD463E
:1018E0005DF8047B704780B483B000AF78607B689C
:1018F00002225A6000BF0C37BD465DF8047B70477A
:1019000080B485B000AF786039607B68FB600C4ABA
:101910003B6813441B781A46FB6813441B6808494C
:101920003A680A4412781146FA680A4443F00203FE
:10193000136000BF1437BD465DF8047B704700BFDD
:10194000087F000880B485B000AF786039607B689C
:10195000FB600C4A3B6813441B781A46FB6813442F
:101960001B6808493A680A4412781146FA680A4422
:1019700043F00803136000BF1437BD465DF8047BD5
:10198000704700BF087F000880B485B000AF786062
:1019900039607B68FB600C4A3B6813441B781A462D
:1019A000FB6813441B6808493A680A4412781146D8
:1019B000FA680A4423F00203136000BF1437BD46DF
:1019C0005DF8047B704700BF087F000880B485B0D5
:1019D00000AF786039607B68FB600C4A3B68134459
:1019E0001B781A46FB6813441B6808493A680A4486
:1019F00012781146FA680A4423F00403136000BF0A
:101A00001437BD465DF8047B704700BF087F0008AF
:101A100080B485B000AF786039607B68FB600C4AA9
:101A20003B6813441B781A46FB6813441B6808493B
:101A30003A680A4412781146FA680A4423F0080307
:101A4000136000BF1437BD465DF8047B704700BFCC
:101A5000087F000880B485B000AF786039607B688B
:101A6000FB600A4A3B6813441B781A46FB68134420
:101A70001B6803F00203022B01D1012300E00023C5
:101A800018461437BD465DF8047B7047087F000890
:101A900080B584B000AF78600123FB817B681B694F
:101AA0001846FFF7C8FC0346002B2FD07B685B7AF3
:101AB000DBB2022B11D07B685B7ADBB2042B0CD03B
:101AC0007B685B7ADBB2082B07D07B681B69184602
:101AD000FFF760FD0346012B18D1786800F0F8F895
:101AE0000346002B12D17B685B7ADBB2082B03D153
:101AF0007B6801225A7202E07B6820225A727B685E
:101B00001B691846FFF71EFD0023FB81FB89184661
:101B10001037BD4680BD80B586B002AFF860B960B1
:101B20007A603B600021F868FFF778FC03461A46AC
:101B30007968B868FFF7AAFE0021F868FFF76EFC25
:101B400002463B68002100917968B868FFF760FEA3
:101B5000BA697968B868FFF735FE7968B868FFF741
:101B6000CFFE7968B868FFF7EDFE7968B868FFF7CF
:101B7000CBFD00BF1037BD4680BD80B584B000AF3F
:101B8000F860B9607A607968B868FFF7DFFD796856
:101B9000B868FFF71BFF7968B868FFF739FF796805
:101BA000B868FFF7F1FE00227968B868FFF70AFE0F
:101BB00000BF1037BD4680BD80B584B000AF7860EF
:101BC00039600223FB737B68DB79012B0FD17B68C3
:101BD000DA687B681B685B00D118FB7B7A68126847
:101BE00002FB03F31A46386806F074F90AE07B68D2
:101BF000D968FB7B7A68126802FB03F31A463868DF
:101C000006F068F900BF1037BD4680BD80B586B0CC
:101C100000AFF860B9607A60FB685A69FB689B792D
:101C200019461046FFF716FF0346DBB2012B37D1EA
:101C3000FB685A69BB68104698470346012B2FD1B1
:101C4000FB6804225A72FB685A697B681046984701
:101C5000FB685A69FB689B7919461046FFF798FDA7
:101C60000346002B19D1FB685A69FB689B7919461A
:101C70001046FFF76BFDFB685869FB689B791946B6
:101C8000FB681B681A46FFF79DFDFB685A69FB68F5
:101C90009B7919461046FFF737FD0123FB7501E0DC
:101CA0000023FB75FB7D18461837BD4680BD00003C
:101CB00080B500AF034A04490448FFF7A7FF00BFFF
:101CC00080BD00BFE7180008C118000864000020AC
:101CD00080B582B000AF78607B681B691846FFF75B
:101CE0006CFC0346DBB2012B07D17B681B691846ED
:101CF000FFF776FC7B6810225A727B685B7ADBB256
:101D0000102B0CBF01230023DBB218460837BD4659
:101D100080BD80B582B000AF78600B46FB70FB7869
:101D2000012B0DD17B681B691846FFF784FB034626
:101D3000012B12D07B681B691846FFF703FC0CE0EF
:101D40007B681B691846FFF7AFFB0346012B04D0E5
:101D50007B681B691846FFF709FC00BF0837BD46C2
:101D600080BD000090B589B002AFF860084611460A
:101D70001A4603467B810B463B811346FB800023BA
:101D80007B61FB681B693C4A934201D13B4B7B6101
:101D90007B69002B6BD0FB681A697B691A617B69D0
:101DA0000022DA71FB88012B61D03B89002B47D0E0
:101DB0007B695B7ADBB2082B42D0FB68DA687B690F
:101DC000DA60FB681A687B691A60FB685A697B698C
:101DD0005A61FB689A797B699A71FB681A797B6909
:101DE0001A717B691B69B96A1846FFF737FB7B8953
:101DF000012B21D07B89042B16D17B691B69032120
:101E00001846FFF73EFB7B6918697B6959697B6956
:101E10009B791C467B69DA687B691B6800931346D3
:101E20002246FFF778FE07E07B89022B04D17B690D
:101E30001B691846FFF7E1FB7B6908225A7216E01E
:101E40003B89002B13D17B699B7ADBB2082B0ED028
:101E5000FB685A797B695A717B89022B04D17B69B3
:101E60001B691846FFF7D9FB7B6908229A727B69C8
:101E700018461C37BD4690BD000004506400002089
:101E800080B582B000AF78607B681B691846FFF7A9
:101E900046FB0346002B04D17B681B691846FFF7FD
:101EA00016FB00BF0837BD4680BD80B586B000AFC9
:101EB000F8600B467A607B810123FB82FB681B691B
:101EC000002B46D07B89012B05D1F868FFF7E0FD98
:101ED0000346FB823DE07B89042B1FD1FB681B6915
:101EE0001846FFF7A8FA0346002B32D0FB68012200
:101EF0005A72FB681B691846FFF724FB00BFFB689A
:101F00005B7ADBB2042BFAD17968F868FFF754FEEC
:101F1000FB6808225A720023FB821AE07B89022B9D
:101F200017D1FB685B7ADBB2202B09D0FB685B7AA8
:101F3000DBB2042B04D0FB685B7ADBB2102B08D138
:101F4000FB6808225A727968F868FFF735FE0023AB
:101F5000FB82FB8A18461837BD4680BD80B582B02B
:101F600000AF78600B467B8013463B807B681B6923
:101F70001846FFF7D4FA0346002B04D07B681B6990
:101F80001846FFF7B8FA7B681B691846FFF7A8FBED
:101F90000346002B04D07B681B691846FFF77DFBC6
:101FA0007B681B691846FFF788FB0346002B04D0AB
:101FB0007B681B691846FFF750FB3B88002B38D025
:101FC0007B88012B1AD07B88022B05D17B681B698B
:101FD0001846FFF732FB11E07B88042B0ED17B689B
:101FE00018697B6859697B689B791A46FFF7C5FDBC
:101FF0007B681B6900211846FFF743FA7B680022C3
:10200000DA607B6800221A607B6800225A617B6874
:1020100000229A717B6800221A717B6840225A72F2
:102020007B681A697B681B7919461046FFF716FA18
:102030000DE07B6800225A717B6840229A727B888F
:10204000022B04D17B681B691846FFF716FB00BF03
:102050000837BD4680BD80B485B000AF78607B682E
:102060001B6803F06003FB60FB68002B04D17B68F6
:102070001B6803F01003FB60FB6818461437BD466D
:102080005DF8047B704780B483B000AF78607B68F4
:102090001B6B18460C37BD465DF8047B704780B457
:1020A00083B000AF786039607B681A6A3B681A4376
:1020B0007B681A6200BF0C37BD465DF8047B704731
:1020C00080B483B000AF786039607B681A6A3B687F
:1020D000DB431A407B681A6200BF0C37BD465DF8CF
:1020E000047B704780B483B000AF78607B685B6C22
:1020F00043F400427B685A6400BF0C37BD465DF86C
:10210000047B704780B483B000AF78607B68DB6885
:1021100043F001027B68DA6000BF0C37BD465DF812
:10212000047B704780B483B000AF78607B68DB6865
:1021300023F001027B68DA6000BF0C37BD465DF812
:10214000047B704780B483B000AF78607B68DB6845
:1021500003F00103012B01D1012300E00023184605
:102160000C37BD465DF8047B704780B483B000AF88
:1021700078607B68DB6843F002027B68DA6000BF4E
:102180000C37BD465DF8047B704780B483B000AF68
:1021900078607B68DB6823F002027B68DA6000BF4E
:1021A0000C37BD465DF8047B704780B483B000AF48
:1021B00078607B68DB6803F00203022B01D1012306
:1021C00000E0002318460C37BD465DF8047B7047DD
:1021D00080B483B000AF78607B68DB6843F00402B2
:1021E0007B68DA6000BF0C37BD465DF8047B704742
:1021F00080B483B000AF78607B68DB6823F00402B2
:102200007B68DA6000BF0C37BD465DF8047B704721
:1022100080B483B000AF78607B68DB6803F00403B0
:10222000042B01D1012300E0002318460C37BD46E2
:102230005DF8047B704780B483B000AF78607B6842
:10224000DB6843F008027B68DA6000BF0C37BD46EC
:102250005DF8047B704780B483B000AF78607B6822
:10226000DB6823F008027B68DA6000BF0C37BD46EC
:102270005DF8047B704780B483B000AF78607B6802
:10228000DB6803F00803082B01D1012300E00023E1
:1022900018460C37BD465DF8047B704780B483B0A8
:1022A00000AF78607B68DB6843F010027B68DA601F
:1022B00000BF0C37BD465DF8047B704780B483B027
:1022C00000AF78607B68DB6823F010027B68DA601F
:1022D00000BF0C37BD465DF8047B704780B483B007
:1022E00000AF78607B68DB6803F01003102B01D12E
:1022F000012300E0002318460C37BD465DF8047B3F
:10230000704780B483B000AF78607B68DB6843F0CF
:1023100020027B68DA6000BF0C37BD465DF8047BA5
:10232000704780B483B000AF78607B68DB6823F0CF
:1023300020027B68DA6000BF0C37BD465DF8047B85
:10234000704780B483B000AF78607B68DB6803F0CF
:102350002003202B01D1012300E0002318460C3775
:10236000BD465DF8047B704780B483B000AF7860F1
:102370007B68DB6843F040027B68DA6000BF0C37A3
:10238000BD465DF8047B704780B483B000AF7860D1
:102390007B68DB6823F040027B68DA6000BF0C37A3
:1023A000BD465DF8047B704780B483B000AF7860B1
:1023B0007B68DB6803F04003402B01D1012300E080
:1023C000002318460C37BD465DF8047B704780B487
:1023D00083B000AF78607B68DB6843F080027B6885
:1023E000DA6000BF0C37BD465DF8047B704780B4EF
:1023F00083B000AF78607B68DB6823F080027B6885
:10240000DA6000BF0C37BD465DF8047B704780B4CE
:1024100083B000AF78607B68DB6803F08003802BBB
:1024200001D1012300E0002318460C37BD465DF8BA
:10243000047B704780B582B000AF78600B467B802C
:102440007B8803F00103002B0CD07B681B681846C7
:10245000FFF7AAFF0346012B04D07B681B681846D0
:10246000FFF782FF7B8803F00203002B0CD07B6810
:102470001B681846FFF799FE0346012B04D07B68C2
:102480001B681846FFF771FE7B8803F00403002BDE
:102490000CD07B681B681846FFF7BAFE0346012B79
:1024A00004D07B681B681846FFF792FE7B8803F018
:1024B0000803002B0CD07B681B681846FFF7DBFE77
:1024C0000346012B04D07B681B681846FFF7B3FE58
:1024D0007B8803F01003002B0CD07B681B68184628
:1024E000FFF7FCFE0346012B04D07B681B681846EF
:1024F000FFF7D4FE7B8803F02003002B0CD07B6811
:102500001B681846FFF71EFE0346012B04D07B68AC
:102510001B681846FFF7F6FD7B8803F04003002B8D
:102520000CD07B681B681846FFF771FF0346012B30
:1025300004D07B681B681846FFF749FF7B8803F0CF
:102540008003002B0CD07B681B681846FFF7F9FE50
:102550000346012B04D07B681B681846FFF7D1FEA9
:1025600000BF0837BD4680BD80B582B000AF78603F
:102570000B467B807B8803F00103002B0CD07B682B
:102580001B681846FFF710FF0346012B04D17B6838
:102590001B681846FFF7F8FE7B8803F00203002B48
:1025A0000CD07B681B681846FFF7FFFD0346012B24
:1025B00004D17B681B681846FFF7E7FD7B8803F0B2
:1025C0000403002B0CD07B681B681846FFF720FE25
:1025D0000346012B04D17B681B681846FFF708FEF1
:1025E0007B8803F00803002B0CD07B681B6818461F
:1025F000FFF741FE0346012B04D17B681B68184698
:10260000FFF729FE7B8803F01003002B0CD07B68BA
:102610001B681846FFF762FE0346012B04D17B6856
:102620001B681846FFF74AFE7B8803F02003002B47
:102630000CD07B681B681846FFF784FD0346012B0E
:1026400004D07B681B681846FFF76CFD7B8803F09D
:102650004003002B0CD07B681B681846FFF7D7FEA1
:102660000346012B04D17B681B681846FFF7BFFEA9
:102670007B8803F08003002B0CD07B681B68184616
:10268000FFF75FFE0346012B04D17B681B681846E9
:10269000FFF747FE00BF0837BD4680BD80B582B05A
:1026A00000AF78600B46FB70FB78022B06D17B688D
:1026B0001B6801211846FFF7F2FC27E07B681B68C6
:1026C000144A934209D07B681B68134A934204D092
:1026D0007B681B68114A934218D1FB78032B06D103
:1026E0007B681B6804211846FFF7D9FC0EE0FB78D5
:1026F000042B0BD17B681B6801211846FFF7CFFC28
:102700007B681B6804211846FFF7C9FC00BF083727
:10271000BD4680BD002C0140004001400044014006
:1027200080B582B000AF78600B46FB70FB78022B5F
:1027300006D17B681B6801211846FFF7C1FC27E022
:102740007B681B68144A934209D07B681B68134A54
:10275000934204D07B681B68114A934218D1FB78DE
:10276000032B06D17B681B6804211846FFF7A8FCE1
:102770000EE0FB78042B0BD17B681B680121184607
:10278000FFF79EFC7B681B6804211846FFF798FC46
:1027900000BF0837BD4680BD002C0140004001400D
:1027A0000044014080B584B000AF78600023FB6036
:1027B0007B681B682A4A934202D12A4BFB6006E0E1
:1027C0007B681B68284A934201D1284BFB607B68D9
:1027D0001A68FB681A60FB681B681846FFF73BFC29
:1027E000B860BB68002B06D0BB68102B03D0FB6819
:1027F00001221A7102E0FB6800221A71FB681B6853
:10280000174A934209D0FB681B68194A934204D0C7
:10281000FB681B68144A934204D1FB681B68184686
:10282000FFF760FCFB681B680D4A934209D0FB6808
:102830001B680F4A934204D0FB681B680A4A934204
:1028400008D17B681B681846FFF71DFC0346DAB207
:10285000FB685A71FB6818461037BD4680BD00BF43
:10286000002C014080000020004401400C010020A9
:102870000040014080B483B000AF03463960FB7173
:1028800097F90730002B0ADB3B68DAB20C4997F95D
:1028900007301201D2B20B4483F800230AE03B68F0
:1028A000DAB20849FB7903F00F03043B1201D2B2FC
:1028B0000B441A7600BF0C37BD465DF8047B7047A9
:1028C00000E100E000ED00E080B584B000AFF8600A
:1028D000B9607A60FB68DBB20F3BDBB25BB2796850
:1028E0001846FFF7C7FF00BF1037BD4680BD000088
:1028F00080B483B000AF0346FB7197F90730002B1B
:102900000BDBFB7903F01F02074997F907305B09DE
:10291000012000FA02F241F8232000BF0C37BD4627
:102920005DF8047B704700BF00E100E080B483B035
:1029300000AF0346FB7197F90730002B12DBFB79E0
:1029400003F01F020A4997F907305B09012000FADA
:1029500002F2203341F82320BFF34F8F00BFBFF3B3
:102960006F8F00BF00BF0C37BD465DF8047B70471A
:1029700000E100E080B483B000AF7860074B1A68D4
:102980007B6813407A689A4201D1012300E000235A
:1029900018460C37BD465DF8047B704700040140C3
:1029A00080B483B000AF7860074B5A697B681340EE
:1029B0007A689A4201D1012300E0002318460C37BF
:1029C000BD465DF8047B70470004014080B483B0CD
:1029D00000AF7860044A7B68536100BF0C37BD4686
:1029E0005DF8047B704700BF0004014080B483B0F1
:1029F00000AF78607B681B6843F001027B681A6057
:102A000000BF0C37BD465DF8047B704780B483B0CF
:102A100000AF78607B681B6823F001027B681A6056
:102A200000BF0C37BD465DF8047B704780B483B0AF
:102A300000AF786039607B681B6823F004023B6854
:102A40001A437B681A6000BF0C37BD465DF8047BF3
:102A5000704780B483B000AF78607B681B6803F078
:102A6000040318460C37BD465DF8047B704780B4FC
:102A700083B000AF78607B68DB6A18460C37BD46D0
:102A80005DF8047B704780B483B000AF7860396034
:102A90007B683A681A6300BF0C37BD465DF8047B5B
:102AA000704780B483B000AF786039607B683A6863
:102AB0005A6300BF0C37BD465DF8047B704780B495
:102AC00083B000AF78607B685B6B18460C37BD46FF
:102AD0005DF8047B704780B483B000AF78607B689A
:102AE0005B6943F001027B685A6100BF0C37BD4649
:102AF0005DF8047B704780B483B000AF78607B687A
:102B00001B6918460C37BD465DF8047B704780B4DE
:102B100083B000AF786039607B683A689A6100BF23
:102B20000C37BD465DF8047B704780B483B000AFBE
:102B3000786039607B683A689A6200BF0C37BD469E
:102B40005DF8047B7047000080B584B000AF78600A
:102B500087ED000AD7ED007AF5EEC07AF1EE10FAB3
:102B600003D54FF000033B600AE0D7ED007A9FEDFC
:102B7000167AF4EEC77AF1EE10FA01DD134B3B60E2
:102B80007B681B681846FFF772FFF8607B681B794B
:102B9000002B0CBF01230023DBB21A46FB68134451
:102BA00007EE903AB8EE677AD7ED007A27EE277AEB
:102BB000DFED056AC7EE267AFCEEE77A17EE903A6B
:102BC00018461037BD4680BD0000C8420000C8420C
:102BD00080B582B000AF786039607B681B681846AA
:102BE000FFF76DFF02463B68934205D07B681B6888
:102BF00039681846FFF755FF00BF0837BD4680BD4E
:102C000080B584B000AF786087ED000A97ED000AC8
:102C10007868FFF799FFF860F9687868FFF7D8FFE0
:102C200000BF1037BD4680BD80B485B000AF78606E
:102C30007B681B689A68074B1340FB60FB68062B98
:102C40000CBF01230023DBB218461437BD465DF8E4
:102C5000047B70470700010080B584B000AF786046
:102C60000B46FB707B681B681846FFF7F2FEF860A6
:102C7000FB78002B14D07B681B68284A934209D04C
:102C80007B681B68264A934204D07B681B68254AF0
:102C9000934205D17B681B6800211846FFF7F3FEBD
:102CA000FB68042B11D07B681B6804211846FFF7D2
:102CB000BDFE7B681B681846FFF70DFF7B681B682D
:102CC000F9681846FFF7B2FE04E07B681B681846F7
:102CD000FFF701FF7B681B681846FFF787FEFB784C
:102CE000002B16D07B681B680C4A934209D07B6886
:102CF0001B680B4A934204D07B681B68094A9342C5
:102D000007D17B681A687B685B7919461046FFF724
:102D1000BAFE00BF1037BD4680BD00BF002C014089
:102D2000004001400044014080B582B000AF7860AF
:102D30007B681B681846FFF769FE00BF0837BD4671
:102D400080BD000080B483B000AF7860074B5B7932
:102D5000002B0CBF01230023DAB27B6801331A7009
:102D600000BF0C37BD465DF8047B7047A802002009
:102D700080B400AF084B5A790132D2B25A71064B77
:102D80005B79042B02D9044B00225A7100BFBD4667
:102D90005DF8047B704700BFA802002080B58AB0B0
:102DA00000AF78607B6800221A727B6801225A604B
:102DB000104B3B6200237B610023BB617B680022D8
:102DC0001A617B6800225A617B6800229A617B68E5
:102DD00010337B6207F10803796A1846FDF7DAFFC2
:102DE00002467B68DA607B6801221A7200BF2837CE
:102DF000BD4680BD0054004080B58AB000AF786009
:102E00000F4B3B6200237B610023BB617B68002288
:102E10001A617B6800225A617B6800229A617B6894
:102E200010337B6207F10803796A1846FDF7B2FF99
:102E300002467B68DA6000BF2837BD4680BD00BF10
:102E40000054004080B5A6B000AF7860174BBB605F
:102E500000233B7300237B7307F108031846FFF739
:102E6000A1FC02467B68DA607B68DB6800211846BB
:102E7000FFF7E0FA7B68DB6802211846FFF70EFCDB
:102E80007B68DB681846FFF7CFFE034687F897306C
:102E900097F89730002B05D17B68DB680021184636
:102EA000FFF7DAFE00BF9837BD4680BD0044014001
:102EB00080B5A6B000AF7860174BBB6000233B73B2
:102EC00000237B7307F108031846FFF76BFC0246EB
:102ED0007B68DA607B68DB6800211846FFF7AAFA96
:102EE0007B68DB6802211846FFF7D8FB7B68DB684C
:102EF0001846FFF799FE034687F8973097F8973002
:102F0000002B05D17B68DB6800211846FFF7A4FE83
:102F100000BF9837BD4680BD002C014080B58CB005
:102F200002AF78607B6800221A727B6801225A60C7
:102F30007B681033BB6100237B74174BFB61174B1D
:102F40003B620023BB74002387F82430022387F8F8
:102F500025300523FB6005233B7407F10C00042397
:102F60000093042301220421FEF7FCFE02467B6845
:102F7000DA607B68DB681846FEF782FF7B68DB68F7
:102F800001211846FEF7C5FE7B6801221A7200BFB8
:102F90002837BD4680BD00BF00000450000002403D
:102FA000B0B59CB004AFFFF7E3FEA14BD3E900231B
:102FB000C7E910239AA3D3E90023D7E91001FDF74D
:102FC000E7F802460B46C7E910239A49D7E91023D0
:102FD000C1E90023964BD3E90223C7E90E2390A34E
:102FE000D3E90023D7E90E01FDF7D2F802460B46DC
:102FF000C7E90E238F49D7E90E23C1E902238C4B81
:10300000D3E90423C7E90C234FF000024FF000037B
:10301000D7E90C01FDF7F8FB0346002B02D0002393
:10302000FB640EE04FF00002834BD7E90C01FDF783
:10303000EBFB0346002B02D01423FB6401E00023CA
:10304000FB644FF000027D4BD7E90E01FDF7A0F8BD
:1030500002460B46C7E90C23F86CFDF715FBD7E9D0
:103060000E23FDF7C3F902460B4614461D46744B6A
:10307000D3E92623D7E90C01FDF7B8F902460B4640
:1030800020462946FDF7B2F902460B46C7E90E2352
:103090004FF000024FF00003D7E90E01FDF778F87A
:1030A00002460B4610461946654BD3E92A23FDF725
:1030B0009DF902460B46104619464FF00002614B3F
:1030C000FDF766F802460B46C7E90A234FF00002F7
:1030D0005D4BD7E90E01FDF75BF802460B46104643
:1030E0001946574BD3E92823FDF782F902460B46D0
:1030F000D7E90A01FDF77CF902460B46C7E916231A
:103100004FF000024F4BD7E91601FDF7A5FB034630
:10311000002B05D04FF000024A4BC7E916230EE002
:103120004FF00002494BD7E91601FDF777FB034644
:10313000002B04D04FF00002444BC7E916234FF098
:1031400000023E4BD7E91001FDF722F802460B467C
:10315000C7E90823F86CFDF797FAD7E91023FDF7C4
:1031600045F902460B4614461D46354BD3E92C2340
:10317000D7E90801FDF73AF902460B4620462946F1
:10318000FDF734F902460B46C7E910234FF0000261
:103190004FF00003D7E91001FCF7FAFF02460B4697
:1031A00010461946264BD3E93023FDF71FF9024696
:1031B0000B46104619464FF00002224BFCF7E8FF81
:1031C00002460B46C7E906234FF000021E4BD7E923
:1031D0001001FCF7DDFF02460B4610461946184B5E
:1031E000D3E92E23FDF704F902460B46D7E9060181
:1031F000FDF7FEF802460B46C7E914230AA3D3E9FC
:103200000023D7E91401FDF727FB0346002B1FD04D
:1032100005A3D3E90023C7E9142328E0AFF3008016
:103220004853A95D32408F3F0000000000C0584065
:1032300098010020980200200000F03F0000494063
:10324000B0010020000059400000F83F000059C0C4
:103250004FF000029E4BD7E91401FDF7DFFA034659
:10326000002B04D04FF00002994BC7E91423994B6F
:10327000D3F89440D7E91601FDF7F8FA07EE900A63
:10328000F0EEE77AB0EE670A2046FFF7B9FC4FF0A0
:1032900090437B614FF000024FF00003D7E9160125
:1032A000FDF7BCFA0346002B03D04FF48053FB64B8
:1032B00001E00023FB64FB6C19467869FFF727FCEB
:1032C000FB6CDB4303F4805319467869FFF72DFC50
:1032D000804BD3F88440D7E91401FDF7C7FA07EE15
:1032E000900AF0EEE77AB0EE670A2046FFF788FC16
:1032F0004FF090437B614FF000024FF00003D7E99D
:103300001401FDF7A9FA0346002B03D04FF4006324
:10331000FB6401E00023FB64FB6C19467869FFF74E
:10332000F6FBFB6CDB4303F4006319467869FFF797
:10333000FCFB6B233B7100237B71664BD86C3A1D01
:1033400001230293002301930023009302236821A9
:10335000FDF72AFE5F4BD3F8E030312B06DC5D4BE6
:10336000D3F8E030002B01DB012300E00023FB64F5
:10337000584BD3F8E030622B04DD564B0022C3F8E3
:10338000E02006E0534BD3F8E0300133514AC2F855
:10339000E0304FF090437B61FB6C002B14BF0123A6
:1033A0000023DBB2FB64FB6C19467869FFF7AFFBC7
:1033B000FB6C03F00103002B0CBF01230023DBB2E5
:1033C00019467869FFF7B1FB424BDB6807F1080249
:1033D00004211846FEF769FD3E49D7E90C23C1E9EF
:1033E00026233C4BD3E9284535A3D3E90023D7E96D
:1033F0000E01FCF7CDFE02460B461046194632A3DD
:10340000D3E90023FCF7C4FE02460B4620462946BA
:10341000FCF7EEFF02460B462E49C1E928232D4B4F
:10342000D3E92A4528A3D3E90023D7E90A01FCF709
:10343000AFFE02460B4620462946FCF7D9FF02465E
:103440000B462449C1E92A232249D7E90823C1E9C7
:103450002C23204BD3E92E4519A3D3E90023D7E928
:103460001001FCF795FE02460B461046194616A3BE
:10347000D3E90023FCF78CFE02460B462046294682
:10348000FCF7B6FF02460B461249C1E92E23114B49
:10349000D3E930450CA3D3E90023D7E90601FCF7B3
:1034A00077FE02460B4620462946FCF7A1FF02465E
:1034B0000B460849C1E9302300BF6037BD46B0BDA7
:1034C0009A9999999999C93F7B14AE47E17A943FAB
:1034D00000C058C0B001002080B590B004AF3B23BD
:1034E000FB71374B186BFA1D0123029301230193E3
:1034F0000123009301236821FDF756FDB862BB6AE2
:10350000002B0ED12E4B186B07F10C0201230293F6
:1035100000230193002300930E236821FDF760FE32
:103520000EE00023FB6208E007F10C02FB6A134483
:1035300000221A70FB6A0133FB62FB6A0D2BF3DD7C
:103540003B7B3B727B7B7B723B89FB84BB7B3B720F
:10355000FB7B7B723B89BB843B7C3B727B7C7B72BD
:103560003B897B84BB7C3B72FB7C7B723B89FB840D
:103570003B7D3B727B7D7B723B893B84BB7D3B7299
:10358000FB7D7B723B89FB833B7E3B727B7E7B7248
:103590003B89BB836B233B723B237B72084B986E4A
:1035A00007F10802012302930023019300230093F3
:1035B00002236821FDF7F8FC00BF3037BD4680BD0F
:1035C000B001002080B500AF2E4B00229A622D4B37
:1035D000002283F824202C48FFF7E0FB294B00222F
:1035E00083F85C20274B002283F86420254B0122BE
:1035F0001A662648FFF700FC224B012283F864205C
:10360000204B002283F888201E4B002283F8902054
:103610001C4B0122C3F88C201D48FFF713FC194BEB
:10362000012283F89020174B002283F87820154B55
:10363000002283F88020134B0122DA671548FFF738
:1036400037FC104B012283F880200E4B002283F8B8
:1036500040200C4B002283F848200A4B01225A6478
:103660000D48FFF7C9FB074B012283F84820054BA3
:1036700000225A60034B00221A700248FFF74EFCEA
:1036800000BF80BDB0010020D40100200C0200204A
:103690003802002028020020F001002080B500AF91
:1036A0003F4B93F88830002B21D13D4B012283F80A
:1036B00088203B4BD3F88C30012B18D1384B93F832
:1036C0009030002B13D0364BD3F894301846FFF7C8
:1036D0002BFB334BD3F8943000211846FEF744FF00
:1036E0002F4BD3F8943002211846FFF719F82C4BD2
:1036F00093F87830002B20D1294B012283F87820D1
:10370000274BDB6F012B18D1254B93F88030002B12
:1037100013D0234BD3F884301846FFF705FB204B1A
:10372000D3F8843000211846FEF71EFF1C4BD3F857
:10373000843002211846FEF7F3FF194B93F840300E
:10374000002B03D1164B012283F84020144B1B7829
:10375000002B11D1124B01221A70114B5B68012B07
:103760000AD10F4B1B7A002B06D00D4BDB680122D0
:1037700004211846FEF7F2FB094B93F82430002B86
:1037800003D1074B012283F82420054B93F85C30CA
:10379000002B03D1024B012283F85C2000BF80BDC7
:1037A000B001002080B500AF02220C492620FFF7AF
:1037B0008BF81720FFF79CF8022209491820FFF721
:1037C00083F80920FFF794F8022206491520FFF735
:1037D0007BF80620FFF78CF800BF80BDE9370008B2
:1037E000653800082D39000880B500AF2020FFF7AC
:1037F000C1F80346002B07D02020FFF7D1F803467D
:10380000002B01D0012300E00023002B1AD0202040
:10381000FFF7DCF80F4B1B78DBB2012B12D10E4BFC
:10382000D3E936230D49C1E904230C4BD3E9040144
:103830004FF000020A4BFCF7DBFD02460B4606493F
:10384000C1E93623BFF36F8F00BFBFF34F8F00BFB7
:1038500000BF80BDBB020020B00100209801002005
:103860000000F03F80B584B000AF0820FFF782F879
:103870000346002B07D00820FFF792F80346002BE1
:1038800001D0012300E00023002B3CD00820FFF7EB
:103890009DF8224B1B78DBB2012B34D12048FFF777
:1038A0002AF9B8601E48FFF726F978601D4BD3E966
:1038B00034231D49C1E90223BB6803F00803002B30
:1038C0000CBF01230023DAB27B6803F01003002B46
:1038D00014BF01230023DBB25340DBB2002B02D024
:1038E0000123FB6002E04FF0FF33FB60F868FCF758
:1038F000CBFE0D4BD3E90223FCF77AFD02460B46C3
:103900000849C1E93423BFF36F8F00BFBFF34F8F66
:1039100000BF00BF1037BD4680BD00BFBB02002006
:1039200000040048B00100209801002080B584B058
:1039300000AF0120FFF71EF80346002B07D001203F
:10394000FFF72EF80346002B01D0012300E00023EF
:10395000002B3CD00120FFF739F8224B1B78DBB25B
:10396000012B34D12048FFF7C6F8B8601E48FFF796
:10397000C2F878601D4BD3E932231D49C1E9002309
:10398000BB6803F00103002B0CBF01230023DAB254
:103990007B6803F00203002B14BF01230023DBB27A
:1039A0005340DBB2002B03D04FF0FF33FB6001E04C
:1039B0000123FB60F868FCF767FE0D4BD3E9002399
:1039C000FCF716FD02460B460849C1E93223BFF356
:1039D0006F8F00BFBFF34F8F00BF00BF1037BD46D2
:1039E00080BD00BFBB02002000040048B0010020E1
:1039F0009801002080B500AF1720FEF797FF09203F
:103A0000FEF794FF0620FEF791FF00BF80BD000087
:103A100080B582B000AF2E4B1B785A1CD1B22C4A15
:103A20001170002B09D02B4B01221A60284B1B78F8
:103A3000013BDAB2264B1A7047E03B1D1846FFF7F0
:103A400081F962B600BFFFF7ABFA72B600BF204B38
:103A50001B78013BDAB21E4B1A707B79002B11D018
:103A60001D4B5B785A1CD1B21B4A5170002B09D0F8
:103A7000184B01221A60184B5B78013BDAB2164BE7
:103A80005A7022E0144B5B78002B1ED0104B5B78F1
:103A9000002B19D10E4B5B780133DAB20C4B5A7004
:103AA00062B600BFFFF718FD00BF72B600BF0A4B39
:103AB0005B78013BDAB2084B5A70054B5B78013BEF
:103AC000DAB2034B5A7000E000BF0837BD4680BD34
:103AD000B4020020B0020020B802002080B584B0FB
:103AE00000AF78603960334BFB604FF08443BB60BC
:103AF000314B00221A70314B00221A7001DF02F0A4
:103B000069FF01F059F901F0BDF901F053FE01F030
:103B1000F7FD01F0EDFA01F09DFB01F0D5FC01F09D
:103B200027FD01F0C5F901F045FC254B1B6800227B
:103B30001A60FFF737FEFFF745FD72B600BF97ED3D
:103B4000030A00F0C1F81E4B1B681B68002B0CBF5A
:103B500001230023DBB21A46184B1A7062B600BF6D
:103B600062B600BF15E0164B1B681B68002B14BF24
:103B700001230023DBB21A460F4B1A700E4B1B7841
:103B8000DBB2002B05D00F4B1B680E4A23F001035C
:103B900013600A4B1B78DBB2002BE4D1FFF77EFDEC
:103BA000FFF728FF72B600BF002318461037BD4646
:103BB00080BD00BF0AD7A33CBA020020BB02002090
:103BC000107F000810E000E080B483B000AF03462F
:103BD0003960FB7197F90730002B0ADB3B68DAB2DA
:103BE0000C4997F907301201D2B20B4483F8002335
:103BF0000AE03B68DAB20849FB7903F00F03043BA3
:103C00001201D2B20B441A7600BF0C37BD465DF8E4
:103C1000047B704700E100E000ED00E080B582B079
:103C200000AF78607B68013BB3F1807F01D3012353
:103C30000FE00A4A7B68013B53600F214FF0FF30D1
:103C4000FFF7C2FF054B00229A60044B07221A605F
:103C5000002318460837BD4680BD00BF10E000E0D5
:103C600080B500AFBFF34F8F00BFBFF36F8F00BFB2
:103C70000B4B1A680B4B1B689A4202D3084B00226D
:103C80001A60074B1B685A1C05490A60002B05D1B6
:103C900072B600BFFFF7BCFE62B600BF00BF80BDBA
:103CA000BC020020C002002080B400AF054B5B685E
:103CB000044A43F08053536000BFBD465DF8047B67
:103CC000704700BF00ED00E080B584B000AF87ED25
:103CD000010A254B1B6807EE903AB8EE677AD7EDDC
:103CE000017A67EE277AFCEEE77A17EE903AFB60EE
:103CF000FB68B3F1807F18D3FB6807EE903AB8EE0B
:103D0000677ADFED1A6AC7EE267AFCEEE77A17EEDD
:103D1000903A0133164A1360154B1B68FA68B2FBE0
:103D2000F3F31846FFF77AFF05E0114B00221A6003
:103D3000F868FFF773FF0F4B00221A6003214FF062
:103D4000FF30FFF741FF0C4A0C4B1A600F216FF058
:103D50000400FFF739FF0F216FF00100FFF734FF78
:103D600000BF1037BD4680BD08000020FFFF7F4B1D
:103D7000C0020020BC020020613C0008C4020020F8
:103D8000EFF3008001B5EFF3118003B41EF0100FC4
:103D900008BFB0EE400A0A48006803B488B004A027
:103DA00006904FF0807007906FF0060086467047CF
:103DB00003BC8047BFF36F8F00DFFEE700BF00004A
:103DC000C40200201EF0100F08BFB0EE400A1EF023
:103DD000040F0CBFEFF30880EFF30980816911F83D
:103DE000020C10B101280DD00BE01EF0100F0CBF1B
:103DF0001AB008B003BC80F3118803BC80F30088BC
:103E00000847FEE74EF61451CEF200010A6842F070
:103E100001020A607047F4E700BF00BF80B400AF42
:103E2000044BDB681B0A03F007031846BD465DF828
:103E3000047B704700ED00E080B483B000AF034620
:103E4000FB7197F90730002B0BDBFB7903F01F02A6
:103E5000074997F907305B09012000FA02F241F89F
:103E6000232000BF0C37BD465DF8047B704700BFC0
:103E700000E100E080B483B000AF03463960FB711D
:103E800097F90730002B0ADB3B68DAB20C4997F947
:103E900007301201D2B20B4483F800230AE03B68DA
:103EA000DAB20849FB7903F00F03043B1201D2B2E6
:103EB0000B441A7600BF0C37BD465DF8047B704793
:103EC00000E100E000ED00E080B489B000AFF860F0
:103ED000B9607A60FB6803F00703FB61FB69C3F11B
:103EE0000703042B28BF0423BB61FB690433062BA3
:103EF00002D9FB69033B00E000237B614FF0FF32F6
:103F0000BB6902FA03F3DA43BB681A407B699A4043
:103F10004FF0FF317B6901FA03F3D9437B680B4013
:103F2000134318462437BD465DF8047B704780B4C0
:103F300083B000AF786039607B689B6823F0E072E3
:103F40003B681A437B689A6000BF0C37BD465DF83A
:103F5000047B704780B487B000AFF860B9607A60C6
:103F6000FB6830331A46BB681B0A9B0003F00C0346
:103F700013447B617B691A68BB6803F01F031F2130
:103F800001FA03F3DB431A407B689B0E03F01F0129
:103F9000BB6803F01F0301FA03F31A437B691A603D
:103FA00000BF1C37BD465DF8047B704780B487B006
:103FB00000AFF860B9607A60FB6814331A46BB68DA
:103FC0005B0E9B0003F0040313447B617B691A685A
:103FD000BB681B0D03F01F03072101FA03F3DB434A
:103FE0001A40BB681B0D03F01F03796801FA03F345
:103FF0001A437B691A6000BF1C37BD465DF8047B1D
:104000007047000080B485B000AFF860B9607A6096
:10401000FB68D3F8B020BB68C3F31203DB431A403C
:104020007B6803F018030849D940BB680B40C3F311
:1040300012031A43FB68C3F8B02000BF1437BD4613
:104040005DF8047B704700BFFFFF070080B483B0BA
:1040500000AF786039607B681B6923F4806323F0CC
:1040600003033A681A437B681A6100BF0C37BD46E8
:104070005DF8047B704780B483B000AF78607B68E4
:104080009B6823F0204323F03F037A68936000BFCE
:104090000C37BD465DF8047B704780B483B000AF39
:1040A00078607B689B6823F0104323F03F0343F064
:1040B00080527B689A6000BF0C37BD465DF8047B78
:1040C0007047000080B487B000AFF860B9607A60D4
:1040D000FB687B610E4ABB6813441B781A467B69F8
:1040E00013441B6823F4804323F010030849BA6883
:1040F0000A44127811467A690A4411467A681343D1
:104100000B6000BF1C37BD465DF8047B704700BFE5
:10411000147F000880B487B000AFF860B9607A609F
:10412000FB687B610D4ABB6813441B781A467B69A8
:1041300013441B6823F020020849BB680B441B781A
:1041400019467B690B4419467B6813430B6000BF1B
:104150001C37BD465DF8047B704700BF147F000824
:1041600080B487B000AFF860B9607A60FB687B61AB
:104170000D4ABB6813441B781A467B6913441B68BD
:1041800023F040020849BB680B441B7819467B6941
:104190000B4419467B6813430B6000BF1C37BD46B8
:1041A0005DF8047B704700BF147F000880B487B0BF
:1041B00000AFF860B9607A60FB687B610D4ABB684C
:1041C00013441B781A467B6913441B6823F0800252
:1041D0000849BB680B441B7819467B690B44194698
:1041E0007B6813430B6000BF1C37BD465DF8047B42
:1041F000704700BF147F000880B487B000AFF8603C
:10420000B9607A60FB687B610D4ABB6813441B7818
:104210001A467B6913441B6823F440720849BB6843
:104220000B441B7819467B690B4419467B68134382
:104230000B6000BF1C37BD465DF8047B704700BFB4
:10424000147F000880B487B000AFF860B9607A606E
:10425000FB687B610D4ABB6813441B781A467B6977
:1042600013441B6823F440620849BB680B441B7865
:1042700019467B690B4419467B6813430B6000BFEA
:104280001C37BD465DF8047B704700BF147F0008F3
:1042900080B487B000AFF860B9607A60FB687B617A
:1042A0000D4ABB6813441B781A467B6913441B688C
:1042B00023F440520849BB680B441B7819467B69BC
:1042C0000B4419467B6813430B6000BF1C37BD4687
:1042D0005DF8047B704700BF147F000880B489B08C
:1042E00000AFF860B9607A60FB68A8331A68BB68F1
:1042F0009B000F2101FA03F3DB431A40BB689B00CC
:104300000F2101FA03F3BB61BB6993FAA3F37B614D
:104310007B69FB61FB69002B01D1202303E0FB6972
:10432000B3FA83F3DBB219467B688B40F968A83196
:1043300013430B6000BF2437BD465DF8047B704714
:1043400080B483B000AF78607B681B6823F40032D0
:104350007B681A6000BF0C37BD465DF8047B704770
:1043600080B483B000AF78607B681B6823F40022C0
:104370007B681A6000BF0C37BD465DF8047B704750
:1043800080B485B000AFF860B9607A60FB68DB6824
:1043900023F4FF6323F00603B9687A680A431A43DB
:1043A000FB68DA6000BF1437BD465DF8047B7047D8
:1043B00080B483B000AF78607B68DB6823F4004290
:1043C0007B68DA6000BF0C37BD465DF8047B704740
:1043D00080B483B000AF78607B685B6843F00072A4
:1043E0007B685A6000BF0C37BD465DF8047B7047A0
:1043F00080B400AF064BD3F89030054A43F0010378
:10440000C2F8903000BFBD465DF8047B704700BF26
:104410000010024080B483B000AF7860074BD3F83F
:10442000903023F0180205497B681343C1F890309F
:1044300000BF0C37BD465DF8047B7047001002409A
:1044400080B400AF074BD3F8903003F00203022B87
:1044500001D1012300E000231846BD465DF8047B2E
:10446000704700BF0010024080B400AF054B1B68CE
:10447000044A43F00103136000BFBD465DF8047BAE
:10448000704700BF0010024080B400AF064B1B68AD
:1044900003F00203022B01D1012300E000231846A0
:1044A000BD465DF8047B70470010024080B400AF49
:1044B000054B1B68044A43F00403136000BFBD466C
:1044C0005DF8047B704700BF0010024080B400AF6D
:1044D000054B1B68044A43F00803136000BFBD4648
:1044E0005DF8047B704700BF0010024080B483B0C9
:1044F00000AF7860064B1B6823F0F00204497B682C
:1045000013430B6000BF0C37BD465DF8047B70475A
:104510000010024080B483B000AF7860074B5B6846
:1045200023F47F427B681B02044913434B6000BFA6
:104530000C37BD465DF8047B704700BF0010024099
:1045400080B483B000AF7860064B9B6823F0030211
:1045500004497B6813438B6000BF0C37BD465DF890
:10456000047B70470010024080B400AF044B9B688E
:1045700003F00C031846BD465DF8047B704700BF8E
:104580000010024080B483B000AF7860064B9B6897
:1045900023F0F00204497B6813438B6000BF0C37A3
:1045A000BD465DF8047B70470010024080B483B0C4
:1045B00000AF7860064B9B6823F4E06204497B6897
:1045C00013438B6000BF0C37BD465DF8047B70471A
:1045D0000010024080B483B000AF7860064B9B6847
:1045E00023F4605204497B6813438B6000BF0C378F
:1045F000BD465DF8047B70470010024080B483B074
:1046000000AF7860094BD3F888207B681B0CDB4334
:104610001A407B689BB205491343C1F8883000BF3C
:104620000C37BD465DF8047B704700BF00100240A8
:1046300080B485B000AF78607B681A0E0F4B1344CE
:10464000FB60FB681A687B681B0C03F01F030321E7
:1046500001FA03F3DB431A407B68D9B27B681B0C79
:1046600003F01F0301FA03F31A43FB681A6000BF4B
:104670001437BD465DF8047B704700BF88100240C8
:1046800080B483B000AF7860074BD3F8883023F054
:10469000405205497B681343C1F8883000BF0C378E
:1046A000BD465DF8047B70470010024080B400AF47
:1046B000054B1B68044A43F08073136000BFBD467E
:1046C0005DF8047B704700BF0010024080B400AF6B
:1046D000074B1B6803F00073B3F1007F01D1012386
:1046E00000E000231846BD465DF8047B704700BF1C
:1046F0000010024080B485B000AFF860B9607A6005
:104700003B600A4BDA680A4B1340F968BA681143F8
:104710007A68120211433A680A4304491343CB6092
:1047200000BF1437BD465DF8047B7047001002409F
:104730008C80FFF980B400AF054BDB68044A43F07E
:104740008073D36000BFBD465DF8047B704700BF37
:104750000010024080B400AF054B1B68044A43F0D0
:104760008063136000BFBD465DF8047B704700BFE7
:104770000010024080B400AF074B1B6803F00063D9
:10478000B3F1006F01D1012300E000231846BD46BC
:104790005DF8047B704700BF0010024080B485B014
:1047A00000AFF860B9607A603B600E4BDB6823F0C5
:1047B0007302F968BB680B430A491343CB60094B8A
:1047C0001B6923F0C06323F4FE437A6811023A6840
:1047D0000A43044913430B6100BF1437BD465DF81B
:1047E000047B70470010024080B400AF054B1B698A
:1047F000044A43F08073136100BFBD465DF8047B3B
:10480000704700BF0010024080B485B000AF7860F0
:10481000084B9A6C07497B6813438B64054B9A6C71
:104820007B681340FB60FB6800BF1437BD465DF832
:10483000047B70470010024080B485B000AF786000
:10484000084BDA6C07497B681343CB64054BDA6C81
:104850007B681340FB60FB6800BF1437BD465DF802
:10486000047B70470010024080B485B000AF7860D0
:10487000084B9A6D07497B6813438B65054B9A6D0E
:104880007B681340FB60FB6800BF1437BD465DF8D2
:10489000047B70470010024080B485B000AF7860A0
:1048A000084B1A6E07497B6813430B66054B1A6E5B
:1048B0007B681340FB60FB6800BF1437BD465DF8A2
:1048C000047B70470010024080B487B000AF78606E
:1048D0003960174A3B68DBB2023352F823203B6849
:1048E0001B0CDB4302EA03013B681B0C3B613B6989
:1048F00093FAA3F3FB60FB687B617B69002B01D11A
:10490000202303E07B69B3FA83F3DBB21A467B68AA
:1049100003FA02F206483B68DBB20A43023340F86E
:10492000232000BF1C37BD465DF8047B704700BFE5
:104930000000014080B483B000AF7860064B1B6874
:1049400023F0070204497B6813430B6000BF0C3758
:10495000BD465DF8047B70470020024080B400AF84
:10496000044B1B6803F007031846BD465DF8047B43
:10497000704700BF0020024080B483B000AF786071
:10498000064B1B6823F4C06204497B6813430B6029
:1049900000BF0C37BD465DF8047B704700700040D7
:1049A00080B400AF054B1B68044A43F48073136066
:1049B00000BFBD465DF8047B704700BF007000403B
:1049C00080B400AF074B5B6903F48063B3F5806F7D
:1049D00001D1012300E000231846BD465DF8047BA9
:1049E000704700BF0070004080B483B000AF7860B3
:1049F0007B681B6823F080027B681A6000BF0C375D
:104A0000BD465DF8047B704780B485B000AF786028
:104A100039603B68012B28D03B68042B23D03B68CE
:104A2000102B1ED03B68402B19D03B68B3F5807F1C
:104A300013D03B68B3F5806F0DD03B68B3F5805F52
:104A400007D03B68B3F5803F01D107230EE0082370
:104A50000CE006230AE0052308E0042306E0032314
:104A600004E0022302E0012300E00023FB737B68E3
:104A700018331946FB7B0B4AD35C0B44BB60BB6805
:104A80001A68FB7B0849CB5C194604238B40DB4347
:104A90001A40BB681A6000BF1437BD465DF8047B3E
:104AA000704700BF1C7F0008287F000880B485B0D5
:104AB00000AF786039603B68012B28D03B68042B3D
:104AC00023D03B68102B1ED03B68402B19D03B688D
:104AD000B3F5807F13D03B68B3F5806F0DD03B6892
:104AE000B3F5805F07D03B68B3F5803F01D1072362
:104AF0000EE008230CE006230AE0052308E0042367
:104B000006E0032304E0022302E0012300E0002387
:104B1000FB737B6818331946FB7B0A4AD35C0B4452
:104B2000BB60BB681A68FB7B0749CB5C194608234E
:104B30008B401A43BB681A6000BF1437BD465DF84E
:104B4000047B70471C7F0008287F000880B483B076
:104B500000AF78607B689B6823F480427B689A6032
:104B600000BF0C37BD465DF8047B704780B483B04E
:104B700000AF786039607B689B6823F4A03323F032
:104B800007033A681A437B689A6000BF0C37BD463A
:104B90005DF8047B704780B483B000AF7860396003
:104BA0007B685B6823F070023B681A437B685A603D
:104BB00000BF0C37BD465DF8047B704780B483B0FE
:104BC00000AF786039607B685B6823F470023B68F3
:104BD0001A437B685A6000BF0C37BD465DF8047B02
:104BE000704780B483B000AF78607B689B6823F027
:104BF00080027B689A6000BF0C37BD465DF8047B7D
:104C0000704780B485B000AFF860B9607A603B60EF
:104C1000FB689B6823F43F42B9687B6819433B6893
:104C20000B431A43FB689A6000BF1437BD465DF81A
:104C3000047B704780B483B000AF786039607B68D4
:104C40009B6823F008023B681A437B689A6000BFA8
:104C50000C37BD465DF8047B704780B483B000AF6D
:104C600078607B681B6843F001027B681A6000BFB4
:104C70000C37BD465DF8047B704780B483B000AF4D
:104C800078607B685B6823F490427B685A607B683D
:104C90009B6823F02A027B689A6000BF0C37BD46F0
:104CA0005DF8047B704780B48BB000AFF860B960EA
:104CB0007A60FB681A68BB687B617B6993FAA3F32F
:104CC0003B613B69BB61BB69002B01D1202303E041
:104CD000BB69B3FA83F3DBB25B00032101FA03F390
:104CE000DB431A40BB683B623B6A93FAA3F3FB6168
:104CF000FB697B627B6A002B01D1202303E07B6A86
:104D0000B3FA83F3DBB25B00796801FA03F31A4369
:104D1000FB681A6000BF2C37BD465DF8047B704706
:104D200080B48BB000AFF860B9607A60FB68DA6875
:104D3000BB687B617B6993FAA3F33B613B69BB6111
:104D4000BB69002B01D1202303E0BB69B3FA83F3D5
:104D5000DBB25B00032101FA03F3DB431A40BB68BB
:104D60003B623B6A93FAA3F3FB61FB697B627B6A5C
:104D7000002B01D1202303E07B6AB3FA83F3DBB27B
:104D80005B00796801FA03F31A43FB68DA6000BF3D
:104D90002C37BD465DF8047B704780B483B000AF0C
:104DA000786039607B683A689A6200BF0C37BD460C
:104DB0005DF8047B7047000080B500AF0120FFF76D
:104DC000B9FD00BFFFF7CAFD0346012BFAD14FF42E
:104DD0000070FFF7D1FD00BFFFF7F2FD0346002B87
:104DE000FAD1FFF741FB00BFFFF74EFB0346012B53
:104DF000FAD1FFF76BFB6020FFF778FB0020FFF78D
:104E000089FBFFF7CDFD0020FFF704FBFFF7F0FA69
:104E100000BFFFF715FB0346012BFAD1FFF746FB56
:104E20000023102200210120FFF764FCFFF782FC21
:104E3000FFF73CFC00BFFFF749FC0346012BFAD10A
:104E40000320FFF77DFB00BFFFF78EFB03460C2B13
:104E5000FAD10020FFF796FB0020FFF7A7FB002008
:104E6000FFF7B8FB064800F081FE0F2000F004FEBB
:104E70000346002B01D000F085FD00BF80BD00BFC0
:104E80000048E80180B500AF002310220021012076
:104E9000FFF784FCFFF7A8FCFFF75CFC00BFFFF7FF
:104EA00069FC0346012BFAD100BF00BF80BD0000A2
:104EB00080B592B000AF07F1380300221A605A6043
:104EC0009A6007F1200300221A605A609A60DA6043
:104ED0001A615A610023FB613B1D00221A605A606F
:104EE0009A60DA601A615A614FF08050FFF7C8FB90
:104EF0004FF40050FFF7A0FC0120FFF79DFCBA2300
:104F00007B600323BB6000237B613B1D19464FF090
:104F1000904001F02AFC002200216A48FFF7DEF9E8
:104F2000002200216748FFF7CDF8002200216548E4
:104F3000FFF7AEF9202200216248FFF7EBF80022CC
:104F400000216048FFF70CF9802200215D48FFF73F
:104F50002DF94FF4807200215A48FFF74DF94FF4B4
:104F6000806200215748FFF76DF9FEF757FF0346AF
:104F7000002200211846FEF7A7FF0346194612201B
:104F8000FEF778FF1220FEF757FF0023BB630023D4
:104F9000FB6300233B6407F1380319464A4801F0DC
:104FA000A9FC00233B6204237B620023BB62002335
:104FB000FB6203233B6300237B6307F12003194655
:104FC000414801F0BDFC00213F48FFF73FF80023B6
:104FD000FB6107F11C0319463C4801F06DFC002100
:104FE0003A48FEF7A4FF3848FFF745F83648FFF780
:104FF00054F8374B1B689B09364AA2FB03239A09D6
:1050000013469B0013449B001A46334BA3FB022319
:10501000DB087B6402E07B6C013B7B647B6C002BD8
:10502000F9D12E4A06212848FEF794FF00222B4989
:105030002548FEF7BBFF7F2228492348FEF7E2FF01
:10504000274A0C212048FEF785FF002224491E48EC
:10505000FEF7ACFF7F2222491B48FEF7D3FF214A0F
:1050600012211948FEF776FF00221E491648FEF766
:105070009DFF7F221B491448FEF7C4FF1A4A1821DE
:105080001148FEF767FF002217490F48FEF78EFF11
:105090007F2215490C48FEF7B5FF144A4FF4807182
:1050A0000948FEF757FF002210490748FEF77EFF28
:1050B0007F220E490448FEF7A5FF00BF4837BD46D2
:1050C00080BD00BF000002400000045000030450F7
:1050D00008000020632D3E05CDCCCCCC400020192B
:1050E000000180210002B0250004002A0010603277
:1050F00080B58EB000AF07F11C0300221A605A6021
:105100009A60DA601A615A619A613B1D00221A6046
:105110005A609A60DA601A615A614FF44020FFF7D2
:1051200087FA0220FFF788FBC0237B600223BB6065
:105130000323FB6001233B6100237B610423BB61EC
:105140003B1D19463F4801F010FB4FF40010FFF7DC
:105150008BFB052205213C48FFF7C0F80022052102
:105160003948FEF7AFFF002205213748FFF790F8D6
:10517000202205213448FEF7CDFF002205213248C8
:10518000FEF7EEFF802205212F48FFF70FF80022DF
:1051900005212D48FFF730F8002205212A48FFF7A6
:1051A00051F8052206212848FFF798F81022062119
:1051B0002548FEF787FF002206212348FFF768F8FD
:1051C000202206212048FEF7A5FF002206211E48C6
:1051D000FEF7C6FF802206211B48FEF7E7FF0022EC
:1051E00006211948FFF708F8002206211648FFF7A4
:1051F00029F81648FFF7ECF81448FFF7D9F81348D8
:10520000FFF7AEF81148FFF79BF80023FB61104B46
:105210003B6200237B620023BB620023FB6200230E
:105220003B6300237B6307F11C031946074801F029
:10523000E2FD002200210548FFF7A2F800BF383741
:10524000BD4680BD000400480004024000540040F8
:10525000B47CB00080B59EB000AF07F164030022BB
:105260001A605A609A60DA601A6107F144032022DA
:105270000021184602F001FE07F11C03282200213C
:10528000184602F0FAFD3B1D00221A605A609A602F
:10529000DA601A615A614FF40060FFF7FDFA0023EB
:1052A000A7F864300023BB664FF6FF73FB6600234C
:1052B0003B6700237B6707F1640319463C4801F014
:1052C00067FE3B48FFF790FB00213948FFF74EFC93
:1052D00001213748FFF7EAFB60237B640023BB64AE
:1052E0000023FB6400233B6500237B650023BB6533
:1052F0000023FB6500233B6607F144031A460121A6
:105300002B4801F0A3FE01212948FFF77DFB002176
:105310002748FFF78FFC2648FFF718FC00230022E0
:1053200000212348FFF76DFC00212148FFF733FCE3
:1053300000211F48FFF742FC1D48FFF752FC0023E5
:10534000FB6100233B6200237B62002387F8283047
:1053500000237B854FF40053FB6200233B63002353
:105360007B634FF00073BB630023FB6300233B644C
:1053700007F11C0319460E4801F0C8FE0120FFF793
:105380005BFA4FF480737B600223BB600023FB60F9
:1053900000233B6100237B610123BB613B1D194658
:1053A0004FF0904001F0E1F900BF7837BD4680BD75
:1053B000002C014080B59EB000AF07F164030022CD
:1053C0001A605A609A60DA601A6107F14403202279
:1053D0000021184602F051FD07F11C03282200218C
:1053E000184602F04AFD3B1D00221A605A609A607E
:1053F000DA601A615A614FF40030FFF74DFA00236A
:10540000A7F864300023BB664FF6FF73FB660023EA
:105410003B6700237B6707F164031946294801F0C5
:10542000B7FD2848FFF7E0FA01212648FFF73EFBC9
:1054300060237B640023BB640023FB6400233B6583
:1054400000237B650023BB650023FB6500233B66CF
:1054500007F144031A4601211A4801F0F7FD012122
:105460001848FFF7D1FA0023FB6100233B620023B9
:105470007B62002387F8283000237B854FF400539C
:10548000FB6200233B6407F11C0319460D4801F041
:105490003DFE0120FFF7D0F940237B600223BB6073
:1054A0000023FB6000233B6100237B610E23BB6173
:1054B0003B1D19464FF0904001F057F900BF783777
:1054C000BD4680BD0044014080B58EB000AF07F1FD
:1054D0001C0300221A605A609A60DA601A615A61ED
:1054E0009A613B1D00221A605A609A60DA601A6164
:1054F0005A614FF44030FFF781F84FF48040FFF7D6
:10550000CBF90120FFF798F94FF4C0637B600223C9
:10551000BB600323FB6000233B6100237B61072307
:10552000BB613B1D19464FF0904001F01EF94FF44E
:10553000E133FB6100233B6200237B620023BB62FB
:105540000C23FB6200233B6300237B6307F11C03F6
:105550001946064802F02EF90448FFF78EFB03486F
:10556000FFF77BFB00BF3837BD4680BD00380140E8
:1055700080B58EB000AF07F11C0300221A605A609C
:105580009A60DA601A615A619A613B1D00221A60C2
:105590005A609A60DA601A615A614FF44020FFF74E
:1055A0002DF84FF40030FFF75FF90120FFF744F9C1
:1055B00004237B600223BB600323FB6000233B6169
:1055C00000237B610723BB613B1D19464FF09040D0
:1055D00001F0CBF84FF400437B600223BB60032350
:1055E000FB6000233B6100237B610323BB613B1D08
:1055F00019464FF0904001F0B8F8022205213E48CC
:10560000FEF76CFE002205213B48FEF75BFD002201
:1056100005213948FEF73CFE002205213648FEF7F9
:1056200079FD002205213448FEF79AFD80220521EC
:105630003148FEF7BBFD002205212F48FEF7DCFDB7
:10564000002205212C48FEF7FDFD022206212A48F2
:10565000FEF744FE102206212748FEF733FD002204
:1056600006212548FEF714FE002206212248FEF7F7
:1056700051FD002206212048FEF772FD80220621FE
:105680001D48FEF793FD002206211B48FEF7B4FDDE
:10569000002206211848FEF7D5FDFEF7BFFB0346A2
:1056A000002200211846FEF70FFC0346194626206B
:1056B000FEF7E0FB2620FEF7BFFB4FF4E133FB6172
:1056C00000233B6200237B620023BB620C23FB624E
:1056D00000233B6300237B6307F11C031946074843
:1056E00002F068F80548FFF7C8FA0448FFF7B5FA72
:1056F00000BF3837BD4680BD000002400044004076
:1057000080B500AF0120FFF77FF80220FFF77CF89B
:10571000FEF784FB0346002200211846FEF7D4FB67
:10572000034619460B20FEF7A5FB0B20FEF784FB72
:10573000FEF774FB0346002200211846FEF7C4FB67
:10574000034619461020FEF795FB1020FEF774FB68
:10575000FEF764FB0346002200211846FEF7B4FB67
:10576000034619461120FEF785FB1120FEF764FB66
:10577000FEF754FB0346002200211846FEF7A4FB67
:10578000034619464420FEF775FB4420FEF754FB00
:10579000FEF744FB0346002200211846FEF794FB67
:1057A000034619464520FEF765FB4520FEF744FBFE
:1057B00000BF80BD80B58AB000AF07F11C03002296
:1057C0001A605A609A603B1D00221A605A609A6003
:1057D000DA601A615A610420FFF72EF80120FFF702
:1057E0002BF80220FFF728F841F601014FF0904016
:1057F000FFF7D3FA41F601037B600123BB6000236E
:10580000FB6000233B6100237B613B1D19464FF089
:10581000904000F0AAFF12237B600023BB600023AE
:105820007B613B1D19464C4800F09FFF4FF47021EF
:105830000120FFF749F84FF070410120FFF744F8CD
:1058400046490120FFF740F80123FB6100233B623A
:10585000012387F82430002387F82530032387F8B5
:10586000263007F11C03184600F0C0FA0823FB613C
:1058700000233B62012387F82430002387F825307A
:10588000032387F8263007F11C03184600F0AEFA10
:105890002023FB6100233B62012387F8243000238F
:1058A00087F82530022387F8263007F11C031846B5
:1058B00000F09CFA002201212748FFF731FA00226C
:1058C00008212548FFF72CFA002220212248FFF763
:1058D00027FA002201212048FFF7E5F900220821DC
:1058E0001D48FFF7E0F9002220211B48FFF7DBF9F4
:1058F000FEF794FA0346002200211846FEF7E4FA68
:10590000034619460620FEF7B5FA0620FEF794FA7C
:10591000FEF784FA0346002200211846FEF7D4FA67
:10592000034619460920FEF7A5FA0920FEF784FA76
:10593000FEF774FA0346002200211846FEF7C4FA67
:10594000034619461720FEF795FA1720FEF774FA5A
:1059500000BF2837BD4680BD000400480100F000AC
:1059600080B582B000AF78607B681B68044A9342C0
:1059700001D101F047F800BF0837BD4680BD00BF28
:105980000010004080B400AF72B600BF00BFFDE75A
:1059900080B400AF00BFFDE780B400AF00BFFDE7FB
:1059A00080B400AF00BFFDE780B400AF00BFFDE7EB
:1059B00080B400AF00BFFDE780B400AF00BFBD46BC
:1059C0005DF8047B704780B400AF00BFBD465DF852
:1059D000047B704780B400AF00BFBD465DF8047B18
:1059E000704780B400AF00BFBD465DF8047B7047D0
:1059F00080B400AF00BFBD465DF8047B7047000077
:105A000080B500AF024800F09BFB00BF80BD00BF27
:105A1000C802002080B400AF00BFBD465DF8047B23
:105A2000704780B400AF00BFBD465DF8047B70478F
:105A300080B483B000AF0F4B1B6E0E4A43F00103DE
:105A400013660C4B1B6E03F001037B607B68094BF4
:105A50009B6D084A43F080539365064B9B6D03F0A2
:105A600080533B603B6800BF0C37BD465DF8047B4C
:105A7000704700BF0010024080B58EB000AF786064
:105A8000002387F83330344B9B6D334A43F01003C7
:105A90009365314B9B6D03F01003FB60FB6807F1CE
:105AA000100207F114031146184600F0EDFF3B6A9F
:105AB000FB62FB6A002B03D100F0D0FF786304E0A7
:105AC00000F0CCFF03465B007B637B6B234AA2FBA9
:105AD00003239B0C013BBB62214B224A1A60204BE3
