:020000040800F2
:1000000000C00020E5E30008C1C30008C9C3000820
:10001000D1C30008D9C30008E1C3000800000000F4
:1000200000000000000000000000000051930008E4
:10003000E9C30008000000000D9300083D9200088D
:1000400035E4000835E4000835E4000835E400082C
:1000500035E4000835E4000835E4000835E400081C
:1000600035E4000835E4000835E4000869140008A8
:1000700035E4000835E4000835E4000835E40008FC
:10008000B5A4000895A40008F7C3000835E40008EB
:1000900035E4000835E4000835E4000835E40008DC
:1000A00035E4000835E4000835E4000835E40008CC
:1000B00035E40008000000000000000035E40008FE
:1000C00035E40008000000000000000035E40008EE
:1000D0000000000035E4000881A4000800000000D2
:1000E00035E4000835E400080000000000000000CE
:1000F0000000000000000000000000000000000000
:1001000000000000000000000000000035E40008CE
:10011000000000000000000005C4000835E40008ED
:1001200035E4000835E4000835E4000835E400084B
:1001300035E400080000000000000000000000009E
:1001400035E4000835E4000835E4000835E400082B
:1001500019C4000827C4000835E4000835E4000885
:1001600035E4000835E4000835E40008000000002C
:1001700035E4000835E4000800000000000000003D
:0C01800035E4000835E4000835E4000810
:1001900081F0004102E000BF83F0004330B54FEA38
:1001A00041044FEA430594EA050F08BF90EA020FA5
:1001B0001FBF54EA000C55EA020C7FEA645C7FEA38
:1001C000655C00F0E2804FEA5454D4EB5555B8BF5B
:1001D0006D420CDD2C4480EA020281EA030382EACC
:1001E000000083EA010180EA020281EA0303362D5E
:1001F00088BF30BD11F0004F4FEA01314FF4801C31
:100200004CEA113102D0404261EB410113F0004F42
:100210004FEA03334CEA133302D0524263EB4303F9
:1002200094EA050F00F0A780A4F10104D5F1200E97
:100230000DDB02FA0EFC22FA05F2801841F10001F2
:1002400003FA0EF2801843FA05F359410EE0A5F1C6
:1002500020050EF1200E012A03FA0EFC28BF4CF0F7
:10026000020C43FA05F3C01851EBE37101F00045AD
:1002700007D54FF0000EDCF1000C7EEB00006EEBBA
:100280000101B1F5801F1BD3B1F5001F0CD3490844
:100290005FEA30004FEA3C0C04F101044FEA44529B
:1002A00012F5800F80F09A80BCF1004F08BF5FEA22
:1002B000500C50F1000041EB045141EA050130BD02
:1002C0005FEA4C0C404141EB0101013C28BFB1F514
:1002D000801FE9D291F0000F04BF01460020B1FA5F
:1002E00081F308BF2033A3F10B03B3F120020CDA32
:1002F0000C3208DD02F1140CC2F10C0201FA0CF010
:1003000021FA02F10CE002F11402D8BFC2F1200C74
:1003100001FA02F120FA0CFCDCBF41EA0C0190402A
:10032000E41AA2BF01EB0451294330BD6FEA040473
:100330001F3C1CDA0C340EDC04F11404C4F120025E
:1003400020FA04F001FA02F340EA030021FA04F370
:1003500045EA030130BDC4F10C04C4F1200220FAC7
:1003600002F001FA04F340EA0300294630BD21FA05
:1003700004F0294630BD94F0000F83F4801306BFCB
:1003800081F480110134013D4EE77FEA645C18BFBF
:100390007FEA655C29D094EA050F08BF90EA020F56
:1003A00005D054EA000C04BF1946104630BD91EA4E
:1003B000030F1EBF0021002030BD5FEA545C05D151
:1003C0004000494128BF41F0004130BD14F5800490
:1003D0003CBF01F5801130BD01F0004545F0FE4104
:1003E00041F470014FF0000030BD7FEA645C1ABF39
:1003F000194610467FEA655C1CBF0B46024650EA70
:10040000013406BF52EA033591EA030F41F400219B
:1004100030BD00BF90F0000F04BF0021704730B521
:100420004FF4806404F132044FF000054FF00001F6
:1004300050E700BF90F0000F04BF0021704730B5B7
:100440004FF4806404F1320410F0004548BF40428C
:100450004FF000013EE700BF42004FEAE2014FEAE1
:1004600031014FEA02701FBF12F07F4393F07F4FBC
:1004700081F06051704732F07F4208BF704793F0BF
:100480007F4F04BF41F40021704730B54FF46074D2
:1004900001F0004521F000411CE700BF50EA0102D5
:1004A00008BF704730B54FF000050AE050EA01027E
:1004B00008BF704730B511F0004502D5404261EBEE
:1004C00041014FF4806404F132045FEA915C3FF42F
:1004D000D8AE4FF003025FEADC0C18BF03325FEACC
:1004E000DC0C18BF033202EBDC02C2F1200300FA7D
:1004F00003FC20FA02F001FA03FE40EA0E0021FAA2
:1005000002F11444BDE600BF70B54FF0FF0C4CF48F
:10051000E06C1CEA11541DBF1CEA135594EA0C0F41
:1005200095EA0C0F00F0DEF82C4481EA030621EA7C
:100530004C5123EA4C5350EA013518BF52EA0335B7
:1005400041F4801143F4801338D0A0FB02CE4FF069
:100550000005E1FB02E506F00042E0FB03E54FF099
:100560000006E1FB03569CF0000F18BF4EF0010E91
:10057000A4F1FF04B6F5007F64F5407404D25FEA8D
:100580004E0E6D4146EB060642EAC62141EA555140
:100590004FEAC52040EA5E504FEACE2EB4F1FD0C82
:1005A00088BFBCF5E06F1ED8BEF1004F08BF5FEA00
:1005B000500E50F1000041EB045170BD06F00046B2
:1005C00046EA010140EA020081EA0301B4EB5C045F
:1005D000C2BFD4EB0C0541EA045170BD41F4801157
:1005E0004FF0000E013C00F3AB8014F1360FDEBF7C
:1005F000002001F0004170BDC4F10004203C35DA58
:100600000C341BDC04F11404C4F1200500FA05F3DA
:1006100020FA04F001FA05F240EA020001F000427B
:1006200021F0004110EBD37021FA04F642EB0601F1
:100630005EEA430E08BF20EAD37070BDC4F10C041B
:10064000C4F1200500FA04F320FA05F001FA04F2DF
:1006500040EA020001F0004110EBD37041F10001CB
:100660005EEA430E08BF20EAD37070BDC4F12005D6
:1006700000FA05F24EEA020E20FA04F301FA05F23E
:1006800043EA020321FA04F001F0004121FA04F2E6
:1006900020EA020000EBD3705EEA430E08BF20EAB6
:1006A000D37070BD94F0000F0FD101F000464000F0
:1006B00041EB010111F4801F08BF013CF7D041EA72
:1006C000060195F0000F18BF704703F00046520076
:1006D00043EB030313F4801F08BF013DF7D043EA47
:1006E0000603704794EA0C0F0CEA135518BF95EAFD
:1006F0000C0F0CD050EA410618BF52EA4306D1D184
:1007000081EA030101F000414FF0000070BD50EAA2
:10071000410606BF1046194652EA430619D094EA2C
:100720000C0F02D150EA013613D195EA0C0F05D116
:1007300052EA03361CBF104619460AD181EA03016A
:1007400001F0004141F0FE4141F470014FF0000022
:1007500070BD41F0FE4141F4780170BD70B54FF0BD
:10076000FF0C4CF4E06C1CEA11541DBF1CEA13553D
:1007700094EA0C0F95EA0C0F00F0A7F8A4EB05041F
:1007800081EA030E52EA03354FEA013100F0888016
:100790004FEA03334FF0805545EA131343EA1263DF
:1007A0004FEA022245EA111545EA10654FEA002694
:1007B0000EF000419D4208BF964244F1FD0404F54D
:1007C000407402D25B084FEA3202B61A65EB0305A9
:1007D0005B084FEA32024FF480104FF4002CB6EB66
:1007E000020E75EB030E22BFB61A754640EA0C00E6
:1007F0005B084FEA3202B6EB020E75EB030E22BF26
:10080000B61A754640EA5C005B084FEA3202B6EB66
:10081000020E75EB030E22BFB61A754640EA9C0025
:100820005B084FEA3202B6EB020E75EB030E22BFF5
:10083000B61A754640EADC0055EA060E18D04FEAB3
:10084000051545EA16754FEA06164FEAC30343EA53
:1008500052734FEAC2025FEA1C1CC0D111F4801F20
:100860000BD141EA00014FF000004FF0004CB6E719
:1008700011F4801F04BF01430020B4F1FD0C88BFB8
:10088000BCF5E06F3FF6AFAEB5EB030C04BFB6EBC3
:10089000020C5FEA500C50F1000041EB045170BDB6
:1008A0000EF0004E4EEA113114EB5C04C2BFD4EBE3
:1008B0000C0541EA045170BD41F480114FF0000E67
:1008C000013C90E645EA060E8DE60CEA135594EAE3
:1008D0000C0F08BF95EA0C0F3FF43BAF94EA0C0FE6
:1008E0000AD150EA01347FF434AF95EA0C0F7FF45B
:1008F00025AF104619462CE795EA0C0F06D152EAAF
:1009000003353FF4FDAE1046194622E750EA410692
:1009100018BF52EA43067FF4C5AE50EA41047FF4A3
:100920000DAF52EA43057FF4EBAE12E74FF0FF3C08
:1009300006E000BF4FF0010C02E000BF4FF0010CD9
:100940004DF804CD4FEA410C7FEA6C5C4FEA430C52
:1009500018BF7FEA6C5C1BD001B050EA410C0CBFA1
:1009600052EA430C91EA030F02BF90EA020F002003
:10097000704710F1000F91EA030F58BF994208BF6A
:1009800090422CBFD8176FEAE37040F00100704727
:100990004FEA410C7FEA6C5C02D150EA013C07D17E
:1009A0004FEA430C7FEA6C5CD6D152EA033CD3D0C9
:1009B0005DF8040B704700BF8446104662468C46C3
:1009C0001946634600E000BF01B5FFF7B7FF0028F6
:1009D00048BF10F1000F01BD4DF808EDFFF7F4FF1F
:1009E0000CBF012000205DF808FB00BF4DF808EDAA
:1009F000FFF7EAFF34BF012000205DF808FB00BFCD
:100A00004DF808EDFFF7E0FF94BF012000205DF8EE
:100A100008FB00BF4DF808EDFFF7CEFF94BF0120A3
:100A200000205DF808FB00BF4DF808EDFFF7C4FF9C
:100A300034BF012000205DF808FB00BF4FEA410CE5
:100A40007FEA6C5C02D150EA013C0AD14FEA430CC8
:100A50007FEA6C5C02D152EA033C02D14FF0000005
:100A600070474FF0010070474A0011D212F5001292
:100A700011D20DD56FF47873B3EB62520ED44FEAF6
:100A8000C12343F0004343EA505323FA02F0704776
:100A90004FF00000704750EA013002D14FF0FF30B4
:100AA00070474FF0000070474FEA4102B2F1E04357
:100AB00024BFB3F5001CDCF1FE5C0DD901F0004C45
:100AC0004FEAC0024CEA5070B2F1004F40EB830095
:100AD00008BF20F00100704711F0804F21D113F1C1
:100AE0003872BCBF01F00040704741F480114FEAFA
:100AF0005252C2F11802C2F1200C10FA0CF320FA83
:100B000002F018BF40F001004FEAC1234FEAD3239F
:100B100003FA0CFC40EA0C0023FA02F34FEA430309
:100B2000CCE77FEA625307D150EA01331EBF4FF092
:100B3000FE4040F44000704701F0004040F0FE40AD
:100B400040F40000704700BF0348044B834202D0CA
:100B5000034B03B118477047E4000020E400002075
:100B6000000000000548064B1B1AD90F01EBA3013A
:100B7000491002D0034B03B118477047E40000202E
:100B8000E40000200000000010B5064C237843B9B3
:100B9000FFF7DAFF044B13B10448AFF300800123E1
:100BA000237010BDE80000200000000030E80008BD
:100BB00008B5054B1BB105490548AFF30080BDE8FA
:100BC0000840FFF7CFBF00BF00000000EC0000208E
:100BD00030E8000880B483B000AF786039607B688B
:100BE000403318460C37BD465DF8047B704780B42F
:100BF00083B000AF78607B68DB6803F44063002B50
:100C000001D1012300E0002318460C37BD465DF8F2
:100C1000047B704780B483B000AF786039607B6834
:100C20001B6B23F00F023B681A437B681A6300BFFB
:100C30000C37BD465DF8047B704780B483B000AFCD
:100C4000786039607B68DB6823F003023B681A43F5
:100C50007B68DA6000BF0C37BD465DF8047B7047E7
:100C600080B483B000AF78607B68DB6C03F0C003B6
:100C7000002B01D1012300E0002318460C37BD46AC
:100C80005DF8047B704780B483B000AF78607B6808
:100C90009B6823F0004323F03F0343F001027B688D
:100CA0009A6000BF0C37BD465DF8047B704780B486
:100CB00083B000AF78607B689B6823F0004323F02B
:100CC0003F0343F002027B689A6000BF0C37BD46C9
:100CD0005DF8047B704780B483B000AF78607B68B8
:100CE0009B6803F00103012B01D1012300E00023E5
:100CF00018460C37BD465DF8047B704780B483B05E
:100D000000AF78607B689B6823F0004323F03F03CB
:100D100043F004027B689A6000BF0C37BD465DF863
:100D2000047B704780B483B000AF78607B689B68B9
:100D300023F0004323F03F0343F008027B689A60EE
:100D400000BF0C37BD465DF8047B704780B483B0AC
:100D500000AF78607B681B6803F00803082B01D1A3
:100D6000012300E0002318460C37BD465DF8047BE4
:100D7000704780B483B000AF78607B681B6803F075
:100D80001003102B01D1012300E0002318460C377B
:100D9000BD465DF8047B704780B483B000AF7860D7
:100DA0007B6810221A6000BF0C37BD465DF8047BDB
:100DB000704780B483B000AF78607B685B6843F0B5
:100DC00008027B685A6000BF0C37BD465DF8047BA3
:100DD000704780B483B000AF78607B685B6843F095
:100DE00040027B685A6000BF0C37BD465DF8047B4B
:100DF000704780B483B000AF78607B685B6823F095
:100E000008027B685A6000BF0C37BD465DF8047B62
:100E1000704780B483B000AF78607B685B6823F074
:100E200010027B685A6000BF0C37BD465DF8047B3A
:100E3000704780B483B000AF78607B685B6823F054
:100E400040027B685A6000BF0C37BD465DF8047BEA
:100E5000704780B483B000AF78607B685B6823F034
:100E600080027B685A6000BF0C37BD465DF8047B8A
:100E7000704780B483B000AF78607B685B6803F034
:100E80001003102B01D1012300E0002318460C377A
:100E9000BD465DF8047B704780B483B000AF7860D6
:100EA0007B685B6803F08003802B01D1012300E0A5
:100EB000002318460C37BD465DF8047B70470000E0
:100EC00080B485B000AF786039607B68FB600C4A05
:100ED0003B6813441B781A46FB6813441B68084997
:100EE0003A680A4412781146FA680A4443F001034A
:100EF000136000BF1437BD465DF8047B704700BF28
:100F0000E410010880B485B000AF786039607B6878
:100F1000FB600C4A3B6813441B781A46FB68134479
:100F20001B6808493A680A4412781146FA680A446C
:100F300023F00103136000BF1437BD465DF8047B46
:100F4000704700BFE410010880B485B000AF78603E
:100F500039607B68FB60084A3B6813441B781A467B
:100F6000FB6813441B6803F0200318461437BD4682
:100F70005DF8047B704700BFE410010880B487B0BF
:100F800000AFF860B9607A60FB687B610D4ABB68AE
:100F900013441B781A467B6913445B681B0C1B04C3
:100FA0000849BA680A44127811467A690A44114617
:100FB0007A6813434B6000BF1C37BD465DF8047B65
:100FC000704700BFE410010880B487B000AFF8603C
:100FD000B9607A603B60FB687B613B6A102B14D17F
:100FE000174ABB6813441B781A467B6913441A4698
:100FF0007B68D360124ABB6813441B781A467B692E
:1010000013441A463B68936013E00D4ABB681344CF
:101010001B781A467B6913441A467B689360084A1A
:10102000BB6813441B781A467B6913441A463B6815
:10103000D36000BF1C37BD465DF8047B704700BF1E
:10104000E410010880B487B000AFF860B9607A603E
:10105000FB687B61074ABB6813441B781A467B69AF
:1010600013441A467B68936000BF1C37BD465DF889
:10107000047B7047E410010880B483B000AF78604F
:101080007B681B6803F00203022B01D1012300E0FF
:10109000002318460C37BD465DF8047B704780B4CA
:1010A00083B000AF78607B6802225A6000BF0C37C3
:1010B000BD465DF8047B704780B485B000AF7860B2
:1010C00039607B68FB600C4A3B6813441B781A4606
:1010D000FB6813441B6808493A680A4412781146B1
:1010E000FA680A4443F00203136000BF1437BD4698
:1010F0005DF8047B704700BFE410010880B485B040
:1011000000AF786039607B68FB600C4A3B68134431
:101110001B781A46FB6813441B6808493A680A445E
:1011200012781146FA680A4443F00803136000BFBE
:101130001437BD465DF8047B704700BFE41001081A
:1011400080B485B000AF786039607B68FB600C4A82
:101150003B6813441B781A46FB6813441B68084914
:101160003A680A4412781146FA680A4423F00203E6
:10117000136000BF1437BD465DF8047B704700BFA5
:10118000E410010880B485B000AF786039607B68F6
:10119000FB600C4A3B6813441B781A46FB681344F7
:1011A0001B6808493A680A4412781146FA680A44EA
:1011B00023F00403136000BF1437BD465DF8047BC1
:1011C000704700BFE410010880B485B000AF7860BC
:1011D00039607B68FB600C4A3B6813441B781A46F5
:1011E000FB6813441B6808493A680A4412781146A0
:1011F000FA680A4423F00803136000BF1437BD46A1
:101200005DF8047B704700BFE410010880B485B02E
:1012100000AF786039607B68FB600A4A3B68134422
:101220001B781A46FB6813441B6803F00203022B69
:1012300001D1012300E0002318461437BD465DF8B4
:10124000047B7047E410010880B584B000AF78607B
:101250000123FB817B681B691846FFF7C8FC034626
:10126000002B2FD07B685B7ADBB2022B11D07B681E
:101270005B7ADBB2042B0CD07B685B7ADBB2082B89
:1012800007D07B681B691846FFF760FD0346012BFA
:1012900018D1786800F0F8F80346002B12D17B686B
:1012A0005B7ADBB2082B03D17B6801225A7202E021
:1012B0007B6820225A727B681B691846FFF71EFD67
:1012C0000023FB81FB8918461037BD4680BD80B5E1
:1012D00086B002AFF860B9607A603B600021F868C0
:1012E000FFF778FC03461A467968B868FFF7AAFE4C
:1012F0000021F868FFF76EFC02463B680021009170
:101300007968B868FFF760FEBA697968B868FFF76E
:1013100035FE7968B868FFF7CFFE7968B868FFF7DF
:10132000EDFE7968B868FFF7CBFD00BF1037BD460A
:1013300080BD80B584B000AFF860B9607A6079682C
:10134000B868FFF7DFFD7968B868FFF71BFF7968B9
:10135000B868FFF739FF7968B868FFF7F1FE002237
:101360007968B868FFF70AFE00BF1037BD4680BD38
:1013700080B584B000AF786039600223FB737B686E
:10138000DB79012B0FD17B68DA687B681B685B0017
:10139000D118FB7B7A68126802FB03F31A4638689F
:1013A0000DF038FA0AE07B68D968FB7B7A6812682E
:1013B00002FB03F31A4638680DF02CFA00BF103711
:1013C000BD4680BD80B586B000AFF860B9607A6078
:1013D000FB685A69FB689B7919461046FFF716FFB0
:1013E0000346DBB2012B37D1FB685A69BB68104654
:1013F00098470346012B2FD1FB6804225A72FB68E1
:101400005A697B6810469847FB685A69FB689B7964
:1014100019461046FFF798FD0346002B19D1FB68CB
:101420005A69FB689B7919461046FFF76BFDFB680C
:101430005869FB689B791946FB681B681A46FFF7D9
:101440009DFDFB685A69FB689B7919461046FFF7BA
:1014500037FD0123FB7501E00023FB75FB7D18467A
:101460001837BD4680BD000080B500AF034A04496F
:101470000448FFF7A7FF00BF80BD00BF9F10000812
:10148000791000080401002080B582B000AF7860B8
:101490007B681B691846FFF76CFC0346DBB2012B27
:1014A00007D17B681B691846FFF776FC7B68102222
:1014B0005A727B685B7ADBB2102B0CBF01230023CE
:1014C000DBB218460837BD4680BD80B582B000AF9C
:1014D00078600B46FB70FB78012B0DD17B681B6994
:1014E0001846FFF784FB0346012B12D07B681B696B
:1014F0001846FFF703FC0CE07B681B691846FFF7F2
:10150000AFFB0346012B04D07B681B691846FFF72D
:1015100009FC00BF0837BD4680BD000090B589B00A
:1015200002AFF860084611461A4603467B810B4617
:101530003B811346FB8000237B61FB681B693C4AAF
:10154000934201D13B4B7B617B69002B6BD0FB68E5
:101550001A697B691A617B690022DA71FB88012BA9
:1015600061D03B89002B47D07B695B7ADBB2082BCB
:1015700042D0FB68DA687B69DA60FB681A687B69CD
:101580001A60FB685A697B695A61FB689A797B69C2
:101590009A71FB681A797B691A717B691B69B96A50
:1015A0001846FFF737FB7B89012B21D07B89042B61
:1015B00016D17B691B6903211846FFF73EFB7B6947
:1015C00018697B6959697B699B791C467B69DA6874
:1015D0007B691B68009313462246FFF778FE07E0FD
:1015E0007B89022B04D17B691B691846FFF7E1FB5D
:1015F0007B6908225A7216E03B89002B13D17B6964
:101600009B7ADBB2082B0ED0FB685A797B695A7142
:101610007B89022B04D17B691B691846FFF7D9FB34
:101620007B6908229A727B6918461C37BD4690BDBB
:10163000000004500401002080B582B000AF786043
:101640007B681B691846FFF746FB0346002B04D155
:101650007B681B691846FFF716FB00BF0837BD46BD
:1016600080BD80B586B000AFF8600B467A607B81A4
:101670000123FB82FB681B69002B46D07B89012B71
:1016800005D1F868FFF7E0FD0346FB823DE07B896A
:10169000042B1FD1FB681B691846FFF7A8FA034605
:1016A000002B32D0FB6801225A72FB681B69184676
:1016B000FFF724FB00BFFB685B7ADBB2042BFAD197
:1016C0007968F868FFF754FEFB6808225A72002315
:1016D000FB821AE07B89022B17D1FB685B7ADBB2B5
:1016E000202B09D0FB685B7ADBB2042B04D0FB68AB
:1016F0005B7ADBB2102B08D1FB6808225A7279683A
:10170000F868FFF735FE0023FB82FB8A184618377E
:10171000BD4680BD80B582B000AF78600B467B804F
:1017200013463B807B681B691846FFF7D4FA0346D3
:10173000002B04D07B681B691846FFF7B8FA7B685A
:101740001B691846FFF7A8FB0346002B04D07B68F3
:101750001B691846FFF77DFB7B681B691846FFF77E
:1017600088FB0346002B04D07B681B691846FFF7F3
:1017700050FB3B88002B38D07B88012B1AD07B880C
:10178000022B05D17B681B691846FFF732FB11E07D
:101790007B88042B0ED17B6818697B6859697B684C
:1017A0009B791A46FFF7C5FD7B681B690021184627
:1017B000FFF743FA7B680022DA607B6800221A6038
:1017C0007B6800225A617B6800229A717B68002244
:1017D0001A717B6840225A727B681A697B681B7990
:1017E00019461046FFF716FA0DE07B6800225A7181
:1017F0007B6840229A727B88022B04D17B681B692C
:101800001846FFF716FB00BF0837BD4680BD80B401
:1018100085B000AF78607B681B6803F06003FB60F5
:10182000FB68002B04D17B681B6803F01003FB608E
:10183000FB6818461437BD465DF8047B704780B4DA
:1018400083B000AF78607B681B6B18460C37BD46D1
:101850005DF8047B704780B483B000AF7860396076
:101860007B681A6A3B681A437B681A6200BF0C37B0
:10187000BD465DF8047B704780B483B000AF7860EC
:1018800039607B681A6A3B68DB431A407B681A62DE
:1018900000BF0C37BD465DF8047B704780B483B051
:1018A00000AF78607B685B6C43F400427B685A64ED
:1018B00000BF0C37BD465DF8047B704780B483B031
:1018C00000AF78607B68DB6843F001027B68DA6018
:1018D00000BF0C37BD465DF8047B704780B483B011
:1018E00000AF78607B68DB6823F001027B68DA6018
:1018F00000BF0C37BD465DF8047B704780B483B0F1
:1019000000AF78607B68DB6803F00103012B01D135
:10191000012300E0002318460C37BD465DF8047B28
:10192000704780B483B000AF78607B68DB6843F0B9
:1019300002027B68DA6000BF0C37BD465DF8047BAD
:10194000704780B483B000AF78607B68DB6823F0B9
:1019500002027B68DA6000BF0C37BD465DF8047B8D
:10196000704780B483B000AF78607B68DB6803F0B9
:101970000203022B01D1012300E0002318460C379B
:10198000BD465DF8047B704780B483B000AF7860DB
:101990007B68DB6843F004027B68DA6000BF0C37C9
:1019A000BD465DF8047B704780B483B000AF7860BB
:1019B0007B68DB6823F004027B68DA6000BF0C37C9
:1019C000BD465DF8047B704780B483B000AF78609B
:1019D0007B68DB6803F00403042B01D1012300E0E2
:1019E000002318460C37BD465DF8047B704780B471
:1019F00083B000AF78607B68DB6843F008027B68E7
:101A0000DA6000BF0C37BD465DF8047B704780B4D8
:101A100083B000AF78607B68DB6823F008027B68E6
:101A2000DA6000BF0C37BD465DF8047B704780B4B8
:101A300083B000AF78607B68DB6803F00803082B95
:101A400001D1012300E0002318460C37BD465DF8A4
:101A5000047B704780B483B000AF78607B68DB683C
:101A600043F010027B68DA6000BF0C37BD465DF8BA
:101A7000047B704780B483B000AF78607B68DB681C
:101A800023F010027B68DA6000BF0C37BD465DF8BA
:101A9000047B704780B483B000AF78607B68DB68FC
:101AA00003F01003102B01D1012300E0002318469E
:101AB0000C37BD465DF8047B704780B483B000AF3F
:101AC00078607B68DB6843F020027B68DA6000BFE7
:101AD0000C37BD465DF8047B704780B483B000AF1F
:101AE00078607B68DB6823F020027B68DA6000BFE7
:101AF0000C37BD465DF8047B704780B483B000AFFF
:101B000078607B68DB6803F02003202B01D1012380
:101B100000E0002318460C37BD465DF8047B704793
:101B200080B483B000AF78607B68DB6843F040022C
:101B30007B68DA6000BF0C37BD465DF8047B7047F8
:101B400080B483B000AF78607B68DB6823F040022C
:101B50007B68DA6000BF0C37BD465DF8047B7047D8
:101B600080B483B000AF78607B68DB6803F040032B
:101B7000402B01D1012300E0002318460C37BD465D
:101B80005DF8047B704780B483B000AF78607B68F9
:101B9000DB6843F080027B68DA6000BF0C37BD462B
:101BA0005DF8047B704780B483B000AF78607B68D9
:101BB000DB6823F080027B68DA6000BF0C37BD462B
:101BC0005DF8047B704780B483B000AF78607B68B9
:101BD000DB6803F08003802B01D1012300E00023A8
:101BE00018460C37BD465DF8047B704780B582B05F
:101BF00000AF78600B467B807B8803F00103002BED
:101C00000CD07B681B681846FFF7AAFF0346012B20
:101C100004D07B681B681846FFF782FF7B8803F0BF
:101C20000203002B0CD07B681B681846FFF799FE57
:101C30000346012B04D07B681B681846FFF771FE32
:101C40007B8803F00403002B0CD07B681B681846CC
:101C5000FFF7BAFE0346012B04D07B681B681846C9
:101C6000FFF792FE7B8803F00803002B0CD07B6803
:101C70001B681846FFF7DBFE0346012B04D07B6888
:101C80001B681846FFF7B3FE7B8803F01003002B98
:101C90000CD07B681B681846FFF7FCFE0346012B3F
:101CA00004D07B681B681846FFF7D4FE7B8803F0DE
:101CB0002003002B0CD07B681B681846FFF71EFE24
:101CC0000346012B04D07B681B681846FFF7F6FD1E
:101CD0007B8803F04003002B0CD07B681B68184600
:101CE000FFF771FF0346012B04D07B681B68184681
:101CF000FFF749FF7B8803F08003002B0CD07B6843
:101D00001B681846FFF7F9FE0346012B04D07B68D9
:101D10001B681846FFF7D1FE00BF0837BD4680BDDF
:101D200080B582B000AF78600B467B807B8803F083
:101D30000103002B0CD07B681B681846FFF710FFCF
:101D40000346012B04D17B681B681846FFF7F8FE99
:101D50007B8803F00203002B0CD07B681B681846BD
:101D6000FFF7FFFD0346012B04D17B681B68184673
:101D7000FFF7E7FD7B8803F00403002B0CD07B68A2
:101D80001B681846FFF720FE0346012B04D17B6831
:101D90001B681846FFF708FE7B8803F00803002B3A
:101DA0000CD07B681B681846FFF741FE0346012BE9
:101DB00004D17B681B681846FFF729FE7B8803F077
:101DC0001003002B0CD07B681B681846FFF762FEDF
:101DD0000346012B04D17B681B681846FFF74AFEB7
:101DE0007B8803F02003002B0CD07B681B6818460F
:101DF000FFF784FD0346012B04D07B681B6818465F
:101E0000FFF76CFD7B8803F04003002B0CD07B6850
:101E10001B681846FFF7D7FE0346012B04D17B68E9
:101E20001B681846FFF7BFFE7B8803F08003002B7A
:101E30000CD07B681B681846FFF75FFE0346012B3A
:101E400004D17B681B681846FFF747FE00BF0837C0
:101E5000BD4680BD80B582B000AF78600B46FB7098
:101E6000FB78022B06D17B681B6801211846FFF71F
:101E7000F2FC27E07B681B68144A934209D07B6818
:101E80001B68134A934204D07B681B68114A934233
:101E900018D1FB78032B06D17B681B6804211846F8
:101EA000FFF7D9FC0EE0FB78042B0BD17B681B6895
:101EB00001211846FFF7CFFC7B681B6804211846F8
:101EC000FFF7C9FC00BF0837BD4680BD002C0140AC
:101ED000004001400044014080B582B000AF78600E
:101EE0000B46FB70FB78022B06D17B681B68012137
:101EF0001846FFF7C1FC27E07B681B68144A934231
:101F000009D07B681B68134A934204D07B681B6826
:101F1000114A934218D1FB78032B06D17B681B68CA
:101F200004211846FFF7A8FC0EE0FB78042B0BD128
:101F30007B681B6801211846FFF79EFC7B681B68C5
:101F400004211846FFF798FC00BF0837BD4680BD46
:101F5000002C0140004001400044014080B584B0A5
:101F600000AF78600023FB607B681B682A4A9342BD
:101F700002D12A4BFB6006E07B681B68284A93422B
:101F800001D1284BFB607B681A68FB681A60FB680C
:101F90001B681846FFF73BFCB860BB68002B06D0F7
:101FA000BB68102B03D0FB6801221A7102E0FB68AA
:101FB00000221A71FB681B68174A934209D0FB681C
:101FC0001B68194A934204D0FB681B68144A934269
:101FD00004D1FB681B681846FFF760FCFB681B68B0
:101FE0000D4A934209D0FB681B680F4A934204D004
:101FF000FB681B680A4A934208D17B681B68184635
:10200000FFF71DFC0346DAB2FB685A71FB681846FD
:102010001037BD4680BD00BF002C014020010020CC
:1020200000440140AC0100200040014080B485B074
:1020300000AF786039600023FB7397F90F301846C2
:102040001437BD465DF8047B7047000080B584B04E
:1020500000AF786039600023FB727B68002B05D1EC
:10206000374800F031FF4FF0FF3365E03B68002B4D
:1020700005D1344800F028FF4FF0FF335CE0324BCD
:10208000D3E900014FF000024FF04043FEF7A4FCFB
:102090000346002B06D03B68D3E900232A49C1E957
:1020A000002305E0284BD3E900233968C1E9002368
:1020B000254BD3E900014FF00002244BFEF78CFCC6
:1020C0000346002B02D0224800F0FEFE7B685B68CE
:1020D0001B68204A13607B685B685B681E4A13605C
:1020E0007B685B689B681D4A13607B685B68DB6884
:1020F0001B4A13601B4B00221A6001F0A3FB002354
:10210000FB600023FB6007E0174AFB68174942F8B1
:102110002310FB680133FB60FB68012BF4D900F04E
:10212000D1FF0346FB7297F90B30002B02D1104B05
:1021300001221A7097F90B3018461037BD4680BD42
:1021400048E800086CE80008000000200000F0BF2C
:1021500098E80008480400204C04002050040020A7
:10216000540400205804002038020020AD38000834
:102170004504002080B586B000AF78600023FB7571
:1021800000233B610023FB732A4B1B78DBB2002B3F
:102190000CBF01230023DBB2BB73274B02221A7052
:1021A0007B68002B0BD1234B1B78DBB2002B06D1B5
:1021B000224B1B78DBB2002B01D1012300E000236E
:1021C000FB7316E00A2006F07BFF3B6903F51C5306
:1021D00010333B617B68B3F1FF3F05D03A697B6800
:1021E0009A4201D9012300E00023FB73002000F094
:1021F000C1FF104B1B78DBB2002B07D10F4B1B78B4
:10220000DBB2002B02D1FB7B002BDBD00A4B03227D
:102210001A70FB7B002B01D09C23FB75BB7B002B32
:1022200001D001F03DFC97F9173018461837BD462C
:1022300080BD00BF4304002045040020440400206A
:1022400080B588B000AF034687ED000BFB8100230B
:10225000FB770123BB774FF000024FF00003D7E973
:102260000001FEF7C3FB0346002B05D02F4800F00A
:102270002BFE4FF0FF3355E0FB89FF2B08D9FB897C
:10228000FF2219462A4800F01FFE4FF0FF3349E0B5
:10229000284B1B78DBB2032B04D0264B1B78DBB218
:1022A000012B02D1234B04221A70FB89012B15D874
:1022B000FB89214A52F82330002B0FD001F0B2FFE6
:1022C00003467B777B7F022B08D1FB891A4A52F8A1
:1022D0002330FA89104698470346BB77FB897B83F6
:1022E000FB89184697ED000B00F0AAFE7861BB7FD2
:1022F000002B07D07B8B7969184601F06FFF0346EE
:10230000FB7703E07B8B184601F0C7FF97F91F307E
:10231000002B05D097F91F301946084800F0D4FD6E
:1023200097F91F3018462037BD4680BD04E90008E4
:1023300048E90008450400203802002088E9000828
:1023400080B582B000AF0023FB71002000F012FFC7
:102350000346FB7197F9073018460837BD4680BD24
:1023600080B582B000AF0023FB710B4B06221A70C0
:1023700000F09EFF0346FB710822002107480CF085
:1023800017FA01F013FB044B00221A7097F907307B
:1023900018460837BD4680BD45040020380200209D
:1023A00080B400AF034B1B78DBB21846BD465DF826
:1023B000047B70474404002080B400AF034B1B78BB
:1023C000DBB21846BD465DF8047B70475C04002014
:1023D00080B483B000AF78607B681B6843F0010273
:1023E0007B681A6000BF0C37BD465DF8047B704700
:1023F00080B483B000AF78607B681B6823F0010273
:102400007B681A6000BF0C37BD465DF8047B7047DF
:1024100080B483B000AF786039607B681B6823F0BC
:1024200004023B681A437B681A6000BF0C37BD4644
:102430005DF8047B704780B483B000AF78607B6840
:102440001B6803F0040318460C37BD465DF8047B97
:10245000704780B483B000AF78607B68DB6A184651
:102460000C37BD465DF8047B704780B483B000AF85
:10247000786039607B683A681A6300BF0C37BD46E4
:102480005DF8047B704780B483B000AF786039603A
:102490007B683A685A6300BF0C37BD465DF8047B21
:1024A000704780B483B000AF78607B685B6B184680
:1024B0000C37BD465DF8047B704780B483B000AF35
:1024C00078607B685B6943F001027B685A6100BFFA
:1024D0000C37BD465DF8047B704780B483B000AF15
:1024E00078607B681B6918460C37BD465DF8047B35
:1024F000704780B483B000AF786039607B683A6819
:102500009A6100BF0C37BD465DF8047B704780B40C
:1025100083B000AF786039607B683A689A6200BF28
:102520000C37BD465DF8047B7047000080B584B071
:1025300000AF786087ED000AD7ED007AF5EEC07A3B
:10254000F1EE10FA03D54FF000033B600AE0D7ED3F
:10255000007A9FED167AF4EEC77AF1EE10FA01DDFB
:10256000134B3B607B681B681846FFF772FFF860EF
:102570007B681B79002B0CBF01230023DBB21A46BA
:10258000FB68134407EE903AB8EE677AD7ED007A0D
:1025900027EE277ADFED056AC7EE267AFCEEE77AAA
:1025A00017EE903A18461037BD4680BD0000C8426D
:1025B0000000C84280B582B000AF786039607B68A7
:1025C0001B681846FFF76DFF02463B68934205D033
:1025D0007B681B6839681846FFF755FF00BF08374E
:1025E000BD4680BD80B584B000AF786087ED000A3D
:1025F00097ED000A7868FFF799FFF860F968786846
:10260000FFF7D8FF00BF1037BD4680BD80B485B04E
:1026100000AF78607B681B689A68074B1340FB60CB
:10262000FB68062B0CBF01230023DBB218461437CE
:10263000BD465DF8047B70470700010080B584B09B
:1026400000AF78600B46FB707B681B681846FFF78D
:10265000F2FEF860FB78002B14D07B681B68284AD8
:10266000934209D07B681B68264A934204D07B685A
:102670001B68254A934205D17B681B6800211846D8
:10268000FFF7F3FEFB68042B11D07B681B68042165
:102690001846FFF7BDFE7B681B681846FFF70DFF65
:1026A0007B681B68F9681846FFF7B2FE04E07B6898
:1026B0001B681846FFF701FF7B681B681846FFF789
:1026C00087FEFB78002B16D07B681B680C4A934270
:1026D00009D07B681B680B4A934204D07B681B6857
:1026E000094A934207D17B681A687B685B7919466F
:1026F0001046FFF7BAFE00BF1037BD4680BD00BFD1
:10270000002C0140004001400044014080B582B0EF
:1027100000AF78607B681B681846FFF769FE00BF52
:102720000837BD4680BD000080B58CB002AF786030
:102730007B6800221A727B6801225A607B68103322
:10274000BB6100237B74174BFB61174B3B6200237B
:10275000BB74002387F82430022387F82530052333
:10276000FB6005233B7407F10C0004230093042352
:1027700001220421FEF7D2FE02467B68DA607B6804
:10278000DB681846FEF758FF7B68DB6801211846B6
:10279000FEF79BFE7B6801221A7200BF2837BD46F8
:1027A00080BD00BF000004500000024080B5A6B00C
:1027B00000AF7860174BBB6000233B7300237B7333
:1027C00007F108031846FFF7C9FB02467B68DA6089
:1027D0007B68DB6800211846FFF708FA7B68DB6836
:1027E00002211846FFF736FB7B68DB681846FFF7C7
:1027F0000DFF034687F8973097F89730002B05D1E7
:102800007B68DB6800211846FFF718FF00BF983788
:10281000BD4680BD0044014080B5A6B000AF7860E1
:10282000174BBB6000233B7300237B7307F1080346
:102830001846FFF793FB02467B68DA607B68DB682B
:1028400000211846FFF7D2F97B68DB6802211846A1
:10285000FFF700FB7B68DB681846FFF7D7FE0346EF
:1028600087F8973097F89730002B05D17B68DB68A5
:1028700000211846FFF7E2FE00BF9837BD4680BD35
:10288000002C01400000000090B58FB000AF7A4BE3
:10289000DB683A1D04211846FEF7E3FE00237B6344
:1028A00011E07B6B5B0038333B4433F8343C1A4611
:1028B0004DF2403303FB02F270497B6B41F8232059
:1028C0007B6B01337B637B6B042BEADD6C48FFF78A
:1028D00004FE38633B6B03F00803002B14BF012395
:1028E0000023DBB21A46654B9A753B6B03F010036D
:1028F000002B14BF01230023DBB21A465F4BDA75AD
:102900005F48FFF7EAFD38633B6B03F00103002BE0
:1029100014BF01230023DBB21A46584B1A753B6BD8
:1029200003F00203002B14BF01230023DBB21A467D
:10293000524B5A754FF09043FB624FF40061F86AB6
:10294000FFF7D7FD0021F86AFFF7E1FD4FF0904354
:10295000FB624C4B1B78002B03D04FF400637B636E
:1029600001E000237B637B6B1946F86AFFF7C1FD2A
:102970007B6BDB4303F400631946F86AFFF7C7FD7E
:10298000414BD3F84C31D3E9000101231C464FF0F1
:1029900000024FF00003FEF729F80346002B01D197
:1029A00000231C46E3B283F00103DBB21846FDF7B7
:1029B00041FD354BD3F84C31D3E90023FDF7A4FD9D
:1029C00002460B46C7E908232B4B1C6CD7E90801CC
:1029D000FEF76AF8034600EE103A2046FFF702FEC3
:1029E000254B1C6BD7E90801FEF75EF8034600EEA5
:1029F000103A2046FFF7F6FD0023FB77224BD3F871
:102A000038311846FDF706FD19A3D3E90023FDF779
:102A10007BFD02460B46C7E9042397ED040B01201A
:102A2000FFF70EFC0346FB77174BD3F82821013242
:102A3000C3F82821D3F828311846FDF7EBFC124BD8
:102A4000D3E94C23104CD4F84C41FDF75DFD024610
:102A50000B46C4E900230C4BD3F838210132C3F8EC
:102A6000382100BF3C37BD4690BD00BFAFF30080AA
:102A70007B14AE47E17A843F5802002040020020D8
:102A800000040048F4100108A80200200000000023
:102A900080B500AF564B564A03F5A473D360544B30
:102AA000534A03F5A673C2F88430514B504A03F5DC
:102AB000987393624E4A4E4BC3F8D0204C4B4C4A0D
:102AC0009A604B4BDB6801221A70494B002283F855
:102AD000FC20474B002283F80C21454B454A5A61A4
:102AE000434B434A03F5A873C2F84C3140494FF0B9
:102AF0000002414BC1E950233D493BA3D3E90023E8
:102B0000C1E94C233A4B3D4AC3F81021384B3C4AAB
:102B1000C3F81421364B3B4AC3F81821344B3A4AC8
:102B2000C3F81C21324B394A5A60384B384A1A6074
:102B3000374B384A1A60364B364A5A60344B354A5E
:102B40009A60334B334ADA60314B324A1A61304B68
:102B5000304A5A612E4B2F4A9A612D4B2D4ADA6129
:102B6000234A234B5B6802F590729A60204A204BFF
:102B70005B6802F588725A601D4A1D4B5B68D2F88B
:102B80004C21DA60244B00225A60234B00221A7039
:102B90002148FFF7C9FD204B002283F834201E4B4B
:102BA000002283F83C201C4B01229A631B48FFF74C
:102BB000FDFD194B012283F83C20174B002283F8BE
:102BC0002420154B002283F82C20134B01229A62FB
:102BD0001348FFF721FE104B012283F82C2000BF81
:102BE00080BD00BFAFF300807B14AE47E17A843F25
:102BF000A802002004EB0008000059404ACC51DE36
:102C000085969CEA2F6441149336A72A0804002075
:102C10001C040020F0100108580200208C02002043
:102C20007C02002080B500AF2E4B1B78002B11D109
:102C30002C4B01221A702B4B5B68012B0AD1294BBC
:102C40001B7A002B06D0274BDB6801220421184693
:102C5000FEF760FD234B93F83430002B1DD1214B40
:102C6000012283F834201F4B9B6B012B15D11D4B88
:102C700093F83C30002B10D01A4B1B6C1846FFF712
:102C800045FD184B1B6C00211846FFF749F8154B02
:102C90001B6C02211846FFF71FF9124B93F82430E2
:102CA000002B1DD10F4B012283F824200D4B9B6A72
:102CB000012B15D10B4B93F82C30002B10D0094B66
:102CC0001B6B1846FFF722FD064B1B6B00211846B5
:102CD000FFF726F8034B1B6B02211846FFF7FCF8A1
:102CE00000BF80BD5802002080B500AF0F4B1B789D
:102CF0005A1CD1B20D4A1170002B09D00C4B012285
:102D00001A600A4B1B78013BDAB2084B1A700BE0D1
:102D100062B600BFFFF7B8FD72B600BF034B1B7869
:102D2000013BDAB2014B1A7080BD00BF40040020A5
:102D30003C04002080B586B000AF786039605D4B00
:102D40007B614FF084433B610023FB735A4B0022AD
:102D50001A705A4B00221A7001DF0AF019F908F0B4
:102D6000C9FD08F02DFE09F0C3FA09F067FA08F072
:102D70005DFF09F00DF809F045F909F097F908F041
:102D800035FE09F0B5F84E4B1B6800221A60002191
:102D90000020FFF74BF90346FB7397F90F30002B28
:102DA00002D097F90F3081E0FFF772FE72B600BFD4
:102DB00062B600BF424B1B685A68414B1B6803F563
:102DC000A07319461046FFF741F90346FB7397F9C4
:102DD0000F30002B0DD14FF0FF30FFF7CBF9FFF78D
:102DE000DFFA0346002B04D0354B1B68012283F821
:102DF000492172B600BF97ED050A06F02FFAFFF7DA
:102E0000DBFA0346002B0CD1FFF7CAFA0346002B6E
:102E100007D12B4B1B6893F84931002B01D10123BB
:102E200000E00023DAB2254B1A7062B600BF62B62A
:102E300000BF2FE0FFF784FA0346FB73FFF7BCFAED
:102E40000346002B0AD1FFF7ABFA0346002B05D14E
:102E50001B4B1B6893F84931002B01D0012300E084
:102E60000023DAB2144B1A70134B1B78DBB2002B21
:102E70000CBF01230023DBB21A46104B1A700E4B15
:102E80001B78DBB2002B05D00E4B1B680D4A23F0DC
:102E900001031360094B1B78DBB2002BCAD1FFF78B
:102EA000C1FEFFF75DFA72B600BF0023184618375F
:102EB000BD4680BD0AD7233C4104002042040020C7
:102EC000EC10010810E000E00FB480B400AF00BFC8
:102ED000BD465DF8047B04B0704780B485B000AF98
:102EE000F860B9607A60FB68BA681A60FB680433FE
:102EF0007A681A6000BF1437BD465DF8047B7047DE
:102F0000F0B58BB000AF87ED020B0346FB80FB886A
:102F1000012B77D14FF00002414BD7E90201FDF7B9
:102F2000F3FA02460B46C7E906239FED391B97EDDE
:102F3000060B0BF081FA53EC102B10461946FDF7E7
:102F400093FD03467B6100237B6233A3D3E9002317
:102F5000D7E90601FDF768FD0346002B0ED02EA32E
:102F6000D3E90023D7E90601FDF7F8FB02460B463B
:102F700010461946FDF778FD03467B627A6A796947
:102F80002848FFF7AAFF284BD3E900014FF00002C1
:102F9000264BFDF721FD0346002B2ED1224BD3E912
:102FA00000014FF000024FF04043FDF715FD0346CE
:102FB000002B22D11C4BD3E90001D7E90223FDF7F6
:102FC000EBF802460B4614461D464FF00002184B24
:102FD000D7E90201FDF798FA02460B4601210E4699
:102FE00020462946FDF702FD0346002B01D10023B0
:102FF0001E46F3B21A460F4B1A700F49D7E9022347
:10300000C1E9002300BF2C37BD46F0BDAFF30080FF
:10301000000000000000F0410000E0FFFFFFEF4172
:1030200000408F4070040020000000200000F0BF2E
:103030000000B03C5C040020780400200000000088
:1030400080B586B000AF87ED020B0346FB800023FE
:103050007B61FB88184697ED020BFFF751FF17A322
:10306000D3E90023D7E90201FDF74EFA02460B46E9
:10307000104619464FF000020F4BFDF78FF802463D
:103080000B4643EC172B9FED0A1BB0EE470AF0EE00
:10309000670A0BF0D1F953EC102B10461946FDF7D7
:1030A000E3FC03467B617B6918461837BD4680BD4B
:1030B000000000000000F0410000E03F00000000C0
:1030C00080842E4180B584B000AF0023BB60002314
:1030D0007B600023FB7323494FF000024FF0000395
:1030E000C1E9002320494FF000024FF00003C1E97D
:1030F00000233A1D07F108031146184605F0B2FFF8
:10310000BB687A681146184604F0CEF80346FB7394
:1031100097F90F30002B05D01448FFF7D5FE97F92B
:103120000F301AE03A1D07F108031146184605F062
:10313000B0FFBB687A681146184600F053FF03469B
:10314000FB7397F90F30002B05D097F90F30194614
:103150000748FFF7B9FE97F90F3018461037BD46FC
:1031600080BD00BF600400206804002018EB000848
:1031700040EB000880B584B000AF0346FB7100232C
:10318000FB730023BB73002005F09AFF00237B73C1
:1031900004F058FA0346FB7397F90F30002B0DD05B
:1031A00097F90F3013F1020F08D097F90F30194635
:1031B0003C48FFF789FE0123BB730BE07B7B002BB0
:1031C00004D197F90F3013F1020F01D0012300E071
:1031D00000237B73BB7B002B21D100F035FF03461E
:1031E000FB7397F90F30002B0DD097F90F3013F1C7
:1031F000020F08D097F90F3019462B48FFF764FEED
:103200000123BB730BE07B7B002B04D197F90F30BC
:1032100013F1020F01D0012300E000237B73BB7B7D
:10322000002B21D104F098F90346FB7397F90F3076
:10323000002B0DD097F90F3013F1020F08D097F93A
:103240000F3019461948FFF73FFE0123BB730BE00F
:103250007B7B002B04D197F90F3013F1020F01D0C3
:10326000012300E000237B73FB79002B0DD00020AD
:1032700005F026FFBB7B002B02D17B7B002B01D10D
:10328000012300E00023BB7301E00123BB73BB7B80
:10329000002B3FF47BAF97F90F3018461037BD462F
:1032A00080BD00BF68EB0008A0EB0008D0EB000871
:1032B00080B582B000AF0023BB70394B1B78DBB206
:1032C000002B02D0002000F0D9FF00F0ABFF034636
:1032D000FB7000237B600EE00A2005F0F1FE7B68A6
:1032E00003F51C5310337B600120FFF743FF00F010
:1032F00099FF0346FB707B682A4A934202D8FB7809
:10330000002BE9D100F09AFF0346BB7097F9023019
:10331000002B05D097F9023019462348FFF7D4FD5A
:1033200004F00AFB0346BB7097F90230002B05D06E
:1033300097F9023019461D48FFF7C6FD1C4B0022C5
:103340001A701C4B00221A701B4B00221A601B4B78
:1033500000221A601A4B00221A601A4B00221A60CF
:10336000194B00221A6019494FF000024FF04043F8
:10337000C1E900230A4B00221A70082200211448D8
:103380000BF016FA13494FF000024FF00003C1E9A9
:10339000002397F9023018460837BD4680BD00BFAC
:1033A0005C040020FF2C310108EC000824EC00082C
:1033B0004304002044040020480400204C04002062
:1033C0005004002054040020580400200000002075
:1033D000700400207804002080B586B000AF614BF7
:1033E0001B687B617B69002B00F0B8805E4B1B780B
:1033F000DBB2002B04D15B4B1B68002B00F0AE80CE
:103400005A4B1B78DBB2022B40F0A880584B1B783C
:10341000002B40F0A3807B69D3E90023C7E9022396
:10342000544B1B78002B00F08A80534B1B78DBB287
:10343000002B04D0504B1B78DBB2022B01D10123AF
:1034400000E00023FB714C4B1B78DBB2012B04D056
:10345000494B1B78DBB2022B01D1012300E0002392
:10346000BB71FB79002B33D0444BD3E90023D7E960
:103470000201FDF7CFFA0346002B0AD0404BD3E9F7
:1034800000013E4BD3E90023FDF7B0FA0346002BC1
:1034900014D13A4BD3E90023D7E90201FDF7C4FA6E
:1034A0000346002B14D0364BD3E90001334BD3E94C
:1034B0000023FDF791FA0346002B09D0314B1B681E
:1034C000002B02D1304B01221A70294B01221A70B5
:1034D000BB79002B33D0294BD3E90023D7E9020174
:1034E000FDF784FA0346002B0AD0254BD3E90001EF
:1034F000224BD3E90023FDF78DFA0346002B14D1AC
:103500001E4BD3E90023D7E90201FDF765FA034614
:10351000002B14D01A4BD3E90001184BD3E9002338
:10352000FDF782FA0346002B09D0164B1B68002BCF
:1035300002D1154B01221A700D4B01221A700C4B4F
:103540001B78002B0CBF01230023DBB21A46094B6A
:103550001A700B49D7E90223C1E9002300BF1837CD
:10356000BD4680BD8404002088040020A4040020FF
:10357000B3040020B0040020A00400209004002028
:10358000A80400209C040020B204002080B582B072
:1035900000AF0023FB719E4B1B78DBB2002B18D1D0
:1035A0009C4B00221A709C4B00221A709B4B1B787C
:1035B000DBB2002B2DD0964B02221A70974B0022C3
:1035C0001A70974B1B78DBB2002B22D10123FB71C1
:1035D0001FE0924B00221A708E4B1B78DBB2002B3F
:1035E00009D0904B00221A70894B00221A70894B27
:1035F00000221A700DE08A4B1B78DBB2002B02D13F
:103600000123FB7105E0844B1B78FB71824B002288
:103610001A707F4B1B78DBB2042B00F2D78001A21B
:1036200052F823F039360008733700085336000883
:1036300027370008B1360008784B1B78DBB2002B27
:1036400000F0D880724B02221A70744B00221A705C
:10365000D0E0FB79002B00F0CF80734B1B68002B70
:103660000DDD6F4B1B78DBB2012B08D16E4B1B6855
:103670001A466E4B1A60664B03221A70BCE06C4B04
:103680001B68002B0AD0674B01221A70684B1B681D
:10369000664A13605E4B04221A70ADE06548FFF77E
:1036A00013FC604B00221A70594B00221A70A3E0E1
:1036B0005E4B1B68002B04D05C4B1B68013B5B4AD4
:1036C00013605A4B1B68002B40F098805A4B1B78B4
:1036D000DBB2012B06D1534B00221A704C4B002257
:1036E0001A708BE0554B1B68002B0AD04D4B002203
:1036F0001A70524B1B684D4A1360454B01221A70D9
:103700007CE0FB79002B07D0494B1B68474A1360CC
:103710003F4B04221A7071E0424B00221A703C4B5E
:1037200002221A706AE0414B1B68002B04D03F4B09
:103730001B68013B3D4A13603C4B1B68002B5FD16B
:103740003B4B1B68002B0AD0364B01221A70384BBA
:103750001B68364A13602E4B04221A7050E035481D
:10376000FFF7B2FB2F4B00221A70294B00221A7070
:1037700046E02E4B1B68002B04D02C4B1B68013BF2
:103780002A4A1360294B1B68002B3BD1FB79002B85
:1037900018D0274B1B68002B0AD0224B01221A702D
:1037A000234B1B68214A1360194B04221A7029E02D
:1037B0002048FFF789FB1B4B00221A70144B002294
:1037C0001A701FE0124B02221A701BE0104B1B787C
:1037D000DBB219461A48FFF777FB124B00221A702A
:1037E0000D4B00221A700B4B00221A70084B00225E
:1037F0001A7008E000BF06E000BF04E000BF02E06E
:1038000000BF00E000BF00BF0837BD4680BD00BF5D
:10381000A4040020A1040020B30400200C00002018
:10382000A2040020B20400209C040020B404002064
:103830000800002048EC0008A304002098040020A1
:1038400070EC000880B400AF10494FF000024FF058
:103850000003C1E900230E4B00221A700D4B1B78A8
:10386000DAB20D4B1A700D4B00221A700C4B00226D
:103870001A700C4B00221A600B4B00221A700023A6
:103880001846BD465DF8047B704700BFA8040020C1
:10389000B0040020A2040020B1040020B2040020E3
:1038A000B3040020B4040020A404002080B584B038
:1038B00000AF0346FB80FB88012B3FD1314B1B78C7
:1038C000DAB2314B1B789A4214BF01230023DBB2DA
:1038D000FB732C4B1B78DAB22B4B1A70FB7B002B43
:1038E0000BD02A4B00221A70294B00221A70294B48
:1038F00000221A60284B00221A70224B1B78DBB280
:10390000012B1BD1244B1B78DBB2002B04D1234BA2
:103910001B78DBB2002B08D11F4B1B78DBB2012BCD
:103920000CD11C4B1B68012B08D11A4B00221A60CA
:103930001A4B00221A70184B02221A70114B1B7876
:10394000DBB2012B07D1164B1B889BB2FA889A4237
:1039500001D1FFF741FDFB88012B05D1FFF716FED2
:10396000104B00221A7006E00E4B1B78002B02D081
:103970000D4B1B7801E0054B1B7818461037BD46F0
:1039800080BD00BFA2040020B1040020B2040020CA
:10399000B3040020B4040020A40400200C00002084
:1039A00080040020B9040020B804002080B400AFD7
:1039B00026494FF000024FF00003C1E90023244BD9
:1039C00000221A70234B00221A70234B00221A7017
:1039D000224B00221A80224B00221A70214B002217
:1039E0001A70214B00221A60204B00221A70204BC3
:1039F00000221A701F4B00221A601F4B00221A70FF
:103A00001E494FF000024FF00003C1E900231C4B98
:103A10004FF47A721A601B4B00221A601A4B002274
:103A20001A601A4B00221A70194B01221A70194B96
:103A300000221A70184B00221A70184B00221A70BC
:103A400000231846BD465DF8047B7047A80400209B
:103A5000B0040020A4040020B10400208004002051
:103A6000B2040020B3040020B4040020B8040020F5
:103A7000B904002084040020880400209004002061
:103A800008000020980400209C040020A0040020CE
:103A90000C000020A1040020A2040020A3040020A8
:103AA00080B400AF174B1B78DBB2002B25D1164B2F
:103AB0001B78DBB2002B0BD0144B1B78DBB2002B36
:103AC00006D1134B01221A70124B01221A7014E016
:103AD0000E4B1B78DBB2002B0BD00B4B1B78DBB2F1
:103AE000002B06D10A4B00221A700A4B01221A70D1
:103AF00003E0084B00221A70FFE700BFBD465DF8E7
:103B0000047B7047A20400200C000020A1040020C8
:103B1000B8040020B904002080B586B000AFF8607A
:103B2000B9607A603B600023FB7503F0F9FE3861F1
:103B3000FB681B68184604F009F90021386803F097
:103B400067FE0246BB681A6003F052FE02467B68BD
:103B50001A60BB681B68002B0FD0BB681B68194636
:103B6000386904F0F9FB0246FB681A60FB681B68C1
:103B7000002B04D1F623FB7501E0F823FB7597F9C0
:103B8000173018461837BD4680BD000080B584B098
:103B900000AFF860B9607A60FA68BB6813441B78BC
:103BA00019460848FFF790F9FB68002B02D0F86827
:103BB00004F0CCF87B6800221A6000231846103706
:103BC000BD4680BD94EC000880B584B000AFF860BD
:103BD000B9607A60FA68BB6813441B7819460648D6
:103BE000FFF772F97B6802221A604FF0FF33184624
:103BF0001037BD4680BD00BFF0EC000880B485B032
:103C000000AF03460A46FB711346BB710523FB73E5
:103C1000FB79F02B02D90023FB7322E0FB79E32B25
:103C200005D9FB79F02B02D80123FB7319E0FB794E
:103C3000D22B02D9FB79E22B08D9FB79C02B08D112
:103C4000BB79002B05D0BB79022B02D80223FB7372
:103C500007E0FB79C72B04D9FB79D22B01D80323CA
:103C6000FB73FB7B18461437BD465DF8047B704739
:103C700080B58CB000AFF860B9607A603B60FB68DB
:103C8000BB62BB6A1B7887F82730002387F82F3088
:103C900097F82730C02B06D1BB68012B03D9BB6A2C
:103CA0005B7887F82F30364B1B78002B3ED097F887
:103CB0002F2097F8273011461846FFF79FFF03463D
:103CC000FB76002387F82E30FB7E052B23D0FB7E6E
:103CD0002C4A52F823307B6100233B617B69002B27
:103CE00019D097F827207B691046984738613B69BF
:103CF000002B14BF01230023DBB287F82E3097F886
:103D00002E30002B07D03B695A687B681A603B69EC
:103D10009A683B681A6097F82E30002B2CD17B688C
:103D2000194A1A603B68194A1A6025E097F827304B
:103D3000FF2B1BD1134B1B683B627B6800221A6070
:103D40003B6800221A603B6A002B15D03B6AFF20BB
:103D50009847F861FB69002B0ED0FB695A687B68B5
:103D60001A60FB699A683B681A6005E07B68084A3C
:103D70001A603B6800221A6000BF3037BD4680BD24
:103D8000BB040020C0040020C93B0008593E0008C5
:103D90008D3B000880B483B000AF0346FB71044A3A
:103DA000FB79137000BF0C37BD465DF8047B70478C
:103DB000BB04002080B400AF034B1B781846BD46FF
:103DC0005DF8047B704700BFBC04002080B483B062
:103DD00000AF0346FB71064B1A78FB791343DAB246
:103DE000034B1A7000BF0C37BD465DF8047B70476B
:103DF000BC04002080B483B000AF0346FB7197F988
:103E00000730DB435AB2074B1B785BB213405BB2FF
:103E1000DAB2044B1A7000BF0C37BD465DF8047B64
:103E2000704700BFBC04002080B400AF034B1B7878
:103E30001846BD465DF8047B704700BFBD040020F6
:103E400080B400AF034B1B881846BD465DF8047B69
:103E5000704700BFBE04002080B586B000AF0346A7
:103E6000B9607A60FB7397F90F30002B05D1BB68FE
:103E70003B613B69FF221A7076E0BB687B617B691E
:103E8000FE221A7097F90F3010330F2B62D801A25F
:103E900052F823F04D3F0008453F00083D3F000821
:103EA000353F00082D3F0008253F0008153F00085A
:103EB0001D3F00080D3F0008053F0008FD3E0008BB
:103EC000F53E0008DD3E0008D53E0008E53E00084E
:103ED000ED3E00087B6930225A7045E07B6929225B
:103EE0005A7041E07B6922225A703DE07B692022B2
:103EF0005A7039E07B6900225A7035E07B692322D1
:103F00005A7031E07B6921225A702DE07B691122C1
:103F10005A7029E07B6927225A7025E07B692A22A2
:103F20005A7021E07B6910225A701DE07B692422BF
:103F30005A7019E07B6928225A7015E07B692622A5
:103F40005A7011E07B6931225A700DE07B6933228F
:103F50005A7009E097F90F3019460548FEF7B4FF8B
:103F60007B6920225A70FFE700BF1837BD4680BD2D
:103F700020ED000880B487B000AF0346B9607A60D6
:103F8000FB7300237B61BB68002B23D000233B61C4
:103F900000233B6117E03A6913465B0013449B0022
:103FA0001A46BB6813441B78FA7B9A4208D13A69D7
:103FB00013465B0013449B001A46BB6813447B61A5
:103FC0003B6901333B613A697B689A4202D27B6963
:103FD000002BE0D07B6918461C37BD465DF8047B9A
:103FE0007047000080B582B000AF78603960134B35
:103FF0001B78002B05D01248FEF766FF6FF00B030D
:1040000018E000F077FC00F081FC03460D4A1360D5
:1040100002F04EFA02F068FA03460A4A936003F08F
:1040200041F803F049F80346064A5360034B012266
:104030001A70002318460837BD4680BDBA04002018
:1040400064ED0008C004002080B58CB002AF0023EE
:1040500087F82730002387F826300023FB610023F0
:10406000BB6100237B6100233B610023FB600023D5
:104070003B620023BB6000237B60554B1B78002B09
:1040800005D15448FEF720FF6FF008039BE007F1CD
:10409000140007F1180207F11C0107F11003009347
:1040A0000346002003F00EFB034687F8273097F9FC
:1040B0002730002B09D097F9273013F1040F04D0D3
:1040C00097F9273013F1050F71D1FB69002B05D04B
:1040D0007A693B691A44BB699A4203D9F82387F885
:1040E000273067E0FA697B6913443B6239693B1DFD
:1040F00007F10802386AFFF7BBFDBB68002B09D146
:104100003B6A1B7819463448FEF7DEFEF42387F835
:1041100027304FE0BB68F869796907F10C029847CE
:10412000034687F826307B68002B3DD0FB68002BC8
:104130003AD0002387F827303A69FB689A420BD2BD
:10414000FB6807F1140207F1180107F11C00FFF7E3
:10415000E3FC034687F827303B691A460021386A9A
:104160000AF026FB97F92730002B1DD1FA697B69ED
:1041700013443B627B68FA6897F92600396A9847CE
:10418000F969B8697B69FA680192009303460A46A7
:104190004FF6FF71012003F03DF9034687F8273001
:1041A00097F92730002B04D197F927300BE000BF97
:1041B00000E000BFFB69002B03D0FB69184603F049
:1041C000C5FD97F9273018462837BD4680BD00BF8A
:1041D000BA04002094ED0008BCED000880B584B05E
:1041E00000AF03463960FB800023FB730B4B1B7849
:1041F000002B05D10A48FEF767FE6FF0080309E0BF
:10420000FB8800223968184602F06CFB0346FB73FA
:1042100097F90F3018461037BD4680BDBA0400200C
:10422000ECED000880B400AF034B1B781846BD4688
:104230005DF8047B704700BFBB04002080B500AF71
:104240000B4B1B78002B02D10A48FEF73DFE02F013
:104250004FFF02F0F1FD00F075FB1022002106482F
:104260000AF0A6FA024B00221A700023184680BDFD
:10427000BA040020E4EE0008C004002080B584B039
:1042800000AF7860786802F0B1FB0346FB7397F9E2
:104290000F3018461037BD4680BD80B584B000AFE2
:1042A0000346FB800123FB73FA7BFB880021184641
:1042B00002F018FB0346BB7397F90E30184610370F
:1042C000BD4680BD80B584B000AF0346FB710123BD
:1042D000FB6003F0DCFAB860FA79B968FB68B1FBFF
:1042E000F3F39A4234BF01230023DBB218461037A0
:1042F000BD4680BD80B584B000AF78600B46FB70D2
:1043000000F02AFBF860F9680648FEF7DDFD064B71
:104310001B781A46F96878680AF07CFA00BF1037F3
:10432000BD4680BD0CEF0008D804002080B588B0E1
:1043300000AFF860B9607A600023FB77FA68BB6869
:104340001344BB61BB697B610023FB7402F0A6FCD4
:104350000346FB74FB7C002B08D11A48FEF7B4FD22
:104360007B6802221A606FF00A0327E07B695B78A2
:10437000002B03D07B695B78012B01D1012300E086
:104380000023FB74FB7C002B0BD17B695B78194607
:104390000D48FEF799FD7B6802221A606FF0010359
:1043A0000CE00A48FEF790FD0120FFF7F3FC002324
:1043B000FB777B6808221A6097F91F301846203770
:1043C000BD4680BD24EF000870EF000894EF0008A0
:1043D00080B586B000AF0346B9607A60FB7397F989
:1043E0000F30002B47D1BB687B6108220021786920
:1043F0000AF0DEF97B69FF221A7005227B695A7088
:1044000000227B699A7003F042FA0346DAB27B69B4
:10441000DA7003F035FA03469AB27B699A807B69B9
:1044200001229A717B690122DA717B695B781946F6
:104430001648FEF749FD7B699B7819461448FEF73C
:1044400043FD7B69DB7819461248FEF73DFD7B6929
:104450009B889BB219461048FEF736FD7B699B7915
:1044600019460E48FEF730FD7B69DB7919460C488A
:10447000FEF72AFD06E097F90F307A68B96818460A
:10448000FFF7EAFC00BF1837BD4680BDBCEF00084F
:10449000D8EF0008F4EF000810F000082CF0000836
:1044A00048F0000880B586B000AFF860B9607A6067
:1044B0000123FB7502F0F2FB0346FB75FB7D002B2D
:1044C00008D10B48FEF700FD7B6802221A606FF0EE
:1044D0000A0309E00748FEF7F7FC0020FFF75AFC43
:1044E0007B6801221A60002318461837BD4680BD3C
:1044F00064F00008B4F0000880B584B000AFF86044
:10450000B9607A600548FEF7DFFC7B6806221A6016
:10451000002318461037BD4680BD00BFE4F00008F8
:1045200080B586B000AF0346B9607A60FB73BB68A4
:104530007B610622002178690AF03AF97B69FF2243
:104540001A70FFF737FC03461A467B695A70FFF76B
:104550006BFC03461A467B699A70FFF771FC0346B1
:104560001A467B699A807B695B7819460948FEF791
:10457000ABFC7B699B7819460748FEF7A5FC7B6975
:104580009B889BB219460548FEF79EFC00BF183772
:10459000BD4680BDF0F0000814F1000838F10008B5
:1045A00080B586B000AFF860B9607A600023FB7513
:1045B0000B48FEF789FC02F05BFB0346FB75FB7DB5
:1045C000002B03D003F08CF902F061FB7B68022220
:1045D0001A606FF0040318461837BD4680BD00BF4F
:1045E0005CF1000880B588B000AFF860B9607A600F
:1045F0000023FB77FA68BB681344BB61BB697B612E
:104600000023FB747B695A687B69DB781946104686
:1046100000F0AEF90346FB74FB7C002B08D10D487B
:10462000FEF752FC7B6802221A606FF00B030CE06D
:104630007B6959687B69DB781A460748FEF744FCBA
:104640007B6801221A6097F91F3018462037BD4653
:1046500080BD00BF64F1000880F1000880B58AB019
:1046600000AFF860B9607A60002387F82730FA68F5
:10467000BB6813443B623B6AFB610023FB7600F09E
:104680006BF97861FB695B781846FFF71BFE034600
:10469000FB76FB7E002B0BD1FB695B781946124839
:1046A000FEF712FC7B6802221A606FF0010316E02D
:1046B0007B69002B08D10D48FEF706FC7B680222BF
:1046C0001A606FF00B030AE0FB695A78084B1A7006
:1046D000074B1B785A1C7B681A6097F927301846DD
:1046E0002837BD4680BD00BFB4F10008E4F10008E2
:1046F000D804002080B588B000AF0346B9607A6066
:10470000FB7397F90F30002B30D100F025F9F861D9
:10471000BB68BB6101220021B8690AF049F8BB6996
:10472000FF221A70FB69002B1CD0164B1B7801333B
:104730007A689A4216D1BB6801337B610023FB740F
:104740001148FEF7C1FBFB7C19467869FFF7D2FDE3
:104750000C4B1B78184600F029F90A4B00221A70FE
:1047600000BF0AE00948FEF7AFFB06E097F90F30FB
:104770007A68B9681846FFF76FFB00BF2037BD465F
:1047800080BD00BFD804002000F200080CF2000831
:1047900080B588B000AFF860B9607A600023FB771D
:1047A000FA68BB681344BB61BB697B610023FB747F
:1047B0007B695B781846FFF785FD0346FB74FB7C3D
:1047C000002B0BD17B695B7819461748FEF77CFB01
:1047D0007B6802221A606FF0010320E07B695A684F
:1047E0007B69DB781946104600F0C2F80346FB747B
:1047F000FB7C002B08D10D48FEF766FB7B6802228C
:104800001A606FF00B030AE07B695A78084B1A7044
:10481000074B1B785A1C7B681A6097F91F301846A3
:104820002037BD4680BD00BF2CF2000860F20008B2
:10483000D804002080B588B000AF0346B9607A6024
:10484000FB7397F90F30002B30D100F085F8F86139
:10485000BB68BB6101220021B86909F0A9FFBB69EF
:10486000FF221A70FB69002B1CD0164B1B780133FA
:104870007A689A4216D1BB6801337B610023FB74CE
:104880001148FEF721FBFB7C19467869FFF732FDE2
:104890000C4B1B78184600F089F80A4B00221A705E
:1048A00000BF0AE00948FEF70FFB06E097F90F305A
:1048B0007A68B9681846FFF7CFFA00BF2037BD46BF
:1048C00080BD00BFD804002080F2000890F20008EC
:1048D00080B582B000AF0346FB71FB790722044923
:1048E0001846FFF747FB034618460837BD4680BD0C
:1048F000F810010880B500AF034800F013F800F08D
:1049000069F800BF80BD00BFD148000880B400AF87
:10491000034B1B681846BD465DF8047B704700BF1B
:10492000DC04002080B483B000AF7860044A7B6868
:10493000136000BF0C37BD465DF8047B704700BFB5
:10494000DC04002080B500AF00F04BF80020FFF73A
:10495000E9FF00BF80BD000080B400AF034B1B68BF
:104960001846BD465DF8047B704700BFD0040020A8
:1049700080B483B000AF78600B46FB70FB78002BEF
:1049800004D17B68002B01D1002306E0064A7B6836
:104990001360054AFB781371012318460C37BD4696
:1049A0005DF8047B704700BFD004002080B483B062
:1049B00000AF0346FB71064B1A68FB791344044AA7
:1049C000136000BF0C37BD465DF8047B704700BF25
:1049D000D004002080B400AF00BFBD465DF8047B6A
:1049E000704780B400AF00BFBD465DF8047B7047E0
:1049F00080B584B000AF0346FB800023FB7306F054
:104A00003AF803460B4A13600B4B1B68002B0CBF94
:104A100001230023DBB2FB73FB7B002B04D1054B8E
:104A20001B68184606F038F8FB7B18461037BD4661
:104A300080BD00BFEC040020E804002080B582B0F7
:104A400000AF0346FB80044B1B68184606F024F8B1
:104A500000BF0837BD4680BDEC04002080B582B0A1
:104A600000AF0346FB8006F006F80346074A1360D2
:104A7000074B1B680133064A1360044B1B6818463A
:104A800006F00AF800BF0837BD4680BDEC040020E0
:104A9000E804002080B582B000AF0346FB8005F03B
:104AA000EAFF0346074A1360074B1B68013B064AAF
:104AB0001360044B1B68184605F0EEFF00BF083773
:104AC000BD4680BDEC040020E804002080B483B023
:104AD00000AF0346FB80104B1968FA8813465B0051
:104AE0001344DB000B445B79022B0AD00A4B196894
:104AF000FA8813465B001344DB000B445B79032BFD
:104B000001D1012300E00023DBB218460C37BD467B
:104B10005DF8047B704700BFE004002080B582B0E0
:104B200000AF0023FB710023BB800023BB8008E0A3
:104B3000BB881846FFF7CAFF0346FB71BB880133E9
:104B4000BB80094B9B88BA889A4202D2FB79002B22
:104B5000EED0FB79002B0CBF01230023DBB21846FB
:104B60000837BD4680BD00BFE004002080B485B09A
:104B700000AF0346FB800B467B7113463B71284B0D
:104B80001B68002B42D0264B9B88FA889A423DD264
:104B9000234B1968FA8813465B001344DB000B446F
:104BA0001B68002B32D01E4B1968FA8813465B0035
:104BB0001344DB000B441B797A799A4226D2184BB6
:104BC0001968FA8813465B001344DB000B4419682C
:104BD0007A791346DB009B1A9B000B441B68002B61
:104BE00014D00F4B1968FA8813465B001344DB009E
:104BF0000B4419687A791346DB009B1A9B000B441F
:104C00001B793A799A4201D2012300E00023FB7319
:104C1000FB7B18461437BD465DF8047B704700BF28
:104C2000E004002080B485B000AF03463A60FB7119
:104C30000B46BB710023FB73BB79BB81FB79FF2B58
:104C400004D1BB89FF2B01D80123FB73FB7B1846E2
:104C50001437BD465DF8047B704780B483B000AF65
:104C60000346FB71FB7923F01003002B0CBF0123DB
:104C70000023DBB218460C37BD465DF8047B704755
:104C800080B485B000AF0346FB710023FB73FB7952
:104C9000002B05D0FB79012B02D0FB79022B01D12F
:104CA0000123FB73FB7B18461437BD465DF8047B7C
:104CB000704780B485B000AF0346FB710023FB73DF
:104CC000FB79002B05D0FB79012B02D0FB79022B5D
:104CD00001D10123FB73FB7B18461437BD465DF8F9
:104CE000047B704780B400AF01231846BD465DF8D1
:104CF000047B704780B485B000AF0346FB80164B41
:104D00001968FA8813465B001344DB000B441B7BD5
:104D1000022B0ED1104B1968FA8813465B0013441E
:104D2000DB000B44DA880D4B1B889A4201D001232B
:104D300000E00023FB73FB7B002B04D0FB88002BDF
:104D400001D1012300E00023FB73FB7B18461437DD
:104D5000BD465DF8047B7047E00400201800002089
:104D600080B485B000AF78600B46FB707B68196833
:104D7000FA781346DB009B1A9B000B44BB60BB68B0
:104D80009B687A68D28902FB03F30133FB60FB78EE
:104D9000002B08D17B681B7A03F01003002B02D094
:104DA000FB680433FB60FB6818461437BD465DF8AA
:104DB000047B704780B586B000AF78600023BB7479
:104DC00000237B610023FB740023FB7415E0FB7C54
:104DD00019467868FFF7C4FFF8600023BB60012123
:104DE000F86802F015FDB860BA687B699A4201D98B
:104DF000BB687B61FB7C0133FB747B681B79FA7CAD
:104E00009A42E4D37B681B791A4613465B009918D3
:104E10007B6814331A46786903F050F80346BB7474
:104E200097F91230002B03D07B684FF0FF325A61A4
:104E300097F9123018461837BD4680BD80B582B04C
:104E400000AF78607B685B69B3F1FF3F04D07B689B
:104E50005B69184603F044F97B684FF0FF325A61F2
:104E600000BF0837BD4680BD80B58AB000AFF8608E
:104E7000B9607A60002387F82730FA68BB6813446A
:104E80003B623B6AFB61FB699A78DB781B02134348
:104E90007B83FB691B797B76FB695B793B7600231F
:104EA000FB753A7E797E7B8B1846FFF75FFE0346E3
:104EB000FB75FB7D002B0BD1798B7A7E3B7E1D48E9
:104EC000FEF702F87B6802221A606FF001032CE003
:104ED0007B8B1846FFF7FAFD0346002B0CBF01231E
:104EE0000023DBB2FB75FB7D002B0AD17B8B1946BF
:104EF0001148FDF7E9FF7B6802221A606FF0070393
:104F000013E0798B7A7E3B7E0C48FDF7DDFF0C4A7F
:104F10007B8B13800A4A7B7E9370094A3B7ED37059
:104F20007B6801221A6097F9273018462837BD465A
:104F300080BD00BFB8F20008FCF200082CF30008A6
:104F400014000020F0B58FB004AFF860B9607A604B
:104F5000002387F82730FA68BB6813443B623B6A3A
:104F6000FB61584B1B887B83564B9B787B76554B5C
:104F7000DB783B7600237B610023FB743A7E797EED
:104F80007B8B1846FFF7F2FD0346FB74FB7C002B7E
:104F90000BD1798B7A7E3B7E4B48FDF795FF7B6882
:104FA00002221A606FF0050387E07B8B1846FFF73B
:104FB0008DFD0346002B0CBF01230023DBB2FB74E5
:104FC000FB7C002B0AD17B8B19464048FDF77CFF08
:104FD0007B6802221A606FF007036EE0FB69587865
:104FE000FB699978FB695B681A46FFF71BFE03466D
:104FF000FB74FB7C002B1BD1798B7A7E387EFB699E
:105000005B781C46FB699B781D46FB69DB781E4676
:10501000FB695B68039302960195009403462C4854
:10502000FDF752FF7B6802221A606FF0010344E033
:10503000798B7A7E387EFB695B781C46FB699B78AE
:105040001D46FB69DB781E46FB695B68039302968D
:105050000195009403461F48FDF736FF1E4B196863
:105060007A8B13465B001344DB000B4419687A7E8D
:105070001346DB009B1A9B000B441A683B7EDB0047
:1050800013447B61FB695A787B691A70FB699A78D3
:105090007B695A70FB69DA787B699A70FB695A6898
:1050A0007B695A60074BDB780133DAB2054BDA7063
:1050B0007B6801221A6097F9273018462C37BD46C5
:1050C000F0BD00BF140000207CF30008D8F30008F6
:1050D00008F4000880F40008E004002090B58DB0CA
:1050E00002AFF860B9607A60002387F82730FA6869
:1050F000BB6813443B623B6AFB610023BB61002336
:10510000FB75614B1B68002B08D0FB695B889AB26A
:105110005D4B9B889A4201D2012300E00023FB757E
:10512000FB7D002B0CD1FB695B889BB2194657486D
:10513000FDF7CAFE7B6802221A606FF001039FE050
:10514000514B1A68FB695B889BB219460B465B00A2
:105150000B44DB001344BB61FB695B889BB21846C0
:10516000FFF7B4FC0346002B0CBF01230023DBB286
:10517000FB75FB7D002B0CD1FB695B889BB219464C
:105180004348FDF7A1FE7B6802221A606FF0070317
:1051900076E0FB699B889BB27F2B94BF01230023A1
:1051A000DBB2FB75FB7D002B0CD1FB699B889BB2AE
:1051B00019463848FDF788FE7B6802221A606FF0B6
:1051C00001035DE0FB69DB79002B0CBF01230023A9
:1051D000DBB2FB75FB7D002B08D12F48FDF774FE79
:1051E0007B6802221A606FF0010349E0FB695B787B
:1051F0001846FFF732FD0346FB75FB7D002B0BD1F4
:10520000FB695B7819462548FDF75EFE7B68022244
:105210001A606FF0090333E0FB695B889BB21946A3
:10522000FB695B781846FB699B889BB21C46FB694F
:105230009B791A46FB69DB7901930092234602466B
:105240001748FDF741FEFB695A78BB691A72FB6982
:105250009B889AB2BB69DA80FB699A79BB695A72FA
:10526000FB69DA79BB699A72BB695B7A012B02D858
:10527000BB6901225A727B6801221A6097F92730B4
:1052800018462C37BD4690BDE0040020F0F400081D
:1052900020F5000854F5000884F50008C0F5000862
:1052A000F4F5000890B58FB000AFF860B9607A608F
:1052B000002387F82630FA68BB6813443B623B6AD8
:1052C000FB610023BB61FB695B889BB27B610023B0
:1052D00087F837300023FB748A4B1B68002B07D0FC
:1052E000884B9B881A467B69934201DA012300E0D0
:1052F000002387F8373097F83730002B09D17969C8
:105300008148FDF7E1FD7B6802221A606FF001031E
:10531000B2E17E4A7B6913607A4B19687A69134659
:105320005B001344DB000B44BB61FB695B781846F0
:10533000FFF7A6FC034687F8373097F83730002B85
:105340000BD1FB695B7819467148FDF7BDFD7B68A1
:1053500002221A606FF009038EE1FFF7C3FC0346D7
:10536000002B5AD0BB695B79002B56D1BB691B7AE5
:1053700003F00203002B21D0BB691B68002B09D06E
:10538000604BDB791A46BB691B791344802B01DC27
:10539000012300E0002387F8373097F83730002BDF
:1053A0002DD0584BDA79BB69DA72564BDA79BB6982
:1053B0001B791344DAB2534BDA7120E0BB691B68E6
:1053C000002B09D04F4B9B791A46BB691B791344BC
:1053D000FC2B01DC012300E0002387F8373097F82D
:1053E0003730002B0BD0474B9A79BB69DA72454BAB
:1053F0009A79BB691B791344DAB2424B9A7197F8D8
:105400003730002B09D179694248FDF75DFD7B6893
:1054100002221A606FF008032EE1FB695B78012B12
:1054200004D0FB695B78022B40F0908000233B6343
:10543000012387F8373000233B637CE00023FB62C5
:105440000023BB620023FB6213E0BB6919683A6B5F
:105450001346DB009B1A9B000B441A68FB6ADB00B7
:1054600013445B781A46BB6A1344BB62FB6A013380
:10547000FB62BB6919683A6B1346DB009B1A9B0001
:105480000B441B791A46FB6A9342DEDB3B6B002B15
:1054900017D1BB691B7A03F01003002B11D0BB6935
:1054A000DB891A46BB6A02FB03F35C1D02F0E8F9D4
:1054B00003469C4294BF01230023DBB287F83730B8
:1054C00010E0BB69DB891A46BB6A02FB03F35C1C74
:1054D00002F0D6F903469C4294BF01230023DBB2BD
:1054E00087F8373097F83730002B17D13A6B796946
:1054F0000948FDF7E9FC7B6802221A606FF0080397
:10550000BAE000BFE004002058F6000810000020B8
:1055100088F60008B8F60008F4F60008BB691968B8
:105520003A6B1346DB009B1A9B000B44BA6A9A60E5
:105530003B6B01333B63BB691B791A463B6B934260
:1055400004DA97F83730002B7FF478AFBB69DB883B
:105550001846FFF74DFA0346FB74FB7C002B7DD009
:10556000002387F82730FB695B78022B53D0022B8E
:105570005FDC002B02D0012B13D05AE07969404840
:10558000FDF7A2FCBB6901225A71FFF7C7FA034677
:10559000002B4BD00120FEF7FDFB4020FEF72AFC3C
:1055A00044E079693748FDF78FFCBB695B69B3F16B
:1055B000FF3F22D1BB69DA88334B1B889A420CD15A
:1055C000314B5868304B9968BB6914331A4602F066
:1055D00033FE034687F827300FE07B69002B0CDC95
:1055E000BB69DB88012B08D8B869FFF7E3FB0346EA
:1055F00087F82730BB6900221A8297F92730002BE1
:1056000016D1BB6903225A710220FEF7C3FB40206A
:10561000FEF7DCFB0CE0FB695B889BB219461B487C
:10562000FDF752FCBB6902225A7102E000BF00E0A4
:1056300000BFBB69DB881846FFF700FA7B680222CF
:105640001A6097F92730002B08D01148FDF73CFC71
:105650007B6802221A606FF002030DE0FB7C002BD6
:1056600008D10C48FDF730FC7B6802221A606FF00D
:105670000A0301E097F9263018463C37BD4690BD35
:1056800058F7000884F7000818000020B0F7000859
:10569000DCF7000828F8000880B586B000AF0346A4
:1056A000B9607A60FB7397F90F30002B12D1BB6899
:1056B0007B617B69FF221A700C4B1A680C4B1B68CC
:1056C00019460B465B000B44DB001344DA7A7B6916
:1056D0005A7006E097F90F307A68B9681846FEF7F5
:1056E000BBFB00BF1837BD4680BD00BFE0040020F3
:1056F0001000002090B58BB000AFF860B9607A6000
:105700000023FB77FA68BB681344BB61BB697B610C
:105710000023FB740023BB7400237B627B695B78EE
:105720001846FFF7C6FA0346FB74FB7C002B0BD12F
:105730007B695B781946A648FDF7C6FB7B680222A9
:105740001A606FF0090362E1A24B1B68002B05D0C1
:10575000A04B9B88002B01D0012300E00023FB74A9
:10576000FB7C002B08D19C48FDF7AEFB7B68022236
:105770001A606FF001034AE101F07AFA0346BB7444
:10578000BB7C002B00F03581002387F823300023F9
:105790003B847B695B78022B00F0D580022B00F301
:1057A0000681002B02D0012B2CD000E100237B626C
:1057B0001BE0884B19687A6A13465B001344DB00D0
:1057C0000B445B79002B0DD0796A8448FDF77CFB94
:1057D000804B19687A6A13465B001344DB000B4464
:1057E00001225A717B6A01337B627A4B9B881A468D
:1057F0007B6A9342DDDB0120FEF7CCFA4020FEF706
:10580000F9FAD4E000237B6263E0724B19687A6A8C
:1058100013465B001344DB000B445B79022B55D12C
:105820006C4B19687A6A13465B001344DB000B4427
:105830005B69B3F1FF3F49D1664B19687A6A134639
:105840005B001344DB000B44DA88654B1B889A42EB
:1058500014D1634B5868624B9C685E4B19687A6A36
:1058600013465B001344DB000B4414331A462146F5
:1058700002F0E2FC034687F8233027E07B6A002B26
:1058800024DC544B19687A6A13465B001344DB002E
:105890000B44DB88012B19D84E4B19687A6A1346E2
:1058A0005B001344DB000B441846FFF783FA034602
:1058B00087F82330474B19687A6A13465B00134414
:1058C000DB000B4400221A827B6A3B847B6A013333
:1058D0007B62404B9B881A467B6A934203DA97F9B6
:1058E0002330002B91D097F92330002B5CD100237B
:1058F0007B6221E0374B19687A6A13465B001344D8
:10590000DB000B445B79022B13D1796A3548FDF734
:10591000DBFA304B19687A6A13465B001344DB00EC
:105920000B4403225A710220FEF734FA4020FEF79E
:105930004DFA7B6A01337B62264B9B881A467B6A51
:105940009342D7DB30E000237B621BE0214B1968D8
:105950007A6A13465B001344DB000B445B79022B2D
:105960000DD1796A1D48FDF7AFFA1A4B19687A6AAA
:1059700013465B001344DB000B4401225A717B6A1F
:1059800001337B62134B9B881A467B6A9342DDDBB3
:10599000FFF7C4F80346002B08D00120FEF7FAF900
:1059A0004020FEF727FA01E000BF00E000BF01F051
:1059B0006EF997F92330002B18D03B8C19460A4812
:1059C000FDF782FA7B6802221A606FF002031EE084
:1059D00070F80008E0040020A0F80008CCF80008E7
:1059E00018000020F4F800081CF900087B68012268
:1059F0001A60BB7C002B08D10748FDF765FA7B686D
:105A000002221A606FF00A0301E097F91F3018466E
:105A10002C37BD4690BD00BF68F9000880B584B042
:105A200000AFF860B9607A600548FDF74DFA7B6811
:105A300008221A60002318461037BD4680BD00BFFB
:105A4000ACF9000880B586B000AF0346B9607A6053
:105A5000FB73BB687B6108220021786908F0A8FE0F
:105A60007B69FF221A707B6911225A707B694FF0A3
:105A7000FF329A704FF0FF32DA707B69002262F0D9
:105A80007F021A7100225A717B6900229A717B6928
:105A90000022DA717B695B7819461048FDF714FA29
:105AA0007B695B889BB219460D48FDF70DFA7B694F
:105AB0009B889BB219460B48FDF706FA7B699B79D8
:105AC00019460948FDF700FA7B69DB791946074852
:105AD000FDF7FAF900BF1837BD4680BDC4F90008CC
