:020000040800F2
:1000000000C0002071F3000805CF00080DCF0008E4
:1000100015CF00081DCF000825CF00080000000004
:10002000000000000000000000000000659C0008C7
:100030002DCF000800000000219C0008499B00080B
:10004000C1F30008C1F30008C1F30008C1F30008C0
:10005000C1F30008C1F30008C1350008C1F300086E
:10006000C1F30008D1330008C1F300086914000887
:10007000C1F30008C1F30008C1F30008C1F3000890
:10008000C9AD0008A9AD00083BCF0008C1F30008C6
:10009000C1F30008C1F30008C1F30008C1F3000870
:1000A000C1F30008C1F30008C1F30008C1F3000860
:1000B000C1F300080000000000000000C1F30008C8
:1000C000C1F300080000000000000000C1F30008B8
:1000D00000000000C1F3000895AD0008000000001A
:1000E000C1F30008C1F30008000000000000000098
:1000F0000000000000000000000000000000000000
:10010000000000000000000000000000C1F3000833
:10011000000000000000000049CF0008C1F3000803
:10012000C1F30008C1F30008C1F30008C1F30008DF
:10013000C1F3000800000000000000000000000003
:10014000C1F30008C1F30008C1F30008C1F30008BF
:100150005DCF00086BCF0008C1F30008C1F30008B1
:10016000C1F30008C1F30008C1F30008000000005B
:10017000C1F30008C1F30008000000000000000007
:0C018000C1F30008C1F30008C1F300083F
:1001900081F0004102E000BF83F0004330B54FEA38
:1001A00041044FEA430594EA050F08BF90EA020FA5
:1001B0001FBF54EA000C55EA020C7FEA645C7FEA38
:1001C000655C00F0E2804FEA5454D4EB5555B8BF5B
:1001D0006D420CDD2C4480EA020281EA030382EACC
:1001E000000083EA010180EA020281EA0303362D5E
:1001F00088BF30BD11F0004F4FEA01314FF4801C31
:100200004CEA113102D0404261EB410113F0004F42
:100210004FEA03334CEA133302D0524263EB4303F9
:1002200094EA050F00F0A780A4F10104D5F1200E97
:100230000DDB02FA0EFC22FA05F2801841F10001F2
:1002400003FA0EF2801843FA05F359410EE0A5F1C6
:1002500020050EF1200E012A03FA0EFC28BF4CF0F7
:10026000020C43FA05F3C01851EBE37101F00045AD
:1002700007D54FF0000EDCF1000C7EEB00006EEBBA
:100280000101B1F5801F1BD3B1F5001F0CD3490844
:100290005FEA30004FEA3C0C04F101044FEA44529B
:1002A00012F5800F80F09A80BCF1004F08BF5FEA22
:1002B000500C50F1000041EB045141EA050130BD02
:1002C0005FEA4C0C404141EB0101013C28BFB1F514
:1002D000801FE9D291F0000F04BF01460020B1FA5F
:1002E00081F308BF2033A3F10B03B3F120020CDA32
:1002F0000C3208DD02F1140CC2F10C0201FA0CF010
:1003000021FA02F10CE002F11402D8BFC2F1200C74
:1003100001FA02F120FA0CFCDCBF41EA0C0190402A
:10032000E41AA2BF01EB0451294330BD6FEA040473
:100330001F3C1CDA0C340EDC04F11404C4F120025E
:1003400020FA04F001FA02F340EA030021FA04F370
:1003500045EA030130BDC4F10C04C4F1200220FAC7
:1003600002F001FA04F340EA0300294630BD21FA05
:1003700004F0294630BD94F0000F83F4801306BFCB
:1003800081F480110134013D4EE77FEA645C18BFBF
:100390007FEA655C29D094EA050F08BF90EA020F56
:1003A00005D054EA000C04BF1946104630BD91EA4E
:1003B000030F1EBF0021002030BD5FEA545C05D151
:1003C0004000494128BF41F0004130BD14F5800490
:1003D0003CBF01F5801130BD01F0004545F0FE4104
:1003E00041F470014FF0000030BD7FEA645C1ABF39
:1003F000194610467FEA655C1CBF0B46024650EA70
:10040000013406BF52EA033591EA030F41F400219B
:1004100030BD00BF90F0000F04BF0021704730B521
:100420004FF4806404F132044FF000054FF00001F6
:1004300050E700BF90F0000F04BF0021704730B5B7
:100440004FF4806404F1320410F0004548BF40428C
:100450004FF000013EE700BF42004FEAE2014FEAE1
:1004600031014FEA02701FBF12F07F4393F07F4FBC
:1004700081F06051704732F07F4208BF704793F0BF
:100480007F4F04BF41F40021704730B54FF46074D2
:1004900001F0004521F000411CE700BF50EA0102D5
:1004A00008BF704730B54FF000050AE050EA01027E
:1004B00008BF704730B511F0004502D5404261EBEE
:1004C00041014FF4806404F132045FEA915C3FF42F
:1004D000D8AE4FF003025FEADC0C18BF03325FEACC
:1004E000DC0C18BF033202EBDC02C2F1200300FA7D
:1004F00003FC20FA02F001FA03FE40EA0E0021FAA2
:1005000002F11444BDE600BF70B54FF0FF0C4CF48F
:10051000E06C1CEA11541DBF1CEA135594EA0C0F41
:1005200095EA0C0F00F0DEF82C4481EA030621EA7C
:100530004C5123EA4C5350EA013518BF52EA0335B7
:1005400041F4801143F4801338D0A0FB02CE4FF069
:100550000005E1FB02E506F00042E0FB03E54FF099
:100560000006E1FB03569CF0000F18BF4EF0010E91
:10057000A4F1FF04B6F5007F64F5407404D25FEA8D
:100580004E0E6D4146EB060642EAC62141EA555140
:100590004FEAC52040EA5E504FEACE2EB4F1FD0C82
:1005A00088BFBCF5E06F1ED8BEF1004F08BF5FEA00
:1005B000500E50F1000041EB045170BD06F00046B2
:1005C00046EA010140EA020081EA0301B4EB5C045F
:1005D000C2BFD4EB0C0541EA045170BD41F4801157
:1005E0004FF0000E013C00F3AB8014F1360FDEBF7C
:1005F000002001F0004170BDC4F10004203C35DA58
:100600000C341BDC04F11404C4F1200500FA05F3DA
:1006100020FA04F001FA05F240EA020001F000427B
:1006200021F0004110EBD37021FA04F642EB0601F1
:100630005EEA430E08BF20EAD37070BDC4F10C041B
:10064000C4F1200500FA04F320FA05F001FA04F2DF
:1006500040EA020001F0004110EBD37041F10001CB
:100660005EEA430E08BF20EAD37070BDC4F12005D6
:1006700000FA05F24EEA020E20FA04F301FA05F23E
:1006800043EA020321FA04F001F0004121FA04F2E6
:1006900020EA020000EBD3705EEA430E08BF20EAB6
:1006A000D37070BD94F0000F0FD101F000464000F0
:1006B00041EB010111F4801F08BF013CF7D041EA72
:1006C000060195F0000F18BF704703F00046520076
:1006D00043EB030313F4801F08BF013DF7D043EA47
:1006E0000603704794EA0C0F0CEA135518BF95EAFD
:1006F0000C0F0CD050EA410618BF52EA4306D1D184
:1007000081EA030101F000414FF0000070BD50EAA2
:10071000410606BF1046194652EA430619D094EA2C
:100720000C0F02D150EA013613D195EA0C0F05D116
:1007300052EA03361CBF104619460AD181EA03016A
:1007400001F0004141F0FE4141F470014FF0000022
:1007500070BD41F0FE4141F4780170BD70B54FF0BD
:10076000FF0C4CF4E06C1CEA11541DBF1CEA13553D
:1007700094EA0C0F95EA0C0F00F0A7F8A4EB05041F
:1007800081EA030E52EA03354FEA013100F0888016
:100790004FEA03334FF0805545EA131343EA1263DF
:1007A0004FEA022245EA111545EA10654FEA002694
:1007B0000EF000419D4208BF964244F1FD0404F54D
:1007C000407402D25B084FEA3202B61A65EB0305A9
:1007D0005B084FEA32024FF480104FF4002CB6EB66
:1007E000020E75EB030E22BFB61A754640EA0C00E6
:1007F0005B084FEA3202B6EB020E75EB030E22BF26
:10080000B61A754640EA5C005B084FEA3202B6EB66
:10081000020E75EB030E22BFB61A754640EA9C0025
:100820005B084FEA3202B6EB020E75EB030E22BFF5
:10083000B61A754640EADC0055EA060E18D04FEAB3
:10084000051545EA16754FEA06164FEAC30343EA53
:1008500052734FEAC2025FEA1C1CC0D111F4801F20
:100860000BD141EA00014FF000004FF0004CB6E719
:1008700011F4801F04BF01430020B4F1FD0C88BFB8
:10088000BCF5E06F3FF6AFAEB5EB030C04BFB6EBC3
:10089000020C5FEA500C50F1000041EB045170BDB6
:1008A0000EF0004E4EEA113114EB5C04C2BFD4EBE3
:1008B0000C0541EA045170BD41F480114FF0000E67
:1008C000013C90E645EA060E8DE60CEA135594EAE3
:1008D0000C0F08BF95EA0C0F3FF43BAF94EA0C0FE6
:1008E0000AD150EA01347FF434AF95EA0C0F7FF45B
:1008F00025AF104619462CE795EA0C0F06D152EAAF
:1009000003353FF4FDAE1046194622E750EA410692
:1009100018BF52EA43067FF4C5AE50EA41047FF4A3
:100920000DAF52EA43057FF4EBAE12E74FF0FF3C08
:1009300006E000BF4FF0010C02E000BF4FF0010CD9
:100940004DF804CD4FEA410C7FEA6C5C4FEA430C52
:1009500018BF7FEA6C5C1BD001B050EA410C0CBFA1
:1009600052EA430C91EA030F02BF90EA020F002003
:10097000704710F1000F91EA030F58BF994208BF6A
:1009800090422CBFD8176FEAE37040F00100704727
:100990004FEA410C7FEA6C5C02D150EA013C07D17E
:1009A0004FEA430C7FEA6C5CD6D152EA033CD3D0C9
:1009B0005DF8040B704700BF8446104662468C46C3
:1009C0001946634600E000BF01B5FFF7B7FF0028F6
:1009D00048BF10F1000F01BD4DF808EDFFF7F4FF1F
:1009E0000CBF012000205DF808FB00BF4DF808EDAA
:1009F000FFF7EAFF34BF012000205DF808FB00BFCD
:100A00004DF808EDFFF7E0FF94BF012000205DF8EE
:100A100008FB00BF4DF808EDFFF7CEFF94BF0120A3
:100A200000205DF808FB00BF4DF808EDFFF7C4FF9C
:100A300034BF012000205DF808FB00BF4FEA410CE5
:100A40007FEA6C5C02D150EA013C0AD14FEA430CC8
:100A50007FEA6C5C02D152EA033C02D14FF0000005
:100A600070474FF0010070474A0011D212F5001292
:100A700011D20DD56FF47873B3EB62520ED44FEAF6
:100A8000C12343F0004343EA505323FA02F0704776
:100A90004FF00000704750EA013002D14FF0FF30B4
:100AA00070474FF0000070474FEA4102B2F1E04357
:100AB00024BFB3F5001CDCF1FE5C0DD901F0004C45
:100AC0004FEAC0024CEA5070B2F1004F40EB830095
:100AD00008BF20F00100704711F0804F21D113F1C1
:100AE0003872BCBF01F00040704741F480114FEAFA
:100AF0005252C2F11802C2F1200C10FA0CF320FA83
:100B000002F018BF40F001004FEAC1234FEAD3239F
:100B100003FA0CFC40EA0C0023FA02F34FEA430309
:100B2000CCE77FEA625307D150EA01331EBF4FF092
:100B3000FE4040F44000704701F0004040F0FE40AD
:100B400040F40000704700BF0348044B834202D0CA
:100B5000034B03B118477047E4000020E400002075
:100B6000000000000548064B1B1AD90F01EBA3013A
:100B7000491002D0034B03B118477047E40000202E
:100B8000E40000200000000010B5064C237843B9B3
:100B9000FFF7DAFF044B13B10448AFF300800123E1
:100BA000237010BDE800002000000000BCF7000822
:100BB00008B5054B1BB105490548AFF30080BDE8FA
:100BC0000840FFF7CFBF00BF00000000EC0000208E
:100BD000BCF7000880B483B000AF786039607B68F0
:100BE000403318460C37BD465DF8047B704780B42F
:100BF00083B000AF78607B68DB6803F44063002B50
:100C000001D1012300E0002318460C37BD465DF8F2
:100C1000047B704780B483B000AF786039607B6834
:100C20001B6B23F00F023B681A437B681A6300BFFB
:100C30000C37BD465DF8047B704780B483B000AFCD
:100C4000786039607B68DB6823F003023B681A43F5
:100C50007B68DA6000BF0C37BD465DF8047B7047E7
:100C600080B483B000AF78607B68DB6C03F0C003B6
:100C7000002B01D1012300E0002318460C37BD46AC
:100C80005DF8047B704780B483B000AF78607B6808
:100C90009B6823F0004323F03F0343F001027B688D
:100CA0009A6000BF0C37BD465DF8047B704780B486
:100CB00083B000AF78607B689B6823F0004323F02B
:100CC0003F0343F002027B689A6000BF0C37BD46C9
:100CD0005DF8047B704780B483B000AF78607B68B8
:100CE0009B6803F00103012B01D1012300E00023E5
:100CF00018460C37BD465DF8047B704780B483B05E
:100D000000AF78607B689B6823F0004323F03F03CB
:100D100043F004027B689A6000BF0C37BD465DF863
:100D2000047B704780B483B000AF78607B689B68B9
:100D300023F0004323F03F0343F008027B689A60EE
:100D400000BF0C37BD465DF8047B704780B483B0AC
:100D500000AF78607B681B6803F00803082B01D1A3
:100D6000012300E0002318460C37BD465DF8047BE4
:100D7000704780B483B000AF78607B681B6803F075
:100D80001003102B01D1012300E0002318460C377B
:100D9000BD465DF8047B704780B483B000AF7860D7
:100DA0007B6810221A6000BF0C37BD465DF8047BDB
:100DB000704780B483B000AF78607B685B6843F0B5
:100DC00008027B685A6000BF0C37BD465DF8047BA3
:100DD000704780B483B000AF78607B685B6843F095
:100DE00040027B685A6000BF0C37BD465DF8047B4B
:100DF000704780B483B000AF78607B685B6823F095
:100E000008027B685A6000BF0C37BD465DF8047B62
:100E1000704780B483B000AF78607B685B6823F074
:100E200010027B685A6000BF0C37BD465DF8047B3A
:100E3000704780B483B000AF78607B685B6823F054
:100E400040027B685A6000BF0C37BD465DF8047BEA
:100E5000704780B483B000AF78607B685B6823F034
:100E600080027B685A6000BF0C37BD465DF8047B8A
:100E7000704780B483B000AF78607B685B6803F034
:100E80001003102B01D1012300E0002318460C377A
:100E9000BD465DF8047B704780B483B000AF7860D6
:100EA0007B685B6803F08003802B01D1012300E0A5
:100EB000002318460C37BD465DF8047B70470000E0
:100EC00080B485B000AF786039607B68FB600C4A05
:100ED0003B6813441B781A46FB6813441B68084997
:100EE0003A680A4412781146FA680A4443F001034A
:100EF000136000BF1437BD465DF8047B704700BF28
:100F00006020010880B485B000AF786039607B68EC
:100F1000FB600C4A3B6813441B781A46FB68134479
:100F20001B6808493A680A4412781146FA680A446C
:100F300023F00103136000BF1437BD465DF8047B46
:100F4000704700BF6020010880B485B000AF7860B2
:100F500039607B68FB60084A3B6813441B781A467B
:100F6000FB6813441B6803F0200318461437BD4682
:100F70005DF8047B704700BF6020010880B487B033
:100F800000AFF860B9607A60FB687B610D4ABB68AE
:100F900013441B781A467B6913445B681B0C1B04C3
:100FA0000849BA680A44127811467A690A44114617
:100FB0007A6813434B6000BF1C37BD465DF8047B65
:100FC000704700BF6020010880B487B000AFF860B0
:100FD000B9607A603B60FB687B613B6A102B14D17F
:100FE000174ABB6813441B781A467B6913441A4698
:100FF0007B68D360124ABB6813441B781A467B692E
:1010000013441A463B68936013E00D4ABB681344CF
:101010001B781A467B6913441A467B689360084A1A
:10102000BB6813441B781A467B6913441A463B6815
:10103000D36000BF1C37BD465DF8047B704700BF1E
:101040006020010880B487B000AFF860B9607A60B2
:10105000FB687B61074ABB6813441B781A467B69AF
:1010600013441A467B68936000BF1C37BD465DF889
:10107000047B70476020010880B483B000AF7860C3
:101080007B681B6803F00203022B01D1012300E0FF
:10109000002318460C37BD465DF8047B704780B4CA
:1010A00083B000AF78607B6802225A6000BF0C37C3
:1010B000BD465DF8047B704780B485B000AF7860B2
:1010C00039607B68FB600C4A3B6813441B781A4606
:1010D000FB6813441B6808493A680A4412781146B1
:1010E000FA680A4443F00203136000BF1437BD4698
:1010F0005DF8047B704700BF6020010880B485B0B4
:1011000000AF786039607B68FB600C4A3B68134431
:101110001B781A46FB6813441B6808493A680A445E
:1011200012781146FA680A4443F00803136000BFBE
:101130001437BD465DF8047B704700BF602001088E
:1011400080B485B000AF786039607B68FB600C4A82
:101150003B6813441B781A46FB6813441B68084914
:101160003A680A4412781146FA680A4423F00203E6
:10117000136000BF1437BD465DF8047B704700BFA5
:101180006020010880B485B000AF786039607B686A
:10119000FB600C4A3B6813441B781A46FB681344F7
:1011A0001B6808493A680A4412781146FA680A44EA
:1011B00023F00403136000BF1437BD465DF8047BC1
:1011C000704700BF6020010880B485B000AF786030
:1011D00039607B68FB600C4A3B6813441B781A46F5
:1011E000FB6813441B6808493A680A4412781146A0
:1011F000FA680A4423F00803136000BF1437BD46A1
:101200005DF8047B704700BF6020010880B485B0A2
:1012100000AF786039607B68FB600A4A3B68134422
:101220001B781A46FB6813441B6803F00203022B69
:1012300001D1012300E0002318461437BD465DF8B4
:10124000047B70476020010880B584B000AF7860EF
:101250000123FB817B681B691846FFF7C8FC034626
:10126000002B2FD07B685B7ADBB2022B11D07B681E
:101270005B7ADBB2042B0CD07B685B7ADBB2082B89
:1012800007D07B681B691846FFF760FD0346012BFA
:1012900018D1786800F0F8F80346002B12D17B686B
:1012A0005B7ADBB2082B03D17B6801225A7202E021
:1012B0007B6820225A727B681B691846FFF71EFD67
:1012C0000023FB81FB8918461037BD4680BD80B5E1
:1012D00086B002AFF860B9607A603B600021F868C0
:1012E000FFF778FC03461A467968B868FFF7AAFE4C
:1012F0000021F868FFF76EFC02463B680021009170
:101300007968B868FFF760FEBA697968B868FFF76E
:1013100035FE7968B868FFF7CFFE7968B868FFF7DF
:10132000EDFE7968B868FFF7CBFD00BF1037BD460A
:1013300080BD80B584B000AFF860B9607A6079682C
:10134000B868FFF7DFFD7968B868FFF71BFF7968B9
:10135000B868FFF739FF7968B868FFF7F1FE002237
:101360007968B868FFF70AFE00BF1037BD4680BD38
:1013700080B584B000AF786039600223FB737B686E
:10138000DB79012B0FD17B68DA687B681B685B0017
:10139000D118FB7B7A68126802FB03F31A4638689F
:1013A0000EF0FEF90AE07B68D968FB7B7A68126868
:1013B00002FB03F31A4638680EF0F2F900BF10374B
:1013C000BD4680BD80B586B000AFF860B9607A6078
:1013D000FB685A69FB689B7919461046FFF716FFB0
:1013E0000346DBB2012B37D1FB685A69BB68104654
:1013F00098470346012B2FD1FB6804225A72FB68E1
:101400005A697B6810469847FB685A69FB689B7964
:1014100019461046FFF798FD0346002B19D1FB68CB
:101420005A69FB689B7919461046FFF76BFDFB680C
:101430005869FB689B791946FB681B681A46FFF7D9
:101440009DFDFB685A69FB689B7919461046FFF7BA
:1014500037FD0123FB7501E00023FB75FB7D18467A
:101460001837BD4680BD000080B500AF034A04496F
:101470000448FFF7A7FF00BF80BD00BF9F10000812
:10148000791000080401002080B582B000AF7860B8
:101490007B681B691846FFF76CFC0346DBB2012B27
:1014A00007D17B681B691846FFF776FC7B68102222
:1014B0005A727B685B7ADBB2102B0CBF01230023CE
:1014C000DBB218460837BD4680BD80B582B000AF9C
:1014D00078600B46FB70FB78012B0DD17B681B6994
:1014E0001846FFF784FB0346012B12D07B681B696B
:1014F0001846FFF703FC0CE07B681B691846FFF7F2
:10150000AFFB0346012B04D07B681B691846FFF72D
:1015100009FC00BF0837BD4680BD000090B589B00A
:1015200002AFF860084611461A4603467B810B4617
:101530003B811346FB8000237B61FB681B693C4AAF
:10154000934201D13B4B7B617B69002B6BD0FB68E5
:101550001A697B691A617B690022DA71FB88012BA9
:1015600061D03B89002B47D07B695B7ADBB2082BCB
:1015700042D0FB68DA687B69DA60FB681A687B69CD
:101580001A60FB685A697B695A61FB689A797B69C2
:101590009A71FB681A797B691A717B691B69B96A50
:1015A0001846FFF737FB7B89012B21D07B89042B61
:1015B00016D17B691B6903211846FFF73EFB7B6947
:1015C00018697B6959697B699B791C467B69DA6874
:1015D0007B691B68009313462246FFF778FE07E0FD
:1015E0007B89022B04D17B691B691846FFF7E1FB5D
:1015F0007B6908225A7216E03B89002B13D17B6964
:101600009B7ADBB2082B0ED0FB685A797B695A7142
:101610007B89022B04D17B691B691846FFF7D9FB34
:101620007B6908229A727B6918461C37BD4690BDBB
:10163000000004500401002080B582B000AF786043
:101640007B681B691846FFF746FB0346002B04D155
:101650007B681B691846FFF716FB00BF0837BD46BD
:1016600080BD80B586B000AFF8600B467A607B81A4
:101670000123FB82FB681B69002B46D07B89012B71
:1016800005D1F868FFF7E0FD0346FB823DE07B896A
:10169000042B1FD1FB681B691846FFF7A8FA034605
:1016A000002B32D0FB6801225A72FB681B69184676
:1016B000FFF724FB00BFFB685B7ADBB2042BFAD197
:1016C0007968F868FFF754FEFB6808225A72002315
:1016D000FB821AE07B89022B17D1FB685B7ADBB2B5
:1016E000202B09D0FB685B7ADBB2042B04D0FB68AB
:1016F0005B7ADBB2102B08D1FB6808225A7279683A
:10170000F868FFF735FE0023FB82FB8A184618377E
:10171000BD4680BD80B582B000AF78600B467B804F
:1017200013463B807B681B691846FFF7D4FA0346D3
:10173000002B04D07B681B691846FFF7B8FA7B685A
:101740001B691846FFF7A8FB0346002B04D07B68F3
:101750001B691846FFF77DFB7B681B691846FFF77E
:1017600088FB0346002B04D07B681B691846FFF7F3
:1017700050FB3B88002B38D07B88012B1AD07B880C
:10178000022B05D17B681B691846FFF732FB11E07D
:101790007B88042B0ED17B6818697B6859697B684C
:1017A0009B791A46FFF7C5FD7B681B690021184627
:1017B000FFF743FA7B680022DA607B6800221A6038
:1017C0007B6800225A617B6800229A717B68002244
:1017D0001A717B6840225A727B681A697B681B7990
:1017E00019461046FFF716FA0DE07B6800225A7181
:1017F0007B6840229A727B88022B04D17B681B692C
:101800001846FFF716FB00BF0837BD4680BD80B401
:1018100085B000AF78607B681B6803F06003FB60F5
:10182000FB68002B04D17B681B6803F01003FB608E
:10183000FB6818461437BD465DF8047B704780B4DA
:1018400083B000AF78607B681B6B18460C37BD46D1
:101850005DF8047B704780B483B000AF7860396076
:101860007B681A6A3B681A437B681A6200BF0C37B0
:10187000BD465DF8047B704780B483B000AF7860EC
:1018800039607B681A6A3B68DB431A407B681A62DE
:1018900000BF0C37BD465DF8047B704780B483B051
:1018A00000AF78607B685B6C43F400427B685A64ED
:1018B00000BF0C37BD465DF8047B704780B483B031
:1018C00000AF78607B68DB6843F001027B68DA6018
:1018D00000BF0C37BD465DF8047B704780B483B011
:1018E00000AF78607B68DB6823F001027B68DA6018
:1018F00000BF0C37BD465DF8047B704780B483B0F1
:1019000000AF78607B68DB6803F00103012B01D135
:10191000012300E0002318460C37BD465DF8047B28
:10192000704780B483B000AF78607B68DB6843F0B9
:1019300002027B68DA6000BF0C37BD465DF8047BAD
:10194000704780B483B000AF78607B68DB6823F0B9
:1019500002027B68DA6000BF0C37BD465DF8047B8D
:10196000704780B483B000AF78607B68DB6803F0B9
:101970000203022B01D1012300E0002318460C379B
:10198000BD465DF8047B704780B483B000AF7860DB
:101990007B68DB6843F004027B68DA6000BF0C37C9
:1019A000BD465DF8047B704780B483B000AF7860BB
:1019B0007B68DB6823F004027B68DA6000BF0C37C9
:1019C000BD465DF8047B704780B483B000AF78609B
:1019D0007B68DB6803F00403042B01D1012300E0E2
:1019E000002318460C37BD465DF8047B704780B471
:1019F00083B000AF78607B68DB6843F008027B68E7
:101A0000DA6000BF0C37BD465DF8047B704780B4D8
:101A100083B000AF78607B68DB6823F008027B68E6
:101A2000DA6000BF0C37BD465DF8047B704780B4B8
:101A300083B000AF78607B68DB6803F00803082B95
:101A400001D1012300E0002318460C37BD465DF8A4
:101A5000047B704780B483B000AF78607B68DB683C
:101A600043F010027B68DA6000BF0C37BD465DF8BA
:101A7000047B704780B483B000AF78607B68DB681C
:101A800023F010027B68DA6000BF0C37BD465DF8BA
:101A9000047B704780B483B000AF78607B68DB68FC
:101AA00003F01003102B01D1012300E0002318469E
:101AB0000C37BD465DF8047B704780B483B000AF3F
:101AC00078607B68DB6843F020027B68DA6000BFE7
:101AD0000C37BD465DF8047B704780B483B000AF1F
:101AE00078607B68DB6823F020027B68DA6000BFE7
:101AF0000C37BD465DF8047B704780B483B000AFFF
:101B000078607B68DB6803F02003202B01D1012380
:101B100000E0002318460C37BD465DF8047B704793
:101B200080B483B000AF78607B68DB6843F040022C
:101B30007B68DA6000BF0C37BD465DF8047B7047F8
:101B400080B483B000AF78607B68DB6823F040022C
:101B50007B68DA6000BF0C37BD465DF8047B7047D8
:101B600080B483B000AF78607B68DB6803F040032B
:101B7000402B01D1012300E0002318460C37BD465D
:101B80005DF8047B704780B483B000AF78607B68F9
:101B9000DB6843F080027B68DA6000BF0C37BD462B
:101BA0005DF8047B704780B483B000AF78607B68D9
:101BB000DB6823F080027B68DA6000BF0C37BD462B
:101BC0005DF8047B704780B483B000AF78607B68B9
:101BD000DB6803F08003802B01D1012300E00023A8
:101BE00018460C37BD465DF8047B704780B582B05F
:101BF00000AF78600B467B807B8803F00103002BED
:101C00000CD07B681B681846FFF7AAFF0346012B20
:101C100004D07B681B681846FFF782FF7B8803F0BF
:101C20000203002B0CD07B681B681846FFF799FE57
:101C30000346012B04D07B681B681846FFF771FE32
:101C40007B8803F00403002B0CD07B681B681846CC
:101C5000FFF7BAFE0346012B04D07B681B681846C9
:101C6000FFF792FE7B8803F00803002B0CD07B6803
:101C70001B681846FFF7DBFE0346012B04D07B6888
:101C80001B681846FFF7B3FE7B8803F01003002B98
:101C90000CD07B681B681846FFF7FCFE0346012B3F
:101CA00004D07B681B681846FFF7D4FE7B8803F0DE
:101CB0002003002B0CD07B681B681846FFF71EFE24
:101CC0000346012B04D07B681B681846FFF7F6FD1E
:101CD0007B8803F04003002B0CD07B681B68184600
:101CE000FFF771FF0346012B04D07B681B68184681
:101CF000FFF749FF7B8803F08003002B0CD07B6843
:101D00001B681846FFF7F9FE0346012B04D07B68D9
:101D10001B681846FFF7D1FE00BF0837BD4680BDDF
:101D200080B582B000AF78600B467B807B8803F083
:101D30000103002B0CD07B681B681846FFF710FFCF
:101D40000346012B04D17B681B681846FFF7F8FE99
:101D50007B8803F00203002B0CD07B681B681846BD
:101D6000FFF7FFFD0346012B04D17B681B68184673
:101D7000FFF7E7FD7B8803F00403002B0CD07B68A2
:101D80001B681846FFF720FE0346012B04D17B6831
:101D90001B681846FFF708FE7B8803F00803002B3A
:101DA0000CD07B681B681846FFF741FE0346012BE9
:101DB00004D17B681B681846FFF729FE7B8803F077
:101DC0001003002B0CD07B681B681846FFF762FEDF
:101DD0000346012B04D17B681B681846FFF74AFEB7
:101DE0007B8803F02003002B0CD07B681B6818460F
:101DF000FFF784FD0346012B04D07B681B6818465F
:101E0000FFF76CFD7B8803F04003002B0CD07B6850
:101E10001B681846FFF7D7FE0346012B04D17B68E9
:101E20001B681846FFF7BFFE7B8803F08003002B7A
:101E30000CD07B681B681846FFF75FFE0346012B3A
:101E400004D17B681B681846FFF747FE00BF0837C0
:101E5000BD4680BD80B582B000AF78600B46FB7098
:101E6000FB78022B06D17B681B6801211846FFF71F
:101E7000F2FC27E07B681B68144A934209D07B6818
:101E80001B68134A934204D07B681B68114A934233
:101E900018D1FB78032B06D17B681B6804211846F8
:101EA000FFF7D9FC0EE0FB78042B0BD17B681B6895
:101EB00001211846FFF7CFFC7B681B6804211846F8
:101EC000FFF7C9FC00BF0837BD4680BD002C0140AC
:101ED000004001400044014080B582B000AF78600E
:101EE0000B46FB70FB78022B06D17B681B68012137
:101EF0001846FFF7C1FC27E07B681B68144A934231
:101F000009D07B681B68134A934204D07B681B6826
:101F1000114A934218D1FB78032B06D17B681B68CA
:101F200004211846FFF7A8FC0EE0FB78042B0BD128
:101F30007B681B6801211846FFF79EFC7B681B68C5
:101F400004211846FFF798FC00BF0837BD4680BD46
:101F5000002C0140004001400044014080B584B0A5
:101F600000AF78600023FB607B681B682A4A9342BD
:101F700002D12A4BFB6006E07B681B68284A93422B
:101F800001D1284BFB607B681A68FB681A60FB680C
:101F90001B681846FFF73BFCB860BB68002B06D0F7
:101FA000BB68102B03D0FB6801221A7102E0FB68AA
:101FB00000221A71FB681B68174A934209D0FB681C
:101FC0001B68194A934204D0FB681B68144A934269
:101FD00004D1FB681B681846FFF760FCFB681B68B0
:101FE0000D4A934209D0FB681B680F4A934204D004
:101FF000FB681B680A4A934208D17B681B68184635
:10200000FFF71DFC0346DAB2FB685A71FB681846FD
:102010001037BD4680BD00BF002C014020010020CC
:1020200000440140AC0100200040014080B485B074
:1020300000AF786039600023FB7397F90F301846C2
:102040001437BD465DF8047B7047000080B584B04E
:1020500000AF786039600023FB727B68002B05D1EC
:10206000374801F0BFFB4FF0FF3365E03B68002BC2
:1020700005D1344801F0B6FB4FF0FF335CE0324B42
:10208000D3E900014FF000024FF04043FEF7A4FCFB
:102090000346002B06D03B68D3E900232A49C1E957
:1020A000002305E0284BD3E900233968C1E9002368
:1020B000254BD3E900014FF00002244BFEF78CFCC6
:1020C0000346002B02D0224801F08CFB7B685B6842
:1020D0001B68204A13607B685B685B681E4A13605C
:1020E0007B685B689B681D4A13607B685B68DB6884
:1020F0001B4A13601B4B00221A6001F0EFFF002304
:10210000FB600023FB6007E0174AFB68174942F8B1
:102110002310FB680133FB60FB68022BF4D901F04C
:102120001DFC0346FB7297F90B30002B02D1104BBC
:1021300001221A7097F90B3018461037BD4680BD42
:10214000D8F70008FCF70008000000200000F0BFEE
:1021500028F80008580400205C04002060040020D7
:102160006404002068040020380200204541000873
:102170005604002080B586B000AF78600023FB7560
:1021800000233B610023FB732A4B1B78DBB2002B3F
:102190000CBF01230023DBB2BB73274B02221A7052
:1021A0007B68002B0BD1234B1B78DBB2002B06D1B5
:1021B000224B1B78DBB2002B01D1012300E000236E
:1021C000FB7316E00A2007F0CBFB3B6903F51C53B9
:1021D00010333B617B68B3F1FF3F05D03A697B6800
:1021E0009A4201D9012300E00023FB73002001F093
:1021F0000DFC104B1B78DBB2002B07D10F4B1B786B
:10220000DBB2002B02D1FB7B002BDBD00A4B03227D
:102210001A70FB7B002B01D09C23FB75BB7B002B32
:1022200001D002F089F897F9173018461837BD46E3
:1022300080BD00BF54040020560400205504002037
:1022400080B586B000AF034687ED000BFB8100230D
:10225000FB750123BB754FF000024FF00003D7E977
:102260000001FEF7C3FB0346002B05D02E4801F00A
:10227000B9FA4FF0FF3353E0FB89FF2B08D9FB89F4
:10228000FF221946294801F0ADFA4FF0FF3347E02D
:10229000274B1B78DBB2032B04D0254B1B78DBB21A
:1022A000012B02D1224B04221A70FB89022B15D874
:1022B000FB89204A52F82330002B0FD002F002FC99
:1022C00003467B757B7D022B08D1FB89194A52F8A6
:1022D0002330FA89104698470346BB75FB897B82F9
:1022E000FB89184697ED000B01F09AFABB7D002B95
:1022F00006D07B8A184602F0BDFB0346FB7503E05F
:102300007B8A184602F019FC97F91730002B05D08C
:1023100097F917301946084801F064FA97F9173011
:1023200018461837BD4680BD94F80008D8F8000854
:10233000560400203802002018F9000880B582B049
:1023400000AF0023FB71002001F060FB0346FB712E
:1023500097F9073018460837BD4680BD80B582B072
:1023600000AF0023FB710B4B06221A7001F0ECFB4F
:102370000346FB710C22002107480DF0DFF901F044
:1023800061FF044B00221A7097F90730184608378E
:10239000BD4680BD560400203802002080B400AF46
:1023A000034B1B78DBB21846BD465DF8047B7047D3
:1023B0005504002080B400AF034B1B78DBB21846F5
:1023C000BD465DF8047B70476C04002080B483B088
:1023D00000AF03463960FB7197F90730002B0ADB29
:1023E0003B68DAB20C4997F907301201D2B20B44BC
:1023F00083F800230AE03B68DAB20849FB7903F06E
:102400000F03043B1201D2B20B441A7600BF0C3703
:10241000BD465DF8047B704700E100E000ED00E0A0
:1024200080B584B000AFF860B9607A60FB68DBB259
:102430000F3BDBB25BB279681846FFF7C7FF00BFFE
:102440001037BD4680BD000080B582B000AF4FF0B0
:1024500000024FF00003C7E90023164B1B785A1CFB
:10246000D1B2144A1170002B09D0134B01221A600B
:10247000104B1B78013BDAB20E4B1A7016E062B6B5
:1024800000BF0E4B1B68D3E90823C7E9002300F007
:10249000BFFB97ED000B0020FFF7D2FE72B600BF26
:1024A000044B1B78013BDAB2024B1A700837BD4669
:1024B00080BD00BF480200204402002068200108BF
:1024C00080B586B000AF786039605F4B7B614FF0BC
:1024D00084433B610023FB735C4B00221A705C4B0E
:1024E00000221A7001DF0BF019FD09F03DFF09F021
:1024F000A1FF0AF037FC0AF0DBFB0AF0D1F80AF082
:1025000081F90AF0B9FA0AF00BFB09F0A9FF0AF009
:1025100029FA504B1B6800221A6000210020FFF7A7
:1025200085FD0346FB7397F90F30002B02D097F916
:102530000F3084E000F032FF00F00AFE72B600BFF8
:1025400062B600BF434B1B685A68424B1B6840335E
:1025500019461046FFF77AFD0346FB7397F90F30D3
:10256000002B0DD14FF0FF30FFF704FEFFF716FFF1
:102570000346002B04D0374B1B68012283F8482008
:1025800072B600BF97ED050A07F0EEFAFFF712FFEB
:102590000346002B0CD1FFF701FF0346002B07D1A8
:1025A0002C4B1B6893F84830002B01D1012300E02D
:1025B0000023DAB2264B1A7062B600BF62B600BFC3
:1025C0002FE0FFF7BBFE0346FB73FFF7F3FE034666
:1025D000002B0AD1FFF7E2FE0346002B05D11D4B6D
:1025E0001B6893F84830002B01D0012300E0002342
:1025F000DAB2164B1A70154B1B78DBB2002B0CBFEE
:1026000001230023DBB21A46114B1A700F4B1B78C3
:10261000DBB2002B05D0104B1B680F4A23F00103DF
:1026200013600B4B1B78DBB2002BCAD100F054FEB9
:10263000FFF794FE01F0CCF872B600BF00231846F5
:102640001837BD4680BD00BF0AD7233C4902002091
:102650004A0200206820010810E000E080B483B046
:1026600000AF0346FB7197F90730002B0BDBFB79BA
:1026700003F01F02074997F907305B09012000FAB0
:1026800002F241F8232000BF0C37BD465DF8047B01
:10269000704700BF00E100E080B483B000AF0346A4
:1026A000FB7197F90730002B12DBFB7903F01F0257
:1026B0000A4997F907305B09012000FA02F220333A
:1026C00041F82320BFF34F8F00BFBFF36F8F00BFD0
:1026D00000BF0C37BD465DF8047B704700E100E0A9
:1026E00080B483B000AF7860074B1A687B681340F2
:1026F0007A689A4201D1012300E0002318460C3782
:10270000BD465DF8047B70470004014080B483B08F
:1027100000AF7860074B5A697B6813407A689A4229
:1027200001D1012300E0002318460C37BD465DF8B7
:10273000047B70470004014080B483B000AF786030
:10274000044A7B68536100BF0C37BD465DF8047BCB
:10275000704700BF0004014080B483B000AF7860D0
:102760007B681B6843F001027B681A6000BF0C376E
:10277000BD465DF8047B704780B483B000AF7860DD
:102780007B681B6823F001027B681A6000BF0C376E
:10279000BD465DF8047B704780B483B000AF7860BD
:1027A00039607B681B6823F004023B681A437B682E
:1027B0001A6000BF0C37BD465DF8047B704780B4DB
:1027C00083B000AF78607B681B6803F00403184691
:1027D0000C37BD465DF8047B704780B483B000AF12
:1027E00078607B68DB6A18460C37BD465DF8047B71
:1027F000704780B483B000AF786039607B683A6816
:102800001A6300BF0C37BD465DF8047B704780B487
:1028100083B000AF786039607B683A685A6300BF64
:102820000C37BD465DF8047B704780B483B000AFC1
:1028300078607B685B6B18460C37BD465DF8047B9F
:10284000704780B483B000AF78607B685B6943F009
:1028500001027B685A6100BF0C37BD465DF8047BFE
:10286000704780B483B000AF78607B681B691846FE
:102870000C37BD465DF8047B704780B483B000AF71
:10288000786039607B683A689A6100BF0C37BD4652
:102890005DF8047B704780B483B000AF7860396026
:1028A0007B683A689A6200BF0C37BD465DF8047BCE
:1028B0007047000080B584B000AF786087ED000AF3
:1028C000D7ED007AF5EEC07AF1EE10FA03D54FF0AD
:1028D00000033B600AE0D7ED007A9FED167AF4EE34
:1028E000C77AF1EE10FA01DD134B3B607B681B6881
:1028F0001846FFF772FFF8607B681B79002B0CBF4E
:1029000001230023DBB21A46FB68134407EE903A1A
:10291000B8EE677AD7ED007A27EE277ADFED056A01
:10292000C7EE267AFCEEE77A17EE903A1846103793
:10293000BD4680BD0000C8420000C84280B582B0DC
:1029400000AF786039607B681B681846FFF76DFF41
:1029500002463B68934205D07B681B68396818467D
:10296000FFF755FF00BF0837BD4680BD80B584B076
:1029700000AF786087ED000A97ED000A7868FFF7EE
:1029800099FFF860F9687868FFF7D8FF00BF103743
:10299000BD4680BD80B485B000AF78607B681B68A1
:1029A0009A68074B1340FB60FB68062B0CBF0123A2
:1029B0000023DBB218461437BD465DF8047B704730
:1029C0000700010080B584B000AF78600B46FB7053
:1029D0007B681B681846FFF7F2FEF860FB78002B57
:1029E00014D07B681B68284A934209D07B681B6817
:1029F000264A934204D07B681B68254A934205D13E
:102A00007B681B6800211846FFF7F3FEFB68042B68
:102A100011D07B681B6804211846FFF7BDFE7B6858
:102A20001B681846FFF70DFF7B681B68F96818469E
:102A3000FFF7B2FE04E07B681B681846FFF701FF52
:102A40007B681B681846FFF787FEFB78002B16D0C3
:102A50007B681B680C4A934209D07B681B680B4A51
:102A6000934204D07B681B68094A934207D17B6874
:102A70001A687B685B7919461046FFF7BAFE00BFFB
:102A80001037BD4680BD00BF002C01400040014012
:102A90000044014080B582B000AF78607B681B685D
:102AA0001846FFF769FE00BF0837BD4680BD00002D
:102AB00080B58CB002AF78607B6800221A727B68A8
:102AC00001225A607B681033BB6100237B74174B73
:102AD000FB61174B3B620023BB74002387F8243053
:102AE000022387F825300523FB6005233B7407F19B
:102AF0000C0004230093042301220421FEF70EFDA1
:102B000002467B68DA607B68DB681846FEF794FD56
:102B10007B68DB6801211846FEF7D7FC7B68012241
:102B20001A7200BF2837BD4680BD00BF00000450A8
:102B30000000024080B5A6B000AF7860174BBB60C4
:102B400000233B7300237B7307F108031846FFF74C
:102B500005FA02467B68DA607B68DB68002118466C
:102B6000FFF744F87B68DB6802211846FFF772F92B
:102B70007B68DB681846FFF70DFF034687F8973040
:102B800097F89730002B05D17B68DB680021184649
:102B9000FFF718FF00BF9837BD4680BD002C0140ED
:102BA00080B5A6B000AF7860174BBB6000233B73C5
:102BB00000237B7307F108031846FFF7CFF902469D
:102BC0007B68DA607B68DB6800211846FFF70EF847
:102BD0007B68DB6802211846FFF73CF97B68DB68FD
:102BE0001846FFF7D7FE034687F8973097F89730D7
:102BF000002B05D17B68DB6800211846FFF7E2FE59
:102C000000BF9837BD4680BD004401400000000071
:102C10002DE9B04396B000AF754BDB683A4604210E
:102C20001846FEF71EFD0023FB6413E0FB6C5B00FF
:102C300058333B4433F8583C1A464DF2403303FBBB
:102C400002F2FB6C9B0058333B4443F84C2CFB6C6A
:102C50000133FB64FB6C042BE8DDFB68654A1366FB
:102C6000FB69644A5366634B1A6E624B5B6ED31A00
:102C7000604A93665F4B9B6E0022984691465E4B7E
:102C800003FB09F2002303FB08F313445A4AA8FB91
:102C900002452B441D46574BC3E90045554BD3E92C
:102CA0001423C7E910234EA3D3E90023D7E9100169
:102CB000FDF72AFC02460B464E49C1E902234D4B63
:102CC000D3E902014FF000024C4BFDF71DFC024618
:102CD0000B46C7E91023464BD3E91223D7E910016D
:102CE000FDF75AFA02460B464249C1E90423414B1B
:102CF000D3E904234FF000004149FDF74DFA0246A5
:102D00000B463C49C1E906233A4BD3E906014FF093
:102D100000024FF00003FDF7F7FB02460B4610469A
:102D20001946334BD3E91623FDF736FA02460B4614
:102D3000104619464FF00002304BFDF7E5FB024606
:102D40000B46C7E90E232B4BD3E90601284BD3E9E9
:102D50001423FDF723FA02460B4610461946D7E91D
:102D60000E23FDF71BFA02460B462249C1E9082350
:102D7000204BD3E908011CA3D3E90023FDF754FE3F
:102D80000346002B06D01B4917A3D3E90023C1E952
:102D9000082310E0174BD3E908014FF00002194B4C
:102DA000FDF724FE0346002B05D012494FF0000228
:102DB000144BC1E908234FF090437B630D4BD3E9DB
:102DC00008014FF000024FF00003FDF72DFE03460F
:102DD000002B19D04FF40063FB6417E0AFF30080C1
:102DE000555B772FB1842E400000000000C0584092
:102DF000C802002058020020CDCCCCCC00005940A5
:102E00000000344000C058C00023FB64FB6C19462E
:102E1000786BFFF732FDFB6CDB4303F4006319466C
:102E2000786BFFF738FD604B1C6B604BD3E90823D0
:102E300010461946FDF738FE07EE900AF0EEE77AE5
:102E4000B0EE670A2046FFF791FD584BD3E9042303
:102E50005749C1E90423554BD3E902235449C1E939
:102E60000223524BD3E91623C7E90A234AA3D3E925
:102E70000023D7E90A01FDF747FB02460B464B4901
:102E8000C1E90A23494BD3E90A014FF00002494B3B
:102E9000FDF73AFB02460B46C7E90A23424BD3E94A
:102EA0001823D7E90A01FDF777F902460B463F4997
:102EB000C1E90C233D4BD3E90C234FF000003E4900
:102EC000FDF76AF902460B463849C1E90E23374B34
:102ED000D3E90E014FF000024FF00003FDF714FBA1
:102EE00002460B46104619462F4BD3E91A23FDF72D
:102EF00053F902460B46104619464FF000022D4B7F
:102F0000FDF702FB02460B46C7E90823274BD3E92E
:102F10000E01254BD3E91C23FDF740F902460B4671
:102F2000D7E90801FDF73AF902460B46C7E9142331
:102F30001BA3D3E90023D7E91401FDF775FD034670
:102F4000002B05D016A3D3E90023C7E914230EE014
:102F50004FF00002194BD7E91401FDF747FD034676
:102F6000002B04D04FF00002144BC7E914234FF09C
:102F700090437B634FF000024FF00003D7E9140148
:102F8000FDF734FD0346002B1AD04FF48053FB6449
:102F900018E000BFAFF30080555B772FB1842E405F
:102FA0000000000000C05840C80200205802002065
:102FB00098030020000059400000344000C058C071
:102FC0000023FB64FB6C1946786BFFF756FCFB6C27
:102FD000DB4303F480531946786BFFF75CFC584BD6
:102FE0001C6CD7E91401FDF75FFD07EE900AF0EEC7
:102FF000E77AB0EE670A2046FFF7B8FC514BD3E9F9
:103000000C235149C1E906234E4BD3E90A234E490B
:10301000C1E900234B4BD3E914234A49C1E91023EA
:103020004749D7E91023C1E91223454BD3E9144599
:10303000444BD3E906014FF000024FF00003FDF7C7
:1030400063FA02460B46104619463BA3D3E9002318
:10305000FDF75AFA02460B4620462946FDF79EF830
:1030600002460B463649C1E91423354BD3E91645D0
:1030700031A3D3E90023D7E90E01FDF745FA024653
:103080000B4620462946FDF789F802460B462C4997
:10309000C1E916232A49D7E90A23C1E91823284B95
:1030A000D3E91A4524A3D3E90023D7E90801FDF7A2
:1030B0002BFA02460B4620462946FDF76FF80246DA
:1030C0000B461F49C1E91A231D4BD3E91C451D4B73
:1030D000D3E90E014FF000024FF00003FDF714FAA0
:1030E00002460B461046194613A3D3E90023FDF709
:1030F0000BFA02460B4620462946FDF74FF80246DA
:103100000B460F49C1E91C23104B9A6A01329A629F
:103110009B6A1846FDF77EF90C4BD3E90C230B4C48
:10312000FDF7F2F902460B46C4E9082300BF583701
:10313000BD46BDE8B08300BF7B14AE47E17A843F53
:10314000C80200205802002098030020B803002085
:1031500080B500AF52494FF00002524BC1E9102335
:103160004F494DA3D3E90023C1E90C234C4B4E4AF0
:103170009A604B4B4D4ADA60494B4D4A1A61484BB5
:103180004C4A5A61464B4C4A5A604B4B4B4A1A6068
:103190004A4B4B4A1A60494B494A5A60474B484A86
:1031A0009A60464B464ADA60444B464A1A61434BA2
:1031B000444A5A61414B434A9A61404B414ADA6161
:1031C0003E4B3F4A1A623D4B3D4A5A623B4B3E4A98
:1031D0009A623A4B3C4ADA62384B3B4A1A63374BA5
:1031E000394A5A632E4A2E4B5B6818329A602C4A31
:1031F0002B4B5B6808325A60294A294B5B682032A6
:10320000DA60274B264A9B6AD363304B00225A6010
:103210002E4B00221A702D48FFF74AFC2B4B002240
:1032200083F82420294B002283F82C20274B0122ED
:103230009A622748FFF77EFC244B012283F82C205A
:10324000224B002283F83420204B002283F83C20BC
:103250001E4B01229A631F48FFF7A2FC1B4B012261
:1032600083F83C200E4B0E4A9B6A9363174B012256
:1032700083F8C920154B012283F8C720084B084A60
:103280009B6AD363114B012283F8C8200F4B0122A4
:1032900083F8C62000BF80BD7B14AE47E17A843F2F
:1032A000B80300200000F0BF41B7EB9F1016019C4F
:1032B00015F2CCD11C9DBDF7080400201C04002091
:1032C0006C2001088D0300208C030020C802002020
:1032D000EC020020FC02002080B500AF2E4B1B78D2
:1032E000002B11D12C4B01221A702B4B5B68012B48
:1032F0000AD1294B1B7A002B06D0274BDB68012211
:1033000004211846FEF706FA234B93F82430002BCD
:103310001DD1214B012283F824201F4B9B6A012BD6
:1033200015D11D4B93F82C30002B10D01A4B1B6B72
:103330001846FFF7AFFB184B1B6B00211846FEF732
:10334000EFFC154B1B6B02211846FEF7C5FD124B17
:1033500093F83430002B1DD10F4B012283F8342019
:103360000D4B9B6B012B15D10B4B93F83C30002B75
:1033700010D0094B1B6C1846FFF78CFB064B1B6CDF
:1033800000211846FEF7CCFC034B1B6C02211846AB
:10339000FEF7A2FD00BF80BDC802002080B500AFCF
:1033A000022208491820FFF73BF80920FFF756F9D9
:1033B000022205491520FFF733F80620FFF74EF9E2
:1033C00000BF80BDD1330008C135000800000000F7
:1033D000B0B584B000AF0820FFF782F90346002B98
:1033E00007D00820FFF792F90346002B01D00123F4
:1033F00000E00023002B00F0C2800820FFF79CF9BA
:10340000674B1B78DBB2012B40F0B980654B93F919
:10341000C530FB710023FB73FB79042B1AD801A282
:1034200052F823F0393400083F34000845340008CE
:103430004B340008513400080023FB730AE00323D7
:10344000FB7307E00323FB7304E00023FB7301E03D
:103450000023FB7397F90F20524B83F8C520524B82
:10346000514A9B6A93634F4B93F8C930002B02D0AB
:103470000023BB6006E04C4B9A6B4A4BD3F8C0303C
:10348000D31ABB60484B9B6B464AC2F8C030454BD1
:10349000002283F8C920434B93F8C730002B1ED17C
:1034A000404BD3E92045B868FCF7B4FF3AA3D3E911
:1034B0000023FDF729F802460B4610461946394B02
:1034C000D3E92423FDF720F802460B46204629467F
:1034D000FCF764FE02460B463249C1E92023314B1A
:1034E000D3E920233149C1E916233148FFF7B9F95F
:1034F000B8602F48FFF7B5F938602A4B002283F8EF
:10350000C720BB6803F00803002B0CBF0123002376
:10351000DAB23B6803F01003002B14BF0123002331
:10352000DBB25340DBB2002B06D01E494FF0000245
:10353000204BC1E9242305E01A494FF000021E4B3D
:10354000C1E92423174B042283F8C520164B9B6B3B
:103550001846FCF75FFF10A3D3E90023FCF7D4FF64
:1035600002460B461549C1E90023144B93ED007B3D
:10357000B0EE470AF0EE670A0120FEF761FEBFF3E6
:103580006F8F00BFBFF34F8F00BF00BF1037BD4626
:10359000B0BD00BFAFF300807B14AE47E17A843F3B
:1035A0004A020020C8020020B80300205802002070
:1035B000000400480000F03F0000F0BF500200206F
:1035C00080B584B000AF0120FFF78AF80346002BD6
:1035D00007D00120FFF79AF80346002B01D0012302
:1035E00000E00023002B00F0D5800120FFF7A4F8B5
:1035F0006F4B1B78DBB2012B40F0CC806D4B93F905
:10360000C430FB710023FB73FB79042B1AD801A291
:1036100052F823F0293600082F3600083536000806
:103620003B360008413600080023FB730AE0032301
:10363000FB7307E00323FB7304E00023FB7301E04B
:103640000023FB7397F90F205A4B83F8C4205A4B81
:10365000594A9B6AD363574B93F8C830002B02D06A
:103660000023BB6006E0544BDA6B524BD3F8BC30FE
:10367000D31ABB60504BDB6B4E4AC2F8BC304D4B8B
:10368000002283F8C8204D48FFF7EBF838603B680C
:1036900003F00103002B14BF01230023DBB21A4601
:1036A000474B83F86C204548FFF7DBF83860414B07
:1036B00093F8C630002B06D03E4BD3E91E23404979
:1036C000C1E912231EE0B868FCF7A4FE36A3D3E9D3
:1036D0000023FCF719FF02460B4610461946354BEE
:1036E000D3E92223FCF710FF02460B461046194689
:1036F000304BD3E91E23FCF751FD02460B463049FF
:10370000C1E912232E4BD3E912232D49C1E9142319
:10371000284B002283F8C620294BD3E912232549E0
:10372000C1E91E233B6803F00203002B14BF0123F1
:103730000023DBB21A46224B93F86C309A4206D132
:103740001C494FF000021F4BC1E9222305E0194933
:103750004FF000021C4BC1E92223164B042283F8D0
:10376000C420154BDB6B1846FCF754FE0EA3D3E9BF
:103770000023FCF7C9FE02460B461449C1E90023A9
:10378000124B93ED007BB0EE470AF0EE670A022081
:10379000FEF756FDBFF36F8F00BFBFF34F8F00BF23
:1037A00000BF1037BD4680BD7B14AE47E17A843F31
:1037B0004A020020C8020020B8030020000400488C
:1037C000580200200000F0BF0000F03F500200202F
:1037D00080B500AF0920FEF75FFF0620FEF75CFF13
:1037E00000BF80BD0FB480B400AF00BFBD465DF820
:1037F000047B04B0704780B485B000AFF860B96056
:103800007A60FB68BA681A60FB6804337A681A60E9
:1038100000BF1437BD465DF8047B70470000000010
:10382000F0B58BB000AF87ED020B0346FB80FB8841
:10383000002B77D14FF00002414BD7E90201FCF792
:1038400063FE02460B46C7E906239FED391B97ED41
:10385000060B0BF0B7FD53EC102B10461946FDF785
:1038600003F903467B6100237B6233A3D3E9002382
:10387000D7E90601FDF7D8F80346002B0ED02EA39A
:10388000D3E90023D7E90601FCF768FF02460B469F
:1038900010461946FDF7E8F803467B627A6A7969B3
:1038A0002848FFF7A8FF284BD3E900014FF000029A
:1038B000264BFDF791F80346002B2ED1224BD3E97E
:1038C00000014FF000024FF04043FDF785F803463A
:1038D000002B22D11C4BD3E90001D7E90223FCF7CE
:1038E0005BFC02460B4614461D464FF00002184B87
:1038F000D7E90201FCF708FE02460B4601210E46FD
:1039000020462946FDF772F80346002B01D100231B
:103910001E46F3B21A460F4B1A700F49D7E902231D
:10392000C1E9002300BF2C37BD46F0BDAFF30080D6
:10393000000000000000F0410000E0FFFFFFEF4149
:1039400000408F4080040020000000200000F0BFF5
:103950000000B03C6C0400208804002080B584B0D6
:1039600000AF0023BB6000237B600023FB7323496F
:103970004FF000024FF00003C1E9002320494FF04F
:1039800000024FF00003C1E900233A1D07F10803CC
:103990001146184605F0B6FFBB687A68114618460E
:1039A00004F0D2F80346FB7397F90F30002B05D0D3
:1039B0001448FFF717FF97F90F301AE03A1D07F187
:1039C00008031146184605F0B4FFBB687A68114633
:1039D000184600F053FF0346FB7397F90F30002B96
:1039E00005D097F90F3019460748FFF7FBFE97F906
:1039F0000F3018461037BD4680BD00BF7004002050
:103A00007804002094FA0008BCFA000880B584B05D
:103A100000AF0346FB710023FB730023BB73002040
:103A200005F09EFF00237B7304F05CFA0346FB73F2
:103A300097F90F30002B0DD097F90F3013F1020FCB
:103A400008D097F90F3019463C48FFF7CBFE012309
:103A5000BB730BE07B7B002B04D197F90F3013F184
:103A6000020F01D0012300E000237B73BB7B002BFE
:103A700021D100F035FF0346FB7397F90F30002B7F
:103A80000DD097F90F3013F1020F08D097F90F30CE
:103A900019462B48FFF7A6FE0123BB730BE07B7B87
:103AA000002B04D197F90F3013F1020F01D001233D
:103AB00000E000237B73BB7B002B21D104F09CF939
:103AC0000346FB7397F90F30002B0DD097F90F3099
:103AD00013F1020F08D097F90F3019461948FFF774
:103AE00081FE0123BB730BE07B7B002B04D197F994
:103AF0000F3013F1020F01D0012300E000237B738C
:103B0000FB79002B0DD0002005F02AFFBB7B002B9A
:103B100002D17B7B002B01D1012300E00023BB738A
:103B200001E00123BB73BB7B002B3FF47BAF97F914
:103B30000F3018461037BD4680BD00BFE4FA0008BC
:103B40001CFB00084CFB000880B582B000AF0023CE
:103B5000BB70394B1B78DBB2002B02D0002000F089
:103B6000DDFF00F0AFFF0346FB7000237B600EE03B
:103B70000A2005F0F5FE7B6803F51C5310337B60CB
:103B80000120FFF743FF00F09DFF0346FB707B68B9
:103B90002A4A934202D8FB78002BE9D100F09EFF1D
:103BA0000346BB7097F90230002B05D097F902301D
:103BB00019462348FFF716FE04F00EFB0346BB70C0
:103BC00097F90230002B05D097F9023019461D48AD
:103BD000FFF708FE1C4B00221A701C4B00221A70C3
:103BE0001B4B00221A601B4B00221A601A4B00224A
:103BF0001A601A4B00221A60194B00221A601949E8
:103C00004FF000024FF04043C1E900230A4B00226D
:103C10001A700822002114480BF090FD13494FF050
:103C200000024FF00003C1E9002397F90230184663
:103C30000837BD4680BD00BF6C040020FF2C310159
:103C400084FB0008A0FB0008540400205504002059
:103C5000580400205C04002060040020640400205C
:103C60006804002000000020800400208804002058
:103C700080B586B000AF614B1B687B617B69002B10
:103C800000F0B8805E4B1B78DBB2002B04D15B4B9D
:103C90001B68002B00F0AE805A4B1B78DBB2022B66
:103CA00040F0A880584B1B78002B40F0A3807B6924
:103CB000D3E90023C7E90223544B1B78002B00F003
:103CC0008A80534B1B78DBB2002B04D0504B1B78FF
:103CD000DBB2022B01D1012300E00023FB714C4B2E
:103CE0001B78DBB2012B04D0494B1B78DBB2022BD3
:103CF00001D1012300E00023BB71FB79002B33D0FD
:103D0000444BD3E90023D7E90201FCF783FE0346C5
:103D1000002B0AD0404BD3E900013E4BD3E90023EE
:103D2000FCF764FE0346002B14D13A4BD3E9002381
:103D3000D7E90201FCF778FE0346002B14D0364B7E
:103D4000D3E90001334BD3E90023FCF745FE0346DA
:103D5000002B09D0314B1B68002B02D1304B0122C4
:103D60001A70294B01221A70BB79002B33D0294BD2
:103D7000D3E90023D7E90201FCF738FE0346002B04
:103D80000AD0254BD3E90001224BD3E90023FCF7ED
:103D900041FE0346002B14D11E4BD3E90023D7E983
:103DA0000201FCF719FE0346002B14D01A4BD3E98D
:103DB0000001184BD3E90023FCF736FE0346002B25
:103DC00009D0164B1B68002B02D1154B01221A702B
:103DD0000D4B01221A700C4B1B78002B0CBF0123DA
:103DE0000023DBB21A46094B1A700B49D7E90223AC
:103DF000C1E9002300BF1837BD4680BD94040020F0
:103E000098040020B4040020C3040020C004002053
:103E1000B0040020A0040020B8040020AC0400205E
:103E2000C204002080B582B000AF0023FB719E4B1E
:103E30001B78DBB2002B18D19C4B00221A709C4BD4
:103E400000221A709B4B1B78DBB2002B2DD0964BB7
:103E500002221A70974B00221A70974B1B78DBB224
:103E6000002B22D10123FB711FE0924B00221A701C
:103E70008E4B1B78DBB2002B09D0904B00221A70BE
:103E8000894B00221A70894B00221A700DE08A4B70
:103E90001B78DBB2002B02D10123FB7105E0844BC0
:103EA0001B78FB71824B00221A707F4B1B78DBB2B0
:103EB000042B00F2D78001A252F823F0D13E000873
:103EC0000B400008EB3E0008BF3F0008493F0008D8
:103ED000784B1B78DBB2002B00F0D880724B0222AB
:103EE0001A70744B00221A70D0E0FB79002B00F09E
:103EF000CF80734B1B68002B0DDD6F4B1B78DBB243
:103F0000012B08D16E4B1B681A466E4B1A60664B2C
:103F100003221A70BCE06C4B1B68002B0AD0674B65
:103F200001221A70684B1B68664A13605E4B0422BC
:103F30001A70ADE06548FFF755FC604B00221A701F
:103F4000594B00221A70A3E05E4B1B68002B04D073
:103F50005C4B1B68013B5B4A13605A4B1B68002B90
:103F600040F098805A4B1B78DBB2012B06D1534BA3
:103F700000221A704C4B00221A708BE0554B1B68C4
:103F8000002B0AD04D4B00221A70524B1B684D4A31
:103F90001360454B01221A707CE0FB79002B07D09F
:103FA000494B1B68474A13603F4B04221A7071E06B
:103FB000424B00221A703C4B02221A706AE0414BBD
:103FC0001B68002B04D03F4B1B68013B3D4A13602C
:103FD0003C4B1B68002B5FD13B4B1B68002B0AD06E
:103FE000364B01221A70384B1B68364A13602E4B31
:103FF00004221A7050E03548FFF7F4FB2F4B0022E3
:104000001A70294B00221A7046E02E4B1B68002BB9
:1040100004D02C4B1B68013B2A4A1360294B1B68B8
:10402000002B3BD1FB79002B18D0274B1B68002BB2
:104030000AD0224B01221A70234B1B68214A1360BD
:10404000194B04221A7029E02048FFF7CBFB1B4BC9
:1040500000221A70144B00221A701FE0124B022229
:104060001A701BE0104B1B78DBB219461A48FFF799
:10407000B9FB124B00221A700D4B00221A700B4B29
:1040800000221A70084B00221A7008E000BF06E0F8
:1040900000BF04E000BF02E000BF00E000BF00BFBF
:1040A0000837BD4680BD00BFB4040020B104002025
:1040B000C30400200C000020B2040020C204002031
:1040C000AC040020C404002008000020C4FB000849
:1040D000B3040020A8040020ECFB000880B400AF6B
:1040E00010494FF000024FF00003C1E900230E4BCE
:1040F00000221A700D4B1B78DAB20D4B1A700D4B63
:1041000000221A700C4B00221A700C4B00221A600D
:104110000B4B00221A7000231846BD465DF8047B45
:10412000704700BFB8040020C0040020B204002083
:10413000C1040020C2040020C3040020C4040020E5
:10414000B404002080B584B000AF0346FB80FB8838
:10415000002B3FD1314B1B78DAB2314B1B789A429E
:1041600014BF01230023DBB2FB732C4B1B78DAB2A4
:104170002B4B1A70FB7B002B0BD02A4B00221A70A2
:10418000294B00221A70294B00221A60284B00226A
:104190001A70224B1B78DBB2012B1BD1244B1B78EE
:1041A000DBB2002B04D1234B1B78DBB2002B08D1F0
:1041B0001F4B1B78DBB2012B0CD11C4B1B68012B56
:1041C00008D11A4B00221A601A4B00221A70184BA1
:1041D00002221A70114B1B78DBB2012B07D1164B50
:1041E0001B889BB2FA889A4201D1FFF741FDFB88F8
:1041F000002B05D1FFF716FE104B00221A7006E0C7
:104200000E4B1B78002B02D00D4B1B7801E0054BA9
:104210001B7818461037BD4680BD00BFB204002091
:10422000C1040020C2040020C3040020C4040020F4
:10423000B40400200C00002090040020C9040020D9
:10424000C804002080B400AF26494FF000024FF0B0
:104250000003C1E90023244B00221A70234B0022E3
:104260001A70234B00221A70224B00221A80224B14
:1042700000221A70214B00221A70214B00221A6072
:10428000204B00221A70204B00221A701F4B002274
:104290001A601F4B00221A701E494FF000024FF0A7
:1042A0000003C1E900231C4B4FF47A721A601B4BC8
:1042B00000221A601A4B00221A601A4B00221A7050
:1042C000194B01221A70194B00221A70184B002248
:1042D0001A70184B00221A7000231846BD465DF86C
:1042E000047B7047B8040020C0040020B404002000
:1042F000C104002090040020C2040020C304002058
:10430000C4040020C8040020C90400209404002034
:1043100098040020A004002008000020A804002029
:10432000AC040020B00400200C000020B1040020E8
:10433000B2040020B304002080B400AF174B1B78F8
:10434000DBB2002B25D1164B1B78DBB2002B0BD038
:10435000144B1B78DBB2002B06D1134B01221A70D1
:10436000124B01221A7014E00E4B1B78DBB2002BAB
:104370000BD00B4B1B78DBB2002B06D10A4B002273
:104380001A700A4B01221A7003E0084B00221A70BF
:10439000FFE700BFBD465DF8047B7047B204002014
:1043A0000C000020B1040020C8040020C904002033
:1043B00080B586B000AFF860B9607A603B600023DA
:1043C000FB7503F0FDFE3861FB681B68184604F0BE
:1043D0000DF90021386803F06BFE0246BB681A60D5
:1043E00003F056FE02467B681A60BB681B68002B10
:1043F0000FD0BB681B681946386904F0FDFB024604
:10440000FB681A60FB681B68002B04D1F623FB7560
:1044100001E0F823FB7597F9173018461837BD46A9
:1044200080BD000080B584B000AFF860B9607A60EC
:10443000FA68BB6813441B7819460848FFF7D2F99D
:10444000FB68002B02D0F86804F0D0F87B680022EB
:104450001A60002318461037BD4680BD10FC0008C6
:1044600080B584B000AFF860B9607A60FA68BB6864
:1044700013441B7819460648FFF7B4F97B680222FB
:104480001A604FF0FF3318461037BD4680BD00BF9D
:104490006CFC000880B485B000AF03460A46FB718F
:1044A0001346BB710523FB73FB79F02B02D9002364
:1044B000FB7322E0FB79E32B05D9FB79F02B02D8C3
:1044C0000123FB7319E0FB79D22B02D9FB79E22B94
:1044D00008D9FB79C02B08D1BB79002B05D0BB795B
:1044E000022B02D80223FB7307E0FB79C72B04D908
:1044F000FB79D22B01D80323FB73FB7B18461437BF
:10450000BD465DF8047B704780B58CB000AFF860A5
:10451000B9607A603B60FB68BB62BB6A1B7887F856
:104520002730002387F82F3097F82730C02B06D18B
:10453000BB68012B03D9BB6A5B7887F82F30364BF9
:104540001B78002B3ED097F82F2097F82730114684
:104550001846FFF79FFF0346FB76002387F82E30AF
:10456000FB7E052B23D0FB7E2C4A52F823307B6147
:1045700000233B617B69002B19D097F827207B69CA
:104580001046984738613B69002B14BF0123002374
:10459000DBB287F82E3097F82E30002B07D03B691E
:1045A0005A687B681A603B699A683B681A6097F89A
:1045B0002E30002B2CD17B68194A1A603B68194AAF
:1045C0001A6025E097F82730FF2B1BD1134B1B688F
:1045D0003B627B6800221A603B6800221A603B6ADB
:1045E000002B15D03B6AFF209847F861FB69002B30
:1045F0000ED0FB695A687B681A60FB699A683B6851
:104600001A6005E07B68084A1A603B6800221A605D
:1046100000BF3037BD4680BDCB040020D004002051
:1046200061440008F14600082544000880B483B0C6
:1046300000AF0346FB71044AFB79137000BF0C37CF
:10464000BD465DF8047B7047CB04002080B400AF0A
:10465000034B1B781846BD465DF8047B704700BFCE
:10466000CC04002080B483B000AF0346FB71064B3E
:104670001A78FB791343DAB2034B1A7000BF0C3778
:10468000BD465DF8047B7047CC04002080B483B045
:1046900000AF0346FB7197F90730DB435AB2074B73
:1046A0001B785BB213405BB2DAB2044B1A7000BFE6
:1046B0000C37BD465DF8047B704700BFCC0400207A
:1046C00080B400AF034B1B781846BD465DF8047BF1
:1046D000704700BFCD04002080B400AF034B1B889F
:1046E0001846BD465DF8047B704700BFCE0400202D
:1046F00080B586B000AF0346B9607A60FB7397F966
:104700000F30002B05D1BB683B613B69FF221A705B
:1047100076E0BB687B617B69FE221A7097F90F30E7
:1047200010330F2B62D801A252F823F0E54700089E
:10473000DD470008D5470008CD470008C5470008F9
:10474000BD470008AD470008B5470008A547000869
:104750009D470008954700088D47000875470008E9
:104760006D4700087D470008854700087B693022B7
:104770005A7045E07B6929225A7041E07B69222208
:104780005A703DE07B6920225A7039E07B69002233
:104790005A7035E07B6923225A7031E07B6921220F
:1047A0005A702DE07B6911225A7029E07B6927221B
:1047B0005A7025E07B692A225A7021E07B69102219
:1047C0005A701DE07B6924225A7019E07B69282207
:1047D0005A7015E07B6926225A7011E07B693122FC
:1047E0005A700DE07B6933225A7009E097F90F3057
:1047F00019460548FEF7F6FF7B6920225A70FFE74D
:1048000000BF1837BD4680BD9CFC000880B487B04F
:1048100000AF0346B9607A60FB7300237B61BB681D
:10482000002B23D000233B6100233B6117E03A6952
:1048300013465B0013449B001A46BB6813441B7865
:10484000FA7B9A4208D13A6913465B0013449B00F5
:104850001A46BB6813447B613B6901333B613A698B
:104860007B689A4202D27B69002BE0D07B691846B4
:104870001C37BD465DF8047B7047000080B582B0F0
:1048800000AF78603960134B1B78002B05D01248BD
:10489000FEF7A8FF6FF00B0318E000F07BFC00F0C0
:1048A00085FC03460D4A136002F052FA02F06CFADE
:1048B00003460A4A936003F045F803F04DF80346B7
:1048C000064A5360034B01221A700023184608372A
:1048D000BD4680BDCA040020E0FC0008D0040020D2
:1048E00080B58CB002AF002387F82730002387F80B
:1048F00026300023FB610023BB6100237B61002382
:104900003B610023FB6000233B620023BB6000236C
:104910007B60554B1B78002B05D15448FEF762FF96
:104920006FF008039BE007F1140007F1180207F18C
:104930001C0107F1100300930346002003F012FB53
:10494000034687F8273097F92730002B09D097F9CD
:10495000273013F1040F04D097F9273013F1050F16
:1049600071D1FB69002B05D07A693B691A44BB6998
:104970009A4203D9F82387F8273067E0FA697B6900
:1049800013443B6239693B1D07F10802386AFFF79F
:10499000BBFDBB68002B09D13B6A1B781946344824
:1049A000FEF720FFF42387F827304FE0BB68F86953
:1049B000796907F10C029847034687F826307B682F
:1049C000002B3DD0FB68002B3AD0002387F827301E
:1049D0003A69FB689A420BD2FB6807F1140207F1AF
:1049E000180107F11C00FFF7E3FC034687F82730A6
:1049F0003B691A460021386A0AF0A0FE97F9273071
:104A0000002B1DD1FA697B6913443B627B68FA680D
:104A100097F92600396A9847F969B8697B69FA6895
:104A20000192009303460A464FF6FF71012003F0FE
:104A300041F9034687F8273097F92730002B04D136
:104A400097F927300BE000BF00E000BFFB69002BA7
:104A500003D0FB69184603F0C9FD97F927301846C3
:104A60002837BD4680BD00BFCA04002010FD0008E5
:104A700038FD000880B584B000AF0346FB800023FA
:104A8000FB730023BB600D4B1B78002B05D10C483A
:104A9000FEF7A8FE6FF008030CE004F0C3FFB86057
:104AA000FB880022B968184602F06CFB0346FB73D2
:104AB00097F90F3018461037BD4680BDCA04002054
:104AC00068FD000880B400AF034B1B781846BD4654
:104AD0005DF8047B704700BFCB04002080B500AFB9
:104AE0000B4B1B78002B02D10A48FEF77BFE02F02D
:104AF0004FFF02F0F1FD00F075FB10220021064887
:104B00000AF01CFE024B00221A700023184680BDDA
:104B1000CA04002060FE0008D004002080B584B0E4
:104B200000AF7860786802F0B1FB0346FB7397F939
:104B30000F3018461037BD4680BD80B584B000AF39
:104B40000346FB800123FB73FA7BFB880021184698
:104B500002F018FB0346BB7397F90E301846103766
:104B6000BD4680BD80B584B000AF0346FB71012314
:104B7000FB6003F0DCFAB860FA79B968FB68B1FB56
:104B8000F3F39A4234BF01230023DBB218461037F7
:104B9000BD4680BD80B584B000AF78600B46FB7029
:104BA00000F02AFBF860F9680648FEF71BFE064B8A
:104BB0001B781A46F96878680AF0F2FD00BF1037D2
:104BC000BD4680BD88FE0008E804002080B588B09E
:104BD00000AFF860B9607A600023FB77FA68BB68C1
:104BE0001344BB61BB697B610023FB7402F0A6FC2C
:104BF0000346FB74FB7C002B08D11A48FEF7F2FD3C
:104C00007B6802221A606FF00A0327E07B695B78F9
:104C1000002B03D07B695B78012B01D1012300E0DD
:104C20000023FB74FB7C002B0BD17B695B7819465E
:104C30000D48FEF7D7FD7B6802221A606FF0010372
:104C40000CE00A48FEF7CEFD0120FFF7EFFC002341
:104C5000FB777B6808221A6097F91F3018462037C7
:104C6000BD4680BDA0FE0008ECFE000810FF000855
:104C700080B586B000AF0346B9607A60FB7397F9E0
:104C80000F30002B47D1BB687B6108220021786977
:104C90000AF054FD7B69FF221A7005227B695A7065
:104CA00000227B699A7003F042FA0346DAB27B690C
:104CB000DA7003F035FA03469AB27B699A807B6911
:104CC00001229A717B690122DA717B695B7819464E
:104CD0001648FEF787FD7B699B7819461448FEF756
:104CE00081FD7B69DB7819461248FEF77BFD7B6905
:104CF0009B889BB219461048FEF774FD7B699B792F
:104D000019460E48FEF76EFD7B69DB7919460C48A3
:104D1000FEF768FD06E097F90F307A68B968184623
:104D2000FFF7E6FC00BF1837BD4680BD38FF00081E
:104D300054FF000870FF00088CFF0008A8FF00085F
:104D4000C4FF000880B586B000AFF860B9607A6033
:104D50000123FB7502F0F2FB0346FB75FB7D002B84
:104D600008D10B48FEF73EFD7B6802221A606FF007
:104D70000A0309E00748FEF735FD0020FFF756FC5F
:104D80007B6801221A60002318461837BD4680BD93
:104D9000E0FF00083000010880B584B000AFF86083
:104DA000B9607A600548FEF71DFD7B6806221A602F
:104DB000002318461037BD4680BD00BF60000108C3
:104DC00080B586B000AF0346B9607A60FB73BB68FC
:104DD0007B610622002178690AF0B0FC7B69FF2222
:104DE0001A70FFF733FC03461A467B695A70FFF7C7
:104DF00067FC03461A467B699A70FFF76DFC034611
:104E00001A467B699A807B695B7819460948FEF7E8
:104E1000E9FC7B699B7819460748FEF7E3FC7B6950
:104E20009B889BB219460548FEF7DCFC00BF18378B
:104E3000BD4680BD6C00010890000108B400010867
:104E400080B586B000AFF860B9607A600023FB756A
:104E50000B48FEF7C7FC02F05BFB0346FB75FB7DCE
:104E6000002B03D003F08CF902F061FB7B68022277
:104E70001A606FF0040318461837BD4680BD00BFA6
:104E8000D800010880B588B000AFF860B9607A60DA
:104E90000023FB77FA68BB681344BB61BB697B6185
:104EA0000023FB747B695A687B69DB7819461046DE
:104EB00000F0AEF90346FB74FB7C002B08D10D48D3
:104EC000FEF790FC7B6802221A606FF00B030CE087
:104ED0007B6959687B69DB781A460748FEF782FCD4
:104EE0007B6801221A6097F91F3018462037BD46AB
:104EF00080BD00BFE0000108FC00010880B58AB059
:104F000000AFF860B9607A60002387F82730FA684C
:104F1000BB6813443B623B6AFB610023FB7600F0F5
:104F20006BF97861FB695B781846FFF71BFE034657
:104F3000FB76FB7E002B0BD1FB695B781946124890
:104F4000FEF750FC7B6802221A606FF0010316E046
:104F50007B69002B08D10D48FEF744FC7B680222D8
:104F60001A606FF00B030AE0FB695A78084B1A705D
:104F7000074B1B785A1C7B681A6097F92730184634
:104F80002837BD4680BD00BF30010108600101081F
:104F9000E804002080B588B000AF0346B9607A60AD
:104FA000FB7397F90F30002B30D100F025F9F86131
:104FB000BB68BB6101220021B8690AF0BFFBBB6975
:104FC000FF221A70FB69002B1CD0164B1B78013393
:104FD0007A689A4216D1BB6801337B610023FB7467
:104FE0001148FEF7FFFBFB7C19467869FFF7D2FDFD
:104FF0000C4B1B78184600F029F90A4B00221A7056
:1050000000BF0AE00948FEF7EDFB06E097F90F3014
:105010007A68B9681846FFF76BFB00BF2037BD46BA
:1050200080BD00BFE80400207C0101088801010860
:1050300080B588B000AFF860B9607A600023FB7774
:10504000FA68BB681344BB61BB697B610023FB74D6
:105050007B695B781846FFF785FD0346FB74FB7C94
:10506000002B0BD17B695B7819461748FEF7BAFB1A
:105070007B6802221A606FF0010320E07B695A68A6
:105080007B69DB781946104600F0C2F80346FB74D2
:10509000FB7C002B08D10D48FEF7A4FB7B680222A5
:1050A0001A606FF00B030AE07B695A78084B1A709C
:1050B000074B1B785A1C7B681A6097F91F301846FB
:1050C0002037BD4680BD00BFA8010108DC010108F2
:1050D000E804002080B588B000AF0346B9607A606C
:1050E000FB7397F90F30002B30D100F085F8F86191
:1050F000BB68BB6101220021B8690AF01FFBBB69D4
:10510000FF221A70FB69002B1CD0164B1B78013351
:105110007A689A4216D1BB6801337B610023FB7425
:105120001148FEF75FFBFB7C19467869FFF732FDFB
:105130000C4B1B78184600F089F80A4B00221A70B5
:1051400000BF0AE00948FEF74DFB06E097F90F3073
:105150007A68B9681846FFF7CBFA00BF2037BD461A
:1051600080BD00BFE8040020FC0101080C0201081A
:1051700080B582B000AF0346FB71FB79072204497A
:105180001846FFF743FB034618460837BD4680BD67
:105190007020010880B500AF034800F013F800F05C
:1051A00069F800BF80BD00BF7151000880B400AF36
:1051B000034B1B681846BD465DF8047B704700BF73
:1051C000EC04002080B483B000AF7860044A7B68B0
:1051D000136000BF0C37BD465DF8047B704700BF0D
:1051E000EC04002080B500AF00F04BF80020FFF782
:1051F000E9FF00BF80BD000080B400AF034B1B6817
:105200001846BD465DF8047B704700BFE0040020EF
:1052100080B483B000AF78600B46FB70FB78002B46
:1052200004D17B68002B01D1002306E0064A7B688D
:105230001360054AFB781371012318460C37BD46ED
:105240005DF8047B704700BFE004002080B483B0A9
:1052500000AF0346FB71064B1A68FB791344044AFE
:10526000136000BF0C37BD465DF8047B704700BF7C
:10527000E004002080B400AF00BFBD465DF8047BB1
:10528000704780B400AF00BFBD465DF8047B704737
:1052900080B584B000AF0346FB800023FB7306F0AB
:1052A00074F803460B4A13600B4B1B68002B0CBFB2
:1052B00001230023DBB2FB73FB7B002B04D1054BE6
:1052C0001B68184606F072F8FB7B18461037BD467F
:1052D00080BD00BFFC040020F804002080B582B02F
:1052E00000AF0346FB80044B1B68184606F05EF8CF
:1052F00000BF0837BD4680BDFC04002080B582B0E9
:1053000000AF0346FB8006F040F80346074A1360EF
:10531000074B1B680133064A1360044B1B68184691
:1053200006F044F800BF0837BD4680BDFC040020ED
:10533000F804002080B582B000AF0346FB8006F081
:1053400024F80346074A1360074B1B68013B064AD3
:105350001360044B1B68184606F028F800BF083796
:10536000BD4680BDFC040020F804002080B483B05A
:1053700000AF0346FB80104B1968FA8813465B00A8
:105380001344DB000B445B79022B0AD00A4B1968EB
:10539000FA8813465B001344DB000B445B79032B54
:1053A00001D1012300E00023DBB218460C37BD46D3
:1053B0005DF8047B704700BFF004002080B582B028
:1053C00000AF0023FB710023BB800023BB8008E0FB
:1053D000BB881846FFF7CAFF0346FB71BB88013341
:1053E000BB80094B9B88BA889A4202D2FB79002B7A
:1053F000EED0FB79002B0CBF01230023DBB2184653
:105400000837BD4680BD00BFF004002080B485B0E1
:1054100000AF0346FB800B467B7113463B71284B64
:105420001B68002B42D0264B9B88FA889A423DD2BB
:10543000234B1968FA8813465B001344DB000B44C6
:105440001B68002B32D01E4B1968FA8813465B008C
:105450001344DB000B441B797A799A4226D2184B0D
:105460001968FA8813465B001344DB000B44196883
:105470007A791346DB009B1A9B000B441B68002BB8
:1054800014D00F4B1968FA8813465B001344DB00F5
:105490000B4419687A791346DB009B1A9B000B4476
:1054A0001B793A799A4201D2012300E00023FB7371
:1054B000FB7B18461437BD465DF8047B704700BF80
:1054C000F004002080B485B000AF03463A60FB7161
:1054D0000B46BB710023FB73BB79BB81FB79FF2BB0
:1054E00004D1BB89FF2B01D80123FB73FB7B18463A
:1054F0001437BD465DF8047B704780B483B000AFBD
:105500000346FB71FB7923F01003002B0CBF012332
:105510000023DBB218460C37BD465DF8047B7047AC
:1055200080B485B000AF0346FB710023FB73FB79A9
:10553000002B05D0FB79012B02D0FB79022B01D186
:105540000123FB73FB7B18461437BD465DF8047BD3
:10555000704780B485B000AF0346FB710023FB7336
:10556000FB79002B05D0FB79012B02D0FB79022BB4
:1055700001D10123FB73FB7B18461437BD465DF850
:10558000047B704780B400AF01231846BD465DF828
:10559000047B704780B485B000AF0346FB80164B98
:1055A0001968FA8813465B001344DB000B441B7B2D
:1055B000022B0ED1104B1968FA8813465B00134476
:1055C000DB000B44DA880D4B1B889A4201D0012383
:1055D00000E00023FB73FB7B002B04D0FB88012B36
:1055E00001D8012300E00023FB73FB7B184614372E
:1055F000BD465DF8047B7047F004002018000020D1
:1056000080B485B000AF78600B46FB707B6819688A
:10561000FA781346DB009B1A9B000B44BB60BB6807
:105620009B687A68D28902FB03F30133FB60FB7845
:10563000002B08D17B681B7A03F01003002B02D0EB
:10564000FB680433FB60FB6818461437BD465DF801
:10565000047B704780B586B000AF78600023BB74D0
:1056600000237B610023FB740023FB7415E0FB7CAB
:1056700019467868FFF7C4FFF8600023BB6001217A
:10568000F86802F015FDB860BA687B699A4201D9E2
:10569000BB687B61FB7C0133FB747B681B79FA7C04
:1056A0009A42E4D37B681B791A4613465B0099182B
:1056B0007B6814331A46786903F050F80346BB74CC
:1056C00097F91230002B03D07B684FF0FF325A61FC
:1056D00097F9123018461837BD4680BD80B582B0A4
:1056E00000AF78607B685B69B3F1FF3F04D07B68F3
:1056F0005B69184603F044F97B684FF0FF325A614A
:1057000000BF0837BD4680BD80B58AB000AFF860E5
:10571000B9607A60002387F82730FA68BB681344C1
:105720003B623B6AFB61FB699A78DB781B0213439F
:105730007B83FB691B797B76FB695B793B76002376
:10574000FB753A7E797E7B8B1846FFF75FFE03463A
:10575000FB75FB7D002B0BD1798B7A7E3B7E1D4840
:10576000FEF740F87B6802221A606FF001032CE01C
:105770007B8B1846FFF7FAFD0346002B0CBF012375
:105780000023DBB2FB75FB7D002B0AD17B8B194616
:105790001148FEF727F87B6802221A606FF00703B2
:1057A00013E0798B7A7E3B7E0C48FEF71BF80C4A9F
:1057B0007B8B13800A4A7B7E9370094A3B7ED370B1
:1057C0007B6801221A6097F9273018462837BD46B2
:1057D00080BD00BF3402010878020108A802010858
:1057E00014000020F0B58FB004AFF860B9607A60A3
:1057F000002387F82730FA68BB6813443B623B6A92
:10580000FB61584B1B887B83564B9B787B76554BB3
:10581000DB783B7600237B610023FB743A7E797E44
:105820007B8B1846FFF7F2FD0346FB74FB7C002BD5
:105830000BD1798B7A7E3B7E4B48FDF7D3FF7B689B
:1058400002221A606FF0050387E07B8B1846FFF792
:105850008DFD0346002B0CBF01230023DBB2FB743C
:10586000FB7C002B0AD17B8B19464048FDF7BAFF21
:105870007B6802221A606FF007036EE0FB695878BC
:10588000FB699978FB695B681A46FFF71BFE0346C4
:10589000FB74FB7C002B1BD1798B7A7E387EFB69F5
:1058A0005B781C46FB699B781D46FB69DB781E46CE
:1058B000FB695B68039302960195009403462C48AC
:1058C000FDF790FF7B6802221A606FF0010344E04D
:1058D000798B7A7E387EFB695B781C46FB699B7806
:1058E0001D46FB69DB781E46FB695B6803930296E5
:1058F0000195009403461F48FDF774FF1E4B19687D
:105900007A8B13465B001344DB000B4419687A7EE4
:105910001346DB009B1A9B000B441A683B7EDB009E
:1059200013447B61FB695A787B691A70FB699A782A
:105930007B695A70FB69DA787B699A70FB695A68EF
:105940007B695A60074BDB780133DAB2054BDA70BA
:105950007B6801221A6097F9273018462C37BD461C
:10596000F0BD00BF14000020F80201085403010834
:1059700084030108FC030108F004002090B58DB0F9
:1059800002AFF860B9607A60002387F82730FA68C0
:10599000BB6813443B623B6AFB610023BB6100238D
:1059A000FB75614B1B68002B08D0FB695B889AB2C2
:1059B0005D4B9B889A4201D2012300E00023FB75D6
:1059C000FB7D002B0CD1FB695B889BB219465748C5
:1059D000FDF708FF7B6802221A606FF001039FE069
:1059E000514B1A68FB695B889BB219460B465B00FA
:1059F0000B44DB001344BB61FB695B889BB2184618
:105A0000FFF7B4FC0346002B0CBF01230023DBB2DD
:105A1000FB75FB7D002B0CD1FB695B889BB21946A3
:105A20004348FDF7DFFE7B6802221A606FF0070330
:105A300076E0FB699B889BB27F2B94BF01230023F8
:105A4000DBB2FB75FB7D002B0CD1FB699B889BB205
:105A500019463848FDF7C6FE7B6802221A606FF0CF
:105A600001035DE0FB69DB79002B0CBF0123002300
:105A7000DBB2FB75FB7D002B08D12F48FDF7B2FE92
:105A80007B6802221A606FF0010349E0FB695B78D2
:105A90001846FFF732FD0346FB75FB7D002B0BD14B
:105AA000FB695B7819462548FDF79CFE7B6802225E
:105AB0001A606FF0090333E0FB695B889BB21946FB
:105AC000FB695B781846FB699B889BB21C46FB69A7
:105AD0009B791A46FB69DB790193009223460246C3
