:020000040800F2
:100000000080002005F5000895C000089DC000088C
:10001000A5C00008ADC00008B5C000080000000081
:100020000000000000000000000000008D910008AA
:10003000BDC0000800000000499100087190000850
:1000400055F5000855F5000855F5000855F5000868
:1000500055F5000855F50008712B000855F5000806
:1000600055F50008F929000855F5000855F5000870
:1000700055F5000855F50008EDA20008CDA20008CE
:1000800055F500080000000055F5000855F500087A
:1000900055F5000855F5000855F50008CBC00008D7
:1000A00055F5000855F5000855F5000855F5000808
:1000B00055F5000855F5000855F5000855F50008F8
:1000C00055F5000855F5000855F5000855F50008E8
:1000D00055F50008B9A2000855F5000855F50008C7
:1000E00055F5000855F5000855F5000855F50008C8
:1000F00055F5000855F5000855F50008000000000A
:100100000000000055F500080000000055F500084B
:1001100055F5000800000000E5C0000855F500088E
:1001200055F5000855F5000855F5000855F5000887
:1001300055F50008000000000000000055F500081B
:1001400055F5000855F5000800000000000000000B
:10015000000000000000000000000000000000009F
:1001600000000000000000000000000055F500083D
:1001700055F500080000000000000000000000002D
:100180000000000055F5000800000000000000001D
:10019000000000000000000000000000000000005F
:1001A000000000000000000055F5000855F50008AB
:1001B00055F5000855F5000855F500080000000049
:1001C0000000000055F500080000000000000000DD
:0801D00055F5000855F5000883
:1001D80081F0004102E000BF83F0004330B54FEAF0
:1001E80041044FEA430594EA050F08BF90EA020F5D
:1001F8001FBF54EA000C55EA020C7FEA645C7FEAF0
:10020800655C00F0E2804FEA5454D4EB5555B8BF12
:100218006D420CDD2C4480EA020281EA030382EA83
:10022800000083EA010180EA020281EA0303362D15
:1002380088BF30BD11F0004F4FEA01314FF4801CE8
:100248004CEA113102D0404261EB410113F0004FFA
:100258004FEA03334CEA133302D0524263EB4303B1
:1002680094EA050F00F0A780A4F10104D5F1200E4F
:100278000DDB02FA0EFC22FA05F2801841F10001AA
:1002880003FA0EF2801843FA05F359410EE0A5F17E
:1002980020050EF1200E012A03FA0EFC28BF4CF0AF
:1002A800020C43FA05F3C01851EBE37101F0004565
:1002B80007D54FF0000EDCF1000C7EEB00006EEB72
:1002C8000101B1F5801F1BD3B1F5001F0CD34908FC
:1002D8005FEA30004FEA3C0C04F101044FEA445253
:1002E80012F5800F80F09A80BCF1004F08BF5FEADA
:1002F800500C50F1000041EB045141EA050130BDBA
:100308005FEA4C0C404141EB0101013C28BFB1F5CB
:10031800801FE9D291F0000F04BF01460020B1FA16
:1003280081F308BF2033A3F10B03B3F120020CDAE9
:100338000C3208DD02F1140CC2F10C0201FA0CF0C7
:1003480021FA02F10CE002F11402D8BFC2F1200C2C
:1003580001FA02F120FA0CFCDCBF41EA0C019040E2
:10036800E41AA2BF01EB0451294330BD6FEA04042B
:100378001F3C1CDA0C340EDC04F11404C4F1200216
:1003880020FA04F001FA02F340EA030021FA04F328
:1003980045EA030130BDC4F10C04C4F1200220FA7F
:1003A80002F001FA04F340EA0300294630BD21FABD
:1003B80004F0294630BD94F0000F83F4801306BF83
:1003C80081F480110134013D4EE77FEA645C18BF77
:1003D8007FEA655C29D094EA050F08BF90EA020F0E
:1003E80005D054EA000C04BF1946104630BD91EA06
:1003F800030F1EBF0021002030BD5FEA545C05D109
:100408004000494128BF41F0004130BD14F5800447
:100418003CBF01F5801130BD01F0004545F0FE41BB
:1004280041F470014FF0000030BD7FEA645C1ABFF0
:10043800194610467FEA655C1CBF0B46024650EA27
:10044800013406BF52EA033591EA030F41F4002153
:1004580030BD00BF90F0000F04BF0021704730B5D9
:100468004FF4806404F132044FF000054FF00001AE
:1004780050E700BF90F0000F04BF0021704730B56F
:100488004FF4806404F1320410F0004548BF404244
:100498004FF000013EE700BF42004FEAE2014FEA99
:1004A80031014FEA02701FBF12F07F4393F07F4F74
:1004B80081F06051704732F07F4208BF704793F077
:1004C8007F4F04BF41F40021704730B54FF460748A
:1004D80001F0004521F000411CE700BF50EA01028D
:1004E80008BF704730B54FF000050AE050EA010236
:1004F80008BF704730B511F0004502D5404261EBA6
:1005080041014FF4806404F132045FEA915C3FF4E6
:10051800D8AE4FF003025FEADC0C18BF03325FEA83
:10052800DC0C18BF033202EBDC02C2F1200300FA34
:1005380003FC20FA02F001FA03FE40EA0E0021FA59
:1005480002F11444BDE600BF70B54FF0FF0C4CF447
:10055800E06C1CEA11541DBF1CEA135594EA0C0FF9
:1005680095EA0C0F00F0DEF82C4481EA030621EA34
:100578004C5123EA4C5350EA013518BF52EA03356F
:1005880041F4801143F4801338D0A0FB02CE4FF021
:100598000005E1FB02E506F00042E0FB03E54FF051
:1005A8000006E1FB03569CF0000F18BF4EF0010E49
:1005B800A4F1FF04B6F5007F64F5407404D25FEA45
:1005C8004E0E6D4146EB060642EAC62141EA5551F8
:1005D8004FEAC52040EA5E504FEACE2EB4F1FD0C3A
:1005E80088BFBCF5E06F1ED8BEF1004F08BF5FEAB8
:1005F800500E50F1000041EB045170BD06F000466A
:1006080046EA010140EA020081EA0301B4EB5C0416
:10061800C2BFD4EB0C0541EA045170BD41F480110E
:100628004FF0000E013C00F3AB8014F1360FDEBF33
:10063800002001F0004170BDC4F10004203C35DA0F
:100648000C341BDC04F11404C4F1200500FA05F392
:1006580020FA04F001FA05F240EA020001F0004233
:1006680021F0004110EBD37021FA04F642EB0601A9
:100678005EEA430E08BF20EAD37070BDC4F10C04D3
:10068800C4F1200500FA04F320FA05F001FA04F297
:1006980040EA020001F0004110EBD37041F1000183
:1006A8005EEA430E08BF20EAD37070BDC4F120058E
:1006B80000FA05F24EEA020E20FA04F301FA05F2F6
:1006C80043EA020321FA04F001F0004121FA04F29E
:1006D80020EA020000EBD3705EEA430E08BF20EA6E
:1006E800D37070BD94F0000F0FD101F000464000A8
:1006F80041EB010111F4801F08BF013CF7D041EA2A
:10070800060195F0000F18BF704703F0004652002D
:1007180043EB030313F4801F08BF013DF7D043EAFE
:100728000603704794EA0C0F0CEA135518BF95EAB4
:100738000C0F0CD050EA410618BF52EA4306D1D13B
:1007480081EA030101F000414FF0000070BD50EA5A
:10075800410606BF1046194652EA430619D094EAE4
:100768000C0F02D150EA013613D195EA0C0F05D1CE
:1007780052EA03361CBF104619460AD181EA030122
:1007880001F0004141F0FE4141F470014FF00000DA
:1007980070BD41F0FE4141F4780170BD70B54FF075
:1007A800FF0C4CF4E06C1CEA11541DBF1CEA1355F5
:1007B80094EA0C0F95EA0C0F00F0A7F8A4EB0504D7
:1007C80081EA030E52EA03354FEA013100F08880CE
:1007D8004FEA03334FF0805545EA131343EA126397
:1007E8004FEA022245EA111545EA10654FEA00264C
:1007F8000EF000419D4208BF964244F1FD0404F505
:10080800407402D25B084FEA3202B61A65EB030560
:100818005B084FEA32024FF480104FF4002CB6EB1D
:10082800020E75EB030E22BFB61A754640EA0C009D
:100838005B084FEA3202B6EB020E75EB030E22BFDD
:10084800B61A754640EA5C005B084FEA3202B6EB1E
:10085800020E75EB030E22BFB61A754640EA9C00DD
:100868005B084FEA3202B6EB020E75EB030E22BFAD
:10087800B61A754640EADC0055EA060E18D04FEA6B
:10088800051545EA16754FEA06164FEAC30343EA0B
:1008980052734FEAC2025FEA1C1CC0D111F4801FD8
:1008A8000BD141EA00014FF000004FF0004CB6E7D1
:1008B80011F4801F04BF01430020B4F1FD0C88BF70
:1008C800BCF5E06F3FF6AFAEB5EB030C04BFB6EB7B
:1008D800020C5FEA500C50F1000041EB045170BD6E
:1008E8000EF0004E4EEA113114EB5C04C2BFD4EB9B
:1008F8000C0541EA045170BD41F480114FF0000E1F
:10090800013C90E645EA060E8DE60CEA135594EA9A
:100918000C0F08BF95EA0C0F3FF43BAF94EA0C0F9D
:100928000AD150EA01347FF434AF95EA0C0F7FF412
:1009380025AF104619462CE795EA0C0F06D152EA66
:1009480003353FF4FDAE1046194622E750EA41064A
:1009580018BF52EA43067FF4C5AE50EA41047FF45B
:100968000DAF52EA43057FF4EBAE12E74FF0FF3CC0
:1009780006E000BF4FF0010C02E000BF4FF0010C91
:100988004DF804CD4FEA410C7FEA6C5C4FEA430C0A
:1009980018BF7FEA6C5C1BD001B050EA410C0CBF59
:1009A80052EA430C91EA030F02BF90EA020F0020BB
:1009B800704710F1000F91EA030F58BF994208BF22
:1009C80090422CBFD8176FEAE37040F001007047DF
:1009D8004FEA410C7FEA6C5C02D150EA013C07D136
:1009E8004FEA430C7FEA6C5CD6D152EA033CD3D081
:1009F8005DF8040B704700BF8446104662468C467B
:100A08001946634600E000BF01B5FFF7B7FF0028AD
:100A180048BF10F1000F01BD4DF808EDFFF7F4FFD6
:100A28000CBF012000205DF808FB00BF4DF808ED61
:100A3800FFF7EAFF34BF012000205DF808FB00BF84
:100A48004DF808EDFFF7E0FF94BF012000205DF8A6
:100A580008FB00BF4DF808EDFFF7CEFF94BF01205B
:100A680000205DF808FB00BF4DF808EDFFF7C4FF54
:100A780034BF012000205DF808FB00BF4FEA410C9D
:100A88007FEA6C5C02D150EA013C0AD14FEA430C80
:100A98007FEA6C5C02D152EA033C02D14FF00000BD
:100AA80070474FF0010070474A0011D212F500124A
:100AB80011D20DD56FF47873B3EB62520ED44FEAAE
:100AC800C12343F0004343EA505323FA02F070472E
:100AD8004FF00000704750EA013002D14FF0FF306C
:100AE80070474FF0000070474FEA4102B2F1E0430F
:100AF80024BFB3F5001CDCF1FE5C0DD901F0004CFD
:100B08004FEAC0024CEA5070B2F1004F40EB83004C
:100B180008BF20F00100704711F0804F21D113F178
:100B28003872BCBF01F00040704741F480114FEAB1
:100B38005252C2F11802C2F1200C10FA0CF320FA3A
:100B480002F018BF40F001004FEAC1234FEAD32357
:100B580003FA0CFC40EA0C0023FA02F34FEA4303C1
:100B6800CCE77FEA625307D150EA01331EBF4FF04A
:100B7800FE4040F44000704701F0004040F0FE4065
:100B880040F40000704700BF0348044B834202D082
:100B9800034B03B118477047E4000020E40000202D
:100BA800000000000548064B1B1AD90F01EBA301F2
:100BB800491002D0034B03B118477047E4000020E6
:100BC800E40000200000000010B5064C237843B96B
:100BD800FFF7DAFF044B13B10448AFF30080012399
:100BE800237010BDE80000200000000050F9000844
:100BF80008B5054B1BB105490548AFF30080BDE8B2
:100C08000840FFF7CFBF00BF00000000EC00002045
:100C180050F9000880B485B000AF78607B681B6825
:100C280003F06003FB60FB68002B04D17B681B6842
:100C380003F01003FB60FB6818461437BD465DF8E7
:100C4800047B704780B483B000AF78607B681B6B0F
:100C580018460C37BD465DF8047B704780B483B0F6
:100C680000AF786039607B681A6A3B681A437B6812
:100C78001A6200BF0C37BD465DF8047B704780B42C
:100C880083B000AF786039607B681A6A3B68DB43E1
:100C98001A407B681A6200BF0C37BD465DF8047BBA
:100CA800704780B483B000AF78607B685B6C43F4B6
:100CB80000427B685A6400BF0C37BD465DF8047B70
:100CC800704780B483B000AF78607B68DB6843F01E
:100CD80001027B68DA6000BF0C37BD465DF8047B13
:100CE800704780B483B000AF78607B68DB6823F01E
:100CF80001027B68DA6000BF0C37BD465DF8047BF3
:100D0800704780B483B000AF78607B68DB6803F01D
:100D18000103012B01D1012300E0002318460C3701
:100D2800BD465DF8047B704780B483B000AF78603F
:100D38007B68DB6843F002027B68DA6000BF0C372F
:100D4800BD465DF8047B704780B483B000AF78601F
:100D58007B68DB6823F002027B68DA6000BF0C372F
:100D6800BD465DF8047B704780B483B000AF7860FF
:100D78007B68DB6803F00203022B01D1012300E04A
:100D8800002318460C37BD465DF8047B704780B4D5
:100D980083B000AF78607B68DB6843F004027B684F
:100DA800DA6000BF0C37BD465DF8047B704780B43D
:100DB80083B000AF78607B68DB6823F004027B684F
:100DC800DA6000BF0C37BD465DF8047B704780B41D
:100DD80083B000AF78607B68DB6803F00403042B02
:100DE80001D1012300E0002318460C37BD465DF809
:100DF800047B704780B483B000AF78607B68DB68A1
:100E080043F008027B68DA6000BF0C37BD465DF826
:100E1800047B704780B483B000AF78607B68DB6880
:100E280023F008027B68DA6000BF0C37BD465DF826
:100E3800047B704780B483B000AF78607B68DB6860
:100E480003F00803082B01D1012300E00023184612
:100E58000C37BD465DF8047B704780B483B000AFA3
:100E680078607B68DB6843F010027B68DA6000BF5B
:100E78000C37BD465DF8047B704780B483B000AF83
:100E880078607B68DB6823F010027B68DA6000BF5B
:100E98000C37BD465DF8047B704780B483B000AF63
:100EA80078607B68DB6803F01003102B01D1012305
:100EB80000E0002318460C37BD465DF8047B7047F8
:100EC80080B483B000AF78607B68DB6843F02002B1
:100ED8007B68DA6000BF0C37BD465DF8047B70475D
:100EE80080B483B000AF78607B68DB6823F02002B1
:100EF8007B68DA6000BF0C37BD465DF8047B70473D
:100F080080B483B000AF78607B68DB6803F02003AF
:100F1800202B01D1012300E0002318460C37BD46E1
:100F28005DF8047B704780B483B000AF78607B685D
:100F3800DB6843F040027B68DA6000BF0C37BD46CF
:100F48005DF8047B704780B483B000AF78607B683D
:100F5800DB6823F040027B68DA6000BF0C37BD46CF
:100F68005DF8047B704780B483B000AF78607B681D
:100F7800DB6803F04003402B01D1012300E000238C
:100F880018460C37BD465DF8047B704780B483B0C3
:100F980000AF78607B68DB6843F080027B68DA60CA
:100FA80000BF0C37BD465DF8047B704780B483B042
:100FB80000AF78607B68DB6823F080027B68DA60CA
:100FC80000BF0C37BD465DF8047B704780B483B022
:100FD80000AF78607B68DB6803F08003802B01D169
:100FE800012300E0002318460C37BD465DF8047B5A
:100FF800704780B483B000AF78607B68DB6843F4E7
:1010080000027B68DA6000BF0C37BD465DF8047BE0
:10101800704780B483B000AF78607B68DB6823F4E6
:1010280000027B68DA6000BF0C37BD465DF8047BC0
:10103800704780B483B000AF78607B68DB6803F4E6
:101048000003B3F5000F01D1012300E00023184687
:101058000C37BD465DF8047B704780B483B000AFA1
:1010680078607B68DB6843F480027B68DA6000BFE5
:101078000C37BD465DF8047B704780B483B000AF81
:1010880078607B68DB6823F480027B68DA6000BFE5
:101098000C37BD465DF8047B704780B483B000AF61
:1010A80078607B68DB6803F48003B3F5800F01D1B7
:1010B800012300E0002318460C37BD465DF8047B89
:1010C800704780B483B000AF78607B68DB6843F416
:1010D80000127B68DA6000BF0C37BD465DF8047B00
:1010E800704780B483B000AF78607B68DB6823F416
:1010F80000127B68DA6000BF0C37BD465DF8047BE0
:10110800704780B483B000AF78607B68DB6803F415
:101118000013B3F5001F01D1012300E00023184696
:101128000C37BD465DF8047B704780B483B000AFD0
:1011380078607B68DB6843F480127B68DA6000BF04
:101148000C37BD465DF8047B704780B483B000AFB0
:1011580078607B68DB6823F480127B68DA6000BF04
:101168000C37BD465DF8047B704780B483B000AF90
:1011780078607B68DB6803F48013B3F5801F01D1C6
:10118800012300E0002318460C37BD465DF8047BB8
:10119800704780B582B000AF78600B467B807B8853
:1011A80003F00103002B0CD07B681B681846FFF77F
:1011B800DAFE0346012B04D07B681B681846FFF74C
:1011C800B2FE7B8803F00203002B0CD07B681B68FF
:1011D8001846FFF7C9FD0346012B04D07B681B683E
:1011E8001846FFF7A1FD7B8803F00403002B0CD001
:1011F8007B681B681846FFF7EAFD0346012B04D0FD
:101208007B681B681846FFF7C2FD7B8803F008035C
:10121800002B0CD07B681B681846FFF70BFE0346B3
:10122800012B04D07B681B681846FFF7E3FD7B8819
:1012380003F01003002B0CD07B681B681846FFF7DF
:101248002CFE0346012B04D07B681B681846FFF769
:1012580004FE7B8803F02003002B0CD07B681B68FE
:101268001846FFF74EFD0346012B04D07B681B6828
:101278001846FFF726FD7B8803F04003002B0CD0AF
:101288007B681B681846FFF7A1FE0346012B04D0B4
:101298007B681B681846FFF779FE7B8803F080039C
:1012A800002B0CD07B681B681846FFF729FE034605
:1012B800012B04D07B681B681846FFF701FE7B886A
:1012C80003F48073002B0CD07B681B681846FFF76B
:1012D8004CFF0346012B04D07B681B681846FFF7B8
:1012E80024FF7B8803F40073002B0CD07B681B68F9
:1012F8001846FFF706FF0346012B04D07B681B68DE
:101308001846FFF7DEFE7B8803F48063002B0CD0C1
:101318007B681B681846FFF78CFE0346012B04D038
:101328007B681B681846FFF764FE7B8803F400633C
:10133800002B0CD07B681B681846FFF7AEFE0346EF
:10134800012B04D07B681B681846FFF786FE00BF98
:101358000837BD4680BD80B582B000AF78600B46C7
:101368007B807B8803F00103002B0CD07B681B6813
:101378001846FFF7F8FD0346012B04D17B681B686C
:101388001846FFF7E0FD7B8803F00203002B0CD022
:101398007B681B681846FFF7E7FC0346012B04D15E
:1013A8007B681B681846FFF7CFFC7B8803F00403B3
:1013B800002B0CD07B681B681846FFF708FD034616
:1013C800012B04D17B681B681846FFF7F0FC7B886B
:1013D80003F00803002B0CD07B681B681846FFF746
:1013E80029FD0346012B04D17B681B681846FFF7CB
:1013F80011FD7B8803F01003002B0CD07B681B6861
:101408001846FFF74AFD0346012B04D17B681B6889
:101418001846FFF732FD7B8803F02003002B0CD021
:101428007B681B681846FFF76CFC0346012B04D049
:101438007B681B681846FFF754FC7B8803F0400361
:10144800002B0CD07B681B681846FFF7BFFD0346CE
:10145800012B04D17B681B681846FFF7A7FD7B8822
:1014680003F08003002B0CD07B681B681846FFF73D
:1014780047FD0346012B04D17B681B681846FFF71C
:101488002FFD7B8803F48073002B0CD07B681B68CE
:101498001846FFF76AFE0346012B04D17B681B68D8
:1014A8001846FFF752FE7B8803F40073002B0CD01C
:1014B8007B681B681846FFF724FE0346012B04D1FE
:1014C8007B681B681846FFF70CFE7B8803F4806373
:1014D800002B0CD07B681B681846FFF7AAFD034653
:1014E800012B04D17B681B681846FFF792FD7B88A7
:1014F80003F40063002B0CD07B681B681846FFF7C9
:10150800CCFD0346012B04D17B681B681846FFF706
:10151800B4FD00BF0837BD4680BD000080B582B06D
:1015280000AF78600B46FB70FB78022B06D17B6816
:101538001B6801211846FFF791FB31E07B681B68A7
:10154800194A934213D07B681B68184A93420ED0FD
:101558007B681B68164A934209D07B681B68154A4A
:10156800934204D07B681B68134A934218D1FB78D6
:10157800032B06D17B681B6804211846FFF76EFB16
:101588000EE0FB78042B0BD17B681B680121184601
:10159800FFF764FB7B681B6804211846FFF75EFBB6
:1015A80000BF0837BD4680BD002C01400034014013
:1015B80000400140004401400048014080B582B02D
:1015C80000AF78600B46FB70FB78022B06D17B6876
:1015D8001B6801211846FFF752FB31E07B681B6846
:1015E800194A934213D07B681B68184A93420ED05D
:1015F8007B681B68164A934209D07B681B68154AAA
:10160800934204D07B681B68134A934218D1FB7835
:10161800032B06D17B681B6804211846FFF72FFBB4
:101628000EE0FB78042B0BD17B681B680121184660
:10163800FFF725FB7B681B6804211846FFF71FFB93
:1016480000BF0837BD4680BD002C01400034014072
:1016580000400140004401400048014080B584B08A
:1016680000AF78600023FB607B681B68374A9342B1
:1016780002D1374BFB6006E07B681B68354A934212
:1016880001D1354BFB607B681A68FB681A60FB6800
:101698001B681846FFF7BEFAB860BB68002B06D077
:1016A800BB68102B03D0FB6801221A7102E0FB68AB
:1016B80000221A71FB681B68244A934213D0FB6806
:1016C8001B68264A93420ED0FB681B68244A934243
:1016D80009D0FB681B681F4A934204D0FB681B684B
:1016E800204A934204D1FB681B681846FFF7D9FAD1
:1016F800FB681B68154A934213D0FB681B68174A9E
:1017080093420ED0FB681B68154A934209D0FB68C8
:101718001B68104A934204D0FB681B68114A934225
:1017280008D17B681B681846FFF78CFA0346DAB2C3
:10173800FB685A71FB6800229A71FB680022DA7113
:10174800FB6818461037BD4680BD00BF002C01401D
:1017580004010020004401409001002000340140B1
:10176800004001400048014080B485B000AF786077
:1017780039600023FB7397F90F3018461437BD46BC
:101788005DF8047B7047000080B584B000AF7860D6
:1017980039600023FB727B68002B05D1374801F0C4
:1017A800A9FA4FF0FF3365E03B68002B05D13448B8
:1017B80001F0A0FA4FF0FF335CE0324BD3E90001AF
:1017C8004FF000024FF04043FFF726F90346002B85
:1017D80006D03B68D3E900232A49C1E9002305E084
:1017E800284BD3E900233968C1E90023254BD3E905
:1017F80000014FF00002244BFFF70EF90346002BBF
:1018080002D0224801F076FA7B685B681B68204AA0
:1018180013607B685B685B681E4A13607B685B6863
:101828009B681D4A13607B685B68DB681B4A136012
:101838001B4B00221A6001F0D9FE0023FB60002335
:10184800FB6007E0174AFB68174942F82310FB685A
:101858000133FB60FB68012BF4D901F007FB034659
:10186800FB7297F90B30002B02D1104B01221A7032
:1018780097F90B3018461037BD4680BD68F9000847
:101888008CF90008000000200000F0BFB8F900083B
:1018980094040020980400209C040020A004002048
:1018A800A40400201C0200205D36000892040020D9
:1018B80080B586B000AF78600023FB7500233B61DC
:1018C8000023FB732A4B1B78DBB2002B0CBF0123D0
:1018D8000023DBB2BB73274B02221A707B68002BF4
:1018E8000BD1234B1B78DBB2002B06D1224B1B7884
:1018F800DBB2002B01D1012300E00023FB7316E0CB
:101908000A2007F0B5FA3B6903F51C5310333B6115
:101918007B68B3F1FF3F05D03A697B689A4201D9E9
:10192800012300E00023FB73002001F0F7FA104BBD
:101938001B78DBB2002B07D10F4B1B78DBB2002BD7
:1019480002D1FB7B002BDBD00A4B03221A70FB7BF6
:10195800002B01D09C23FB75BB7B002B01D001F031
:1019680073FF97F9173018461837BD4680BD00BF7A
:1019780090040020920400209104002080B586B0D5
:1019880000AF034687ED000BFB810023FB750123A5
:10199800BB754FF000024FF00003D7E90001FFF7D5
:1019A80045F80346002B05D02E4801F0A3F94FF067
:1019B800FF3353E0FB89FF2B08D9FB89FF22194627
:1019C800294801F097F94FF0FF3347E0274B1B7880
:1019D800DBB2032B04D0254B1B78DBB2012B02D1E1
:1019E800224B04221A70FB89012B15D8FB89204A47
:1019F80052F82330002B0FD002F0ECFA03467B7527
:101A08007B7D022B08D1FB89194A52F82330FA89C9
:101A1800104698470346BB75FB897B82FB891846AD
:101A280097ED000B01F084F9BB7D002B06D07B8A73
:101A3800184602F0A7FA0346FB7503E07B8A1846AE
:101A480002F003FB97F91730002B05D097F91730F0
:101A58001946084801F04EF997F917301846183713
:101A6800BD4680BD24FA000868FA000892040020E8
:101A78001C020020A8FA000880B582B000AF00233D
:101A8800FB71002001F04AFA0346FB7197F9073011
:101A980018460837BD4680BD80B582B000AF002328
:101AA800FB710B4B06221A7001F0D6FA0346FB7144
:101AB8000822002107480DF007FF01F04BFE044BF8
:101AC80000221A7097F9073018460837BD4680BDBE
:101AD800920400201C02002080B400AF034B1B7846
:101AE800DBB21846BD465DF8047B704791040020C0
:101AF80080B400AF034B1B78DBB21846BD465DF8D7
:101B0800047B7047A804002080B483B000AF03466C
:101B18003960FB7197F90730002B0ADB3B68DAB2B2
:101B28000C4997F907301201D2B20B4483F800230D
:101B38000AE03B68DAB20849FB7903F00F03043B7B
:101B48001201D2B20B441A7600BF0C37BD465DF8BD
:101B5800047B704700E100E000ED00E080B584B050
:101B680000AFF860B9607A60FB68DBB20F3BDBB2AC
:101B78005BB279681846FFF7C7FF00BF1037BD464C
:101B880080BD000080B500AF0F4B1B785A1CD1B246
:101B98000D4A1170002B09D00C4B01221A600A4B18
:101BA8001B78013BDAB2084B1A700BE062B600BF33
:101BB80000F08AFB72B600BF034B1B78013BDAB218
:101BC800014B1A7080BD00BF2802002024020020AB
:101BD80080B586B000AF786039605D4B7B615D4B46
:101BE8003B610023FB735C4B00221A705B4B0022A5
:101BF8001A7001DF0BF00CFB08F084FE07F050F9B7
:101C080009F046F809F0F2FB09F066FA0AF024F93F
:101C180009F052FD09F0F8FD514B1B6800221A60CB
:101C280000210020FFF7A0FD0346FB7397F90F3052
:101C3800002B02D097F90F3085E000F0BFFE00F0CE
:101C4800ABFD72B600BF62B600BF454B1B685A6851
:101C5800434B1B6803F5A47319461046FFF794FD20
:101C68000346FB7397F90F30002B0DD14FF0FF306F
:101C7800FFF71EFEFFF730FF0346002B04D0384B5A
:101C88001B68012283F8512172B600BF97ED050A3F
:101C980007F0FAF9FFF72CFF0346002B0CD1FFF7EA
:101CA8001BFF0346002B07D12D4B1B6893F85131BE
:101CB800002B01D1012300E00023DAB2274B1A7070
:101CC80062B600BF62B600BF2FE0FFF7D5FE03463D
:101CD800FB73FFF70DFF0346002B0AD1FFF7FCFE4D
:101CE8000346002B05D11E4B1B6893F85131002B7E
:101CF80001D0012300E00023DAB2174B1A70164B0B
:101D08001B78DBB2002B0CBF01230023DBB21A4681
:101D1800124B1A70104B1B78DBB2002B05D0114BFD
:101D28001B68104A23F0010313600C4B1B78DBB2CD
:101D3800002BCAD100F0FCFDFFF7AEFE00F0D0FF8B
:101D480072B600BF002318461837BD4680BD00BFD5
:101D5800CDCC4C3E00002A43290200202A02002054
:101D68000422010810E000E080B483B000AF03460D
:101D7800FB7197F90730002B0BDBFB7903F01F028F
:101D8800074997F907305B09012000FA02F241F888
:101D9800232000BF0C37BD465DF8047B704700BFA9
:101DA80000E100E080B483B000AF0346FB7197F90F
:101DB8000730002B12DBFB7903F01F020A4997F961
:101DC80007305B09012000FA02F2203341F8232092
:101DD800BFF34F8F00BFBFF36F8F00BF00BF0C373B
:101DE800BD465DF8047B704700E100E080B483B035
:101DF80000AF78607B681B6843F001027B681A605B
:101E080000BF0C37BD465DF8047B704780B483B0D3
:101E180000AF78607B681B6823F001027B681A605A
:101E280000BF0C37BD465DF8047B704780B483B0B3
:101E380000AF786039607B681B6823F004023B6858
:101E48001A437B681A6000BF0C37BD465DF8047BF7
:101E5800704780B483B000AF78607B681B6803F07C
:101E6800040318460C37BD465DF8047B704780B400
:101E780083B000AF78607B68DB6A18460C37BD46D4
:101E88005DF8047B704780B483B000AF7860396038
:101E98007B683A681A6300BF0C37BD465DF8047B5F
:101EA800704780B483B000AF786039607B683A6867
:101EB8005A6300BF0C37BD465DF8047B704780B499
:101EC80083B000AF78607B685B6B18460C37BD4603
:101ED8005DF8047B704780B483B000AF78607B689E
:101EE8005B6943F001027B685A6100BF0C37BD464D
:101EF8005DF8047B704780B483B000AF78607B687E
:101F08001B6918460C37BD465DF8047B704780B4E2
:101F180083B000AF786039607B683A689A6100BF27
:101F28000C37BD465DF8047B704780B483B000AFC2
:101F3800786039607B683A689A6200BF0C37BD46A2
:101F48005DF8047B7047000080B483B000AF786010
:101F5800074B1A687B6813407A689A4201D10123BB
:101F680000E0002318460C37BD465DF8047B704737
:101F78000004014080B483B000AF7860074B5A6911
:101F88007B6813407A689A4201D1012300E000235C
:101F980018460C37BD465DF8047B704700040140C5
:101FA80080B483B000AF7860044A7B68536100BF97
:101FB8000C37BD465DF8047B704700BF0004014044
:101FC80080B584B000AF786087ED000AD7ED007A5D
:101FD800F5EEC07AF1EE10FA03D54FF000033B603E
:101FE8000AE0D7ED007A9FED167AF4EEC77AF1EEA3
:101FF80010FA01DD134B3B607B681B681846FFF73E
:1020080036FFF8607B681B79002B0CBF0123002387
:10201800DBB21A46FB68134407EE903AB8EE677ACB
:10202800D7ED007A27EE277ADFED056AC7EE267A24
:10203800FCEEE77A17EE903A18461037BD4680BD99
:102048000000C8420000C84280B582B000AF786086
:1020580039607B681B681846FFF731FF02463B680A
:10206800934205D07B681B6839681846FFF719FF4B
:1020780000BF0837BD4680BD80B584B000AF78602A
:1020880087ED000A97ED000A7868FFF799FFF86076
:10209800F9687868FFF7D8FF00BF1037BD4680BDE4
:1020A80080B485B000AF78607B681B689A68074B7E
:1020B8001340FB60FB68062B0CBF01230023DBB237
:1020C80018461437BD465DF8047B704707000100C9
:1020D80080B584B000AF78600B46FB707B681B68E6
:1020E8001846FFF7B6FEF860FB78002B1ED07B6819
:1020F8001B68324A934213D07B681B68304A93426C
:102108000ED07B681B682F4A934209D07B681B68F6
:102118002D4A934204D07B681B682C4A934205D110
:102128007B681B6800211846FFF7ADFEFB68042B8F
:1021380011D07B681B6804211846FFF777FE7B687F
:102148001B681846FFF7C7FE7B681B68F9681846C6
:10215800FFF76CFE04E07B681B681846FFF7BBFEC0
:102168007B681B681846FFF741FEFB78002B20D0E0
:102178007B681B68114A934213D07B681B68104A1E
:1021880093420ED07B681B680E4A934209D07B6845
:102198001B680D4A934204D07B681B680B4A934224
:1021A80007D17B681A687B685B7919461046FFF788
:1021B8006AFE00BF1037BD4680BD00BF002C01403D
:1021C8000034014000400140004401400048014003
:1021D80080B582B000AF78607B681B681846FFF74F
:1021E80015FE00BF0837BD4680BD000080B5A6B00B
:1021F80000AF7860174BBB6000233B7300237B73F1
:1022080007F108031846FFF729FA02467B68DA60E7
:102218007B68DB6800211846FEF7BBFF7B68DB683C
:1022280002211846FFF77AF97B68DB681846FFF742
:1022380037FF034687F8973097F89730002B05D17A
:102248007B68DB6800211846FFF742FF00BF98371C
:10225800BD4680BD002C014080B5A6B000AF7860B7
:10226800174BBB6000233B7300237B7307F1080304
:102278001846FFF7F3F902467B68DA607B68DB688B
:1022880000211846FEF785FF7B68DB6802211846A7
:10229800FFF744F97B68DB681846FFF701FF034640
:1022A80087F8973097F89730002B05D17B68DB6863
:1022B80000211846FFF70CFF00BF9837BD4680BDC8
:1022C8000044014000000000B0B598B000AFB24B28
:1022D800D3E90401ACA3D3E90023FEF735F902469C
:1022E8000B46AD49C1E90023AC4BD3F85431D3E9CF
:1022F80000014FF000024FF00003FEF797FB034682
:10230800002B02D00023FB6401E00F23FB64F86C70
:10231800FEF7B0F8A14BD3F85431D3E90023FEF708
:1023280013F902460B46C7E914239B4BD3E9000176
:102338004FF000029A4BFEF707F902460B46C7E931
:102348001023954BD3E90023D7E91401FDF744FF87
:1023580002460B4614461D46924BD3E90823D7E99B
:102368001001FDF739FF02460B4620462946FDF7C6
:1023780033FF02460B46C7E90E234FF000024FF029
:102388000003D7E90E01FEF7DFF802460B461046B8
:102398001946844BD3E90C23FDF71EFF02460B4672
:1023A800104619464FF000027F4BFEF7CDF8024663
:1023B8000B46C7E90C234FF00002794BD7E90E0111
:1023C800FEF7C2F802460B4610461946754BD3E98C
:1023D8000A23FDF703FF02460B46D7E90C01FDF778
:1023E800FDFE02460B46C7E9162369A3D3E900237D
:1023F800D7E91601FEF738FB0346002B05D064A386
:10240800D3E90023C7E916230EE04FF00002674B1B
:10241800D7E91601FEF70AFB0346002B04D04FF05C
:102428000002624BC7E916234FF09043FB624FF05E
:1024380000024FF00003D7E91601FEF715FB03462B
:10244800002B03D04FF40063FB6401E00023FB641E
:10245800FB6C1946F86AFFF75AFDFB6CDB4303F483
:1024680000631946F86AFFF760FD4E4BDC68D7E950
:102478001601FEF739FB07EE900AF0EEE77AB0EEA8
:10248800670A2046FFF7F8FD434BD3E906013EA350
:10249800D3E90023FEF758F802460B463E49C1E946
:1024A80002233D4BD3E902014FF000023C4BFEF7FB
:1024B8004BF802460B46C7E90823374BD3E90223FA
:1024C800D7E91401FDF788FE02460B4614461D465F
:1024D800344BD3E90E23D7E90801FDF77DFE024608
:1024E8000B4620462946FDF777FE02460B46C7E90C
:1024F80006234FF000024FF00003D7E90601FEF76C
:1025080023F802460B4610461946264BD3E91223F8
:10251800FDF762FE02460B46104619464FF00002D0
:10252800214BFEF711F802460B46C7E904234FF08A
:1025380000021B4BD7E90601FEF706F802460B46D8
:1025480010461946174BD3E91023FDF747FE0246FC
:102558000B46D7E90401FDF741FE02460B46C7E9E1
:1025680014234FF00002104BD7E91401FEF77CFA50
:102578000346002B1CD04FF000020B4BC7E9142375
:1025880025E000BFAFF300804853A95D32408F3F7C
:102598000000000000C0584038020020D00200208F
:1025A80000001440580200200000594000C058C0E4
:1025B8004FF00002724BD7E91401FEF737FA0346D1
:1025C800002B04D04FF000026D4BC7E914234FF0E5
:1025D8009043FB624FF000024FF00003D7E914016B
:1025E800FEF724FA0346002B03D04FF48053FB6414
:1025F80001E00023FB64FB6C1946F86AFFF787FCCF
:10260800FB6CDB4303F480531946F86AFFF78DFC33
:102618005C4BDC69D7E91401FEF766FA07EE900A0D
:10262800F0EEE77AB0EE670A2046FFF725FD564B35
:10263800D3E902235549C1E90023534BD3E90023C9
:102648005249C1E902234F49D7E91023C1E90823B8
:102658004C4BD3E90A4548A3D3E90023D7E90E0137
:10266800FDF772FF02460B4620462946FDF7B6FDE8
:1026780002460B464349C1E90A23424BD3E90C45BC
:102688003DA3D3E90023D7E90C01FDF75DFF02461E
:102698000B4620462946FDF7A1FD02460B4639495F
:1026A800C1E90C233749D7E90823C1E90E23354B83
:1026B800D3E9104530A3D3E90023D7E90601FDF794
:1026C80043FF02460B4620462946FDF787FD024692
:1026D8000B462C49C1E910232A4BD3E9124526A3FE
:1026E800D3E90023D7E90401FDF72EFF02460B4684
:1026F80020462946FDF772FD02460B462149C1E9ED
:1027080012230023FB73224BD3F838311846FDF708
:10271800A1FE19A3D3E90023FDF716FF02460B46D5
:10272800C7E9002397ED000B0120FFF727F90346BF
:10273800FB73174BD3F828210132C3F82821D3F8AB
:1027480028311846FDF786FE114BD3E94C23104C6F
:10275800D4F85441FDF7F8FE02460B46C4E90023BD
:102768000B4BD3F838210132C3F8382100BF60374A
:10277800BD46B0BDAFF300809A9999999999C93F20
:10278800000059C05802002038020020C002002072
:10279800D00200200000000080B500AF564B564A1A
:1027A80003F5A873D360544B534A03F5AA73C2F8D0
:1027B8008430514B504A03F5987393624E4A4E4BFE
:1027C800C3F8D0204C4B4C4A9A604B4BDB68012233
:1027D8001A70494B002283F8FC20474B002283F8EB
:1027E8000C21454B454A5A61434B434A03F5AC73A8
:1027F800C2F8543140494FF00002414BC1E952231D
:102808003D493BA3D3E90023C1E94C233A4B3D4A58
:10281800C3F81021384B3C4AC3F81421364B3B4AC5
:10282800C3F81821344B3A4AC3F81C21324B394AB1
:102838005A60384B384A1A60374B384A1A60364B58
:10284800364A5A60344B354A9A60334B344ADA6018
:10285800314B334A1A61304B314A5A612E4B304A58
:102868009A612D4B2D4ADA612B4B2C4A1A622A4B5E
:102878002C4A5A62284B2B4A9A62274B294ADA6219
:10288800254B284A1A631C4A1B4B5B6802F5907259
:102898009A60194A184B5B6802F588725A60164AA2
:1028A800154B5B68D2F85421DA601F4B00221A706E
:1028B8001D4B00221A721C4B01225A601A48FFF75E
:1028C80095FC194B01221A72174B00221A74164BE9
:1028D80000221A76144B01225A611448FFF7BCFCF7
:1028E800114B01221A7600BF80BD00BFAFF30080F4
:1028F8009A9999999999C93FD002002024FC000817
:1029080000002440AF4DF14CF4CF36523A1E76B158
:102918002B023C20480400205C0400200822010807
:10292800B9020020B80200205802002068020020E6
:1029380080B500AF204B1B78002B1BD11E4B01220A
:102948001A701D4B5B68012B14D11B4B1B7A002B93
:1029580010D0194BDB681846FFF73AFC164BDB68BA
:1029680000211846FEF7F7FC134BDB6802211846D6
:10297800FEF724FE104B1B7C002B1BD10E4B0122B3
:102988001A740D4B5B69012B14D10B4B1B7E002B6A
:1029980010D0094BDB691846FFF71AFC064BDB69B8
:1029A80000211846FEF7D7FC034BDB6902211846C5
:1029B800FEF704FE00BF80BD5802002080B500AFBE
:1029C800022208491820FFF7C9F80920FFF7CCF9B7
:1029D800022205491520FFF7C1F80620FFF7C4F9C0
:1029E80000BF80BDF9290008712B00080000000015
:1029F80080B586B000AF0820FFF7A6FA0346002B83
:102A080007D00820FFF7B6FA0346002B01D00123B0
:102A180000E00023002B00F08B800820FFF7C0FAAD
:102A28004B4B1B78DBB2012B40F08280494B93F96A
:102A38006130FB730023FB75FB7B042B1AD801A2C2
:102A480052F823F0612A0008672A00086D2A000856
:102A5800732A0008792A00080023FB750AE003237B
:102A6800FB7507E00323FB7504E00023FB7501E019
:102A78000023FB7597F91720364B83F86120364BF6
:102A8800354AD3F82831C2F83C313448FFF733FAD5
:102A9800B8603248FFF72FFA78602E4BD3E9162337
:102AA8002F49C1E90623BB6803F00803002B0CBFBC
:102AB80001230023DAB27B6803F01003002B14BF54
:102AC80001230023DBB25340DBB2002B02D00123E9
:102AD8003B6102E04FF0FF333B613869FDF7CAFC08
:102AE8001F4BD3E90623FDF779FB02460B4619492C
:102AF800C1E91623174B042283F86120164BD3F83B
:102B08003C311846FDF7A6FC0FA3D3E90023FDF7D7
:102B18001BFD02460B461349C1E90023114B93EDF7
:102B2800007BB0EE470AF0EE670A0220FEF726FFA8
:102B3800BFF36F8F00BFBFF34F8F00BF00BF1837C1
:102B4800BD4680BDAFF300809A9999999999C93F7C
:102B58002A02002058020020D00200200004004869
:102B6800380200203002002080B586B000AF012076
:102B7800FFF7EAF90346002B07D00120FFF7FAF91F
:102B88000346002B01D0012300E00023002B00F0B6
:102B98008B800120FFF704FA4B4B1B78DBB2012B2B
:102BA80040F08280494B93F96030FB730023FB753A
:102BB800FB7B042B1AD801A252F823F0D92B00086A
:102BC800DF2B0008E52B0008EB2B0008F12B000891
:102BD8000023FB750AE00323FB7507E00323FB755D
:102BE80004E00023FB7501E00023FB7597F917202B
:102BF800364B83F86020364B354AD3F82831C2F873
:102C080040313448FFF777F9B8603248FFF773F975
:102C180078602E4BD3E914232F49C1E90423BB68FC
:102C280003F00103002B0CBF01230023DAB27B68F9
:102C380003F04003002B14BF01230023DBB25340F1
:102C4800DBB2002B03D04FF0FF333B6101E00123DF
:102C58003B613869FDF70EFC1F4BD3E90423FDF7F0
:102C6800BDFA02460B461949C1E91423174B042241
:102C780083F86020164BD3F840311846FDF7EAFB7D
:102C88000FA3D3E90023FDF75FFC02460B46134967
:102C9800C1E90023114B93ED007BB0EE470AF0EE3B
:102CA800670A0320FEF76AFEBFF36F8F00BFBFF30A
:102CB8004F8F00BF00BF1837BD4680BDAFF30080FF
:102CC8009A9999999999C93F2A0200205802002097
:102CD800D002002000040048380200203002002002
:102CE80080B500AF0920FFF75DF80620FFF75AF816
:102CF80000BF80BD0FB480B400AF00BFBD465DF813
:102D0800047B04B0704780B485B000AFF860B96048
:102D18007A60FB68BA681A60FB6804337A681A60DC
:102D280000BF1437BD465DF8047B70470000000003
:102D3800F0B58BB000AF87ED020B0346FB80FB8834
:102D4800012B77D14FF00002414BD7E90201FDF783
:102D5800FBFB02460B46C7E906239FED391B97ED9F
:102D6800060B0CF0F5FB53EC102B10461946FDF73B
:102D78009BFE03467B6100237B6233A3D3E90023D8
:102D8800D7E90601FDF770FE0346002B0ED02EA3EF
:102D9800D3E90023D7E90601FDF700FD02460B46FB
:102DA80010461946FDF780FE03467B627A6A796908
:102DB8002848FFF7A8FF284BD3E900014FF000028D
:102DC800264BFDF729FE0346002B2ED1224BD3E9D3
:102DD80000014FF000024FF04043FDF71DFE03468F
:102DE800002B22D11C4BD3E90001D7E90223FDF7C0
:102DF800F3F902460B4614461D464FF00002184BE5
:102E0800D7E90201FDF7A0FB02460B4601210E4659
:102E180020462946FDF70AFE0346002B01D1002370
:102E28001E46F3B21A460F4B1A700F49D7E9022310
:102E3800C1E9002300BF2C37BD46F0BDAFF30080C9
:102E4800000000000000F0410000E0FFFFFFEF413C
:102E580000408F40C0040020000000200000F0BFA8
:102E68000000B03CA8040020C804002080B584B04D
:102E780000AF0023BB6000237B600023FB73234962
:102E88004FF000024FF00003C1E9002320494FF042
:102E980000024FF00003C1E900233A1D07F10803BF
:102EA8001146184605F0B6FFBB687A681146184601
:102EB80004F0D2F80346FB7397F90F30002B05D0C6
:102EC8001448FFF717FF97F90F301AE03A1D07F17A
:102ED80008031146184605F0B4FFBB687A68114626
:102EE800184600F053FF0346FB7397F90F30002B89
:102EF80005D097F90F3019460748FFF7FBFE97F9F9
:102F08000F3018461037BD4680BD00BFB004002002
:102F1800B804002038FC000860FC000880B584B0C4
:102F280000AF0346FB710023FB730023BB73002033
:102F380005F09EFF00237B7304F05CFA0346FB73E5
:102F480097F90F30002B0DD097F90F3013F1020FBE
:102F580008D097F90F3019463C48FFF7CBFE0123FC
:102F6800BB730BE07B7B002B04D197F90F3013F177
:102F7800020F01D0012300E000237B73BB7B002BF1
:102F880021D100F035FF0346FB7397F90F30002B72
:102F98000DD097F90F3013F1020F08D097F90F30C1
:102FA80019462B48FFF7A6FE0123BB730BE07B7B7A
:102FB800002B04D197F90F3013F1020F01D0012330
:102FC80000E000237B73BB7B002B21D104F09CF92C
:102FD8000346FB7397F90F30002B0DD097F90F308C
:102FE80013F1020F08D097F90F3019461948FFF767
:102FF80081FE0123BB730BE07B7B002B04D197F987
:103008000F3013F1020F01D0012300E000237B737E
:10301800FB79002B0DD0002005F02AFFBB7B002B8D
:1030280002D17B7B002B01D1012300E00023BB737D
:1030380001E00123BB73BB7B002B3FF47BAF97F907
:103048000F3018461037BD4680BD00BF88FC000809
:10305800C0FC0008F0FC000880B582B000AF002377
:10306800BB70394B1B78DBB2002B02D0002000F07C
:10307800DDFF00F0AFFF0346FB7000237B600EE02E
:103088000A2005F0F5FE7B6803F51C5310337B60BE
:103098000120FFF743FF00F09DFF0346FB707B68AC
:1030A8002A4A934202D8FB78002BE9D100F09EFF10
:1030B8000346BB7097F90230002B05D097F9023010
:1030C80019462348FFF716FE04F00EFB0346BB70B3
:1030D80097F90230002B05D097F9023019461D48A0
:1030E800FFF708FE1C4B00221A701C4B00221A70B6
:1030F8001B4B00221A601B4B00221A601A4B00223D
:103108001A601A4B00221A60194B00221A601949DA
:103118004FF000024FF04043C1E900230A4B002260
:103128001A700822002114480CF0CEFB13494FF006
:1031380000024FF00003C1E9002397F90230184656
:103148000837BD4680BD00BFA8040020FF2C310110
:1031580028FD000844FD0008900400209104002088
:1031680094040020980400209C040020A00400205F
:10317800A404002000000020C0040020C80400208F
:1031880080B586B000AF614B1B687B617B69002B03
:1031980000F0B8805E4B1B78DBB2002B04D15B4B90
:1031A8001B68002B00F0AE805A4B1B78DBB2022B59
:1031B80040F0A880584B1B78002B40F0A3807B6917
:1031C800D3E90023C7E90223544B1B78002B00F0F6
:1031D8008A80534B1B78DBB2002B04D0504B1B78F2
:1031E800DBB2022B01D1012300E00023FB714C4B21
:1031F8001B78DBB2012B04D0494B1B78DBB2022BC6
:1032080001D1012300E00023BB71FB79002B33D0EF
:10321800444BD3E90023D7E90201FDF71BFC034621
:10322800002B0AD0404BD3E900013E4BD3E90023E1
:10323800FDF7FCFB0346002B14D13A4BD3E90023DE
:10324800D7E90201FDF710FC0346002B14D0364BDA
:10325800D3E90001334BD3E90023FDF7DDFB034637
:10326800002B09D0314B1B68002B02D1304B0122B7
:103278001A70294B01221A70BB79002B33D0294BC5
:10328800D3E90023D7E90201FDF7D0FB0346002B61
:103298000AD0254BD3E90001224BD3E90023FDF7DF
:1032A800D9FB0346002B14D11E4BD3E90023D7E9E1
:1032B8000201FDF7B1FB0346002B14D01A4BD3E9EA
:1032C8000001184BD3E90023FDF7CEFB0346002B82
:1032D80009D0164B1B68002B02D1154B01221A701E
:1032E8000D4B01221A700C4B1B78002B0CBF0123CD
:1032F8000023DBB21A46094B1A700B49D7E902239F
:10330800C1E9002300BF1837BD4680BDD4040020A2
:10331800D8040020F4040020030500200005002044
:10332800F0040020E0040020F8040020EC04002051
:103338000205002080B582B000AF0023FB719E4BD0
:103348001B78DBB2002B18D19C4B00221A709C4BC7
:1033580000221A709B4B1B78DBB2002B2DD0964BAA
:1033680002221A70974B00221A70974B1B78DBB217
:10337800002B22D10123FB711FE0924B00221A700F
:103388008E4B1B78DBB2002B09D0904B00221A70B1
:10339800894B00221A70894B00221A700DE08A4B63
:1033A8001B78DBB2002B02D10123FB7105E0844BB3
:1033B8001B78FB71824B00221A707F4B1B78DBB2A3
:1033C800042B00F2D78001A252F823F0E933000859
:1033D8002335000803340008D73400086134000896
:1033E800784B1B78DBB2002B00F0D880724B02229E
:1033F8001A70744B00221A70D0E0FB79002B00F091
:10340800CF80734B1B68002B0DDD6F4B1B78DBB235
:10341800012B08D16E4B1B681A466E4B1A60664B1F
:1034280003221A70BCE06C4B1B68002B0AD0674B58
:1034380001221A70684B1B68664A13605E4B0422AF
:103448001A70ADE06548FFF755FC604B00221A7012
:10345800594B00221A70A3E05E4B1B68002B04D066
:103468005C4B1B68013B5B4A13605A4B1B68002B83
:1034780040F098805A4B1B78DBB2012B06D1534B96
:1034880000221A704C4B00221A708BE0554B1B68B7
:10349800002B0AD04D4B00221A70524B1B684D4A24
:1034A8001360454B01221A707CE0FB79002B07D092
:1034B800494B1B68474A13603F4B04221A7071E05E
:1034C800424B00221A703C4B02221A706AE0414BB0
:1034D8001B68002B04D03F4B1B68013B3D4A13601F
:1034E8003C4B1B68002B5FD13B4B1B68002B0AD061
:1034F800364B01221A70384B1B68364A13602E4B24
:1035080004221A7050E03548FFF7F4FB2F4B0022D5
:103518001A70294B00221A7046E02E4B1B68002BAC
:1035280004D02C4B1B68013B2A4A1360294B1B68AB
:10353800002B3BD1FB79002B18D0274B1B68002BA5
:103548000AD0224B01221A70234B1B68214A1360B0
:10355800194B04221A7029E02048FFF7CBFB1B4BBC
:1035680000221A70144B00221A701FE0124B02221C
:103578001A701BE0104B1B78DBB219461A48FFF78C
:10358800B9FB124B00221A700D4B00221A700B4B1C
:1035980000221A70084B00221A7008E000BF06E0EB
:1035A80000BF04E000BF02E000BF00E000BF00BFB2
:1035B8000837BD4680BD00BFF4040020F104002098
:1035C800030500200C000020F20400200205002062
:1035D800EC040020040500200800002068FD000815
:1035E800F3040020E804002090FD000880B400AF38
:1035F80010494FF000024FF00003C1E900230E4BC1
:1036080000221A700D4B1B78DAB20D4B1A700D4B55
:1036180000221A700C4B00221A700C4B00221A6000
:103628000B4B00221A7000231846BD465DF8047B38
:10363800704700BFF804002000050020F2040020B5
:1036480001050020020500200305002004050020D4
:10365800F404002080B584B000AF0346FB80FB88EB
:10366800012B3FD1314B1B78DAB2314B1B789A4290
:1036780014BF01230023DBB2FB732C4B1B78DAB297
:103688002B4B1A70FB7B002B0BD02A4B00221A7095
:10369800294B00221A70294B00221A60284B00225D
:1036A8001A70224B1B78DBB2012B1BD1244B1B78E1
:1036B800DBB2002B04D1234B1B78DBB2002B08D1E3
:1036C8001F4B1B78DBB2012B0CD11C4B1B68012B49
:1036D80008D11A4B00221A601A4B00221A70184B94
:1036E80002221A70114B1B78DBB2012B07D1164B43
:1036F8001B889BB2FA889A4201D1FFF741FDFB88EB
:10370800012B05D1FFF716FE104B00221A7006E0B8
:103718000E4B1B78002B02D00D4B1B7801E0054B9C
:103728001B7818461037BD4680BD00BFF204002044
:1037380001050020020500200305002004050020E3
:10374800F40400200C000020D0040020090500200B
:103758000805002080B400AF26494FF000024FF062
:103768000003C1E90023244B00221A70234B0022D6
:103778001A70234B00221A70224B00221A80224B07
:1037880000221A70214B00221A70214B00221A6065
:10379800204B00221A70204B00221A701F4B002267
:1037A8001A601F4B00221A701E494FF000024FF09A
:1037B8000003C1E900231C4B4FF47A721A601B4BBB
:1037C80000221A601A4B00221A601A4B00221A7043
:1037D800194B01221A70194B00221A70184B00223B
:1037E8001A70184B00221A7000231846BD465DF85F
:1037F800047B7047F804002000050020F404002032
:1038080001050020D0040020020500200305002047
:10381800040500200805002009050020D404002024
:10382800D8040020E004002008000020E80400205C
:10383800EC040020F00400200C000020F10400201B
:10384800F2040020F304002080B400AF174B1B786B
:10385800DBB2002B25D1164B1B78DBB2002B0BD02B
:10386800144B1B78DBB2002B06D1134B01221A70C4
:10387800124B01221A7014E00E4B1B78DBB2002B9E
:103888000BD00B4B1B78DBB2002B06D10A4B002266
:103898001A700A4B01221A7003E0084B00221A70B2
:1038A800FFE700BFBD465DF8047B7047F2040020C7
:1038B8000C000020F1040020080500200905002064
:1038C80080B586B000AFF860B9607A603B600023CD
:1038D800FB7503F0FDFE3861FB681B68184604F0B1
:1038E8000DF90021386803F06BFE0246BB681A60C8
:1038F80003F056FE02467B681A60BB681B68002B03
:103908000FD0BB681B681946386904F0FDFB0246F6
:10391800FB681A60FB681B68002B04D1F623FB7553
:1039280001E0F823FB7597F9173018461837BD469C
:1039380080BD000080B584B000AFF860B9607A60DF
:10394800FA68BB6813441B7819460848FFF7D2F990
:10395800FB68002B02D0F86804F0D0F87B680022DE
:103968001A60002318461037BD4680BDB4FD000814
:1039780080B584B000AFF860B9607A60FA68BB6857
:1039880013441B7819460648FFF7B4F97B680222EE
:103998001A604FF0FF3318461037BD4680BD00BF90
:1039A80010FE000880B485B000AF03460A46FB71DC
:1039B8001346BB710523FB73FB79F02B02D9002357
:1039C800FB7322E0FB79E32B05D9FB79F02B02D8B6
:1039D8000123FB7319E0FB79D22B02D9FB79E22B87
:1039E80008D9FB79C02B08D1BB79002B05D0BB794E
:1039F800022B02D80223FB7307E0FB79C72B04D9FB
:103A0800FB79D22B01D80323FB73FB7B18461437B1
:103A1800BD465DF8047B704780B58CB000AFF86098
:103A2800B9607A603B60FB68BB62BB6A1B7887F849
:103A38002730002387F82F3097F82730C02B06D17E
:103A4800BB68012B03D9BB6A5B7887F82F30364BEC
:103A58001B78002B3ED097F82F2097F82730114677
:103A68001846FFF79FFF0346FB76002387F82E30A2
:103A7800FB7E052B23D0FB7E2C4A52F823307B613A
:103A880000233B617B69002B19D097F827207B69BD
:103A98001046984738613B69002B14BF0123002367
:103AA800DBB287F82E3097F82E30002B07D03B6911
:103AB8005A687B681A603B699A683B681A6097F88D
:103AC8002E30002B2CD17B68194A1A603B68194AA2
:103AD8001A6025E097F82730FF2B1BD1134B1B6882
:103AE8003B627B6800221A603B6800221A603B6ACE
:103AF800002B15D03B6AFF209847F861FB69002B23
:103B08000ED0FB695A687B681A60FB699A683B6843
:103B18001A6005E07B68084A1A603B6800221A6050
:103B280000BF3037BD4680BD0B05002010050020C2
:103B380079390008093C00083D39000880B483B091
:103B480000AF0346FB71044AFB79137000BF0C37C2
:103B5800BD465DF8047B70470B05002080B400AFBC
:103B6800034B1B781846BD465DF8047B704700BFC1
:103B78000C05002080B483B000AF0346FB71064BF0
:103B88001A78FB791343DAB2034B1A7000BF0C376B
:103B9800BD465DF8047B70470C05002080B483B0F7
:103BA80000AF0346FB7197F90730DB435AB2074B66
:103BB8001B785BB213405BB2DAB2044B1A7000BFD9
:103BC8000C37BD465DF8047B704700BF0C0500202C
:103BD80080B400AF034B1B781846BD465DF8047BE4
:103BE800704700BF0D05002080B400AF034B1B8851
:103BF8001846BD465DF8047B704700BF0E050020DF
:103C080080B586B000AF0346B9607A60FB7397F958
:103C18000F30002B05D1BB683B613B69FF221A704E
:103C280076E0BB687B617B69FE221A7097F90F30DA
:103C380010330F2B62D801A252F823F0FD3C000884
:103C4800F53C0008ED3C0008E53C0008DD3C0008B8
:103C5800D53C0008C53C0008CD3C0008BD3C000828
:103C6800B53C0008AD3C0008A53C00088D3C0008A8
:103C7800853C0008953C00089D3C00087B69302283
:103C88005A7045E07B6929225A7041E07B692222FB
:103C98005A703DE07B6920225A7039E07B69002226
:103CA8005A7035E07B6923225A7031E07B69212202
:103CB8005A702DE07B6911225A7029E07B6927220E
:103CC8005A7025E07B692A225A7021E07B6910220C
:103CD8005A701DE07B6924225A7019E07B692822FA
:103CE8005A7015E07B6926225A7011E07B693122EF
:103CF8005A700DE07B6933225A7009E097F90F304A
:103D080019460548FEF7F6FF7B6920225A70FFE73F
:103D180000BF1837BD4680BD40FE000880B487B09C
:103D280000AF0346B9607A60FB7300237B61BB6810
:103D3800002B23D000233B6100233B6117E03A6945
:103D480013465B0013449B001A46BB6813441B7858
:103D5800FA7B9A4208D13A6913465B0013449B00E8
:103D68001A46BB6813447B613B6901333B613A697E
:103D78007B689A4202D27B69002BE0D07B691846A7
:103D88001C37BD465DF8047B7047000080B582B0E3
:103D980000AF78603960134B1B78002B05D01248B0
:103DA800FEF7A8FF6FF00B0318E000F07BFC00F0B3
:103DB80085FC03460D4A136002F052FA02F06CFAD1
:103DC80003460A4A936003F045F803F04DF80346AA
:103DD800064A5360034B01221A700023184608371D
:103DE800BD4680BD0A05002084FE0008100500209D
:103DF80080B58CB002AF002387F82730002387F8FE
:103E080026300023FB610023BB6100237B61002374
:103E18003B610023FB6000233B620023BB6000235F
:103E28007B60554B1B78002B05D15448FEF762FF89
:103E38006FF008039BE007F1140007F1180207F17F
:103E48001C0107F1100300930346002003F012FB46
:103E5800034687F8273097F92730002B09D097F9C0
:103E6800273013F1040F04D097F9273013F1050F09
:103E780071D1FB69002B05D07A693B691A44BB698B
:103E88009A4203D9F82387F8273067E0FA697B69F3
:103E980013443B6239693B1D07F10802386AFFF792
:103EA800BBFDBB68002B09D13B6A1B781946344817
:103EB800FEF720FFF42387F827304FE0BB68F86946
:103EC800796907F10C029847034687F826307B6822
:103ED800002B3DD0FB68002B3AD0002387F8273011
:103EE8003A69FB689A420BD2FB6807F1140207F1A2
:103EF800180107F11C00FFF7E3FC034687F8273099
:103F08003B691A460021386A0BF0DEFC97F9273026
:103F1800002B1DD1FA697B6913443B627B68FA6800
:103F280097F92600396A9847F969B8697B69FA6888
:103F38000192009303460A464FF6FF71012003F0F1
:103F480041F9034687F8273097F92730002B04D129
:103F580097F927300BE000BF00E000BFFB69002B9A
:103F680003D0FB69184603F0C9FD97F927301846B6
:103F78002837BD4680BD00BF0A050020B4FE0008F2
:103F8800DCFE000880B584B000AF0346FB80002348
:103F9800FB730023BB600D4B1B78002B05D10C482D
:103FA800FEF7A8FE6FF008030CE004F0CBFFB86042
:103FB800FB880022B968184602F06CFB0346FB73C5
:103FC80097F90F3018461037BD4680BD0A05002006
:103FD8000CFF000880B400AF034B1B781846BD46A1
:103FE8005DF8047B704700BF0B05002080B500AF6B
:103FF8000B4B1B78002B02D10A48FEF77BFE02F020
:104008004FFF02F0F1FD00F075FB10220021064879
:104018000BF05AFC024B00221A700023184680BD90
:104028000A050020040001081005002080B584B0AE
:1040380000AF7860786802F0B1FB0346FB7397F92C
:104048000F3018461037BD4680BD80B584B000AF2C
:104058000346FB800123FB73FA7BFB88002118468B
:1040680002F018FB0346BB7397F90E301846103759
:10407800BD4680BD80B584B000AF0346FB71012307
:10408800FB6003F0DCFAB860FA79B968FB68B1FB49
:10409800F3F39A4234BF01230023DBB218461037EA
:1040A800BD4680BD80B584B000AF78600B46FB701C
:1040B80000F02AFBF860F9680648FEF71BFE064B7D
:1040C8001B781A46F96878680BF030FC00BF103787
:1040D800BD4680BD2C0001082805002080B588B0A9
:1040E80000AFF860B9607A600023FB77FA68BB68B4
:1040F8001344BB61BB697B610023FB7402F0A6FC1F
:104108000346FB74FB7C002B08D11A48FEF7F2FD2E
:104118007B6802221A606FF00A0327E07B695B78EC
:10412800002B03D07B695B78012B01D1012300E0D0
:104138000023FB74FB7C002B0BD17B695B78194651
:104148000D48FEF7D7FD7B6802221A606FF0010365
:104158000CE00A48FEF7CEFD0120FFF7EFFC002334
:10416800FB777B6808221A6097F91F3018462037BA
:10417800BD4680BD4400010890000108B400010854
:1041880080B586B000AF0346B9607A60FB7397F9D3
:104198000F30002B47D1BB687B610822002178696A
:1041A8000BF092FB7B69FF221A7005227B695A701B
:1041B80000227B699A7003F042FA0346DAB27B69FF
:1041C800DA7003F035FA03469AB27B699A807B6904
:1041D80001229A717B690122DA717B695B78194641
:1041E8001648FEF787FD7B699B7819461448FEF749
:1041F80081FD7B69DB7819461248FEF77BFD7B69F8
:104208009B889BB219461048FEF774FD7B699B7921
:1042180019460E48FEF76EFD7B69DB7919460C4896
:10422800FEF768FD06E097F90F307A68B968184616
:10423800FFF7E6FC00BF1837BD4680BDDC0001086B
:10424800F800010814010108300101084C010108B7
:104258006801010880B586B000AFF860B9607A607F
:104268000123FB7502F0F2FB0346FB75FB7D002B77
:1042780008D10B48FEF73EFD7B6802221A606FF0FA
:104288000A0309E00748FEF735FD0020FFF756FC52
:104298007B6801221A60002318461837BD4680BD86
:1042A80084010108D401010880B584B000AFF8602A
:1042B800B9607A600548FEF71DFD7B6806221A6022
:1042C800002318461037BD4680BD00BF0402010810
:1042D80080B586B000AF0346B9607A60FB73BB68EF
:1042E8007B610622002178690BF0EEFA7B69FF22D8
:1042F8001A70FFF733FC03461A467B695A70FFF7BA
:1043080067FC03461A467B699A70FFF76DFC034603
:104318001A467B699A807B695B7819460948FEF7DB
:10432800E9FC7B699B7819460748FEF7E3FC7B6943
:104338009B889BB219460548FEF7DCFC00BF18377E
:10434800BD4680BD10020108340201085802010868
:1043580080B586B000AFF860B9607A600023FB755D
:104368000B48FEF7C7FC02F05BFB0346FB75FB7DC1
:10437800002B03D003F08CF902F061FB7B6802226A
:104388001A606FF0040318461837BD4680BD00BF99
:104398007C02010880B588B000AFF860B9607A6027
:1043A8000023FB77FA68BB681344BB61BB697B6178
:1043B8000023FB747B695A687B69DB7819461046D1
:1043C80000F0AEF90346FB74FB7C002B08D10D48C6
:1043D800FEF790FC7B6802221A606FF00B030CE07A
:1043E8007B6959687B69DB781A460748FEF782FCC7
:1043F8007B6801221A6097F91F3018462037BD469E
:1044080080BD00BF84020108A002010880B58AB0FF
:1044180000AFF860B9607A60002387F82730FA683F
:10442800BB6813443B623B6AFB610023FB7600F0E8
:104438006BF97861FB695B781846FFF71BFE03464A
:10444800FB76FB7E002B0BD1FB695B781946124883
:10445800FEF750FC7B6802221A606FF0010316E039
:104468007B69002B08D10D48FEF744FC7B680222CB
:104478001A606FF00B030AE0FB695A78084B1A7050
:10448800074B1B785A1C7B681A6097F92730184627
:104498002837BD4680BD00BFD402010804030108C7
:1044A8002805002080B588B000AF0346B9607A605F
:1044B800FB7397F90F30002B30D100F025F9F86124
:1044C800BB68BB6101220021B8690BF0FDF9BB692B
:1044D800FF221A70FB69002B1CD0164B1B78013386
:1044E8007A689A4216D1BB6801337B610023FB745A
:1044F8001148FEF7FFFBFB7C19467869FFF7D2FDF0
:104508000C4B1B78184600F029F90A4B00221A7048
:1045180000BF0AE00948FEF7EDFB06E097F90F3007
:104528007A68B9681846FFF76BFB00BF2037BD46AD
:1045380080BD00BF28050020200301082C030108C6
:1045480080B588B000AFF860B9607A600023FB7767
:10455800FA68BB681344BB61BB697B610023FB74C9
:104568007B695B781846FFF785FD0346FB74FB7C87
:10457800002B0BD17B695B7819461748FEF7BAFB0D
:104588007B6802221A606FF0010320E07B695A6899
:104598007B69DB781946104600F0C2F80346FB74C5
:1045A800FB7C002B08D10D48FEF7A4FB7B68022298
:1045B8001A606FF00B030AE07B695A78084B1A708F
:1045C800074B1B785A1C7B681A6097F91F301846EE
:1045D8002037BD4680BD00BF4C0301088003010899
:1045E8002805002080B588B000AF0346B9607A601E
:1045F800FB7397F90F30002B30D100F085F8F86184
:10460800BB68BB6101220021B8690BF05DF9BB6989
:10461800FF221A70FB69002B1CD0164B1B78013344
:104628007A689A4216D1BB6801337B610023FB7418
:104638001148FEF75FFBFB7C19467869FFF732FDEE
:104648000C4B1B78184600F089F80A4B00221A70A8
:1046580000BF0AE00948FEF74DFB06E097F90F3066
:104668007A68B9681846FFF7CBFA00BF2037BD460D
:1046780080BD00BF28050020A0030108B003010881
:1046880080B582B000AF0346FB71FB79072204496D
:104698001846FFF743FB034618460837BD4680BD5A
:1046A8000C22010880B500AF034800F013F800F0B1
:1046B80069F800BF80BD00BF8946000880B400AF1C
:1046C800034B1B681846BD465DF8047B704700BF66
:1046D8002C05002080B483B000AF7860044A7B6862
:1046E800136000BF0C37BD465DF8047B704700BF00
:1046F8002C05002080B500AF00F04BF80020FFF734
:10470800E9FF00BF80BD000080B400AF034B1B6809
:104718001846BD465DF8047B704700BF20050020A1
:1047280080B483B000AF78600B46FB70FB78002B39
:1047380004D17B68002B01D1002306E0064A7B6880
:104748001360054AFB781371012318460C37BD46E0
:104758005DF8047B704700BF2005002080B483B05B
:1047680000AF0346FB71064B1A68FB791344044AF1
:10477800136000BF0C37BD465DF8047B704700BF6F
:104788002005002080B400AF00BFBD465DF8047B63
:10479800704780B400AF00BFBD465DF8047B70472A
:1047A80080B584B000AF0346FB800023FB7306F09E
:1047B80088F803460B4A13600B4B1B68002B0CBF91
:1047C80001230023DBB2FB73FB7B002B04D1054BD9
:1047D8001B68184606F086F8FB7B18461037BD465E
:1047E80080BD00BF3C0500203805002080B582B0A0
:1047F80000AF0346FB80044B1B68184606F072F8AE
:1048080000BF0837BD4680BD3C05002080B582B09A
:1048180000AF0346FB8006F054F80346074A1360CE
:10482800074B1B680133064A1360044B1B68184684
:1048380006F058F800BF0837BD4680BD3C0500208B
:104848003805002080B582B000AF0346FB8006F033
:1048580038F80346074A1360074B1B68013B064AB2
:104868001360044B1B68184606F03CF800BF083775
:10487800BD4680BD3C0500203805002080B483B0CB
:1048880000AF0346FB80104B1968FA8813465B009B
:104898001344DB000B445B79022B0AD00A4B1968DE
:1048A800FA8813465B001344DB000B445B79032B47
:1048B80001D1012300E00023DBB218460C37BD46C6
:1048C8005DF8047B704700BF3005002080B582B0DA
:1048D80000AF0023FB710023BB800023BB8008E0EE
:1048E800BB881846FFF7CAFF0346FB71BB88013334
:1048F800BB80094B9B88BA889A4202D2FB79002B6D
:10490800EED0FB79002B0CBF01230023DBB2184645
:104918000837BD4680BD00BF3005002080B485B093
:1049280000AF0346FB800B467B7113463B71284B57
:104938001B68002B42D0264B9B88FA889A423DD2AE
:10494800234B1968FA8813465B001344DB000B44B9
:104958001B68002B32D01E4B1968FA8813465B007F
:104968001344DB000B441B797A799A4226D2184B00
:104978001968FA8813465B001344DB000B44196876
:104988007A791346DB009B1A9B000B441B68002BAB
:1049980014D00F4B1968FA8813465B001344DB00E8
:1049A8000B4419687A791346DB009B1A9B000B4469
:1049B8001B793A799A4201D2012300E00023FB7364
:1049C800FB7B18461437BD465DF8047B704700BF73
:1049D8003005002080B485B000AF03463A60FB7113
:1049E8000B46BB710023FB73BB79BB81FB79FF2BA3
:1049F80004D1BB89FF2B01D80123FB73FB7B18462D
:104A08001437BD465DF8047B704780B483B000AFAF
:104A18000346FB71FB7923F01003002B0CBF012325
:104A28000023DBB218460C37BD465DF8047B70479F
:104A380080B485B000AF0346FB710023FB73FB799C
:104A4800002B05D0FB79012B02D0FB79022B01D179
:104A58000123FB73FB7B18461437BD465DF8047BC6
:104A6800704780B485B000AF0346FB710023FB7329
:104A7800FB79002B05D0FB79012B02D0FB79022BA7
:104A880001D10123FB73FB7B18461437BD465DF843
:104A9800047B704780B400AF01231846BD465DF81B
:104AA800047B704780B485B000AF0346FB80164B8B
:104AB8001968FA8813465B001344DB000B441B7B20
:104AC800022B0ED1104B1968FA8813465B00134469
:104AD800DB000B44DA880D4B1B889A4201D0012376
:104AE80000E00023FB73FB7B002B04D0FB88002B2A
:104AF80001D1012300E00023FB73FB7B1846143728
:104B0800BD465DF8047B7047300500201800002082
:104B180080B485B000AF78600B46FB707B6819687D
:104B2800FA781346DB009B1A9B000B44BB60BB68FA
:104B38009B687A68D28902FB03F30133FB60FB7838
:104B4800002B08D17B681B7A03F01003002B02D0DE
:104B5800FB680433FB60FB6818461437BD465DF8F4
:104B6800047B704780B586B000AF78600023BB74C3
:104B780000237B610023FB740023FB7415E0FB7C9E
:104B880019467868FFF7C4FFF8600023BB6001216D
:104B9800F86802F015FDB860BA687B699A4201D9D5
:104BA800BB687B61FB7C0133FB747B681B79FA7CF7
:104BB8009A42E4D37B681B791A4613465B0099181E
:104BC8007B6814331A46786903F050F80346BB74BF
:104BD80097F91230002B03D07B684FF0FF325A61EF
:104BE80097F9123018461837BD4680BD80B582B097
:104BF80000AF78607B685B69B3F1FF3F04D07B68E6
:104C08005B69184603F044F97B684FF0FF325A613C
:104C180000BF0837BD4680BD80B58AB000AFF860D8
:104C2800B9607A60002387F82730FA68BB681344B4
:104C38003B623B6AFB61FB699A78DB781B02134392
:104C48007B83FB691B797B76FB695B793B76002369
:104C5800FB753A7E797E7B8B1846FFF75FFE03462D
:104C6800FB75FB7D002B0BD1798B7A7E3B7E1D4833
:104C7800FEF740F87B6802221A606FF001032CE00F
:104C88007B8B1846FFF7FAFD0346002B0CBF012368
:104C98000023DBB2FB75FB7D002B0AD17B8B194609
:104CA8001148FEF727F87B6802221A606FF00703A5
:104CB80013E0798B7A7E3B7E0C48FEF71BF80C4A92
:104CC8007B8B13800A4A7B7E9370094A3B7ED370A4
:104CD8007B6801221A6097F9273018462837BD46A5
:104CE80080BD00BFD80301081C0401084C0401085A
:104CF80014000020F0B58FB004AFF860B9607A6096
:104D0800002387F82730FA68BB6813443B623B6A84
:104D1800FB61584B1B887B83564B9B787B76554BA6
:104D2800DB783B7600237B610023FB743A7E797E37
:104D38007B8B1846FFF7F2FD0346FB74FB7C002BC8
:104D48000BD1798B7A7E3B7E4B48FDF7D3FF7B688E
:104D580002221A606FF0050387E07B8B1846FFF785
:104D68008DFD0346002B0CBF01230023DBB2FB742F
:104D7800FB7C002B0AD17B8B19464048FDF7BAFF14
:104D88007B6802221A606FF007036EE0FB695878AF
:104D9800FB699978FB695B681A46FFF71BFE0346B7
:104DA800FB74FB7C002B1BD1798B7A7E387EFB69E8
:104DB8005B781C46FB699B781D46FB69DB781E46C1
:104DC800FB695B68039302960195009403462C489F
:104DD800FDF790FF7B6802221A606FF0010344E040
:104DE800798B7A7E387EFB695B781C46FB699B78F9
:104DF8001D46FB69DB781E46FB695B6803930296D8
:104E08000195009403461F48FDF774FF1E4B19686F
:104E18007A8B13465B001344DB000B4419687A7ED7
:104E28001346DB009B1A9B000B441A683B7EDB0091
:104E380013447B61FB695A787B691A70FB699A781D
:104E48007B695A70FB69DA787B699A70FB695A68E2
:104E58007B695A60074BDB780133DAB2054BDA70AD
:104E68007B6801221A6097F9273018462C37BD460F
:104E7800F0BD00BF140000209C040108F8040108DC
:104E880028050108A00501083005002090B58DB05F
:104E980002AFF860B9607A60002387F82730FA68B3
:104EA800BB6813443B623B6AFB610023BB61002380
:104EB800FB75614B1B68002B08D0FB695B889AB2B5
:104EC8005D4B9B889A4201D2012300E00023FB75C9
:104ED800FB7D002B0CD1FB695B889BB219465748B8
:104EE800FDF708FF7B6802221A606FF001039FE05C
:104EF800514B1A68FB695B889BB219460B465B00ED
:104F08000B44DB001344BB61FB695B889BB218460A
:104F1800FFF7B4FC0346002B0CBF01230023DBB2D0
:104F2800FB75FB7D002B0CD1FB695B889BB2194696
:104F38004348FDF7DFFE7B6802221A606FF0070323
:104F480076E0FB699B889BB27F2B94BF01230023EB
:104F5800DBB2FB75FB7D002B0CD1FB699B889BB2F8
:104F680019463848FDF7C6FE7B6802221A606FF0C2
:104F780001035DE0FB69DB79002B0CBF01230023F3
:104F8800DBB2FB75FB7D002B08D12F48FDF7B2FE85
:104F98007B6802221A606FF0010349E0FB695B78C5
:104FA8001846FFF732FD0346FB75FB7D002B0BD13E
:104FB800FB695B7819462548FDF79CFE7B68022251
:104FC8001A606FF0090333E0FB695B889BB21946EE
:104FD800FB695B781846FB699B889BB21C46FB699A
:104FE8009B791A46FB69DB790193009223460246B6
:104FF8001748FDF77FFEFB695A78BB691A72FB698F
:105008009B889AB2BB69DA80FB699A79BB695A7244
:10501800FB69DA79BB699A72BB695B7A012B02D8A2
:10502800BB6901225A727B6801221A6097F92730FE
:1050380018462C37BD4690BD3005002010060108E3
:105048004006010874060108A4060108E0060108E4
:105058001407010890B58FB000AFF860B9607A60A6
:10506800002387F82630FA68BB6813443B623B6A22
:10507800FB610023BB61FB695B889BB27B610023FA
:1050880087F837300023FB748A4B1B68002B07D046
:10509800884B9B881A467B69934201DA012300E01A
:1050A800002387F8373097F83730002B09D1796912
:1050B8008148FDF71FFE7B6802221A606FF001032A
:1050C800B2E17E4A7B6913607A4B19687A691346A4
:1050D8005B001344DB000B44BB61FB695B7818463B
:1050E800FFF7A6FC034687F8373097F83730002BD0
:1050F8000BD1FB695B7819467148FDF7FBFD7B68AE
:1051080002221A606FF009038EE1FFF7C3FC034621
:10511800002B5AD0BB695B79002B56D1BB691B7A2F
:1051280003F00203002B21D0BB691B68002B09D0B8
:10513800604BDB791A46BB691B791344802B01DC71
:10514800012300E0002387F8373097F83730002B29
:105158002DD0584BDA79BB69DA72564BDA79BB69CC
:105168001B791344DAB2534BDA7120E0BB691B6830
:10517800002B09D04F4B9B791A46BB691B79134406
:10518800FC2B01DC012300E0002387F8373097F877
:105198003730002B0BD0474B9A79BB69DA72454BF5
:1051A8009A79BB691B791344DAB2424B9A7197F822
:1051B8003730002B09D179694248FDF79BFD7B68A0
:1051C80002221A606FF008032EE1FB695B78012B5D
:1051D80004D0FB695B78022B40F0908000233B638E
:1051E800012387F8373000233B637CE00023FB6210
:1051F8000023BB620023FB6213E0BB6919683A6BAA
:105208001346DB009B1A9B000B441A68FB6ADB0001
:1052180013445B781A46BB6A1344BB62FB6A0133CA
:10522800FB62BB6919683A6B1346DB009B1A9B004B
:105238000B441B791A46FB6A9342DEDB3B6B002B5F
:1052480017D1BB691B7A03F01003002B11D0BB697F
:10525800DB891A46BB6A02FB03F35C1D02F0E8F91E
:1052680003469C4294BF01230023DBB287F8373002
:1052780010E0BB69DB891A46BB6A02FB03F35C1CBE
:1052880002F0D6F903469C4294BF01230023DBB207
:1052980087F8373097F83730002B17D13A6B796990
:1052A8000948FDF727FD7B6802221A606FF00803A2
:1052B800BAE000BF30050020780701081000002080
:1052C800A8070108D807010814080108BB6919686C
:1052D8003A6B1346DB009B1A9B000B44BA6A9A6030
:1052E8003B6B01333B63BB691B791A463B6B9342AB
:1052F80004DA97F83730002B7FF478AFBB69DB8886
:105308001846FFF74DFA0346FB74FB7C002B7DD053
:10531800002387F82730FB695B78022B53D0022BD8
:105328005FDC002B02D0012B13D05AE0796940488A
:10533800FDF7E0FCBB6901225A71FFF7C7FA034683
:10534800002B4BD00120FEF7F9FB4020FEF726FC8E
:1053580044E079693748FDF7CDFCBB695B69B3F177
:10536800FF3F22D1BB69DA88334B1B889A420CD1A4
:10537800314B5868304B9968BB6914331A4602F0B0
:1053880033FE034687F827300FE07B69002B0CDCDF
:10539800BB69DB88032B08D8B869FFF7E3FB034632
:1053A80087F82730BB6900221A8297F92730002B2B
:1053B80016D1BB6903225A710220FEF7BFFB4020B9
:1053C800FEF7D8FB0CE0FB695B889BB219461B48CB
:1053D800FDF790FCBB6902225A7102E000BF00E0B1
:1053E80000BFBB69DB881846FFF700FA7B6802221A
:1053F8001A6097F92730002B08D01148FDF77AFC7E
:105408007B6802221A606FF002030DE0FB7C002B20
:1054180008D10C48FDF76EFC7B6802221A606FF019
:105428000A0301E097F9263018463C37BD4690BD7F
:1054380078080108A408010818000020D00801080D
:10544800FC0801084809010880B586B000AF03468A
:10545800B9607A60FB7397F90F30002B12D1BB68E3
:105468007B617B69FF221A700C4B1A680C4B1B6816
:1054780019460B465B000B44DB001344DA7A7B6960
:105488005A7006E097F90F307A68B9681846FEF73F
:10549800B7FB00BF1837BD4680BD00BF30050020F0
:1054A8001000002090B58BB000AFF860B9607A604A
:1054B8000023FB77FA68BB681344BB61BB697B6157
:1054C8000023FB740023BB7400237B627B695B7839
:1054D8001846FFF7C6FA0346FB74FB7C002B0BD17A
:1054E8007B695B781946A648FDF704FC7B680222B5
:1054F8001A606FF0090362E1A24B1B68002B05D00C
:10550800A04B9B88002B01D0012300E00023FB74F3
:10551800FB7C002B08D19C48FDF7ECFB7B68022242
:105528001A606FF001034AE101F07AFA0346BB748E
:10553800BB7C002B00F03581002387F82330002343
:105548003B847B695B78022B00F0D580022B00F34B
:105558000681002B02D0012B2CD000E100237B62B6
:105568001BE0884B19687A6A13465B001344DB001A
:105578000B445B79002B0DD0796A8448FDF7BAFBA0
:10558800804B19687A6A13465B001344DB000B44AE
:1055980001225A717B6A01337B627A4B9B881A46D7
:1055A8007B6A9342DDDB0120FEF7C8FA4020FEF754
:1055B800F5FAD4E000237B6263E0724B19687A6ADB
:1055C80013465B001344DB000B445B79022B55D177
:1055D8006C4B19687A6A13465B001344DB000B4472
:1055E8005B69B3F1FF3F49D1664B19687A6A134684
:1055F8005B001344DB000B44DA88654B1B889A4236
:1056080014D1634B5868624B9C685E4B19687A6A80
:1056180013465B001344DB000B4414331A4621463F
:1056280002F0E2FC034687F8233027E07B6A002B70
:1056380024DC544B19687A6A13465B001344DB0078
:105648000B44DB88032B19D84E4B19687A6A13462A
:105658005B001344DB000B441846FFF783FA03464C
:1056680087F82330474B19687A6A13465B0013445E
:10567800DB000B4400221A827B6A3B847B6A01337D
:105688007B62404B9B881A467B6A934203DA97F900
:105698002330002B91D097F92330002B5CD10023C5
:1056A8007B6221E0374B19687A6A13465B00134422
:1056B800DB000B445B79022B13D1796A3548FDF77F
:1056C80019FB304B19687A6A13465B001344DB00F8
:1056D8000B4403225A710220FEF730FA4020FEF7ED
:1056E80049FA7B6A01337B62264B9B881A467B6AA0
:1056F8009342D7DB30E000237B621BE0214B196823
:105708007A6A13465B001344DB000B445B79022B77
:105718000DD1796A1D48FDF7EDFA1A4B19687A6AB6
:1057280013465B001344DB000B4401225A717B6A69
:1057380001337B62134B9B881A467B6A9342DDDBFD
:10574800FFF7C4F80346002B08D00120FEF7F6F94E
:105758004020FEF723FA01E000BF00E000BF01F09F
:105768006EF997F92330002B18D03B8C19460A485C
:10577800FDF7C0FA7B6802221A606FF002031EE090
:105788009009010830050020C0090108EC0901084A
:1057980018000020140A01083C0A01087B6801224D
:1057A8001A60BB7C002B08D10748FDF7A3FA7B6879
:1057B80002221A606FF00A0301E097F91F301846B9
:1057C8002C37BD4690BD00BF880A010880B584B05B
:1057D80000AFF860B9607A600548FDF78BFA7B681E
:1057E80008221A60002318461037BD4680BD00BF46
:1057F800CC0A010880B586B000AF0346B9607A606C
:10580800FB73BB687B610822002178690AF05CF8A9
:105818007B69FF221A707B6911225A707B694FF0ED
:10582800FF329A704FF0FF32DA707B69002262F023
:105838007F021A7100225A717B6900229A717B6972
:105848000022DA717B695B7819461048FDF752FA35
:105858007B695B889BB219460D48FDF74BFA7B695B
:105868009B889BB219460B48FDF744FA7B699B79E4
:1058780019460948FDF73EFA7B69DB79194607485E
:10588800FDF738FA00BF1837BD4680BDE40A0108A5
:10589800000B01081C0B0108380B0108540B010808
:1058A80080B584B000AFF860B9607A600548FDF74C
:1058B80021FA7B6808221A60002318461037BD4673
:1058C80080BD00BF700B010880B586B000AF0346ED
:1058D800B9607A60FB73BB687B6108220021786934
:1058E80009F0F2FF7B69FF221A707B6901225A7066
:1058F8007B69FF229A707B690122DA707B69FF223B
:105908001A717B6934225A717B69002242F00102C4
:105918009A710022DA717B695B7819461248FDF7A3
:10592800E9F97B699B7819461048FDF7E3F97B692B
:10593800DB7819460E48FDF7DDF97B691B791946B6
:105948000C48FDF7D7F97B695B7919460A48FDF7DA
:10595800D1F97B69DB889BB219460848FDF7CAF97B
:1059680000BF1837BD4680BD8C0B0108B40B010879
:10597800DC0B0108040C01082C0C0108580C010868
:1059880080B586B000AFF860B9607A600023FB7517
:105998000023BB750F48FDF7ADF901F057F8034632
:1059A800BB75BB7D002B08D10B48FDF7A3F97B68BD
:1059B80002221A606FF00A0307E00120FEF7BEF822
:1059C8007B6801221A6097F9173018461837BD46C8
:1059D80080BD00BF800C0108B00C010880B58CB0F8
:1059E80000AFF860B9607A60002387F82B30FA6856
:1059F800BB6813447B627B6A3B623B6A5B889BB2F1
:105A0800FB610023BB610023FB750023FB62514B44
:105A18001B68002B0CBF01230023DBB2FB75FB7D49
:105A2800002B08D14C48FDF765F97B6802221A6003
:105A38006FF003038AE0FB69002B05DDFB69B3F512
:105A4800803F01DA012300E00023FB75FB7D002B7A
:105A580009D1F9694148FDF74DF97B6802221A60BE
:105A68006FF0010372E0FA6913465B001344DB0030
:105A78001A46F9693A48FDF73DF9FA6913465B0099
:105A88001344DB00184601F0C5FFB861BB69002B61
:105A980009D1F9693348FDF72DF97B6802221A60AC
:105AA8006FF0020352E0FA6913465B001344DB000F
:105AB8001A460021B86909F007FF264ABB69136036
:105AC800FB699AB2234B9A800023FB6235E0FA6A9D
