:020000040800F2
:1000000000C000201D610008513C0008593C000858
:10001000613C0008693C0008713C000800000000D9
:10002000000000000000000000000000392000086F
:10003000793C000800000000F51F0008251F00089B
:100040006D6100086D6100086D6100086D61000858
:100050006D6100086D610008873C00086D61000853
:100060006D610008A13C00086D610008AD0A000840
:100070006D6100086D6100086D6100086D61000828
:10008000BB3C0008C93C0008D73C00086D61000873
:100090006D6100086D6100086D610008E53C0008B5
:1000A0006D6100086D6100086D6100086D610008F8
:1000B0006D61000800000000000000006D61000894
:1000C0006D61000800000000000000006D61000884
:1000D000000000006D610008FF3C00080000000007
:1000E0006D6100086D610008000000000000000064
:1000F0000000000000000000000000000000000000
:100100000000000000000000000000006D61000819
:1001100000000000000000000D3D00086D610008B7
:100120006D6100086D6100086D6100086D61000877
:100130006D610008000000000000000000000000E9
:100140006D6100086D6100086D6100086D61000857
:10015000213D00082F3D00086D6100086D61000819
:100160006D6100086D6100086D610008000000000D
:100170006D6100086D6100080000000000000000D3
:0C0180006D6100086D6100086D610008F1
:10018C000348044B834202D0034B03B1184770471A
:10019C000C0000200C000020000000000548064B5D
:1001AC001B1AD90F01EBA301491002D0034B03B169
:1001BC00184770470C0000200C00002000000000C5
:1001CC0010B5064C237843B9FFF7DAFF044B13B193
:1001DC000448AFF300800123237010BD0C000020F5
:1001EC0000000000E461000808B5054B1BB105498F
:1001FC000548AFF30080BDE80840FFF7CFBF00BF54
:10020C000000000010000020E461000880B483B0FE
:10021C0000AF786039607B68403318460C37BD46B8
:10022C005DF8047B704780B483B000AF78607B6866
:10023C00DB6803F44063002B01D1012300E00023B1
:10024C0018460C37BD465DF8047B704780B483B00C
:10025C0000AF786039607B681B6B23F00F023B6842
:10026C001A437B681A6300BF0C37BD465DF8047BEC
:10027C00704780B483B000AF786039607B68DB680E
:10028C0023F003023B681A437B68DA6000BF0C372B
:10029C00BD465DF8047B704780B483B000AF7860D6
:1002AC007B68DB6C03F0C003002B01D1012300E061
:1002BC00002318460C37BD465DF8047B704780B4AC
:1002CC0083B000AF78607B689B6823F0004323F019
:1002DC003F0343F001027B689A6000BF0C37BD46B8
:1002EC005DF8047B704780B483B000AF78607B68A6
:1002FC009B6823F0004323F03F0343F002027B682A
:10030C009A6000BF0C37BD465DF8047B704780B423
:10031C0083B000AF78607B689B6803F00103012B0E
:10032C0001D1012300E0002318460C37BD465DF8CF
:10033C00047B704780B483B000AF78607B689B68A7
:10034C0023F0004323F03F0343F004027B689A60E0
:10035C0000BF0C37BD465DF8047B704780B483B09A
:10036C0000AF78607B689B6823F0004323F03F0369
:10037C0043F008027B689A6000BF0C37BD465DF8FD
:10038C00047B704780B483B000AF78607B681B68D7
:10039C0003F00803082B01D1012300E000231846C9
:1003AC000C37BD465DF8047B704780B483B000AF5A
:1003BC0078607B681B6803F01003102B01D10123BC
:1003CC0000E0002318460C37BD465DF8047B7047EF
:1003DC0080B483B000AF78607B6810221A6000BFD5
:1003EC000C37BD465DF8047B704780B483B000AF1A
:1003FC0078607B685B6843F008027B685A6000BFDA
:10040C000C37BD465DF8047B704780B483B000AFF9
:10041C0078607B685B6843F040027B685A6000BF81
:10042C000C37BD465DF8047B704780B483B000AFD9
:10043C0078607B685B6823F008027B685A6000BFB9
:10044C000C37BD465DF8047B704780B483B000AFB9
:10045C0078607B685B6823F010027B685A6000BF91
:10046C000C37BD465DF8047B704780B483B000AF99
:10047C0078607B685B6823F040027B685A6000BF41
:10048C000C37BD465DF8047B704780B483B000AF79
:10049C0078607B685B6823F080027B685A6000BFE1
:1004AC000C37BD465DF8047B704780B483B000AF59
:1004BC0078607B685B6803F01003102B01D101237B
:1004CC0000E0002318460C37BD465DF8047B7047EE
:1004DC0080B483B000AF78607B685B6803F0800306
:1004EC00802B01D1012300E0002318460C37BD46B8
:1004FC005DF8047B7047000080B485B000AF786075
:10050C0039607B68FB600C4A3B6813441B781A46C5
:10051C00FB6813441B6808493A680A441278114670
:10052C00FA680A4443F00103136000BF1437BD4658
:10053C005DF8047B704700BFFC61000880B485B097
:10054C0000AF786039607B68FB600C4A3B681344F1
:10055C001B781A46FB6813441B6808493A680A441E
:10056C0012781146FA680A4423F00103136000BFA5
:10057C001437BD465DF8047B704700BFFC61000872
:10058C0080B485B000AF786039607B68FB60084A46
:10059C003B6813441B781A46FB6813441B6803F032
:1005AC00200318461437BD465DF8047B704700BF26
:1005BC00FC61000880B487B000AFF860B9607A6065
:1005CC00FB687B610D4ABB6813441B781A467B6938
:1005DC0013445B681B0C1B040849BA680A44127864
:1005EC0011467A690A4411467A6813434B6000BF7E
:1005FC001C37BD465DF8047B704700BFFC610008EA
:10060C0080B487B000AFF860B9607A603B60FB687B
:10061C007B613B6A102B14D1174ABB6813441B78BF
:10062C001A467B6913441A467B68D360124ABB682E
:10063C0013441B781A467B6913441A463B68936033
:10064C0013E00D4ABB6813441B781A467B691344AC
:10065C001A467B689360084ABB6813441B781A4699
:10066C007B6913441A463B68D36000BF1C37BD46F8
:10067C005DF8047B704700BFFC61000880B487B054
:10068C0000AFF860B9607A60FB687B61074ABB68B1
:10069C0013441B781A467B6913441A467B68936093
:1006AC0000BF1C37BD465DF8047B7047FC61000839
:1006BC0080B483B000AF78607B681B6803F00203E2
:1006CC00022B01D1012300E0002318460C37BD4654
:1006DC005DF8047B704780B483B000AF78607B68B2
:1006EC0002225A6000BF0C37BD465DF8047B704790
:1006FC0080B485B000AF786039607B68FB600C4AD1
:10070C003B6813441B781A46FB6813441B68084962
:10071C003A680A4412781146FA680A4443F0020314
:10072C00136000BF1437BD465DF8047B704700BFF3
:10073C00FC61000880B485B000AF786039607B68DC
:10074C00FB600C4A3B6813441B781A46FB68134445
:10075C001B6808493A680A4412781146FA680A4438
:10076C0043F00803136000BF1437BD465DF8047BEB
:10077C00704700BFFC61000880B485B000AF7860A2
:10078C0039607B68FB600C4A3B6813441B781A4643
:10079C00FB6813441B6808493A680A4412781146EE
:1007AC00FA680A4423F00203136000BF1437BD46F5
:1007BC005DF8047B704700BFFC61000880B485B015
:1007CC0000AF786039607B68FB600C4A3B6813446F
:1007DC001B781A46FB6813441B6808493A680A449C
:1007EC0012781146FA680A4423F00403136000BF20
:1007FC001437BD465DF8047B704700BFFC610008F0
:10080C0080B485B000AF786039607B68FB600C4ABF
:10081C003B6813441B781A46FB6813441B68084951
:10082C003A680A4412781146FA680A4423F008031D
:10083C00136000BF1437BD465DF8047B704700BFE2
:10084C00FC61000880B485B000AF786039607B68CB
:10085C00FB600A4A3B6813441B781A46FB68134436
:10086C001B6803F00203022B01D1012300E00023DB
:10087C0018461437BD465DF8047B7047FC610008D0
:10088C0080B584B000AF78600123FB817B681B6965
:10089C001846FFF7C8FC0346002B2FD07B685B7A09
:1008AC00DBB2022B11D07B685B7ADBB2042B0CD051
:1008BC007B685B7ADBB2082B07D07B681B69184618
:1008CC00FFF760FD0346012B18D1786800F0F8F8AB
:1008DC000346002B12D17B685B7ADBB2082B03D169
:1008EC007B6801225A7202E07B6820225A727B6874
:1008FC001B691846FFF71EFD0023FB81FB89184678
:10090C001037BD4680BD80B586B002AFF860B960C7
:10091C007A603B600021F868FFF778FC03461A46C2
:10092C007968B868FFF7AAFE0021F868FFF76EFC3B
:10093C0002463B68002100917968B868FFF760FEB9
:10094C00BA697968B868FFF735FE7968B868FFF757
:10095C00CFFE7968B868FFF7EDFE7968B868FFF7E5
:10096C00CBFD00BF1037BD4680BD80B584B000AF55
:10097C00F860B9607A607968B868FFF7DFFD79686C
:10098C00B868FFF71BFF7968B868FFF739FF79681B
:10099C00B868FFF7F1FE00227968B868FFF70AFE25
:1009AC0000BF1037BD4680BD80B584B000AF786005
:1009BC0039600223FB737B68DB79012B0FD17B68D9
:1009CC00DA687B681B685B00D118FB7B7A6812685D
:1009DC0002FB03F31A46386805F0F0FB0AE07B686B
:1009EC00D968FB7B7A68126802FB03F31A463868F5
:1009FC0005F0E4FB00BF1037BD4680BD80B586B066
:100A0C0000AFF860B9607A60FB685A69FB689B7943
:100A1C0019461046FFF716FF0346DBB2012B37D100
:100A2C00FB685A69BB68104698470346012B2FD1C7
:100A3C00FB6804225A72FB685A697B681046984717
:100A4C00FB685A69FB689B7919461046FFF798FDBD
:100A5C000346002B19D1FB685A69FB689B79194630
:100A6C001046FFF76BFDFB685869FB689B791946CC
:100A7C00FB681B681A46FFF79DFDFB685A69FB680B
:100A8C009B7919461046FFF737FD0123FB7501E0F2
:100A9C000023FB75FB7D18461837BD4680BD000052
:100AAC0080B500AF034A04490448FFF7A7FF00BF15
:100ABC0080BD00BFE3060008BD060008280000202A
:100ACC0080B582B000AF78607B681B691846FFF771
:100ADC006CFC0346DBB2012B07D17B681B69184603
:100AEC00FFF776FC7B6810225A727B685B7ADBB26C
:100AFC00102B0CBF01230023DBB218460837BD4670
:100B0C0080BD80B582B000AF78600B46FB70FB787F
:100B1C00012B0DD17B681B691846FFF784FB03463C
:100B2C00012B12D07B681B691846FFF703FC0CE005
:100B3C007B681B691846FFF7AFFB0346012B04D0FB
:100B4C007B681B691846FFF709FC00BF0837BD46D8
:100B5C0080BD000090B589B002AFF8600846114620
:100B6C001A4603467B810B463B811346FB800023D0
:100B7C007B61FB681B693C4A934201D13B4B7B6117
:100B8C007B69002B6BD0FB681A697B691A617B69E6
:100B9C000022DA71FB88012B61D03B89002B47D0F6
:100BAC007B695B7ADBB2082B42D0FB68DA687B6925
:100BBC00DA60FB681A687B691A60FB685A697B69A2
:100BCC005A61FB689A797B699A71FB681A797B691F
:100BDC001A717B691B69B96A1846FFF737FB7B8969
:100BEC00012B21D07B89042B16D17B691B69032136
:100BFC001846FFF73EFB7B6918697B6959697B696D
:100C0C009B791C467B69DA687B691B6800931346E9
:100C1C002246FFF778FE07E07B89022B04D17B6923
:100C2C001B691846FFF7E1FB7B6908225A7216E034
:100C3C003B89002B13D17B699B7ADBB2082B0ED03E
:100C4C00FB685A797B695A717B89022B04D17B69C9
:100C5C001B691846FFF7D9FB7B6908229A727B69DE
:100C6C0018461C37BD4690BD0000045028000020DB
:100C7C0080B582B000AF78607B681B691846FFF7BF
:100C8C0046FB0346002B04D17B681B691846FFF713
:100C9C0016FB00BF0837BD4680BD80B586B000AFDF
:100CAC00F8600B467A607B810123FB82FB681B6931
:100CBC00002B46D07B89012B05D1F868FFF7E0FDAE
:100CCC000346FB823DE07B89042B1FD1FB681B692B
:100CDC001846FFF7A8FA0346002B32D0FB68012216
:100CEC005A72FB681B691846FFF724FB00BFFB68B0
:100CFC005B7ADBB2042BFAD17968F868FFF754FE03
:100D0C00FB6808225A720023FB821AE07B89022BB3
:100D1C0017D1FB685B7ADBB2202B09D0FB685B7ABE
:100D2C00DBB2042B04D0FB685B7ADBB2102B08D14E
:100D3C00FB6808225A727968F868FFF735FE0023C1
:100D4C00FB82FB8A18461837BD4680BD80B582B041
:100D5C0000AF78600B467B8013463B807B681B6939
:100D6C001846FFF7D4FA0346002B04D07B681B69A6
:100D7C001846FFF7B8FA7B681B691846FFF7A8FB03
:100D8C000346002B04D07B681B691846FFF77DFBDC
:100D9C007B681B691846FFF788FB0346002B04D0C1
:100DAC007B681B691846FFF750FB3B88002B38D03B
:100DBC007B88012B1AD07B88022B05D17B681B69A1
:100DCC001846FFF732FB11E07B88042B0ED17B68B1
:100DDC0018697B6859697B689B791A46FFF7C5FDD2
:100DEC007B681B6900211846FFF743FA7B680022D9
:100DFC00DA607B6800221A607B6800225A617B688B
:100E0C0000229A717B6800221A717B6840225A7208
:100E1C007B681A697B681B7919461046FFF716FA2E
:100E2C000DE07B6800225A717B6840229A727B88A5
:100E3C00022B04D17B681B691846FFF716FB00BF19
:100E4C000837BD4680BD80B485B000AF78607B6844
:100E5C001B6803F06003FB60FB68002B04D17B680C
:100E6C001B6803F01003FB60FB6818461437BD4683
:100E7C005DF8047B704780B483B000AF78607B680A
:100E8C001B6B18460C37BD465DF8047B704780B46D
:100E9C0083B000AF786039607B681A6A3B681A438C
:100EAC007B681A6200BF0C37BD465DF8047B704747
:100EBC0080B483B000AF786039607B681A6A3B6895
:100ECC00DB431A407B681A6200BF0C37BD465DF8E5
:100EDC00047B704780B483B000AF78607B685B6C38
:100EEC0043F400427B685A6400BF0C37BD465DF882
:100EFC00047B704780B483B000AF78607B68DB689C
:100F0C0043F001027B68DA6000BF0C37BD465DF828
:100F1C00047B704780B483B000AF78607B68DB687B
:100F2C0023F001027B68DA6000BF0C37BD465DF828
:100F3C00047B704780B483B000AF78607B68DB685B
:100F4C0003F00103012B01D1012300E0002318461B
:100F5C000C37BD465DF8047B704780B483B000AF9E
:100F6C0078607B68DB6843F002027B68DA6000BF64
:100F7C000C37BD465DF8047B704780B483B000AF7E
:100F8C0078607B68DB6823F002027B68DA6000BF64
:100F9C000C37BD465DF8047B704780B483B000AF5E
:100FAC0078607B68DB6803F00203022B01D101231C
:100FBC0000E0002318460C37BD465DF8047B7047F3
:100FCC0080B483B000AF78607B68DB6843F00402C8
:100FDC007B68DA6000BF0C37BD465DF8047B704758
:100FEC0080B483B000AF78607B68DB6823F00402C8
:100FFC007B68DA6000BF0C37BD465DF8047B704738
:10100C0080B483B000AF78607B68DB6803F00403C6
:10101C00042B01D1012300E0002318460C37BD46F8
:10102C005DF8047B704780B483B000AF78607B6858
:10103C00DB6843F008027B68DA6000BF0C37BD4602
:10104C005DF8047B704780B483B000AF78607B6838
:10105C00DB6823F008027B68DA6000BF0C37BD4602
:10106C005DF8047B704780B483B000AF78607B6818
:10107C00DB6803F00803082B01D1012300E00023F7
:10108C0018460C37BD465DF8047B704780B483B0BE
:10109C0000AF78607B68DB6843F010027B68DA6035
:1010AC0000BF0C37BD465DF8047B704780B483B03D
:1010BC0000AF78607B68DB6823F010027B68DA6035
:1010CC0000BF0C37BD465DF8047B704780B483B01D
:1010DC0000AF78607B68DB6803F01003102B01D144
:1010EC00012300E0002318460C37BD465DF8047B55
:1010FC00704780B483B000AF78607B68DB6843F0E6
:10110C0020027B68DA6000BF0C37BD465DF8047BBB
:10111C00704780B483B000AF78607B68DB6823F0E5
:10112C0020027B68DA6000BF0C37BD465DF8047B9B
:10113C00704780B483B000AF78607B68DB6803F0E5
:10114C002003202B01D1012300E0002318460C378B
:10115C00BD465DF8047B704780B483B000AF786007
:10116C007B68DB6843F040027B68DA6000BF0C37B9
:10117C00BD465DF8047B704780B483B000AF7860E7
:10118C007B68DB6823F040027B68DA6000BF0C37B9
:10119C00BD465DF8047B704780B483B000AF7860C7
:1011AC007B68DB6803F04003402B01D1012300E096
:1011BC00002318460C37BD465DF8047B704780B49D
:1011CC0083B000AF78607B68DB6843F080027B689B
:1011DC00DA6000BF0C37BD465DF8047B704780B405
:1011EC0083B000AF78607B68DB6823F080027B689B
:1011FC00DA6000BF0C37BD465DF8047B704780B4E5
:10120C0083B000AF78607B68DB6803F08003802BD1
:10121C0001D1012300E0002318460C37BD465DF8D0
:10122C00047B704780B582B000AF78600B467B8042
:10123C007B8803F00103002B0CD07B681B681846DD
:10124C00FFF7AAFF0346012B04D07B681B681846E6
:10125C00FFF782FF7B8803F00203002B0CD07B6826
:10126C001B681846FFF799FE0346012B04D07B68D8
:10127C001B681846FFF771FE7B8803F00403002BF4
:10128C000CD07B681B681846FFF7BAFE0346012B8F
:10129C0004D07B681B681846FFF792FE7B8803F02E
:1012AC000803002B0CD07B681B681846FFF7DBFE8D
:1012BC000346012B04D07B681B681846FFF7B3FE6E
:1012CC007B8803F01003002B0CD07B681B6818463E
:1012DC00FFF7FCFE0346012B04D07B681B68184605
:1012EC00FFF7D4FE7B8803F02003002B0CD07B6827
:1012FC001B681846FFF71EFE0346012B04D07B68C3
:10130C001B681846FFF7F6FD7B8803F04003002BA3
:10131C000CD07B681B681846FFF771FF0346012B46
:10132C0004D07B681B681846FFF749FF7B8803F0E5
:10133C008003002B0CD07B681B681846FFF7F9FE66
:10134C000346012B04D07B681B681846FFF7D1FEBF
:10135C0000BF0837BD4680BD80B582B000AF786055
:10136C000B467B807B8803F00103002B0CD07B6841
:10137C001B681846FFF710FF0346012B04D17B684E
:10138C001B681846FFF7F8FE7B8803F00203002B5E
:10139C000CD07B681B681846FFF7FFFD0346012B3A
:1013AC0004D17B681B681846FFF7E7FD7B8803F0C8
:1013BC000403002B0CD07B681B681846FFF720FE3B
:1013CC000346012B04D17B681B681846FFF708FE07
:1013DC007B8803F00803002B0CD07B681B68184635
:1013EC00FFF741FE0346012B04D17B681B681846AE
:1013FC00FFF729FE7B8803F01003002B0CD07B68D1
:10140C001B681846FFF762FE0346012B04D17B686C
:10141C001B681846FFF74AFE7B8803F02003002B5D
:10142C000CD07B681B681846FFF784FD0346012B24
:10143C0004D07B681B681846FFF76CFD7B8803F0B3
:10144C004003002B0CD07B681B681846FFF7D7FEB7
:10145C000346012B04D17B681B681846FFF7BFFEBF
:10146C007B8803F08003002B0CD07B681B6818462C
:10147C00FFF75FFE0346012B04D17B681B681846FF
:10148C00FFF747FE00BF0837BD4680BD80B582B070
:10149C0000AF78600B46FB70FB78022B06D17B68A3
:1014AC001B6801211846FFF7F2FC27E07B681B68DC
:1014BC00144A934209D07B681B68134A934204D0A8
:1014CC007B681B68114A934218D1FB78032B06D119
:1014DC007B681B6804211846FFF7D9FC0EE0FB78EB
:1014EC00042B0BD17B681B6801211846FFF7CFFC3E
:1014FC007B681B6804211846FFF7C9FC00BF08373E
:10150C00BD4680BD002C014000400140004401401C
:10151C0080B582B000AF78600B46FB70FB78022B75
:10152C0006D17B681B6801211846FFF7C1FC27E038
:10153C007B681B68144A934209D07B681B68134A6A
:10154C00934204D07B681B68114A934218D1FB78F4
:10155C00032B06D17B681B6804211846FFF7A8FCF7
:10156C000EE0FB78042B0BD17B681B68012118461D
:10157C00FFF79EFC7B681B6804211846FFF798FC5C
:10158C0000BF0837BD4680BD002C01400040014023
:10159C000044014080B584B000AF78600023FB604C
:1015AC007B681B682A4A934202D12A4BFB6006E0F7
:1015BC007B681B68284A934201D1284BFB607B68EF
:1015CC001A68FB681A60FB681B681846FFF73BFC3F
:1015DC00B860BB68002B06D0BB68102B03D0FB682F
:1015EC0001221A7102E0FB6800221A71FB681B6869
:1015FC00174A934209D0FB681B68194A934204D0DE
:10160C00FB681B68144A934204D1FB681B6818469C
:10161C00FFF760FCFB681B680D4A934209D0FB681E
:10162C001B680F4A934204D0FB681B680A4A93421A
:10163C0008D17B681B681846FFF71DFC0346DAB21D
:10164C00FB685A71FB6818461037BD4680BD00BF59
:10165C00002C01404400002000440140D000002038
:10166C000040014080B483B000AF78607B681B6899
:10167C0043F001027B681A6000BF0C37BD465DF871
:10168C00047B704780B483B000AF78607B681B68C4
:10169C0023F001027B681A6000BF0C37BD465DF871
:1016AC00047B704780B483B000AF786039607B688E
:1016BC001B6823F004023B681A437B681A6000BF66
:1016CC000C37BD465DF8047B704780B483B000AF27
:1016DC0078607B681B6803F0040318460C37BD4622
:1016EC005DF8047B704780B483B000AF78607B6892
:1016FC00DB6A18460C37BD465DF8047B704780B436
:10170C0083B000AF786039607B683A681A6300BFB9
:10171C000C37BD465DF8047B704780B483B000AFD6
:10172C00786039607B683A685A6300BF0C37BD46F5
:10173C005DF8047B704780B483B000AF78607B6841
:10174C005B6B18460C37BD465DF8047B704780B464
:10175C0083B000AF78607B685B6943F001027B6803
:10176C005A6100BF0C37BD465DF8047B704780B4EE
:10177C0083B000AF786039607B683A689A6100BFCB
:10178C000C37BD465DF8047B704780B483B000AF66
:10179C00786039607B683A689A6200BF0C37BD4646
:1017AC005DF8047B7047000080B584B000AF7860B2
:1017BC0087ED000AD7ED007AF5EEC07AF1EE10FA5B
:1017CC0003D54FF000033B600AE0D7ED007A9FEDA4
:1017DC00167AF4EEC77AF1EE10FA01DD134B3B608A
:1017EC007B681B681846FFF77EFFF8607B681B79E7
:1017FC00002B0CBF01230023DBB21A46FB681344F9
:10180C0007EE903AB8EE677AD7ED007A27EE277A92
:10181C00DFED056AC7EE267AFCEEE77A17EE903A12
:10182C0018461037BD4680BD0000C8420000C842B3
:10183C0080B582B000AF786039607B681B68184651
:10184C00FFF779FF02463B68934205D07B681B6823
:10185C0039681846FFF761FF00BF0837BD4680BDE9
:10186C0080B584B000AF786087ED000A97ED000A70
:10187C007868FFF799FFF860F9687868FFF7D8FF88
:10188C0000BF1037BD4680BD80B485B000AF786016
:10189C007B681B689A68074B1340FB60FB68062B40
:1018AC000CBF01230023DBB218461437BD465DF88C
:1018BC00047B70470700010080B584B000AF7860EE
:1018CC000B46FB707B681B681846FFF7FEFEF86042
:1018DC00FB78002B14D07B681B68284A934209D0F4
:1018EC007B681B68264A934204D07B681B68254A98
:1018FC00934205D17B681B6800211846FFF7FFFE59
:10190C00FB68042B11D07B681B6804211846FFF779
:10191C00C9FE7B681B681846FFF719FF7B681B68BC
:10192C00F9681846FFF7BEFE04E07B681B68184692
:10193C00FFF70DFF7B681B681846FFF793FEFB78DB
:10194C00002B16D07B681B680C4A934209D07B682D
:10195C001B680B4A934204D07B681B68094A93426C
:10196C0007D17B681A687B685B7919461046FFF7CC
:10197C00C6FE00BF1037BD4680BD00BF002C014025
:10198C00004001400044014080B582B000AF786057
:10199C007B681B681846FFF775FE00BF0837BD460D
:1019AC0080BD000080B58CB002AF78607B680022EF
:1019BC001A727B6801225A607B681033BB6100236A
:1019CC007B74174BFB61174B3B620023BB740023EA
:1019DC0087F82430022387F825300523FB60052384
:1019EC003B7407F10C00042300930423012204210F
:1019FC00FFF7B0F802467B68DA607B68DB68184654
:101A0C00FFF736F97B68DB6801211846FFF779F898
:101A1C007B6801221A7200BF2837BD4680BD00BF0B
:101A2C00000004500000024080B5A6B000AF786002
:101A3C00174BBB6000233B7300237B7307F1080338
:101A4C001846FFF7A7FD02467B68DA607B68DB6807
:101A5C0000211846FFF7E6FB7B68DB68022118467D
:101A6C00FFF714FD7B68DB681846FFF70DFF034694
:101A7C0087F8973097F89730002B05D17B68DB6897
:101A8C0000211846FFF718FF00BF9837BD4680BDF0
:101A9C00002C014080B5A6B000AF7860174BBB603E
:101AAC0000233B7300237B7307F108031846FFF7F1
:101ABC0071FD02467B68DA607B68DB6800211846A2
:101ACC00FFF7B0FB7B68DB6802211846FFF7DEFCF2
:101ADC007B68DB681846FFF7D7FE034687F897301C
:101AEC0097F89730002B05D17B68DB6800211846EE
:101AFC00FFF7E2FE00BF9837BD4680BD00440140B1
:101B0C0080B586B000AF324BDB683A1D0421184615
:101B1C00FFF7C3F82E4B1B6CB2EE040A1846FFF706
:101B2C009FFE4FF090437B6100217869FFF71FFE09
:101B3C004FF400617869FFF728FE254B1B6BB2EE62
:101B4C00040A1846FFF78CFE4FF090437B6100218E
:101B5C007869FFF70CFE4FF480517869FFF715FE9A
:101B6C001B4B5B6C312B05DC194B5B6C002B01DBCD
:101B7C00012300E000233B61154B5B6C622B03DD02
:101B8C00134B00225A6404E0114B5B6C0133104A76
:101B9C0053644FF090437B613B69002B14BF0123CE
:101BAC000023DBB23B613B6919467869FFF7DFFD27
:101BBC003B6903F00103002B0CBF01230023DBB2B4
:101BCC0019467869FFF7E1FD00BF1837BD4680BDA7
:101BDC005C01002080B500AF174B00225A60164BF9
:101BEC0000221A701448FFF7DDFE134B002283F815
:101BFC003420114B002283F83C200F4B01229A63B6
:101C0C000E48FFF711FF0C4B012283F83C200A4BC6
:101C1C00002283F82420084B002283F82C20064B4A
:101C2C0001229A620648FFF735FF034B012283F825
:101C3C002C2000BF80BD00BF5C0100209001002063
:101C4C008001002080B500AF2E4B1B78002B11D1EA
:101C5C002C4B01221A702B4B5B68012B0AD1294BA0
:101C6C001B7A002B06D0274BDB6801220421184677
:101C7C00FFF76CF8234B93F83430002B1DD1214B1C
:101C8C00012283F834201F4B9B6B012B15D11D4B6C
:101C9C0093F83C30002B10D01A4B1B6C1846FFF7F6
:101CAC0073FE184B1B6C00211846FFF755FB154BA8
:101CBC001B6C02211846FFF72BFC124B93F82430B7
:101CCC00002B1DD10F4B012283F824200D4B9B6A56
:101CDC00012B15D10B4B93F82C30002B10D0094B4A
:101CEC001B6B1846FFF750FE064B1B6B002118466A
:101CFC00FFF732FB034B1B6B02211846FFF708FC66
:101D0C0000BF80BD5C01002080B500AF0F4B1B787D
:101D1C005A1CD1B20D4A1170002B09D00C4B012268
:101D2C001A600A4B1B78013BDAB2084B1A700BE0B5
:101D3C0062B600BFFFF7E4FE72B600BF034B1B7820
:101D4C00013BDAB2014B1A7080BD00BFAC01002020
:101D5C00A801002080B584B000AF78603960314BA9
:101D6C00FB604FF08443BB602F4B00221A702F4B4B
:101D7C0000221A7001DF02F0ADFF01F051F901F001
:101D8C00B5F901F04BFE01F0EFFD01F0E5FA01F0C1
:101D9C0095FB01F0CDFC01F01FFD01F0BDF901F048
:101DAC003DFC234B1B6800221A60FFF713FF72B631
:101DBC0000BF97ED030A00F0BFF81D4B1B681B68B2
:101DCC00002B0CBF01230023DBB21A46174B1A70F1
:101DDC0062B600BF62B600BF15E0154B1B681B68EE
:101DEC00002B14BF01230023DBB21A460E4B1A70D2
:101DFC000D4B1B78DBB2002B05D00E4B1B680D4A2C
:101E0C0023F001031360094B1B78DBB2002BE4D1E8
:101E1C00FFF718FF72B600BF002318461037BD46F7
:101E2C0080BD00BF0AD7A33CAD010020AE0100204D
:101E3C000462000810E000E080B483B000AF0346F9
:101E4C003960FB7197F90730002B0ADB3B68DAB27B
:101E5C000C4997F907301201D2B20B4483F80023D6
:101E6C000AE03B68DAB20849FB7903F00F03043B44
:101E7C001201D2B20B441A7600BF0C37BD465DF886
:101E8C00047B704700E100E000ED00E080B582B01B
:101E9C0000AF78607B68013BB3F1807F01D30123F5
:101EAC000FE00A4A7B68013B53600F214FF0FF3073
:101EBC00FFF7C2FF054B00229A60044B07221A6001
:101ECC00002318460837BD4680BD00BF10E000E077
:101EDC0080B500AFBFF34F8F00BFBFF36F8F00BF54
:101EEC000B4B1A680B4B1B689A4202D3084B00220F
:101EFC001A60074B1B685A1C05490A60002B05D158
:101F0C0072B600BFFFF700FF62B600BF00BF80BD16
:101F1C00B0010020B401002080B400AF054B5B6819
:101F2C00044A43F08053536000BFBD465DF8047B08
:101F3C00704700BF00ED00E080B584B000AF87EDC6
:101F4C00010A234B1B6807EE903AB8EE677AD7ED7F
:101F5C00017A67EE277AFCEEE77A17EE903AFB608F
:101F6C00FB68B3F1807F18D3FB6807EE903AB8EEAC
:101F7C00677ADFED186AC7EE267AFCEEE77A17EE81
:101F8C00903A0133144A1360134B1B68FA68B2FB86
:101F9C00F3F31846FFF77AFF05E00F4B00221A60A7
:101FAC00F868FFF773FF0D4B00221A600C4A0D4BBB
:101FBC001A600F216FF00400FFF73EFF0F216FF046
:101FCC000100FFF739FF00BF1037BD4680BD00BFD1
:101FDC0008000020FFFF7F4BB4010020B00100205F
:101FEC00DD1E0008B8010020EFF3008001B5EFF30F
:101FFC00118003B41EF0100F08BFB0EE400A0A485F
:10200C00006803B488B004A006904FF0807007906D
:10201C006FF006008646704703BC8047BFF36F8F96
:10202C0000DFFEE700BF0000B80100201EF0100F1B
:10203C0008BFB0EE400A1EF0040F0CBFEFF308808F
:10204C00EFF30980816911F8020C10B101280DD051
:10205C000BE01EF0100F0CBF1AB008B003BC80F3DD
:10206C00118803BC80F300880847FEE74EF6145134
:10207C00CEF200010A6842F001020A607047F4E7F0
:10208C0000BF00BF80B400AF044BDB681B0A03F039
:10209C0007031846BD465DF8047B704700ED00E071
:1020AC0080B483B000AF0346FB7197F90730002B67
:1020BC000BDBFB7903F01F02074997F907305B092B
:1020CC00012000FA02F241F8232000BF0C37BD4674
:1020DC005DF8047B704700BF00E100E080B483B082
:1020EC0000AF03463960FB7197F90730002B0ADB10
:1020FC003B68DAB20C4997F907301201D2B20B44A3
:10210C0083F800230AE03B68DAB20849FB7903F054
:10211C000F03043B1201D2B20B441A7600BF0C37EA
:10212C00BD465DF8047B704700E100E000ED00E087
:10213C0080B489B000AFF860B9607A60FB6803F0D6
:10214C000703FB61FB69C3F10703042B28BF0423BE
:10215C00BB61FB690433062B02D9FB69033B00E02E
:10216C0000237B614FF0FF32BB6902FA03F3DA43C1
:10217C00BB681A407B699A404FF0FF317B6901FACA
:10218C0003F3D9437B680B40134318462437BD46F1
:10219C005DF8047B704780B483B000AF7860396021
:1021AC007B689B6823F0E0723B681A437B689A60FB
:1021BC0000BF0C37BD465DF8047B704780B487B018
:1021CC0000AFF860B9607A60FB6830331A46BB68C0
:1021DC001B0A9B0003F00C0313447B617B691A6898
:1021EC00BB6803F01F031F2101FA03F3DB431A4002
:1021FC007B689B0E03F01F01BB6803F01F0301FA01
:10220C0003F31A437B691A6000BF1C37BD465DF8A7
:10221C00047B704780B487B000AFF860B9607A6017
:10222C00FB6814331A46BB685B0E9B0003F0040377
:10223C0013447B617B691A68BB681B0D03F01F0399
:10224C00072101FA03F3DB431A40BB681B0D03F0B3
:10225C001F03796801FA03F31A437B691A6000BF04
:10226C001C37BD465DF8047B7047000080B485B018
:10227C0000AFF860B9607A60FB68D3F8B020BB6837
:10228C00C3F31203DB431A407B6803F018030849BD
:10229C00D940BB680B40C3F312031A43FB68C3F865
:1022AC00B02000BF1437BD465DF8047B704700BFFB
:1022BC00FFFF070080B483B000AF786039607B68A3
:1022CC001B6923F4806323F003033A681A437B6889
:1022DC001A6100BF0C37BD465DF8047B704780B4B3
:1022EC0083B000AF78607B689B6823F0204323F0B9
:1022FC003F037A68936000BF0C37BD465DF8047BE2
:10230C00704780B483B000AF78607B689B6823F023
:10231C00104323F03F0343F080527B689A6000BF68
:10232C000C37BD465DF8047B7047000080B487B065
:10233C0000AFF860B9607A60FB687B610E4ABB68DD
:10234C0013441B781A467B6913441B6823F480439F
:10235C0023F010030849BA680A44127811467A69C6
:10236C000A4411467A6813430B6000BF1C37BD4604
:10237C005DF8047B704700BF0862000880B487B02A
:10238C0000AFF860B9607A60FB687B610D4ABB688E
:10239C0013441B781A467B6913441B6823F02002F4
:1023AC000849BB680B441B7819467B690B441946DA
:1023BC007B6813430B6000BF1C37BD465DF8047B84
:1023CC00704700BF0862000880B487B000AFF860A7
:1023DC00B9607A60FB687B610D4ABB6813441B785B
:1023EC001A467B6913441B6823F040020849BB68FA
:1023FC000B441B7819467B690B4419467B681343C5
:10240C000B6000BF1C37BD465DF8047B704700BFF6
:10241C000862000880B487B000AFF860B9607A60D9
:10242C00FB687B610D4ABB6813441B781A467B69B9
:10243C0013441B6823F080020849BB680B441B78CB
:10244C0019467B690B4419467B6813430B6000BF2C
:10245C001C37BD465DF8047B704700BF086200085E
:10246C0080B487B000AFF860B9607A60FB687B61BC
:10247C000D4ABB6813441B781A467B6913441B68CE
:10248C0023F440720849BB680B441B7819467B69DE
:10249C000B4419467B6813430B6000BF1C37BD46C9
:1024AC005DF8047B704700BF0862000880B487B0F9
:1024BC0000AFF860B9607A60FB687B610D4ABB685D
:1024CC0013441B781A467B6913441B6823F440623F
:1024DC000849BB680B441B7819467B690B441946A9
:1024EC007B6813430B6000BF1C37BD465DF8047B53
:1024FC00704700BF0862000880B487B000AFF86076
:10250C00B9607A60FB687B610D4ABB6813441B7829
:10251C001A467B6913441B6823F440520849BB6874
:10252C000B441B7819467B690B4419467B68134393
:10253C000B6000BF1C37BD465DF8047B704700BFC5
:10254C000862000880B489B000AFF860B9607A60A6
:10255C00FB68A8331A68BB689B000F2101FA03F3D0
:10256C00DB431A40BB689B000F2101FA03F3BB61EC
:10257C00BB6993FAA3F37B617B69FB61FB69002B5D
:10258C0001D1202303E0FB69B3FA83F3DBB21946D4
:10259C007B688B40F968A83113430B6000BF24376C
:1025AC00BD465DF8047B704780B483B000AF7860A3
:1025BC007B681B6823F400327B681A6000BF0C3701
:1025CC00BD465DF8047B704780B483B000AF786083
:1025DC007B681B6823F400227B681A6000BF0C37F1
:1025EC00BD465DF8047B704780B485B000AFF860E1
:1025FC00B9607A60FB68DB6823F4FF6323F00603A1
:10260C00B9687A680A431A43FB68DA6000BF14376A
:10261C00BD465DF8047B704780B483B000AF786032
:10262C007B68DB6823F400427B68DA6000BF0C3700
:10263C00BD465DF8047B704780B483B000AF786012
:10264C007B685B6843F000727B685A6000BF0C3794
:10265C00BD465DF8047B704780B400AF064BD3F8E1
:10266C009030054A43F00103C2F8903000BFBD46DC
:10267C005DF8047B704700BF0010024080B483B04B
:10268C0000AF7860074BD3F8903023F0180205495F
:10269C007B681343C1F8903000BF0C37BD465DF822
:1026AC00047B70470010024080B400AF074BD3F896
:1026BC00903003F00203022B01D1012300E0002330
:1026CC001846BD465DF8047B704700BF0010024001
:1026DC0080B400AF054B1B68044A43F00103136040
:1026EC0000BFBD465DF8047B704700BF0010024080
:1026FC0080B400AF064B1B6803F00203022B01D120
:10270C00012300E000231846BD465DF8047B7047AA
:10271C000010024080B400AF054B1B68044A43F024
:10272C000403136000BFBD465DF8047B704700BF17
:10273C000010024080B400AF054B1B68044A43F004
:10274C000803136000BFBD465DF8047B704700BFF3
:10275C000010024080B483B000AF7860064B1B6859
:10276C0023F0F00204497B6813430B6000BF0C3765
:10277C00BD465DF8047B70470010024080B483B006
:10278C0000AF7860074B5B6823F47F427B681B02C9
:10279C00044913434B6000BF0C37BD465DF8047B06
:1027AC00704700BF0010024080B483B000AF786067
:1027BC00064B9B6823F0030204497B6813438B6030
:1027CC0000BF0C37BD465DF8047B7047001002401B
:1027DC0080B400AF044B9B6803F00C031846BD4655
:1027EC005DF8047B704700BF0010024080B483B0DA
:1027FC0000AF7860064B9B6823F0F00204497B68BD
:10280C0013438B6000BF0C37BD465DF8047B7047EB
:10281C000010024080B483B000AF7860064B9B6818
:10282C0023F4E06204497B6813438B6000BF0C37D0
:10283C00BD465DF8047B70470010024080B483B045
:10284C0000AF7860064B9B6823F4605204497B68A8
:10285C0013438B6000BF0C37BD465DF8047B70479B
:10286C000010024080B483B000AF7860094BD3F8FD
:10287C0088207B681B0CDB431A407B689BB20549A4
:10288C001343C1F8883000BF0C37BD465DF8047B9C
:10289C00704700BF0010024080B485B000AF786074
:1028AC007B681A0E0F4B1344FB60FB681A687B683D
:1028BC001B0C03F01F03032101FA03F3DB431A4043
:1028CC007B68D9B27B681B0C03F01F0301FA03F37E
:1028DC001A43FB681A6000BF1437BD465DF8047BD1
:1028EC00704700BF8810024080B483B000AF78609E
:1028FC00074BD3F8883023F0405205497B681343CB
:10290C00C1F8883000BF0C37BD465DF8047B7047BA
:10291C000010024080B400AF054B1B68044A43F022
:10292C008073136000BFBD465DF8047B704700BF29
:10293C000010024080B400AF074B1B6803F000731B
:10294C00B3F1007F01D1012300E000231846BD46FE
:10295C005DF8047B704700BF0010024080B485B066
:10296C0000AFF860B9607A603B600A4BDA680A4BDA
:10297C001340F968BA6811437A68120211433A6835
:10298C000A4304491343CB6000BF1437BD465DF8BE
:10299C00047B7047001002408C80FFF980B400AFBC
:1029AC00054BDB68044A43F08073D36000BFBD461F
:1029BC005DF8047B704700BF0010024080B400AF8C
:1029CC00054B1B68044A43F08063136000BFBD468F
:1029DC005DF8047B704700BF0010024080B400AF6C
:1029EC00074B1B6803F00063B3F1006F01D10123A7
:1029FC0000E000231846BD465DF8047B704700BF1D
:102A0C000010024080B485B000AFF860B9607A6005
:102A1C003B600E4BDB6823F07302F968BB680B4319
:102A2C000A491343CB60094B1B6923F0C06323F4A1
:102A3C00FE437A6811023A680A43044913430B6156
:102A4C0000BF1437BD465DF8047B70470010024090
:102A5C0080B400AF054B1B69044A43F080731361CB
:102A6C0000BFBD465DF8047B704700BF00100240FC
:102A7C0080B485B000AF7860084B9A6C07497B68CE
:102A8C0013438B64054B9A6C7B681340FB60FB68AB
:102A9C0000BF1437BD465DF8047B70470010024040
:102AAC0080B485B000AF7860084BDA6C07497B685E
:102ABC001343CB64054BDA6C7B681340FB60FB68FB
:102ACC0000BF1437BD465DF8047B70470010024010
:102ADC0080B485B000AF7860084B9A6D07497B686D
:102AEC0013438B65054B9A6D7B681340FB60FB6849
:102AFC0000BF1437BD465DF8047B704700100240E0
:102B0C0080B485B000AF7860084B1A6E07497B68BB
:102B1C0013430B66054B1A6E7B681340FB60FB6816
:102B2C0000BF1437BD465DF8047B704700100240AF
:102B3C0080B487B000AF78603960174A3B68DBB26D
:102B4C00023352F823203B681B0CDB4302EA0301DF
:102B5C003B681B0C3B613B6993FAA3F3FB60FB687E
:102B6C007B617B69002B01D1202303E07B69B3FAE5
:102B7C0083F3DBB21A467B6803FA02F206483B6821
:102B8C00DBB20A43023340F8232000BF1C37BD469A
:102B9C005DF8047B704700BF0000014080B483B037
:102BAC0000AF7860064B1B6823F0070204497B6872
:102BBC0013430B6000BF0C37BD465DF8047B7047B8
:102BCC000020024080B400AF044B1B6803F00703E5
:102BDC001846BD465DF8047B704700BF00200240DC
:102BEC0080B483B000AF7860064B1B6823F4C062DE
:102BFC0004497B6813430B6000BF0C37BD465DF87E
:102C0C00047B70470070004080B400AF054B1B681C
:102C1C00044A43F48073136000BFBD465DF8047B27
:102C2C00704700BF0070004080B400AF074B5B6979
:102C3C0003F48063B3F5806F01D1012300E000231E
:102C4C001846BD465DF8047B704700BF007000401D
:102C5C0080B483B000AF78607B681B6823F080027F
:102C6C007B681A6000BF0C37BD465DF8047B70476B
:102C7C0080B485B000AF786039603B68012B28D0F8
:102C8C003B68042B23D03B68102B1ED03B68402B99
:102C9C0019D03B68B3F5807F13D03B68B3F5806FD8
:102CAC000DD03B68B3F5805F07D03B68B3F5803F30
:102CBC0001D107230EE008230CE006230AE00523CC
:102CCC0008E0042306E0032304E0022302E00123CE
:102CDC0000E00023FB737B6818331946FB7B0B4A1F
:102CEC00D35C0B44BB60BB681A68FB7B0849CB5CAC
:102CFC00194604238B40DB431A40BB681A6000BFA3
:102D0C001437BD465DF8047B704700BF10620008A5
:102D1C001C62000880B485B000AF786039603B68F5
:102D2C00012B28D03B68042B23D03B68102B1ED0E2
:102D3C003B68402B19D03B68B3F5807F13D03B68C0
:102D4C00B3F5806F0DD03B68B3F5805F07D03B685F
:102D5C00B3F5803F01D107230EE008230CE00623D6
:102D6C000AE0052308E0042306E0032304E0022321
:102D7C0002E0012300E00023FB737B681833194643
:102D8C00FB7B0A4AD35C0B44BB60BB681A68FB7BB9
:102D9C000749CB5C194608238B401A43BB681A6061
:102DAC0000BF1437BD465DF8047B70471062000805
:102DBC001C62000880B483B000AF78607B689B68AD
:102DCC0023F480427B689A6000BF0C37BD465DF8E7
:102DDC00047B704780B483B000AF786039607B6847
:102DEC009B6823F4A03323F007033A681A437B68EB
:102DFC009A6000BF0C37BD465DF8047B704780B409
:102E0C0083B000AF786039607B685B6823F0700238
:102E1C003B681A437B685A6000BF0C37BD465DF8AF
:102E2C00047B704780B483B000AF786039607B68F6
:102E3C005B6823F470023B681A437B685A6000BFDE
:102E4C000C37BD465DF8047B704780B483B000AF8F
:102E5C0078607B689B6823F080027B689A6000BF77
:102E6C000C37BD465DF8047B704780B485B000AF6D
:102E7C00F860B9607A603B60FB689B6823F43F4262
:102E8C00B9687B6819433B680B431A43FB689A602B
:102E9C0000BF1437BD465DF8047B704780B483B027
:102EAC0000AF786039607B689B6823F008023B6850
:102EBC001A437B689A6000BF0C37BD465DF8047BF3
:102ECC00704780B483B000AF78607B681B6843F0B8
:102EDC0001027B681A6000BF0C37BD465DF8047BAD
:102EEC00704780B483B000AF78607B685B6823F474
:102EFC0090427B685A607B689B6823F02A027B684F
:102F0C009A6000BF0C37BD465DF8047B704780B4F7
:102F1C008BB000AFF860B9607A60FB681A68BB6868
:102F2C007B617B6993FAA3F33B613B69BB61BB6932
:102F3C00002B01D1202303E0BB69B3FA83F3DBB28E
:102F4C005B00032101FA03F3DB431A40BB683B62CD
:102F5C003B6A93FAA3F3FB61FB697B627B6A002BF0
:102F6C0001D1202303E07B6AB3FA83F3DBB25B006D
:102F7C00796801FA03F31A43FB681A6000BF2C3717
:102F8C00BD465DF8047B704780B48BB000AFF86031
:102F9C00B9607A60FB68DA68BB687B617B6993FA1D
:102FAC00A3F33B613B69BB61BB69002B01D12023BF
:102FBC0003E0BB69B3FA83F3DBB25B00032101FAD4
:102FCC0003F3DB431A40BB683B623B6A93FAA3F3FF
:102FDC00FB61FB697B627B6A002B01D1202303E040
:102FEC007B6AB3FA83F3DBB25B00796801FA03F313
:102FFC001A43FB68DA6000BF2C37BD465DF8047BD2
:10300C00704780B483B000AF786039607B683A68F1
:10301C009A6200BF0C37BD465DF8047B7047000018
:10302C0080B500AF0120FFF7B9FD00BFFFF7CAFD67
:10303C000346012BFAD14FF40070FFF7D1FD00BF0E
:10304C00FFF7F2FD0346002BFAD1FFF741FB00BF5F
:10305C00FFF74EFB0346012BFAD1FFF76BFB602009
:10306C00FFF778FB0020FFF789FBFFF7CDFD002071
:10307C00FFF704FBFFF7F0FA00BFFFF715FB034661
:10308C00012BFAD1FFF746FB00231022002101206F
:10309C00FFF764FCFFF782FCFFF73CFC00BFFFF777
:1030AC0049FC0346012BFAD10320FFF77DFB00BF3F
:1030BC00FFF78EFB03460C2BFAD10020FFF796FB93
:1030CC000020FFF7A7FB0020FFF7B8FB064800F035
:1030DC00CDFE0F2000F050FE0346002B01D000F077
:1030EC0085FD00BF80BD00BF0048E80180B500AF82
:1030FC000023102200210120FFF784FCFFF7A8FC1D
:10310C00FFF75CFC00BFFFF769FC0346012BFAD10B
:10311C0000BF00BF80BD000080B592B000AF07F1CA
:10312C00380300221A605A609A6007F120030022CB
:10313C001A605A609A60DA601A615A610023FB6166
:10314C003B1D00221A605A609A60DA601A615A615B
:10315C004FF08050FFF7C8FB4FF40050FFF7A0FC76
:10316C000120FFF79DFCBA237B600323BB60002387
:10317C007B613B1D19464FF0904001F076FC00221C
:10318C0000216A48FFF7DEF9002200216748FFF7AB
:10319C00CDF8002200216548FFF7AEF9202200216E
:1031AC006248FFF7EBF8002200216048FFF70CF9AA
:1031BC00802200215D48FFF72DF94FF48072002129
:1031CC005A48FFF74DF94FF4806200215748FFF73A
:1031DC006DF9FEF757FF0346002200211846FEF753
:1031EC00A7FF034619461220FEF778FF1220FEF7C0
:1031FC0057FF0023BB630023FB6300233B6407F1F1
:10320C00380319464A4801F0F5FC00233B620423BD
:10321C007B620023BB620023FB6203233B6300231E
:10322C007B6307F120031946414801F009FD002199
:10323C003F48FFF73FF80023FB6107F11C031946D9
:10324C003C4801F0B9FC00213A48FEF7A4FF38488D
:10325C00FFF745F83648FFF754F8374B1B689B09C6
:10326C00364AA2FB03239A0913469B0013449B0086
:10327C001A46334BA3FB0223DB087B6402E07B6C16
:10328C00013B7B647B6C002BF9D12E4A062128482C
:10329C00FEF794FF00222B492548FEF7BBFF7F2247
:1032AC0028492348FEF7E2FF274A0C212048FEF765
:1032BC0085FF002224491E48FEF7ACFF7F222249DD
:1032CC001B48FEF7D3FF214A12211948FEF776FF5F
:1032DC0000221E491648FEF79DFF7F221B49144809
:1032EC00FEF7C4FF1A4A18211148FEF767FF0022A7
:1032FC0017490F48FEF78EFF7F2215490C48FEF741
:10330C00B5FF144A4FF480710948FEF757FF0022AD
:10331C0010490748FEF77EFF7F220E490448FEF74E
:10332C00A5FF00BF4837BD4680BD00BF000002406E
:10333C00000004500003045008000020632D3E05DB
:10334C00CDCCCCCC40002019000180210002B0254E
:10335C000004002A0010603280B58EB000AF07F177
:10336C001C0300221A605A609A60DA601A615A6172
:10337C009A613B1D00221A605A609A60DA601A61E9
:10338C005A614FF44020FFF787FA0220FFF788FBC1
:10339C00C0237B600223BB600323FB6001233B61E2
:1033AC0000237B610423BB613B1D19463F4801F0A0
:1033BC005CFB4FF40010FFF78BFB052205213C480A
:1033CC00FFF7C0F8002205213948FEF7AFFF0022B5
:1033DC0005213748FFF790F8202205213448FEF7E5
:1033EC00CDFF002205213248FEF7EEFF8022052199
:1033FC002F48FFF70FF8002205212D48FFF730F872
:10340C00002205212A48FFF751F8052206212848F9
:10341C00FFF798F8102206212548FEF787FF0022B7
:10342C0006212348FFF768F8202206212048FEF7E2
:10343C00A5FF002206211E48FEF7C6FF80220621AA
:10344C001B48FEF7E7FF002206211948FFF708F892
:10345C00002206211648FFF729F81648FFF7ECF86A
:10346C001448FFF7D9F81348FFF7AEF81148FFF7E7
:10347C009BF80023FB61104B3B6200237B62002313
:10348C00BB620023FB6200233B6300237B6307F1D9
:10349C001C031946074801F022FE002200210548B2
:1034AC00FFF7A2F800BF3837BD4680BD00040048C6
:1034BC000004024000540040B47CB00080B59EB0C3
:1034CC0000AF07F1640300221A605A609A60DA6058
:1034DC001A6107F1440320220021184602F041FE34
:1034EC0007F11C0328220021184602F03AFE3B1D6E
:1034FC0000221A605A609A60DA601A615A614FF4BD
:10350C000060FFF7FDFA0023A7F864300023BB66C8
:10351C004FF6FF73FB6600233B6700237B6707F1C5
:10352C00640319463C4801F0A7FE3B48FFF790FBAB
:10353C0000213948FFF74EFC01213748FFF7EAFB21
:10354C0060237B640023BB640023FB6400233B6586
:10355C0000237B650023BB650023FB6500233B66D2
:10356C0007F144031A4601212B4801F0E3FE012127
:10357C002948FFF77DFB00212748FFF78FFC2648E1
:10358C00FFF718FC0023002200212348FFF76DFCF5
:10359C0000212148FFF733FC00211F48FFF742FCB4
:1035AC001D48FFF752FC0023FB6100233B62002304
:1035BC007B62002387F8283000237B854FF400536F
:1035CC00FB6200233B6300237B634FF00073BB6300
:1035DC000023FB6300233B6407F11C0319460E48D0
:1035EC0001F008FF0120FFF75BFA4FF480737B605A
:1035FC000223BB600023FB6000233B6100237B6143
:10360C000123BB613B1D19464FF0904001F02DFA90
:10361C0000BF7837BD4680BD002C014080B59EB000
:10362C0000AF07F1640300221A605A609A60DA60F6
:10363C001A6107F1440320220021184602F091FD83
:10364C0007F11C0328220021184602F08AFD3B1DBD
:10365C0000221A605A609A60DA601A615A614FF45B
:10366C000030FFF74DFA0023A7F864300023BB6647
:10367C004FF6FF73FB6600233B6700237B6707F164
:10368C0064031946294801F0F7FD2848FFF7E0FAD2
:10369C0001212648FFF73EFB60237B640023BB64BB
:1036AC000023FB6400233B6500237B650023BB6583
:1036BC000023FB6500233B6607F144031A460121F6
:1036CC001A4801F037FE01211848FFF7D1FA002300
:1036DC00FB6100233B6200237B62002387F82830C8
:1036EC0000237B854FF40053FB6200233B6407F1FE
:1036FC001C0319460D4801F07DFE0120FFF7D0F99F
:10370C0040237B600223BB600023FB6000233B61F2
:10371C0000237B610E23BB613B1D19464FF090408B
:10372C0001F0A3F900BF7837BD4680BD00440140CD
:10373C0080B58EB000AF07F11C0300221A605A60EE
:10374C009A60DA601A615A619A613B1D00221A6014
:10375C005A609A60DA601A615A614FF44030FFF790
:10376C0081F84FF48040FFF7CBF90120FFF798F96F
:10377C004FF4C0637B600223BB600323FB60002318
:10378C003B6100237B610723BB613B1D19464FF056
:10379C00904001F06AF94FF4E133FB6100233B6286
:1037AC0000237B620023BB620C23FB6200233B6380
:1037BC0000237B6307F11C031946064802F06EF9DF
:1037CC000448FFF78EFB0348FFF77BFB00BF38373D
:1037DC00BD4680BD0038014080B58EB000AF07F10A
:1037EC001C0300221A605A609A60DA601A615A61EE
:1037FC009A613B1D00221A605A609A60DA601A6165
:10380C005A614FF44020FFF72DF84FF40030FFF7CA
:10381C005FF90120FFF744F904237B600223BB60AE
:10382C000323FB6000233B6100237B610723BB6107
:10383C003B1D19464FF0904001F017F94FF400432F
:10384C007B600223BB600323FB6000233B610023EE
:10385C007B610323BB613B1D19464FF0904001F087
:10386C0004F9022205213E48FEF76CFE00220521D8
:10387C003B48FEF75BFD002205213948FEF73CFE74
:10388C00002205213648FEF779FD00220521344837
:10389C00FEF79AFD802205213148FEF7BBFD002280
:1038AC0005212F48FEF7DCFD002205212C48FEF7F0
:1038BC00FDFD022206212A48FEF744FE10220621B5
:1038CC002748FEF733FD002206212548FEF714FE9B
:1038DC00002206212248FEF751FD00220621204835
:1038EC00FEF772FD802206211D48FEF793FD002293
:1038FC0006211B48FEF7B4FD002206211848FEF7EE
:10390C00D5FDFEF7BFFB0346002200211846FEF74B
:10391C000FFC034619462620FEF7E0FB2620FEF797
:10392C00BFFB4FF4E133FB6100233B6200237B625E
:10393C000023BB620C23FB6200233B6300237B63ED
:10394C0007F11C031946074802F0A8F80548FFF7D1
:10395C00C8FA0448FFF7B5FA00BF3837BD4680BD3A
:10396C00000002400044004080B500AF0120FFF78A
:10397C007FF80220FFF77CF8FEF784FB0346002259
:10398C0000211846FEF7D4FB034619460B20FEF720
:10399C00A5FB0B20FEF784FBFEF774FB034600220D
:1039AC0000211846FEF7C4FB034619461020FEF70B
:1039BC0095FB1020FEF774FBFEF764FB0346002218
:1039CC0000211846FEF7B4FB034619461120FEF7FA
:1039DC0085FB1120FEF764FBFEF754FB0346002227
:1039EC0000211846FEF7A4FB034619464420FEF7B7
:1039FC0075FB4420FEF754FBFEF744FB0346002204
:103A0C0000211846FEF794FB034619464520FEF7A5
:103A1C0065FB4520FEF744FB00BF80BD80B58AB036
:103A2C0000AF07F11C0300221A605A609A603B1D1C
:103A3C0000221A605A609A60DA601A615A61042096
:103A4C00FFF72EF80120FFF72BF80220FFF728F8DC
:103A5C0041F601014FF09040FFF7D3FA41F6010314
:103A6C007B600123BB600023FB6000233B610023D0
:103A7C007B613B1D19464FF0904000F0F6FF12237E
:103A8C007B600023BB6000237B613B1D19464C48C7
:103A9C0000F0EBFF4FF470210120FFF749F84FF0D5
:103AAC0070410120FFF744F846490120FFF740F828
:103ABC000123FB6100233B62012387F824300023A0
:103ACC0087F82530032387F8263007F11C031846A6
:103ADC0000F00CFB0823FB6100233B62012387F8F9
:103AEC002430002387F82530032387F8263007F18C
:103AFC001C03184600F0FAFA2023FB6100233B62FA
:103B0C00012387F82430002387F82530022387F817
:103B1C00263007F11C03184600F0E8FA00220121B8
:103B2C002748FFF731FA002208212548FFF72CFA25
:103B3C00002220212248FFF727FA002201212048E9
:103B4C00FFF7E5F9002208211D48FFF7E0F90022F4
:103B5C0020211B48FFF7DBF9FEF794FA03460022FD
:103B6C0000211846FEF7E4FA034619460620FEF734
:103B7C00B5FA0620FEF794FAFEF784FA0346002203
:103B8C0000211846FEF7D4FA034619460920FEF721
:103B9C00A5FA0920FEF784FAFEF774FA0346002210
:103BAC0000211846FEF7C4FA034619461720FEF703
:103BBC0095FA1720FEF774FA00BF2837BD4680BD72
:103BCC00000400480100F00080B582B000AF7860BE
:103BDC007B681B68044A934201D101F093F800BF43
:103BEC000837BD4680BD00BF0010004080B400AF58
:103BFC0072B600BF00BFFDE780B483B000AF786041
:103C0C00074B5A697B6813407A689A4201D10123A9
:103C1C0000E0002318460C37BD465DF8047B704766
:103C2C000004014080B483B000AF7860044A7B6824
:103C3C00536100BF0C37BD465DF8047B704700BF75
:103C4C000004014080B400AF00BFFDE780B400AFBA
:103C5C0000BFFDE780B400AF00BFFDE780B400AF4C
:103C6C0000BFFDE780B400AF00BFFDE780B400AF3C
:103C7C0000BFBD465DF8047B704780B500AF0120E6
:103C8C00FFF7BAFF0346002B02D00120FFF7CAFF53
:103C9C0000BF80BD80B500AF0820FFF7ADFF034625
:103CAC00002B02D00820FFF7BDFF00BF80BD80B401
:103CBC0000AF00BFBD465DF8047B704780B400AF19
:103CCC0000BFBD465DF8047B704780B400AF00BFF9
:103CDC00BD465DF8047B704780B500AF2020FFF730
:103CEC008BFF0346002B02D02020FFF79BFF00BF69
:103CFC0080BD80B400AF00BFBD465DF8047B70474B
:103D0C0080B500AF024800F09BFB00BF80BD00BF38
:103D1C00BC01002080B400AF00BFBD465DF8047B41
:103D2C00704780B400AF00BFBD465DF8047B7047A0
:103D3C0080B483B000AF0F4B1B6E0E4A43F00103EF
:103D4C0013660C4B1B6E03F001037B607B68094B05
:103D5C009B6D084A43F080539365064B9B6D03F0B3
:103D6C0080533B603B6800BF0C37BD465DF8047B5D
:103D7C00704700BF0010024080B58EB000AF786075
:103D8C00002387F83330344B9B6D334A43F01003D8
:103D9C009365314B9B6D03F01003FB60FB6807F1DF
:103DAC00100207F114031146184600F0E1FF3B6ABC
:103DBC00FB62FB6A002B03D100F0C4FF786304E0C4
:103DCC0000F0C0FF03465B007B637B6B234AA2FBC6
:103DDC0003239B0C013BBB62214B224A1A60204BF4
:103DEC0040F2E732DA601E4ABB6A53601C4B002279
:103DFC001A611B4B00229A60194B00229A611848D9
:103E0C0000F068FA034687F8333097F83330002B0C
:103E1C001BD1134800F0C0FA034687F8333097F8EB
:103E2C003330002B11D1362001F0A8F87B680F2B12
:103E3C0008D800227968362001F084F80A4A7B6899
:103E4C00136002E0012387F8333097F833301846BB
:103E5C003837BD4680BD00BF0010024083DE1B43D7
:103E6C00BC010020001000400000002080B483B092
:103E7C0000AF7860044A7B68136000BF0C37BD4606
:103E8C005DF8047B704700BF0800002080B483B04D
:103E9C0000AF7860054B1A6804497B6813430B60CC
:103EAC0000BF0C37BD465DF8047B70470004014031
:103EBC0080B483B000AF7860054B1A6A04497B6804
:103ECC0013430B6200BF0C37BD465DF8047B704793
:103EDC000004014080B483B000AF7860064B1A68D0
:103EEC007B68DB43044913400B6000BF0C37BD46B5
:103EFC005DF8047B704700BF0004014080B483B0C0
:103F0C0000AF7860064B1A6A7B68DB4304491340A8
:103F1C000B6200BF0C37BD465DF8047B704700BFD9
:103F2C000004014080B483B000AF7860054B5A6840
:103F3C0004497B6813434B6000BF0C37BD465DF8EA
:103F4C00047B70470004014080B483B000AF7860FC
:103F5C00054B5A6A04497B6813434B6200BF0C370C
:103F6C00BD465DF8047B70470004014080B483B00B
:103F7C0000AF7860064B5A687B68DB4304491340FA
:103F8C004B6000BF0C37BD465DF8047B704700BF2B
:103F9C000004014080B483B000AF7860064B5A6ACD
:103FAC007B68DB43044913404B6200BF0C37BD46B2
:103FBC005DF8047B704700BF0004014080B483B0FF
:103FCC0000AF7860054B9A6804497B6813438B609B
:103FDC0000BF0C37BD465DF8047B70470004014000
:103FEC0080B483B000AF7860054B9A6A04497B6853
:103FFC0013438B6200BF0C37BD465DF8047B7047E2
:10400C000004014080B483B000AF7860064B9A681E
:10401C007B68DB43044913408B6000BF0C37BD4603
:10402C005DF8047B704700BF0004014080B483B08E
:10403C0000AF7860064B9A6A7B68DB4304491340F7
:10404C008B6200BF0C37BD465DF8047B704700BF28
:10405C000004014080B483B000AF7860054BDA688F
:10406C0004497B681343CB6000BF0C37BD465DF839
:10407C00047B70470004014080B483B000AF7860CB
:10408C00054BDA6A04497B681343CB6200BF0C37DB
:10409C00BD465DF8047B70470004014080B483B0DA
:1040AC0000AF7860064BDA687B68DB430449134049
:1040BC00CB6000BF0C37BD465DF8047B704700BF7A
:1040CC000004014080B483B000AF7860064BDA6A1C
:1040DC007B68DB4304491340CB6200BF0C37BD4601
:1040EC005DF8047B704700BF0004014080B584B0CC
:1040FC0000AF78600023FB607B681B7A002B00F01C
:10410C00D0807B681B68002B63D07B685B7A022BAA
:10411C001CD0022B25DC002B02D0012B0BD020E075
:10412C007B681B681846FFF721FF7B681B681846E5
:10413C00FFF7ACFE18E07B681B681846FFF7CAFE59
:10414C007B681B681846FFF7EDFE0DE07B681B686B
:10415C001846FFF79BFE7B681B681846FFF7E2FECC
:10416C0002E00123FB6000BF7B689B7A002B30D000
:10417C007B689B7A032B1CD0032B25DC012B02D0F4
:10418C00022B0BD020E07B681B681846FFF786FFDC
:10419C007B681B681846FFF711FF1AE07B681B68E9
:1041AC001846FFF72FFF7B681B681846FFF752FF76
:1041BC000FE07B681B681846FFF700FF7B681B68E5
:1041CC001846FFF747FF04E0FB6843F00203FB606F
:1041DC0000BF7B685B68002B77D07B685B7A022B17
:1041EC001CD0022B25DC002B02D0012B0BD020E0A5
:1041FC007B685B681846FFF7CDFE7B685B681846EA
:10420C00FFF756FE1AE07B685B681846FFF776FEF0
:10421C007B685B681846FFF797FE0FE07B685B686E
:10422C001846FFF745FE7B685B681846FFF78CFE67
:10423C0004E0FB6843F00403FB6000BF7B689B7ADF
:10424C00002B42D07B689B7A032B1CD0032B25DCE4
:10425C00012B02D0022B0BD020E07B685B68184648
:10426C00FFF730FF7B685B681846FFF7B9FE2CE060
:10427C007B685B681846FFF7D9FE7B685B6818465D
:10428C00FFF7FAFE21E07B685B681846FFF7A8FE93
:10429C007B685B681846FFF7EFFE16E00123FB60B6
:1042AC0013E07B681B681846FFF714FE7B681B68DD
:1042BC001846FFF75BFE7B685B681846FFF71EFE2F
:1042CC007B685B681846FFF765FEFB68184610377D
:1042DC00BD4680BD80B582B000AF78607B68002B96
:1042EC0001D1012349E07B6893F83D30DBB2002B10
:1042FC0006D17B68002283F83C20786800F041F8F6
:10430C007B68022283F83D207B681A687B68043343
:10431C001946104600F0DCF97B68012283F848202E
:10432C007B68012283F83E207B68012283F83F20C2
:10433C007B68012283F840207B68012283F84120AE
:10434C007B68012283F842207B68012283F843209A
:10435C007B68012283F844207B68012283F8452086
:10436C007B68012283F846207B68012283F8472072
:10437C007B68012283F83D20002318460837BD4690
:10438C0080BD80B483B000AF786000BF0C37BD46F1
:10439C005DF8047B7047000080B485B000AF786096
:1043AC007B6893F83D30DBB2012B01D001233BE05D
:1043BC007B68022283F83D207B681B68DA687B6887
:1043CC001B6842F00102DA607B681B68194A934251
:1043DC0009D07B681B68B3F1804F04D07B681B68E5
:1043EC00154A934215D17B681B689A68134B13408E
:1043FC00FB60FB68062B15D0FB68B3F5803F11D032
:10440C007B681B681A687B681B6842F001021A60A3
:10441C0008E07B681B681A687B681B6842F0010225
:10442C001A6000E000BF002318461437BD465DF843
:10443C00047B7047002C0140004001400700010044
:10444C0080B582B000AF78607B681B681B6903F095
:10445C000203022B22D17B681B68DB6803F002038A
:10446C00022B1BD17B681B686FF002021A617B6800
:10447C0001221A777B681B689B6903F00303002BEE
:10448C0003D0786800F005F905E0786800F0F7F8DB
:10449C00786800F008F97B6800221A777B681B6843
:1044AC001B6903F00403042B22D17B681B68DB68B7
:1044BC0003F00403042B1BD17B681B686FF0040210
:1044CC001A617B6802221A777B681B689B6903F46C
:1044DC004073002B03D0786800F0DBF805E07868B7
:1044EC0000F0CDF8786800F0DEF87B6800221A77CF
:1044FC007B681B681B6903F00803082B22D17B68BF
:10450C001B68DB6803F00803082B1BD17B681B6856
:10451C006FF008021A617B6804221A777B681B68AB
:10452C00DB6903F00303002B03D0786800F0B1F8CB
:10453C0005E0786800F0A3F8786800F0B4F87B68C0
:10454C0000221A777B681B681B6903F01003102B81
:10455C0022D17B681B68DB6803F01003102B1BD186
:10456C007B681B686FF010021A617B6808221A774F
:10457C007B681B68DB6903F44073002B03D07868FD
:10458C0000F087F805E0786800F079F8786800F0BA
:10459C008AF87B6800221A777B681B681B6903F01A
:1045AC000103012B0ED17B681B68DB6803F0010350
:1045BC00012B07D17B681B686FF001021A617868C8
:1045CC00FFF702FB7B681B681B6903F08003802BE1
:1045DC000ED17B681B68DB6803F08003802B07D14E
:1045EC007B681B686FF080021A61786800F0DEF857
:1045FC007B681B681B6903F48073B3F5807F0ED155
:10460C007B681B68DB6803F08003802B07D17B6819
:10461C001B686FF480721A61786800F0D1F87B68BF
:10462C001B681B6903F04003402B0ED17B681B6891
:10463C00DB6803F04003402B07D17B681B686FF0ED
:10464C0040021A61786800F038F87B681B681B69B7
:10465C0003F02003202B0ED17B681B68DB6803F072
:10466C002003202B07D17B681B686FF020021A6196
:10467C00786800F091F800BF0837BD4680BD80B463
:10468C0083B000AF786000BF0C37BD465DF8047B8B
:10469C00704780B483B000AF786000BF0C37BD4664
:1046AC005DF8047B704780B483B000AF786000BFC6
:1046BC000C37BD465DF8047B704780B483B000AF07
:1046CC00786000BF0C37BD465DF8047B7047000076
:1046DC0080B485B000AF786039607B681B68FB6084
:1046EC007B682A4A934203D07B68B3F1804F08D190
:1046FC00FB6823F07003FB603B685B68FA6813434C
:10470C00FB607B68214A93420BD07B68B3F1804FEE
:10471C0007D07B681E4A934203D07B681D4A9342A4
:10472C0008D1FB6823F44073FB603B68DB68FA68D4
:10473C001343FB60FB6823F080023B685B69134307
:10474C00FB607B68FA681A603B689A687B68DA627F
:10475C003B681A687B689A627B680C4A934207D064
:10476C007B680B4A934203D07B680A4A934203D17D
:10477C003B681A697B681A637B6801225A6100BF27
:10478C001437BD465DF8047B704700BF002C014018
:10479C00004001400044014080B483B000AF786019
:1047AC0000BF0C37BD465DF8047B704780B483B006
:1047BC0000AF786000BF0C37BD465DF8047B7047D6
:1047CC0080B483B000AF786000BF0C37BD465DF895
:1047DC00047B704780B48BB000AFF860B9607A602E
:1047EC00FB681A68BB687B617B6993FAA3F33B6136
:1047FC003B69BB61BB69002B01D1202303E0BB6982
:10480C00B3FA83F3DBB25B00032101FA03F3DB435E
:10481C001A40BB683B623B6A93FAA3F3FB61FB69EA
:10482C007B627B6A002B01D1202303E07B6AB3FA05
:10483C0083F3DBB25B00796801FA03F31A43FB687C
:10484C001A6000BF2C37BD465DF8047B704780B4FE
:10485C0085B000AFF860B9607A60FB685A68BB68D5
:10486C00DB431A40BB68796801FB03F31A43FB680E
:10487C005A6000BF1437BD465DF8047B704780B4A6
:10488C008BB000AFF860B9607A60FB689A68BB685F
:10489C007B617B6993FAA3F33B613B69BB61BB69A9
:1048AC00002B01D1202303E0BB69B3FA83F3DBB205
:1048BC005B00032101FA03F3DB431A40BB683B6244
:1048CC003B6A93FAA3F3FB61FB697B627B6A002B67
:1048DC0001D1202303E07B6AB3FA83F3DBB25B00E4
:1048EC00796801FA03F31A43FB689A6000BF2C370E
:1048FC00BD465DF8047B704780B48BB000AFF860A8
:10490C00B9607A60FB68DA68BB687B617B6993FA93
:10491C00A3F33B613B69BB61BB69002B01D1202335
:10492C0003E0BB69B3FA83F3DBB25B00032101FA4A
:10493C0003F3DB431A40BB683B623B6A93FAA3F375
:10494C00FB61FB697B627B6A002B01D1202303E0B6
:10495C007B6AB3FA83F3DBB25B00796801FA03F389
:10496C001A43FB68DA6000BF2C37BD465DF8047B48
:10497C00704780B48BB000AFF860B9607A60FB68A8
:10498C001A6ABB687B617B6993FAA3F33B613B6951
:10499C00BB61BB69002B01D1202303E0BB69B3FAD7
:1049AC0083F3DBB29B000F2101FA03F3DB431A40C4
:1049BC00BB683B623B6A93FAA3F3FB61FB697B62C6
:1049CC007B6A002B01D1202303E07B6AB3FA83F3CB
:1049DC00DBB29B00796801FA03F31A43FB681A6295
:1049EC0000BF2C37BD465DF8047B704780B48BB09C
:1049FC0000AFF860B9607A60FB685A6ABB681B0A42
:104A0C007B617B6993FAA3F33B613B69BB61BB6937
:104A1C00002B01D1202303E0BB69B3FA83F3DBB293
:104A2C009B000F2101FA03F3DB431A40BB681B0AFE
:104A3C003B623B6A93FAA3F3FB61FB697B627B6A83
:104A4C00002B01D1202303E07B6AB3FA83F3DBB2A2
:104A5C009B00796801FA03F31A43FB685A6200BFA2
:104A6C002C37BD465DF8047B704780B588B000AF2D
:104A7C00786039603B681B683B613B6993FAA3F330
:104A8C00FB60FB687B617B69002B01D1202303E079
:104A9C007B69B3FA83F3DBB2FB6148E03B681A68CD
:104AAC000121FB6901FA03F31340BB61BB69002BC5
:104ABC003AD03B685B68012B03D03B685B68022BE8
:104ACC000ED13B689B681A46B9697868FFF7D7FE28
:104ADC003B6819683B68DB681A467868FFF7B7FED5
:104AEC003B681B691A46B9697868FFF705FF3B6894
:104AFC005B68022B11D1BB69FF2B07D83B685B6944
:104B0C001A46B9697868FFF734FF06E03B685B69C1
:104B1C001A46B9697868FFF769FF3B685B681A4603
:104B2C00B9697868FFF756FEFB690133FB613B6896
:104B3C001A68FB6922FA03F3002BAFD10023184645
:104B4C002037BD4680BD80B483B000AF786039603B
:104B5C007B689B6823F47C123B681A437B689A60E1
:104B6C0000BF0C37BD465DF8047B704780B483B042
:104B7C0000AF786039607B681B6B23F00F023B68D9
:104B8C001A437B681A6300BF0C37BD465DF8047B83
:104B9C00704780B483B000AF78607B689B6803F08B
:104BAC000103012B01D1012300E0002318460C372F
:104BBC00BD465DF8047B704780B584B000AF78606B
:104BCC0039600023FB730A48FFF7E3FF0346002B11
:104BDC0006D13B681B6819467868FFF7B4FF01E003
:104BEC000123FB73FB7B18461037BD4680BD00BF0D
:104BFC000000045080B584B000AF786039600023A9
:104C0C00FB737868FFF7C5FF0346002B11D17B6857
:104C1C00DB6823F4804323F038033A6811683A6860
:104C2C00526811433A6892680A431A437B68DA6007
:104C3C0001E00123FB73FB7B18461037BD4680BD9A
:104C4C0080B584B000AF786039600023FB7378685E
:104C5C00FFF79FFF0346002B32D13B685B68002BAC
:104C6C0015D07B68DA681A4B13403A6811683A68B9
:104C7C00926811433A68D26811433A681269114339
:104C8C003A6852690A431A437B68DA6011E07B6820
:104C9C00DA680F4B13403A6811683A68D2681143CE
:104CAC003A68126911433A6852690A431A437B689D
:104CBC00DA603B685B6819467868FFF757FF01E0DC
:104CCC000123FB73FB7B18461037BD4680BD00BF2C
:104CDC003CC0F0FF80B582B000AF0023FB71032015
:104CEC0000F025F90F20FFF747F80346002B02D000
:104CFC000123FB7101E0FFF71BF8FB79184608371D
:104D0C00BD4680BD80B400AF064B1B781A46064BDF
:104D1C001B681344044A136000BFBD465DF8047B56
:104D2C00704700BF040000200802002080B400AFD0
:104D3C00034B1B681846BD465DF8047B704700BFEB
:104D4C000800002080B500AFFFF7F0FF0246064BCD
:104D5C009B681B0A03F007030449CB5C03F01F0399
:104D6C0022FA03F3184680BD001002403862000896
:104D7C0080B483B000AF786039607B680F221A6012
:104D8C00124B9B6803F003027B685A600F4B9B68C5
:104D9C0003F0F0027B689A600C4B9B6803F4E062B2
:104DAC007B68DA60094B9B68DB0803F4E0627B6884
:104DBC001A61074B1B6803F007023B681A6000BFBF
:104DCC000C37BD465DF8047B704700BF00100240F5
:104DDC000020024080B485B000AF78607B6803F09F
:104DEC000703FB600C4BDB68BB60BA684FF6FF0334
:104DFC001340BB60FB681A02BB68134343F0BF63EC
:104E0C0043F40033BB60044ABB68D36000BF143763
:104E1C00BD465DF8047B704700ED00E080B400AF48
:104E2C00044BDB681B0A03F007031846BD465DF80C
:104E3C00047B704700ED00E080B483B000AF034604
:104E4C00FB7197F90730002B0BDBFB7903F01F028A
:104E5C00074997F907305B09012000FA02F241F883
:104E6C00232000BF0C37BD465DF8047B704700BFA4
:104E7C0000E100E080B483B000AF03463960FB7101
:104E8C0097F90730002B0ADB3B68DAB20C4997F92B
:104E9C0007301201D2B20B4483F800230AE03B68BE
:104EAC00DAB20849FB7903F00F03043B1201D2B2CA
:104EBC000B441A7600BF0C37BD465DF8047B704777
:104ECC0000E100E000ED00E080B489B000AFF860D4
:104EDC00B9607A60FB6803F00703FB61FB69C3F1FF
:104EEC000703042B28BF0423BB61FB690433062B87
:104EFC0002D9FB69033B00E000237B614FF0FF32DA
:104F0C00BB6902FA03F3DA43BB681A407B699A4027
:104F1C004FF0FF317B6901FA03F3D9437B680B40F7
:104F2C00134318462437BD465DF8047B704780B5A3
:104F3C0082B000AF78607868FFF74CFF00BF08378D
:104F4C00BD4680BD80B586B000AF0346B9607A60BF
:104F5C00FB7300237B61FFF761FF78617A68B968A6
:104F6C007869FFF7B1FF024697F90F3011461846E2
:104F7C00FFF780FF00BF1837BD4680BD80B582B0FB
:104F8C0000AF0346FB7197F907301846FFF754FF43
:104F9C0000BF0837BD4680BD80B483B000AF7860D9
:104FAC007B681B6843F001027B681A6000BF0C37FA
:104FBC00BD465DF8047B704780B483B000AF786069
:104FCC007B681B6823F001027B681A6000BF0C37FA
:104FDC00BD465DF8047B704780B485B000AFF860C7
:104FEC00B9607A60FB681B6823F4F8527B6819027D
:104FFC00BB680B431A43FB681A6000BF1437BD46ED
:10500C005DF8047B704780B485B000AFF860B96080
:10501C007A60FB689B6823F4FF6323F00703B9688D
:10502C007A680A431A43FB689A6000BF1437BD467E
:10503C005DF8047B704780B483B000AF78607B6808
:10504C009B6843F400427B689A6000BF0C37BD46F6
:10505C005DF8047B704780B483B000AF78607B68E8
:10506C009B6823F400427B689A6000BF0C37BD46F6
:10507C005DF8047B704780B483B000AF7860396012
:10508C007B683A681A6100BF0C37BD465DF8047B3B
:10509C00704780B483B000AF786039607B681B6860
:1050AC0023F440123B681A437B681A6000BF0C372C
:1050BC00BD465DF8047B704780B483B000AF786068
:1050CC0039607B685B6823F400423B681A437B6859
:1050DC005A6000BF0C37BD465DF8047B704780B545
:1050EC0082B000AF786039607868FFF765FF3B6885
:1050FC0099683B68DB681A467868FFF76DFF3B6878
:10510C005B6819467868FFF7B6FF7868FFF744FFCD
:10511C007868FFF7A0FF3B6819693B689B691A46E2
:10512C007868FFF770FF3B681B69002B02D078682A
:10513C00FFF781FF3B681B6819467868FFF7A9FFEA
:10514C003B685B6919467868FFF7B6FF0023184681
:10515C000837BD4680BD80B483B000AF786039603D
:10516C007B683A689A6200BF0C37BD465DF8047BD9
:10517C00704780B483B000AF786039607B683A6860
:10518C00DA6200BF0C37BD465DF8047B704780B413
:10519C0083B000AF786039607B683A681A6300BFEF
:1051AC000C37BD465DF8047B704780B483B000AF0C
:1051BC00786039607B683A685A6300BF0C37BD462B
:1051CC005DF8047B704780B483B000AF78603960C1
:1051DC007B683A689A6300BF0C37BD465DF8047B68
:1051EC00704780B483B000AF786039607B683A68F0
:1051FC00DA6300BF0C37BD465DF8047B704780B4A2
:10520C0083B000AF786039607B683A681A6400BF7D
:10521C000C37BD465DF8047B704780B483B000AF9B
:10522C00786039607B689B6D7B683A689A6500BFD3
:10523C000C37BD465DF8047B704780B483B000AF7B
:10524C00786039607B683A68DA6500BF0C37BD4618
:10525C005DF8047B704780B483B000AF78607B68E6
:10526C005B6943F001027B685A6100BF0C37BD4695
:10527C005DF8047B7047000080B584B000AF7860A7
:10528C0039607B681B68FB607B68274A934203D0BC
:10529C007B68B3F1804F06D1FB6823F070023B684A
:1052AC005B681343FB607B681F4A93420BD07B689F
:1052BC00B3F1804F07D07B681C4A934203D07B68C4
:1052CC001B4A934206D1FB6823F440723B68DB68AF
:1052DC001343FB607B68FA681A603B689B6819464D
:1052EC007868FFF746FF3B681B8819467868FFF71C
:1052FC0032FF7B680C4A934207D07B680B4A93427F
:10530C0003D07B680A4A934205D13B681B69194656
:10531C007868FFF73CFF7868FFF79DFF002318467D
:10532C001037BD4680BD00BF002C0140004001403D
:10533C000044014080B586B000AFF860B9607A6077
:10534C000123FB75BB68B3F5801F45D0BB68B3F573
:10535C00801F48D8BB68B3F5803F36D0BB68B3F527
:10536C00803F40D8BB68B3F5805F27D0BB68B3F5EE
:10537C00805F38D8BB68B3F5807F18D0BB68B3F5B5
:10538C00807F30D8BB68012B03D0BB68102B07D0B3
:10539C0029E07968F86800F09DF80346FB7523E076
:1053AC007968F86800F00AF90346FB751CE0796827
:1053BC00F86800F07BF90346FB7515E07968F8682E
:1053CC0000F0ECF90346FB750EE07968F86800F024
:1053DC0045FA0346FB7507E07968F86800F096FA21
:1053EC000346FB7500E000BFFB7D18461837BD4631
:1053FC0080BD000080B485B000AF786039600023B8
:10540C00FB60FB6823F0FF033A68127B1343FB60DD
:10541C00FB6823F440723B689B681343FB60FB689A
:10542C0023F480623B685B681343FB60FB6823F4E6
:10543C0000623B681B681343FB60FB6823F48053DA
:10544C003A68D2891343FB60FB6823F400523B6833
:10545C001B691343FB60FB6823F480423B685B6A67
:10546C001343FB60FB6823F400423B685B6A134305
:10547C00FB607B68164A934206D1FB6823F47022CA
:10548C003B685B691343FB607B68114A934214D100
:10549C00FB6823F470023B681B6A1343FB60FB68D8
:1054AC0023F080723B689B691343FB60FB6823F01D
:1054BC0000723B68DB691343FB607B68FA685A64D3
:1054CC00002318461437BD465DF8047B704700BFB7
:1054DC00002C014080B586B000AF786039607B68E5
:1054EC001B6A23F001027B681A627B681B6A7B6172
:1054FC007B685B683B617B689B69FB60FB6823F0A6
:10550C000303FB60FB6823F4803323F070033A68D9
:10551C0012681343FB607B6923F002023B681B6932
:10552C0013437B617B6923F001023B685B68134387
:10553C007B617B681E4A934207D07B681D4A93426D
:10554C0003D07B681C4A93421ED17B6923F008026E
:10555C003B685B699B0013437B617B6923F004020E
:10556C003B689B689B0013437B613B6923F480720F
:10557C003B689B6913433B613B6923F400723B68B6
:10558C00DB695B0013433B617B683A695A607B685B
:10559C00FA689A613B68DB6819467868FFF705FE84
:1055AC007B687A691A62002318461837BD4680BD9D
:1055BC00002C0140004001400044014080B586B001
:1055CC0000AF786039607B681B6A23F010027B683F
:1055DC001A627B681B6A7B617B685B683B617B68DA
:1055EC009B69FB60FB6823F44073FB60FB6823F052
:1055FC00807323F4E0433A68126812021343FB6091
:10560C007B6923F020023B681B691B0113437B6100
:10561C007B6923F010023B685B681B0113437B61C1
:10562C007B681F4A934207D07B681E4A934203D083
:10563C007B681D4A93421FD17B6923F080023B6833
:10564C005B699B0113437B617B6923F040023B68E0
:10565C009B689B0113437B613B6923F480623B682D
:10566C009B699B0013433B613B6923F400623B68DD
:10567C00DB69DB0013433B617B683A695A607B68EA
:10568C00FA689A613B68DB6819467868FFF79BFDFE
:10569C007B687A691A62002318461837BD4680BDAC
:1056AC00002C0140004001400044014080B586B010
:1056BC0000AF786039607B681B6A23F480727B686A
:1056CC001A627B681B6A7B617B685B683B617B68E9
:1056DC00DB69FB60FB6823F00303FB60FB6823F4CE
:1056EC00803323F070033A6812681343FB607B69C4
:1056FC0023F400723B681B691B0213437B617B69BB
:10570C0023F480723B685B681B0213437B617B68EC
:10571C001F4A934207D07B681E4A934203D07B6892
:10572C001D4A93421FD17B6923F400623B685B697D
:10573C009B0213437B617B6923F480623B689B680B
:10574C009B0213437B613B6923F480523B689B694A
:10575C001B0113433B613B6923F400523B68DB693B
:10576C005B0113433B617B683A695A607B68FA685A
:10577C00DA613B68DB6819467868FFF732FD7B68B5
:10578C007A691A62002318461837BD4680BD00BFDF
:10579C00002C0140004001400044014080B586B01F
:1057AC0000AF786039607B681B6A23F480527B6899
:1057BC001A627B681B6A3B617B685B687B617B68F8
:1057CC00DB69FB60FB6823F44073FB60FB6823F030
:1057DC00807323F4E0433A68126812021343FB60AF
:1057EC003B6923F400523B681B691B0313433B6169
:1057FC003B6923F480523B685B681B0313433B619A
:10580C007B68134A934207D07B68124A934203D0B9
:10581C007B68114A934207D17B6923F480423B6831
:10582C009B699B0113437B617B687A695A607B6837
:10583C00FA68DA613B68DB6819467868FFF7DFFCC9
:10584C007B683A691A62002318461837BD4680BD3A
:10585C00002C0140004001400044014080B584B060
:10586C0000AF786039607B681B6A23F480327B68F8
:10587C001A627B681B6AFB607B685B6DBB60BB68F4
:10588C0023F4803323F070033A6812681343BB602F
:10589C00FB6823F400323B681B691B041343FB6059
:1058AC00FB6823F480323B685B681B041343FB608A
:1058BC007B68134A934207D07B68124A934203D009
:1058CC007B68114A934209D17B685B6823F4803270
:1058DC003B689B691B021A437B685A607B68BA68F9
:1058EC005A653B68DB6819467868FFF796FC7B685D
:1058FC00FA681A62002318461037BD4680BD00BFF7
:10590C00002C0140004001400044014080B584B0AF
:10591C0000AF786039607B681B6A23F480127B6867
:10592C001A627B681B6AFB607B685B6DBB60BB6843
:10593C0023F0807323F4E0433A6812681202134395
:10594C00BB60FB6823F400123B681B691B05134307
:10595C00FB60FB6823F480123B685B681B051343F8
:10596C00FB607B68124A934207D07B68114A9342D2
:10597C0003D07B68104A934209D17B685B6823F49F
:10598C0080223B689B699B021A437B685A607B6848
:10599C00BA685A653B68DB6819467868FFF74DFCB6
:1059AC007B68FA681A62002318461037BD4680BD22
:1059BC00002C0140004001400044014080B483B001
:1059CC0000AF78607B681B6803F00103012B01D1E9
:1059DC00012300E0002318460C37BD465DF8047B1C
:1059EC00704780B483B000AF786039607B685B68C7
:1059FC0023F440523B681A437B685A6000BF0C3753
:105A0C00BD465DF8047B704780B483B000AF78600E
:105A1C0039607B689B6823F440723B681A437B684F
:105A2C009A6000BF0C37BD465DF8047B704780B4AC
:105A3C0087B000AFF860B9607A603B607B68B3F503
:105A4C00004F1AD1BB685A003B685B081A443B688C
:105A5C00B2FBF3F39BB27B617A694FF6F0731340A0
:105A6C003B617B695B089BB203F007033A69134304
:105A7C003B61FB683A69DA600AE03B685A08BB682C
:105A8C001A443B68B2FBF3F39BB21A46FB68DA602C
:105A9C0000BF1C37BD465DF8047B704780B584B0F1
:105AAC0000AF786039600123FB730023BB6078681A
:105ABC00FFF784FF0346002B3FD17B681A68214B0C
:105ACC0013403A6851683A68D26811433A681269CF
